:100000000C946E000C94AD020C9486020C94960035
:100010000C9496000C9496000C9496000C94960008
:100020000C9496000C9496000C9496000C949600F8
:100030000C9496000C9496000C9496000C949600E8
:100040000C943C110C9496000C948B050C94650553
:100050000C9496000C9496000C9496000C949600C8
:100060000C9496000C94960055051E0409042C046B
:1000700026042204C503F503C1096E09C109DB0981
:100080000D0A1C0A220A270A410A00000008000281
:100090000100000304070000000000000000000051
:1000A0000000250028002B0000000000240027008D
:1000B0002A000404040404040404020202020202EA
:1000C000030303030303010204081020408001021C
:1000D00004081020010204081020861111241FBEFC
:1000E000CFEFD8E0DEBFCDBF13E0A0E0B1E0E4E6A3
:1000F000FDE302C005900D92A634B107D9F726E0C2
:10010000A6E4B3E001C01D92A038B207E1F710E009
:10011000CEE6D0E004C02197FE010E944317CD3601
:10012000D107C9F70E9437120C94B01E0C9400003E
:100130000895CF92DF92EF92FF920F931F93CF9388
:10014000DF936C017A018B01C0E0D0E0CE15DF05B2
:1001500089F0D8016D918D01D601ED91FC9101904E
:10016000F081E02DC6010995892B11F47E0102C0B2
:100170002196ECCFC701DF91CF911F910F91FF9096
:10018000EF90DF90CF900895FC01918D828D9817AC
:1001900061F0828DDF01A80FB11D5D968C91928D6B
:1001A0009F5F9F73928F90E008958FEF9FEF089568
:1001B000FC01918D828D981731F0828DE80FF11D31
:1001C000858D90E008958FEF9FEF0895FC01918D4C
:1001D000228D892F90E0805C9F4F821B91098F7345
:1001E0009927089586E593E00E94E60021E0892B97
:1001F00009F420E0822F0895FC01848DDF01A80F0F
:10020000B11DA35ABF4F2C91848D90E001968F733E
:100210009927848FA689B7892C93A089B1898C915D
:1002200080648C93938D848D981306C00288F38923
:10023000E02D80818F7D80830895EF92FF920F9350
:100240001F93CF93DF93EC0181E0888F9B8D8C8D82
:10025000981305C0E889F989808185FD24C0F62EB0
:100260000B8D10E00F5F1F4F0F731127E02E8C8D49
:10027000E8120CC00FB607FCFACFE889F989808133
:1002800085FFF5CFCE010E94FC00F1CF8B8DFE01E2
:10029000E80FF11DE35AFF4FF0820B8FEA89FB89CB
:1002A0008081806207C0EE89FF896083E889F989CF
:1002B00080818064808381E090E0DF91CF911F9105
:1002C0000F91FF90EF900895CF93DF93EC01888D0D
:1002D0008823C9F0EA89FB89808185FD05C0A8894A
:1002E000B9898C9186FD0FC00FB607FCF5CF8081D0
:1002F00085FFF2CFA889B9898C9185FFEDCFCE011A
:100300000E94FC00E7CFDF91CF910895FC01E653F6
:10031000FF4F20813181620F731F693C710538F4F2
:100320002E5F3F4F71836083820F931F089580E09B
:1003300090E00895DB01109749F0ED91FC91119741
:100340000190F081E02DBC01CD01099480E090E0A6
:100350000895813051F0E8F0823061F0833079F413
:100360006FE672E183E89AE308956DEC7CEC8CEC27
:100370009DE308956AE077ED83E29CE3089584505D
:100380000E94A90127E137EB41ED58E30E94261DA9
:10039000089560E070E080E89FE30895CF93DF93D5
:1003A000EC0188819981DC01ED91FC910190F08153
:1003B000E02D09952A813B81820F931F9B838A83BD
:1003C000DF91CF9108950F931F93CF93DF93EC01AB
:1003D00088819981009729F02A813B812617370768
:1003E00088F48B016F5F7F4F0E94A919009761F01D
:1003F000998388831B830A832C813D81232B11F4ED
:10040000FC01108281E001C080E0DF91CF911F915B
:100410000F9108950F931F93CF93DF930BE316E093
:10042000C3ECD5E00E94120E837081F10E94120E7F
:1004300080FF06C081E60E947D0E40E061E007C0BB
:1004400081FF08C081E70E947D0E40E062E08CE2FF
:100450000E94FF0EA8EBB5E0FE018091B70590E089
:100460009F012C1B3D0B281739071CF48D9181939C
:10047000F4CF8091B3059091B405F80181939193E5
:100480008F012896F6E0CB30DF0761F6DF91CF9140
:100490001F910F910895CF93DF93FC01808191818B
:1004A0008330910534F48130910554F4892B19F18E
:1004B0001BC00697CCF4628173818481958123C02F
:1004C000C281D3812097B9F0BE018BE291E00E94F6
:1004D000811A892BA1F04AE050E060E070E0CE0183
:1004E000DF91CF910C94A21B6281738184819581ED
:1004F0000E94431808C060E070E0CB0104C061E0D6
:1005000070E080E090E0DF91CF9108951F920F920C
:100510000FB60F9211242F933F934F935F936F93D6
:100520007F938F939F93AF93BF93EF93FF93E0914C
:100530000201F09103010995FF91EF91BF91AF91F5
:100540009F918F917F916F915F914F913F912F91EB
:100550000F900FBE0F901F9018951F920F920FB61D
:100560000F9211242F933F934F935F936F937F9339
:100570008F939F93AF93BF93EF93FF93E09100010D
:10058000F09101010995FF91EF91BF91AF919F917A
:100590008F917F916F915F914F913F912F910F902C
:1005A0000FBE0F901F9018956115710579F0FB0132
:1005B00001900020E9F73197AF01461B570BDC0192
:1005C000ED91FC910280F381E02D099480E090E0B0
:1005D00008950C94D402CF93DF93EC018881998124
:1005E0000E94D4022A813B81820F931F9B838A83BE
:1005F000DF91CF9108958F929F92AF92BF92EF9229
:10060000FF920F931F93CF93DF93CDB7DEB766971B
:100610000FB6F894DEBF0FBECDBF7C011E8A8E01DF
:100620000A5E1F4F8AE0882E912CA12CB12CCB01A1
:10063000BA01A50194010E943D1E942F852F605D93
:10064000F80162938F01A901692F782F4115510597
:100650006105710561F7BF01C7010E94EB02669653
:100660000FB6F894DEBF0FBECDBFDF91CF911F91C3
:100670000F91FF90EF90BF90AF909F908F90089553
:10068000FF920F931F93CF93DF936115710549F488
:100690006FE371E0DF91CF911F910F91FF900C9468
:1006A000EB028B01EC0162E2CE010E94CE01F80167
:1006B00061918F01662351F0E0E3F1E0F080FF20CB
:1006C00099F39181961759F03296F8CF62E2CE01F4
:1006D000DF91CF911F910F91FF900C94CE016CE5AB
:1006E000CE010E94CE016F2DDFCF0F931F93CF93CA
:1006F000DF938C01EB016BE7CE010E94CE01F80184
:100700000281138101151105A9F0F801628173813D
:10071000CE010E9440036AE3CE010E94CE01BE01D9
:10072000C80104960E94A703F801008111810115F8
:10073000110541F46DE7CE01DF91CF911F910F912B
:100740000C94CE016CE2CE010E94CE01DBCF4F9221
:100750005F926F927F929F92AF92BF92CF92DF9201
:10076000EF92FF920F931F93CF93DF938C01EB01D6
:10077000FC01A080B180F8E0AF16B10408F07BC0A6
:10078000F501EC5CFF4F0C944317FC0102811381CF
:100790006BE5CE010E94CE01F801028113810115A3
:1007A000110559F0BE01C80102960E94A703F80185
:1007B000008111810115110599F46DE5CE01DF91DC
:1007C000CF911F910F91FF90EF90DF90CF90BF904E
:1007D000AF909F907F906F905F904F900C94CE0160
:1007E0006CE2CE010E94CE01DACFFC0182819381BE
:1007F000DF91CF911F910F91FF90EF90DF90CF90FD
:10080000BF90AF909F907F906F905F904F900C94AF
:100810007503FC0162817381CE01DF91CF911F913D
:100820000F91FF90EF90DF90CF90BF90AF909F908F
:100830007F906F905F904F900C944003FC01628119
:10084000738157C06DE2CE010E94CE01F801428152
:1008500053816481758117C1FC0182819381A481D8
:10086000B581892B8A2B8B2B19F464E471E041C08C
:100870006BE271E03EC088EF982E9A0CF801C280BE
:10088000D380E480F580A7019601C701B6010E94DC
:100890007718882319F06AE471E02BC020E030E07B
:1008A000A901C701B6010E94C01C87FF08C06DE204
:1008B000CE010E94CE01F7FAF094F7F8F0942601E9
:1008C0003701E89477F82FEF3FEF4FE75FE7C30179
:1008D000B2010E94771881111EC02FEF3FEF4FE742
:1008E0005FE7C301B2010E94C01C1816A4F46EE4B5
:1008F00071E0CE01DF91CF911F910F91FF90EF90AA
:10090000DF90CF90BF90AF909F907F906F905F905F
:100910004F900C94EB0220E030E04AE754E4C7012A
:10092000B6010E94721800E010E018160CF12FE6D4
:1009300032E143E85AE3C701B6010E94C01C87FFB9
:1009400037C016C020E030E040E85FE3C701B601E1
:100950000E94C01C87FF15C00150110920E030E043
:1009600040E251E4C701B6010E94261D6B017C01E3
:1009700020E030E0A901C701B6010E94C01C81112E
:10098000E1CF20E030E040E251E4C701B6010E942F
:10099000721818166CF40F5F1F4F20E030E040E231
:1009A00051E4C701B6010E94CA176B017C01E9CF6F
:1009B000892D0E94A90120E030E040E05FE30E9421
:1009C000261D9B01AC01C701B6010E945E172B01D9
:1009D0003C010E9443186B017C010E94C51C9B01D5
:1009E000AC01C301B2010E945D172B013C01B701AC
:1009F000A601CE010E94FB02992021F06EE2CE01F9
:100A00000E94CE01F8E0AF1619F120E030E040E29C
:100A100051E4C301B2010E94261D2B013C010E943A
:100A20003C18F62E062E000C770B880B990B0E94B3
:100A3000C71C9B01AC01C301B2010E945D172B01D1
:100A40003C0160E36F0DCE010E94CE01AA94DACF83
:100A500017FF0EC067E571E0CE010E94EB0244274C
:100A60005527401B510B052E000C660B770B0BC056
:100A700001151105D1F065E6CE010E94CE01A80155
:100A8000110F660B770BCE01DF91CF911F910F9164
:100A9000FF90EF90DF90CF90BF90AF909F907F90AE
:100AA0006F905F904F900C94FB02DF91CF911F915C
:100AB0000F91FF90EF90DF90CF90BF90AF909F90FD
:100AC0007F906F905F904F9008951F920F920FB696
:100AD0000F9211242F933F934F935F936F937F93C4
:100AE0008F939F93AF93BF93EF93FF9386E593E02C
:100AF0000E94FC00FF91EF91BF91AF919F918F9168
:100B00007F916F915F914F913F912F910F900FBE09
:100B10000F901F9018951F920F920FB60F921124ED
:100B20002F938F939F93EF93FF93E0916603F09140
:100B300067038081E0916C03F0916D0382FD12C028
:100B4000908180916F038F5F8F7320917003821764
:100B500051F0E0916F03F0E0EA5AFC4F958F8093DB
:100B60006F0301C08081FF91EF919F918F912F9131
:100B70000F900FBE0F901F9018958EBD00000DB402
:100B800007FEFDCF8EB508950F931F93CF93DF938C
:100B9000EC018B01209759F06A817B81C8010E948A
:100BA000811A892B39F00990D881C02DF3CF80E0CC
:100BB00090E001C0CE01DF91CF911F910F91089578
:100BC000FC01828193810E94C405009729F004965C
:100BD0000E944B02862F089580E00895CF93DF9303
:100BE000EC01688179818AE090E00E949A01009787
:100BF00029F0FC011182108215821482EA81FB81A6
:100C0000309751F0208131812115310511F0F90122
:100C1000F9CF9183808302C09B838A83DF91CF9138
:100C20000895EF92FF920F931F93CF93DF938C0160
:100C3000EB017A01DC0112968D919C9113970E9431
:100C4000C405FC01892B41F4C8010E94EE05FC019A
:100C5000892B89F0D383C283D7018D919C91A0E029
:100C6000B0E024E030E03583248386839783A08737
:100C7000B18781E001C080E0DF91CF911F910F919A
:100C8000FF90EF900895EF92FF920F931F93CF93F1
:100C9000DF938C01EB017A01DC0112968D919C911E
:100CA00013970E94C405FC01892B41F4C8010E94DE
:100CB000EE05FC01892B89F0D383C283D7018C9187
:100CC00090E0A0E0B0E024E030E035832483868328
:100CD0009783A087B18781E001C080E0DF91CF9149
:100CE0001F910F91FF90EF900895CF93DF93EC0148
:100CF0006881798188E090E00E949A01009729F04C
:100D0000FC011182108213821282EA81FB813097EA
:100D100051F0208131812115310511F0F901F9CF10
:100D20009183808302C09B838A83DF91CF91089552
:100D3000CF93DF93EC01BC0184E090E00E949A0124
:100D4000FC01009729F0D183C0831382128211C065
:100D500080914A0381110BC0109247031092460301
:100D6000109249031092480381E080934A0386E47D
:100D700093E0DF91CF910895CF93DF93EC01BC0115
:100D800084E090E00E949A01FC01009729F0D18351
:100D9000C0831382128211C08091F70381110BC0AE
:100DA0001092F4031092F3031092F6031092F503DD
:100DB00081E08093F70383EF93E0DF91CF91089573
:100DC000CF93DF93AC01EC01AA81BB812C818D8193
:100DD0009C91973219F4C22FD82F15C09232D9F3B3
:100DE000C22FD82FFD0131C02C3559F4FD013296A8
:100DF00012962C91A4E3B1E08C91811111C02223B1
:100E000059F12993DF013C2F6D2FFD013196119689
:100E10002C911197222301F12913E6CF31961CC0A2
:100E2000821303C011962C91EACF1296E5CF892F39
:100E30008F7D81548A3130F09B3221F083ED890F10
:100E4000823050F49993319690813C2F6D2F80ED34
:100E5000890F8A30B8F3EBCFA32FB62F1D92EA018A
:100E60008C819D81FB83EA83BD83AC83DF91CF912D
:100E70000895FC0120812D3051F024F429502230B6
:100E800030F505C0203219F02F3219F0089501967F
:100E9000F0CFFC0121812A3219F02F3279F0089528
:100EA000FC013296CF0120813196222311F32A32A0
:100EB000C9F720812F32B1F70296DBCFFC013296C1
:100EC000CF0121912223A9F22A30D1F7D2CF089560
:100ED0000F931F93CF93DF931F92CDB7DEB78C0193
:100EE000FC018081918169830E943907FC01208186
:100EF0006981261308C001960E943907F801918381
:100F0000808381E001C080E00F90DF91CF911F913D
:100F10000F9108959F92AF92BF92CF92DF92EF927E
:100F2000FF920F931F93CF93DF9300D000D000D098
:100F3000CDB7DEB7D82EC92EE82EF92EF701819154
:100F400091917F010E9498068C016BE7C7010E9476
:100F50006807882309F445C06DE7C7010E94680748
:100F600081114FC086E0982E8D2D9C2D0E94E006A9
:100F70005C01892BB1F16AE3C7010E9468078823ED
:100F800081F11A821982BE016F5F7F4F8D2D9C2DDA
:100F90000E94870B882329F1B501F8018281938192
:100FA0000E94C405009741F4C8010E94EE05009715
:100FB000C1F0FC01B382A282FE013196DC011496DD
:100FC000892D01900D928A95E1F76DE7C7010E9486
:100FD0006807811116C06CE2C7010E946807811181
:100FE000C3CF80914A0381110EC010924703109223
:100FF0004603109249031092480381E080934A030C
:1010000002C0C80102C086E493E026960FB6F894A9
:10101000DEBF0FBECDBFDF91CF911F910F91FF902B
:10102000EF90DF90CF90BF90AF909F900895AF92D8
:10103000BF92CF92DF92EF92FF920F931F93CF93C5
:10104000DF93CDB7DEB7C95DD1090FB6F894DEBF27
:101050000FBECDBFCC52DF4F19821882C45DD04085
:10106000CA52DF4F19821882C65DD040C852DF4F86
:1010700019821882C85DD04060E070E0CE018C52C9
:101080009F4F0E94E301CC52DF4F28813981C45D1C
:10109000D040811119C02115310519F0C9010E94F4
:1010A0001119CC52DF4F19821882C45DD040C8524A
:1010B000DF4F19821882C85DD040CA52DF4F1982B3
:1010C0001882C65DD0400BC0C852DF4F198218820B
:1010D000C85DD0406EE371E0C9010E948A1A68ECD5
:1010E00070E0CE018C529F4F0E94E30186E593E0B1
:1010F0000E94E600892B81F186E593E00E94C400FE
:1011000089831A82C852DF4F08811981C85DD04097
:101110000F5F1F4FB801CE018C529F4F0E94E30119
:10112000882321F3CC52DF4F28813981C45DD04020
:10113000C852DF4F88819981C85DD040BE016F5F82
:101140007F4F820F931F0E948A1AC852DF4F198364
:101150000883C85DD040CACF83E291E09A83898337
:10116000C553DF4F19821882CB5CD040CC52DF4F81
:1011700068817981C45DD04061157105D9F0C8528C
:10118000DF4F48815981C85DD0404F5F5F4F493C78
:10119000510570F4C553DF4F59834883CB5CD04071
:1011A000CE0103960E94781ABE016D5F7F4F02C088
:1011B00060E070E0CE010196C353DF4F99838883CE
:1011C000CD5CD0406115710511F0CB0102C08EE3FA
:1011D00091E0C153DF4F99838883CF5CD040CF52D9
:1011E000DF4F79836883C15DD0408AE0CD52DF4F05
:1011F0008883C35DD040CE0183539F4F0E948A07EE
:101200008C01F0904D066AE571E00E94E0058F15B3
:1012100009F455C06AE571E0F801828193810E946A
:10122000C405FC01892B09F450C184819581833068
:10123000910534F481309105DCF4892BA1F12CC0A7
:101240008530910584F0059739F586819781A085D1
:10125000B1859C01AD0166277727CB01621B730B1B
:10126000840B950B28C0668177818085918523C08A
:10127000E680F780E114F104B1F0B7018BE291E070
:101280000E94811A892B99F04AE050E060E070E0FA
:10129000C7010E94911A0FC0668177818085918570
:1012A0000E943C1808C060E070E0CB0104C061E01F
:1012B00070E080E090E06F3F710509F006C160E6E4
:1012C00071E0C8010E94E00590E08930910508F0C6
:1012D000F2C0FC01E45CFF4F0C94431784E691E0FC
:1012E0000E949F0D6CE771E0F801828193810E945A
:1012F000C405009721F004960E944B0202C060E0F2
:1013000070E07093600660935F0662E871E0F80138
:10131000828193810E94C405009721F004960E9467
:101320004B0202C060E070E070934C0660934B0685
:1013300068E871E086E593E00E94E90280915F062B
:10134000909160060E94B20D64E971E086E593E039
:101350000E94E90280914B0690914C060E94B20DCA
:1013600060915F067091600684E090E00E94061E26
:1013700060914B0670914C0682E090E00E94061E40
:101380007BC0809101049091020426E533E0C353B1
:10139000DF4F39832883CD5CD040C153DF4F1982A2
:1013A0001882CF5CD040BE0163537F4F0E9475030B
:1013B0008EE391E063C06DE571E0C8010E94E00535
:1013C000F82E80EA91E00E949F0DCF2CD12C67EB84
:1013D00071E0C8010E94E0059601225B394F590176
:1013E000F90180836F2D70E080E090E04AE00E9478
:1013F000600C6FEB71E086E593E00E94E902F50175
:1014000080810E94A30C67EB71E0C8010E94E00597
:10141000682FC6018A5F9F4F2DC01EE061E0812FBB
:101420000E94C60D62E370E080E090E00E9400112F
:101430001F5F143199F720C081E080935E0684EC31
:1014400091E01CC010925E0683ED91E017C063EE40
:1014500071E086E593E00E94E90264EF71E0C80163
:101460000E94E00580934D060E94A30C60914D06FA
:1014700081E090E00E94F81D82EB92E00E949F0DB7
:101480001AC06AEF71E086E593E00E94E90264E227
:1014900072E0C8010E94E005809308010E94A30C3D
:1014A0006091080180E090E00E94F81D8CE292E0DB
:1014B0000E949F0DFFCF64E670E080E090E00E9404
:1014C000001161E086E00E94C60DCC52DF4F88819A
:1014D0009981C45DD0400E941119C752DF4F0FB6E9
:1014E000F894DEBF0FBECDBFDF91CF911F910F915A
:1014F000FF90EF90DF90CF90BF90AF9008950E9443
:10150000F20081110C9417080895FF920F931F9316
:10151000CF93DF93EB018A019C0197FF02C0295F03
:101520003F4F43E0359527954A95E1F768E070E035
:101530000E942F17FC01D801A20FB11D9C91C93048
:10154000D10504F580E020E0FF2761E070E0482F3E
:10155000082E000C550B4C175D075CF44E0F5F1FF7
:10156000DB0102C0AA0FBB1F4A95E2F72A0F8F5F6B
:10157000EECF292330E0B90102C075956795EA9551
:10158000E2F728C0422F60E070E050E088E0F82EDB
:10159000AE2FB0E0292F30E00E2E02C035952795F2
:1015A0000A94E2F7052E02C0220F331F0A94E2F7D5
:1015B000620F731F8F2D8E1B580FCD010897C80F18
:1015C000D91F4150F801E40FF11D9081E0E01C1695
:1015D0001D06F4F2CB01DF91CF911F910F91FF9087
:1015E00008959F92AF92BF92CF92DF92EF92FF92B7
:1015F0000F931F93CF93DF93FB0131978E0F9F1FA4
:10160000A0E0B0E08C0100951095EE24EA94FE2C49
:10161000CC24C394D12CA617B70749F1FC01C3E031
:10162000F695E795CA95E1F7E40FF51FE801CA0FB3
:10163000DB1FC770DD2720FF0AC0560102C0AA0CBD
:10164000BB1CCA95E2F7E501D081CD2B0AC057013A
:1016500002C0AA0CBB1CCA95E2F7E501C095D08177
:10166000CD23C0833695279511960197D4CFDF916E
:10167000CF911F910F91FF90EF90DF90CF90BF908F
:10168000AF909F9008953FB7F89480915203909146
:101690005303A0915403B091550326B5A89B05C0F0
:1016A0002F3F19F00196A11DB11D3FBFBA2FA92FE1
:1016B000982F8827820F911DA11DB11DBC01CD015E
:1016C00042E0660F771F881F991F4A95D1F708954A
:1016D00090E0FC01EA53FF4F2491FC01EE54FF4FD0
:1016E0008491882399F090E0880F991FFC01E855B8
:1016F000FF4FA591B491FC01E256FF4F8591949163
:101700008FB7F894EC91E22BEC938FBF08959F92E2
:10171000AF92BF92CF92DF92EF92FF920F931F93FF
:10172000CF93DF93CDB7DEB727970FB6F894DEBF20
:101730000FBECDBFFC019681992309F4ADC07B019A
:101740008F0191509683828193810E943907D8013D
:1017500013969C938E931297FC0180818B3521F018
:101760008B3709F45FC072C0D8018D919D916D01D6
:101770000E94BC065C016BE5C6010E9468078823D5
:1017800061F16DE5C6010E946807811136C086E0EF
:10179000982E1A821982BE016F5F7F4FC8010E9486
:1017A000870B8823D1F0C5010E9475060097A9F028
:1017B000FE013196DC011296892D01900D928A95D9
:1017C000E1F76DE5C6010E946807811116C06CE261
:1017D000C6010E9468078111DCCF8091F703811157
:1017E0000EC01092F4031092F3031092F6031092BD
:1017F000F50381E08093F70302C0F50102C0E3EF37
:10180000F3E080819181892B11F420E040C086E0D3
:1018100090E0D70111969C938E931396FC93EE93D0
:10182000129712C0C8010E948A07FC0120813181F1
:10183000232B59F327E030E0D70111963C932E93E8
:1018400013969C938E93129721E021C021E087325A
:1018500019F0823209F020E0C8012F830E94E006CF
:101860002F81009791F2222341F042E050E0F701EE
:1018700051834083938382830AC021E030E0D70103
:1018800011963C932E9313969C938E931297F80186
:1018900086818F5F868301C020E0822F27960FB656
:1018A000F894DEBF0FBECDBFDF91CF911F910F9196
:1018B000FF90EF90DF90CF90BF90AF909F900895F2
:1018C0008F929F92AF92BF920F931F93CF93DF930C
:1018D000CDB7DEB7A1970FB6F894DEBF0FBECDBF70
:1018E00019A2423008F44AE08E010F5D1F4F842E8A
:1018F000912CA12CB12CA50194010E943D1EE62F34
:10190000B901CA0101501109EA3014F4E05D01C0C7
:10191000E95CD801EC93232B242B252B61F7B8012C
:1019200086E593E00E94D402A1960FB6F894DEBF3C
:101930000FBECDBFDF91CF911F910F91BF90AF90A0
:101940009F908F900895CF93DF93682F70E080E091
:1019500090E04AE00E94600CEC0169E472E086E5E8
:1019600093E00E94D4028C0F9D1FDF91CF910895C8
:101970008F929F92AF92BF92CF92DF92EF92FF929F
:101980000F931F93CF93DF938BE3A82E86E0B82E9F
:10199000C12CD12C9FE0992E88248394F501E190ED
:1019A000F1905F01C70192500F9708F0B3C0FF2478
:1019B0009E9C80019F9C100D112401531B4FF80128
:1019C0008282E601CD53DA4FAE0164E070E080E040
:1019D00090E00E94850A8B3049F4AE0168E070E027
:1019E00088E090E00E94850AF8018687AE0163E0F6
:1019F00070E088E190E00E94850A029721F5AE012F
:101A000068E070E088E090E00E94850A9E9C80017A
:101A10009F9C100D112401531B4FBC0180E090E0EE
:101A20000E94C51C20E030E040E05FE30E94261DDC
:101A300020E030E040E252E40E945D170E943C1832
:101A4000F80173876287AE0164E070E084E090E0A3
:101A50000E94850A9E9C80019F9C100D11240153B9
:101A60001B4FF8018487AE016DE070E08BE190E0E0
:101A70000E94850ABC0180E090E00E94C51C20E025
:101A800030E040E05FE30E94261D20E030E04AE7BE
:101A900054E40E945E170E944318F801778366831E
:101AA000AE016DE070E08BE290E00E94850ABC011F
:101AB00080E090E00E94C51C20E030E040E05FE361
:101AC0000E94261D20E030E04AE754E40E945E17A1
:101AD0000E944318F80175836483AE016DE070E0E5
:101AE0008BE390E00E94850ABC0180E090E00E94B8
:101AF000C51C20E030E040E05FE30E94261D20E0AE
:101B000030E04AE754E40E945E170E944318F8014F
:101B100071876087F8E0CF0ED11C80E4C816D1042D
:101B200009F03CCFDF91CF911F910F91FF90EF9083
:101B3000DF90CF90BF90AF909F908F900895CF93FC
:101B4000DF93BC0186E593E00E94D402EC0169E4D6
:101B500072E086E593E00E94D4028C0F9D1FDF9116
:101B6000CF910895CF93DF93BC0180E090E04AE0ED
:101B70000E94600CEC0169E472E086E593E00E944B
:101B8000D4028C0F9D1FDF91CF91089590E0FC014E
:101B9000E657FF4F3491FC01EA53FF4F2491FC01BB
:101BA000EE54FF4FE491EE2309F43BC0332339F1A7
:101BB000333091F038F43130A9F0323001F584B58A
:101BC0008F7D12C0373091F03830A1F03430B9F445
:101BD000809180008F7D03C0809180008F778093FB
:101BE00080000DC084B58F7784BD09C08091B0009E
:101BF0008F7703C08091B0008F7D8093B000F0E0BC
:101C0000EE0FFF1FE256FF4FA591B4918FB7F894E6
:101C1000EC91611103C020952E2301C02E2B2C9333
:101C20008FBF08951F93CF93DF93C2ECD5E060E0A0
:101C300088810E94C60D80EA0E94BD0580E00E9456
:101C4000BD05182F61E088810E94C60D812FDF91AC
:101C5000CF911F910895CF92DF92FF920F931F9320
:101C6000CF93DF931F92CDB7DEB7F82E162F042F38
:101C700060E08091C20579830E94C60D83E00E94D6
:101C8000BD058F2D0E94BD05F12EC12E7981D72E65
:101C90008C2D8F19801738F480E00E94BD05F60165
:101CA00081936F01F5CF61E08091C2050F90DF91C4
:101CB000CF911F910F91FF90DF90CF900C94C60DA4
:101CC0001F93CF93DF93182FC2ECD5E060E088819B
:101CD0000E94C60D83E00E94BD05812F0E94BD05B4
:101CE00080E00E94BD05182F61E088810E94C60D2A
:101CF000812FDF91CF911F9108950F931F93CF9361
:101D0000DF9300D000D0CDB7DEB7182F1092B20508
:101D10001092B3051092B4051092B5051092B60555
:101D200044E0BE016F5F7F4F0E942B0E8A81998134
:101D3000482F50E065E0559547956A95E1F728E012
:101D4000929F400D511D1124052E000C660B770B40
:101D50004093B3055093B4056093B5057093B605F1
:101D600083FF29C092E0440F551F661F771F9A9585
:101D7000D1F78370480F511D611D711D762F652F9E
:101D8000542F44278B81480F511D611D711D762FE3
:101D9000652F542F44278C81480F511D611D711DE3
:101DA0004093B3055093B4056093B5057093B605A1
:101DB00081E08093B2058FEF810F0E94600E082FA3
:101DC00084E0810F0E94600E482F03FF04C081E071
:101DD0008093C00502C01092C0054F704093B705B4
:101DE00068EB75E085E0810F0E942B0E0F900F903D
:101DF0000F900F90DF91CF911F910F910895EF9267
:101E0000FF920F931F93CF93DF931F92CDB7DEB74F
:101E1000082F162F82ECE82E85E0F82E60E0F701FF
:101E2000808149830E94C60D85E00E94BD05802FF8
:101E30000E94BD05812F0E94BD054981842F0E940B
:101E4000BD0561E0F70180810F90DF91CF911F9177
:101E50000F91FF90EF900C94C60DCF93C82F482F91
:101E600060EE8FE00E94FF0E8FE00E94600E807E89
:101E700091E08C1301C090E0892FCF910895CF920B
:101E8000DF92FF920F931F93CF93DF931F92CDB7F3
:101E9000DEB7F82E162F042F60E08091C2057983FB
:101EA0000E94C60D82E00E94BD058F2D0E94BD05D7
:101EB000F12EC12E7981D72E8C2D8F19801730F4F9
:101EC000F60181916F010E94BD05F6CF61E080911E
:101ED000C2050F90DF91CF911F910F91FF90DF907E
:101EE000CF900C94C60D0F931F93CF93DF9300D028
:101EF00000D0CDB7DEB76130B9F42C833B838A01C3
:101F000022273327602F6C71902F937048E0649FD5
:101F1000900D112498609A83980175E03695279565
:101F20007A95E1F729830DC0B90193E0769567951D
:101F30009A95E1F769832295220F207E2A831C82DD
:101F40001B8244E0BE016F5F7F4F0E943F0F0F90E6
:101F50000F900F900F90DF91CF911F910F910895E7
:101F60001F93CF93DF9300D000D0CDB7DEB7182FEB
:101F70009A01AB0180E829833A834B835C830E94FA
:101F80002D0F29813A814B815C81811129C012304A
:101F900099F038F4112369F01130C1F460E084E065
:101FA00013C0143079F058F0153081F460E088E106
:101FB0000BC060E080E008C060E088E005C060E041
:101FC00080E102C060E084E10E94730F80E00F9026
:101FD0000F900F900F90DF91CF911F910C942D0FC8
:101FE0000F900F900F900F90DF91CF911F91089558
:101FF0000F931F93CF93DF93082F162FC2ECD5E0DA
:1020000060E088810E94C60D82E00E94BD05802F9D
:102010000E94BD05812F0E94BD0561E08881DF918E
:10202000CF911F910F910C94C60D7F928F929F922A
:10203000AF92BF92CF92DF92EF92FF920F931F93D6
:10204000CF93DF93CDB7DEB72B970FB6F894DEBFF3
:102050000FBECDBF7C018E010F5F1F4F88E0F801DE
:1020600011928A95E9F780E18D832091CF042F5F4B
:10207000203118F42093CF0402C01092CF04209195
:10208000CF0430E0A80164E070E080E090E00E94BE
:10209000F10AB701F3E4EF16FEE0FF0610F062E488
:1020A0007EE0603689E0780710F460E679E0685EEB
:1020B000734080E090E00E94C51C9B01AC010E942F
:1020C0005E170E9443189B01A8016DE070E088E054
:1020D00090E00E94F10A1092B20580E590E0A0E045
:1020E000B0E08093B3059093B405A093B505B09389
:1020F000B60588E08093B705F801A8EBB5E05E016E
:1021000089E0A80EB11C81918D93EA15FB05D9F7E2
:10211000E12CF12C90E3C92E20E4922E30E5832EA1
:1021200043E0742E7A0CC9869A868B868501F80165
:10213000D1908F018D2D0E94600E982F987083FD95
:1021400003C011E01D0D04C07012F1CF10E092E049
:10215000FFEFEF1AFF0A923029F482E3E816F10448
:1021600011F73AC0E2E3EE16F104B1F14091B70580
:1021700068EB75E085E0810F0E943F0F8091C005FC
:10218000813029F48091B70580648093B705609110
:10219000B70584E0810F0E94F80F2091B3053091BC
:1021A000B4054091B5055091B6056091B205812FF7
:1021B0000E94730F48E068E08FEF810F0E94FF0ECE
:1021C00082E3E82EF12C812F0E94600E83FF04C071
:1021D000F1E0EF1AF108B9F72B960FB6F894DEBFCD
:1021E0000FBECDBFDF91CF911F910F91FF90EF9068
:1021F000DF90CF90BF90AF909F908F907F90089589
:102200008F929F92AF92BF92CF92DF92EF92FF9206
:102210006B017C010E94430B4B015C01C114D10492
:10222000E104F104F1F00E94430BDC01CB018819B9
:102230009909AA09BB09883E9340A105B10570F32D
:1022400021E0C21AD108E108F10888EE880E83E087
:10225000981EA11CB11CC114D104E104F10419F7AA
:10226000DDCFFF90EF90DF90CF90BF90AF909F9029
:102270008F9008950E94731A1F920F920FB60F92BB
:1022800011242F933F938F939F93AF93BF9380918C
:10229000760690917706A0917806B09179063091F4
:1022A000750623E0230F2D3720F40196A11DB11DE3
:1022B00005C026E8230F0296A11DB11D20937506C7
:1022C0008093760690937706A0937806B09379066C
:1022D0008091520390915303A0915403B091550300
:1022E0000196A11DB11D8093520390935303A093B7
:1022F0005403B0935503BF91AF919F918F913F913C
:102300002F910F900FBE0F901F901895EF92FF9294
:102310000F931F93CF93DF9310925903109258039A
:1023200088EE93E0A0E0B0E080935A0390935B03C3
:10233000A0935C03B0935D0383E191E09093570316
:102340008093560385EC90E090936303809362033F
:1023500084EC90E0909365038093640380EC90E0BC
:10236000909367038093660381EC90E090936903F8
:102370008093680382EC90E090936B0380936A03F0
:1023800086EC90E090936D0380936C0310926F0342
:102390001092700310927103109272038AE080937E
:1023A000C2050E94680B61E08091C2050E94C60DC3
:1023B0001092D0041092CF0483E291E09093040431
:1023C000809303041092CE041092CD0483E094E035
:1023D0000E9498068C019093020480930104FC01F2
:1023E00080819181009781F48091F703811132C03F
:1023F0001092F4031092F3031092F6031092F50377
:1024000081E08093F70326C00E94BC06EC0161E4E2
:1024100072E0F801828193810E94C405FC01892B3E
:1024200051F4C8010E94EE05FC01892BA9F081E45A
:1024300092E09383828388819981892B19F480E0CB
:1024400090E003C07E0186E090E095838483E6827D
:10245000F78202C0C3EFD3E0D0930004C093FF0320
:10246000DF91CF911F910F91FF90EF900895CF933F
:10247000DF93CDB7DEB764970FB6F894DEBF0FBE1B
:10248000CDBF789484B5826084BD84B5816084BDFD
:1024900085B5826085BD85B5816085BD80916E0002
:1024A000816080936E001092810080918100826033
:1024B0008093810080918100816080938100809170
:1024C00080008160809380008091B100846080935F
:1024D000B1008091B00081608093B00080917A005B
:1024E000846080937A0080917A00826080937A0081
:1024F00080917A00816080937A0080917A00806870
:1025000080937A001092C10056E0E52E50E0F52E3F
:102510000EE416E0C7010E94E41DF80181938F01CB
:10252000FFEFEF1AFF0A26E00E35120799F784E055
:1025300090E00E94EC1D9093600680935F068453A8
:1025400098408F30964060F082E49EE09093600661
:1025500080935F0662E47EE084E090E00E94F21DDA
:1025600082E090E00E94EC1D90934C0680934B0615
:10257000845398408F30964060F084E398E09093C5
:102580004C0680934B0664E378E082E090E00E9482
:10259000F21D81E090E00E94E41D80934D0680E0F2
:1025A00090E00E94E41D8093080187E00E94680B80
:1025B00086E00E94680B85E00E94680B1EE0812F78
:1025C0000E94680B61E0812F0E94C60D1F5F1431CD
:1025D000B1F761E087E00E94C60D61E086E00E94ED
:1025E000C60D61E085E00E94C60D4DE456E06CE446
:1025F00072E080910104909102040E944306E091F0
:102600006603F091670382E08083E0916203F091BA
:1026100063031082E0916403F091650380E180839D
:1026200010926E03E0916A03F0916B0386E0808361
:10263000E0916803F0916903808180618083E0917B
:102640006803F0916903808188608083E09168036A
:10265000F0916903808180688083E0916803F09144
:10266000690380818F7D808364E670E080E090E084
:102670000E94001181E592E00E949F0D6CE572E0DE
:1026800086E593E00E94E90280914D060E94A30C2A
:1026900087E692E00E949F0D66E772E086E593E090
:1026A0000E94E90280915F06909160060E94B20D3F
:1026B00062E972E086E593E00E94E90280914B06B0
:1026C00090914C060E94B20D1FB7F894809161065C
:1026D000811124C0ECEBF0E08491E0EDF0E0949106
:1026E000E82FF0E0EE0FFF1FE855FF4FA591B491E2
:1026F000EC91E92321F461E08AE00E94C60D8AE0B2
:102700000E94680B8CB580618CBD8CB580648CBDDB
:102710008DE00E94680B8BE00E94680B809161063F
:102720008F5F809361061FBF60E08091C2050E94A9
:10273000C60D80EC0E94BD0561E08091C2050E943B
:10274000C60D6AE070E080E090E00E94001180E831
:102750000E942D0F811172C060E08AE20E94F80F82
:1027600060E989E20E94F80F62E088E20E94F80FB7
:1027700020E030E0A90161E080E20E94730F20E0D8
:1027800030E0A90161E084E20E94730F20E030E0B4
:10279000A90161E080E00E94730F20E030E0A90110
:1027A00060E084E00E94730F20E030E0A90161E066
:1027B00088E00E94730F20E030E0A90160E080E132
:1027C0000E94730F20E030E0A90161E084E10E94E3
:1027D000730F20E030E0A90160E088E10E94730FF0
:1027E00010E360E0812F0E94F80F60E080E1810F2C
:1027F0000E94F80F60E080E2810F0E94F80F1F5FD7
:102800001E3379F760E080E60E94F80F60E080E711
:102810000E94F80F63E08BE20E94F80F44E064E648
:1028200080E60E94FF0E40E060E680E70E94FF0E17
:1028300080E00E942D0F882309F4C9C28BE393E046
:102840000E949F0D8AE092E0909301018093000125
:10285000809169008C7F826080936900E89A64E6C9
:1028600070E080E090E00E9400118091080190915A
:102870006506981309C001ED14E0C12CD12C760136
:1028800034E0A32EB12C82C08F3FA9F385EB92E0F8
:102890000E949F0D80E19EE00E94151083EC92E063
:1028A0000E949F0D60E170E080E090E00E940011C6
:1028B0000E94B80C1092650601ED14E0C12CD12CD9
:1028C0007601F8018081882379F164ED72E086E574
:1028D00093E00E94E9026091650670E080E090E07C
:1028E0004AE00E94600C6BED72E086E593E00E9486
:1028F000E90240E1C701B6010E94600C6FEB71E094
:1029000086E593E00E94E902F601E25BF94F8081DF
:102910000E94A30C80916506E82FF0E0EA59F94F78
:10292000C0828F5F80936506015F1F4FFFEFCF1A54
:10293000DF0AEF0AFF0A20E1C216D104E104F10424
:1029400009F0BFCF6091650670E080E090E04AE05A
:102950000E94600C60EE72E086E593E00E94E9025E
:10296000809108010E94A30C68EE73E080E090E083
:102970000E940011809162068F5F8093620685300D
:1029800008F473CF8FEF8093080175CFF801808131
:10299000882379F08091FF03909100040E947506CE
:1029A000009739F0FC01B382A282C482D582E6820C
:1029B000F782015F1F4FFFEFCF1ADF0AEF0AFF0A0E
:1029C00020E1C216D104E104F10401F7CE01019621
:1029D0009B878A8722242394312C64E670E080E070
:1029E00090E00E940011809108018F3F09F4ECC132
:1029F000198618861F8286E0EA85FB8511928A95E2
:102A0000E9F7209106013091070180915F069091CE
:102A100060068217930720F42234FEE03F0720F07F
:102A200040915E06413011F4C90101960E941510D3
:102A300060E170E080E090E00E9400110E94B80C1C
:102A400080916506282F30E03B8B2A8B3091CF0494
:102A5000398BEF8089844885488B86E696E09D8790
:102A60008C87412C512C3201C12CD12C80E1A82E15
:102A70008EE0B82E9FE0F92E8C859D858656964077
:102A8000EA89FB898E179F070CF066C0EC85FD85EF
:102A90009190FD87EC87092D10E0F09EF001F19EEA
:102AA000F00D1124E153FB4F8281882329F38485A3
:102AB0002989821721F083818F5F838301C013826C
:102AC000F09EC001F19E900D1124FC01E153FB4FDB
:102AD000FF87EE878685E80E6085718580E090E04F
:102AE0000E94C51C9B01AC01C301B2010E945E178C
:102AF0002B013C01EE85FF85868197818A159B0518
:102B000010F4892C5C01F09EF001F19EF00D11246F
:102B1000E153FB4F24813581C216D30610F4988A05
:102B200069018533984058F0F09EF001F19EF00D58
:102B30001124E153FB4F8381873008F49DCFF801C6
:102B4000E25BF94F8081E3EFFFEFEC0FFD1FE80F31
:102B5000F11D21E0208390CFF889F8878986EF82E4
:102B600080915E068130D9F400E010E0E12CF12C78
:102B700061E08EE08E0D0E94C60DC1010E2C02C0D8
:102B8000880F991F0A94E2F7082B192B2FEFE21AEE
:102B9000F20A36E0E316F10459F791E024C0CE01C1
:102BA00001967C01812C912C00E010E090E0F7016F
:102BB00061917F01613051F4C101082C02C0880F7E
:102BC000991F0A94E2F7082B192B91E08EE0880DEB
:102BD0009C8B0E94C60DFFEF8F1A9F0A9C8926E0EE
:102BE0008216910421F7692F87E00E94C60D4DE4FB
:102BF00056E06CE472E080910104909102040E941E
:102C00004306E0900104F090020469EF72E0F701DE
:102C1000828193810E94C405009751F4C7010E94EC
:102C2000EE050097F1F029EF32E0FC0133832283B7
:102C300017FD07C0A801110F660B770B24E030E0E9
:102C400009C0119501951109A801110F660B770BA9
:102C500025E030E0FC013583248346835783608779
:102C6000718720E030E040E651E4C301B2010E94E8
:102C7000261D2B013C016091650670E080E090E02C
:102C80000E94C71C9B01AC01C301B2010E94CA177C
:102C900020E030E04AE754E40E94CA172B013C01CF
:102CA000B0920701A0920601D0926406C09263061A
:102CB00046E051E060E073E08091010490910204ED
:102CC0000E941106AE01475F5F4F69E073E080919B
:102CD0000104909102040E94430643E656E065E138
:102CE00073E080910104909102040E941106AE01EC
:102CF000485F5F4F6EE173E08091010490910204A0
:102D00000E944306AE01495F5F4F6AE273E0809123
:102D10000104909102040E94430600910104109165
:102D2000020463E373E0F801828193810E94C40589
:102D3000FC01892B51F4C8010E94EE05FC01892B8E
:102D400061F083E393E0938382838AE090E095834C
:102D500084834682578260867186809106019091B5
:102D6000070190930501809304018F81882311F05E
:102D700061E001C060E086E00E94C60D80916306BC
:102D8000909164062091060130910701821B930BFC
:102D90000B9710F461E001C060E085E00E94C60D71
:102DA00080916306909164068234FEE09F0718F0DC
:102DB00021E020935E0620910601309107018217E1
:102DC000930711F410925E060E947F0A06CE80E8F7
:102DD0000E942D0F81110BC020E033E040E050E055
:102DE00060E080E20E94730F80E00E942D0F80E877
:102DF0000E942D0F81110BC020E033E040E050E035
:102E000060E084E20E94730F80E00E942D0F40E09A
:102E100052E060E070E080E00E94B00F40E050E0DF
:102E2000BA0181E00E94B00F40E050E0BA0182E0B8
:102E30000E94B00F40E050E0BA0183E00E94B00F62
:102E400040E050E0BA0184E00E94B00F40E050E062
:102E5000BA0185E00E94B00F8EEA92E0F1CC97FBB8
:102E6000072E16F4009407D077FD09D00E94491769
:102E700007FC05D03EF4909581959F4F089570957D
:102E800061957F4F0895EE0FFF1F0590F491E02D9F
:102E90000994AA1BBB1B51E107C0AA1FBB1FA617A1
:102EA000B70710F0A61BB70B881F991F5A95A9F7F3
:102EB00080959095BC01CD0108955058BB27AA2755
:102EC0000E9475170C94AA1D0E949C1D38F00E9448
:102ED000A31D20F039F49F3F19F426F40C94991D9A
:102EE0000EF4E095E7FB0C94931DE92F0E94BB1DA7
:102EF00058F3BA17620773078407950720F079F42F
:102F0000A6F50C94DD1D0EF4E0950B2EBA2FA02D26
:102F10000B01B90190010C01CA01A0011124FF2786
:102F2000591B99F0593F50F4503E68F11A16F04081
:102F3000A22F232F342F4427585FF3CF4695379580
:102F40002795A795F0405395C9F77EF41F16BA0B45
:102F5000620B730B840BBAF09150A1F0FF0FBB1FF3
:102F6000661F771F881FC2F70EC0BA0F621F731F3C
:102F7000841F48F4879577956795B795F7959E3F99
:102F800008F0B0CF9395880F08F09927EE0F97952A
:102F9000879508950E94DE170C94AA1D0E94A31D18
:102FA00058F00E949C1D40F029F45F3F29F00C94DA
:102FB000931D51110C94DE1D0C94991D0E94BB1D94
:102FC00068F39923B1F3552391F3951B550BBB2758
:102FD000AA2762177307840738F09F5F5F4F220F9D
:102FE000331F441FAA1FA9F335D00E2E3AF0E0E894
:102FF00032D091505040E695001CCAF72BD0FE2FDE
:1030000029D0660F771F881FBB1F26173707480771
:10301000AB07B0E809F0BB0B802DBF01FF27935829
:103020005F4F3AF09E3F510578F00C94931D0C943D
:10303000DE1D5F3FE4F3983ED4F386957795679560
:10304000B795F7959F5FC9F7880F911D969587955E
:1030500097F90895E1E0660F771F881FBB1F62177D
:1030600073078407BA0720F0621B730B840BBA0B3B
:10307000EE1F88F7E09508950E9443186894B111F7
:103080000C94DE1D08950E94C31D88F09F5798F090
:10309000B92F9927B751B0F0E1F0660F771F881F5D
:1030A000991F1AF0BA95C9F714C0B13091F00E9477
:1030B000DD1DB1E008950C94DD1D672F782F882762
:1030C000B85F39F0B93FCCF3869577956795B3959E
:1030D000D9F73EF490958095709561957F4F8F4F0D
:1030E0009F4F08950E94021D08F48FEF08950E94DB
:1030F000021D880B990B0895CF93DF9382309105C1
:1031000010F482E090E0E0917C06F0917D0620E0F2
:1031100030E0C0E0D0E0309711F140815181481794
:103120005907C0F04817590761F4828193812097AD
:1031300019F09B838A832BC090937D0680937C0635
:1031400026C02115310519F04217530718F49A01CA
:10315000BE01DF01EF010280F381E02DDCCF2115FC
:10316000310509F1281B390B2430310590F41296F2
:103170008D919C9113976115710521F0FB0193834B
:10318000828304C090937D0680937C06FD01329675
:1031900044C0FD01E20FF31F819391932250310946
:1031A0002D933C933AC020917A0630917B06232BD5
:1031B00041F420910B0130910C0130937B06209358
:1031C0007A062091090130910A012115310541F457
:1031D0002DB73EB740910D0150910E01241B350BC8
:1031E000E0917A06F0917B06E217F307A0F42E1B1C
:1031F0003F0B2817390778F0AC014E5F5F4F24175B
:10320000350748F04E0F5F1F50937B0640937A06B8
:103210008193919302C0E0E0F0E0CF01DF91CF9184
:1032200008950F931F93CF93DF93009709F48CC0F9
:10323000FC0132971382128200917C0610917D0668
:103240000115110581F420813181820F931F209196
:103250007A0630917B062817390779F5F0937B06BB
:10326000E0937A0671C0D80140E050E0AE17BF0786
:1032700050F412962D913C911397AD012115310513
:1032800009F1D901F3CF9D01DA01338322836081F3
:103290007181860F971F8217930769F4EC012881CB
:1032A0003981260F371F2E5F3F4F318320838A815C
:1032B0009B8193838283452B29F4F0937D06E093D1
:1032C0007C0642C01396FC93EE931297ED01499150
:1032D00059919E01240F351FE217F30771F4808185
:1032E0009181840F951F029611969C938E938281F3
:1032F000938113969C938E931297E0E0F0E0D801AF
:1033000012968D919C911397009719F0F8018C01FA
:10331000F6CF8D919C9198012E5F3F4F820F931FA6
:1033200020917A0630917B062817390769F4309787
:1033300029F410927D0610927C0602C0138212823C
:1033400010937B0600937A06DF91CF911F910F9126
:103350000895A0E0B0E0EFEAF9E10C946E1EEC01F4
:10336000009721F4CB010E947C18B8C0FC01E60F45
:10337000F71F9C0122503109E217F30708F4ACC093
:10338000D9010D911C91119706171707B0F0053060
:10339000110508F49FC0C80104978617970708F421
:1033A00099C002501109061B170B019311936D93DD
:1033B0007C93CF010E9411198DC05B01A01AB10A44
:1033C0004C01800E911EA0917C06B0917D0640E0DC
:1033D00050E0E12CF12C109709F44AC0A815B9056A
:1033E000D1F56D907C901197630182E0C80ED11CDD
:1033F000CA14DB0480F1A3014A195B096A0182E067
:10340000C80ED11C1296BC9012971396AC91B5E0E1
:10341000CB16D10440F0B282A38351834083D901FB
:103420006D937C930AC00E5F1F4FC301800F911FE5
:10343000F90191838083EB2DFA2FE114F10431F02F
:10344000D7011396FC93EE93129744C0F0937D0638
:10345000E0937C063FC08D919C91119748175907C6
:1034600008F4AC017D0112960D90BC91A02DB3CF54
:1034700080917A0690917B0688159905E1F44617AC
:103480005707C8F48091090190910A01009741F40F
:103490008DB79EB740910D0150910E01841B950B85
:1034A000E817F907C8F4F0937B06E0937A06F90170
:1034B000718360830FC0CB010E947C187C01009750
:1034C00059F0A801BE010E94781ACE010E9411197C
:1034D000C70104C0CE0102C080E090E0CDB7DEB7E6
:1034E000EEE00C948A1E81E090E0F8940C94B01EFB
:1034F000FB01DC0102C001900D9241505040D8F711
:103500000895FB01DC018D91019080190110D9F320
:10351000990B0895FB01DC0101900D920020E1F769
:103520000895A0E0B0E0E7E9FAE10C946A1E5C01BE
:103530006B017A016115710519F0FB01918380839C
:10354000E114F10429F0C7010297839708F0F1C054
:10355000E5012196F5011081812F90E00E94B41CB5
:10356000892B11F05E01F4CF1D3229F42196F5016B
:10357000118101E007C01B3221F4E5012296F5011B
:10358000118100E0E114F10459F1F0E1EF16F104CA
:1035900061F41033E1F488818F7D883569F51981F4
:1035A0002296026070E1E72EF12C88E0E816F10423
:1035B00039F12CF4F2E0EF16F104C9F12AC08AE0E7
:1035C000E816F10479F0E0E1EE16F10411F550E1AE
:1035D000E52EF12C812C912CA12C68E0B62E2CC06C
:1035E0001033C9F23AE0E32EF12C4CEC842E982CE7
:1035F000A82C4CE0B42E20C010E3E114F104A9F68D
:1036000098E0E92EF12C812C912CA12C20E1B22EF6
:1036100013C060E070E080E090E897010F2C000C90
:10362000440B550B0E943D1E49015A0105C0812CD7
:10363000912CA12C80E4B82E60E020E030E0A901BC
:1036400027010F2C000C660877081E01E0EDE10F42
:10365000EA3060F08FEB810F8A3110F4E9EC05C09D
:103660008FE9810F8A3128F5E9EAE10F8E2F90E08A
:103670008E159F05F4F467FD18C082169306A40604
:10368000B50690F0C301B2010E942D1E9B01AC0152
:103690002E0F311D411D511D213031054105F0E82E
:1036A0005F0710F461E001C06FEF2196F101108116
:1036B000CCCF802F8170C114D10471F0662329F022
:1036C0002197F601D183C08307C001FF19C022975B
:1036D000F601D183C08314C067FF12C0811105C0F9
:1036E0002FEF3FEF4FEF5FE704C020E030E040E016
:1036F00050E882E290E090937F0680937E0616C0A9
:10370000882341F050954095309521953F4F4F4F7C
:103710005F4F0CC057FF0AC082E290E090937F0693
:1037200080937E062FEF3FEF4FEF5FE7B901CA01AD
:1037300004C060E070E080E090E0CDB7DEB7E2E189
:103740000C94861EA6E0B0E0E8EAFBE10C946A1E49
:103750005C016B017A016115710519F0DB018D9334
:103760009C93E114F10429F0C7010297839708F0B4
:10377000DCC03501BFEF6B1A7B0AF5011081812F88
:1037800090E00E94B41C892B11F05301F2CF1D323E
:1037900049F43501F2E06F0E711CD50111961C91B0
:1037A00001E009C01B3231F43501B2E06B0E711C2F
:1037B000F501118100E0E114F10409F4C4C0F0E165
:1037C000EF16F10489F4103399F5D3018C918F7DB4
:1037D000883509F0B2C011961C91B2E06B0E711CD5
:1037E000026050E1E52EF12CEAE0EE16F10409F456
:1037F000B0C0F0E1EF16F104D9F028E0E216F104D0
:1038000051F438E0E32EF12C88248A94982CA82CCB
:103810004FE1B42E13C06FEF7FEFCB0197010F2C58
:10382000000C440B550B0E943D1E49015A0106C075
:1038300088248A94982CA82C2FE0B22E7E826D8248
:1038400060E020E030E0A90127010F2C000C6608A1
:1038500077082D803E80E0EDE10FEA3060F08FEBDD
:10386000810F8A3110F4E9EC05C08FE9810F8A31AC
:1038700090F5E9EAE10F8E2F90E08E159F055CF53B
:103880006F3F09F182169306A406B506D8F0C3016E
:10389000B2010E942D1E2E2F30E040E050E029831F
:1038A0003A834B835C83260F371F481F591F89813A
:1038B0009A81AB81BC81281739074A075B0710F052
:1038C00061E001C06FEFED81FE813196FE83ED83F3
:1038D000D1011C91BECFC114D10489F0662339F007
:1038E0008D819E810197F6019183808308C001FF3D
:1038F00006C08D819E810297D6018D939C9300FF17
:1039000007C050954095309521953F4F4F4F5F4FE1
:1039100067FF10C082E290E090937F0680937E065E
:103920006FEF7FEF8FEF9FEF1BC060E070E080E0F4
:1039300090E016C0B901CA0113C010E3E114F1040C
:1039400009F45FCF51CF103309F43FCF9AE0E92E4D
:10395000F12C89E9882E982CA82C89E1B82E6ECFFD
:103960002696E2E10C94861E91110C94BD1C8032C7
:1039700019F089508550C8F7089599278827089528
:103980000E94021D08F481E00895E89409C097FBA5
:103990003EF490958095709561957F4F8F4F9F4F26
:1039A0009923A9F0F92F96E9BB279395F69587956A
:1039B00077956795B795F111F8CFFAF4BB0F11F42D
:1039C00060FF1BC06F5F7F4F8F4F9F4F16C08823D4
:1039D00011F096E911C0772321F09EE8872F762F0A
:1039E00005C0662371F096E8862F70E060E02AF04B
:1039F0009A95660F771F881FDAF7880F9695879537
:103A000097F90895990F0008550FAA0BE0E8FEEF0B
:103A100016161706E807F907C0F012161306E40792
:103A2000F50798F0621B730B840B950B39F40A268B
:103A300061F0232B242B252B21F408950A2609F469
:103A4000A140A6958FEF811D811D08950E94391D0B
:103A50000C94AA1D0E949C1D38F00E94A31D20F00A
:103A6000952311F00C94931D0C94991D11240C9422
:103A7000DE1D0E94BB1D70F3959FC1F3950F50E0B2
:103A8000551F629FF001729FBB27F00DB11D639F10
:103A9000AA27F00DB11DAA1F649F6627B00DA11DB6
:103AA000661F829F2227B00DA11D621F739FB00D5C
:103AB000A11D621F839FA00D611D221F749F3327CC
:103AC000A00D611D231F849F600D211D822F762F65
:103AD0006A2F11249F5750409AF0F1F088234AF042
:103AE000EE0FFF1FBB1F661F771F881F91505040AE
:103AF000A9F79E3F510580F00C94931D0C94DE1D98
:103B00005F3FE4F3983ED4F3869577956795B79534
:103B1000F795E7959F5FC1F7FE2B880F911D96954E
:103B2000879597F9089597F99F6780E870E060E0BE
:103B300008959FEF80EC089500240A941616170646
:103B400018060906089500240A941216130614068E
:103B500005060895092E0394000C11F4882352F0F1
:103B6000BB0F40F4BF2B11F460FF04C06F5F7F4FA9
:103B70008F4F9F4F089557FD9058440F551F59F090
:103B80005F3F71F04795880F97FB991F61F09F3F4A
:103B900079F087950895121613061406551FF2CF73
:103BA0004695F1DF08C0161617061806991FF1CFC3
:103BB00086957105610508940895E894BB276627EA
:103BC0007727CB0197F90895F999FECF92BD81BD72
:103BD000F89A992780B50895A8E1B0E042E050E056
:103BE0000C940D1E0196272F0E941C1E0C941B1E68
:103BF000262FF999FECF1FBA92BD81BD20BD0FB609
:103C0000F894FA9AF99A0FBE019608950E94F81D49
:103C1000272F0C94F91DDC01CB01FC01F999FECF93
:103C200006C0F2BDE1BDF89A319600B40D92415044
:103C30005040B8F70895262FF999FECF92BD81BD67
:103C4000F89A019700B4021639F01FBA20BD0FB6DA
:103C5000F894FA9AF99A0FBE0895DB018F939F9317
:103C60000E945F1EBF91AF91A29F800D911DA39FE7
:103C7000900DB29F900D11240895A1E21A2EAA1B57
:103C8000BB1BFD010DC0AA1FBB1FEE1FFF1FA2170C
:103C9000B307E407F50720F0A21BB30BE40BF50B09
:103CA000661F771F881F991F1A9469F76095709592
:103CB000809590959B01AC01BD01CF0108950E94B4
:103CC000A11EA59F900DB49F900DA49F800D911DE6
:103CD000112408952F923F924F925F926F927F929C
:103CE0008F929F92AF92BF92CF92DF92EF92FF920C
:103CF0000F931F93CF93DF93CDB7DEB7CA1BDB0BB8
:103D00000FB6F894DEBF0FBECDBF09942A8839885C
:103D100048885F846E847D848C849B84AA84B98463
:103D2000C884DF80EE80FD800C811B81AA81B9816F
:103D3000CE0FD11D0FB6F894DEBF0FBECDBFED0183
:103D40000895A29FB001B39FC001A39F700D811D74
:103D50001124911DB29F700D811D1124911D089594
:043D6000F894FFCF05
:103D640098009800100E100E0800008006800000D5
:103D74000000001D019900E600C400D800640100A1
:103D84000000008601000000003A1174727565009D
:103D940022225C5C6208660C6E0A720D7409006E65
:103DA400756C6C0066616C7365004E614E00496E03
:103DB40066696E69747900652D003438564944008B
:103DC400434D4400536574206E657720566F6C74C0
:103DD40061676520626F7264657273006D61784318
:103DE40056006D696E4356006E6577206D617843A9
:103DF400563A20006E6577206D696E43563A20006E
:103E040041737369676E696E67204D6F64756C6585
:103E14007320746F206120506F727450696E00209B
:103E24002D3E20004D61696E74616E616E63652084
:103E34004F4E004D61696E74616E616E6365204F13
:103E440046460053657474696E67206E6577204931
:103E5400443A20006E657749440053657474696E72
:103E640067206E6577206E756D626572206F6620BF
:103E7400696E7374616C6C6564204D6F64756C65F8
:103E8400733A2000696E73746D6F64004F4B2C207D
:103E9400706C65617365207265626F6F74206D6507
:103EA400006D6F64756C6573000D0A006D7949448B
:103EB4000041756620676568747321004D65696EFD
:103EC400652049443A20004B6F6E666967757261DC
:103ED40074696F6E3A004D6178696D616C65205A42
:103EE400656C6C7370616E6E756E67286D56293AD9
:103EF40020004D696E696D616C65205A656C6C7348
:103F040070616E6E756E67286D56293A20004341C4
:103F14004E204F4B0053656E64652062616C616E88
:103F240063650062616C616E636520676573656ECD
:103F3400646574004D6F64756C20003A203078001D
:103F4400204D6F64756C6520676566756E64656E7B
:103F54002E20536F6C6C3A2000506F7274736100A2
:103F640041766C4D696E43560041766C4D696E43E3
:103F7400564D6F640041766C4D617843560041762E
:103F84006C4D617843564D6F640042616C416374BB
:103F9400697600566F6C746167650043414E204E2C
:063FA4004F54204F4B00BA
:00000001FF
