:100000000C9482000C94BA170C94E7170C94AA0075
:100010000C94AA000C94AA000C94AA000C94AA00B8
:100020000C94AA000C94AA000C94AA000C94AA00A8
:100030000C94AA000C94AA000C94AA000C94AA0098
:100040000C94E7180C94AA000C94AF140C94E114CF
:100050000C94AA000C94AA000C94AA000C94AA0078
:100060000C94AA000C94AA007C0623067C06960633
:10007000E206F106F706FC06EF0BF30B980B9B0B61
:100080009E0BA10BA40BA70BAA0BAD0BB00BB40BD3
:10009000B70BC50BF70BC80BCB0BCF0BD20BD60B8B
:1000A000D90BDD0BE00BE30BE60BE90B00000008BE
:1000B000000201000003040700000000000000002F
:1000C00001020408102040800102040810200102EF
:1000D00004081020040404040404040402020202BC
:1000E00002020303030303030000000025002800AD
:1000F0002B0000000000240027002A00530559139C
:1001000011159C0511241FBECFEFD8E0DEBFCDBF77
:1001100012E0A0E0B1E0EEE7F1E402C005900D923C
:10012000AA3CB107D9F725E0AAECB2E001C01D92C4
:10013000A73FB207E1F710E0C2E0D1E004C0229788
:10014000FE010E94A71CCC3FD107C9F70E94D81816
:100150000C94B2200C9400009C01FC01E653FF4F6C
:1001600080819181680F791F693C710530F471833A
:1001700060830296820F931F089580E090E00895B7
:1001800082EC93E00C94DB08CF93DF93FC01808139
:1001900091819C01235031092230310528F462817C
:1001A00073818481958129C0873091053CF06281FB
:1001B0007381848195810E94211B1FC00197029742
:1001C000C8F4C281D3812097A9F0BE018BE091E0F1
:1001D0000E94F51F892B49F04AE050E060E070E092
:1001E000CE01DF91CF910C94B01E61E070E080E011
:1001F00090E003C060E070E0CB01DF91CF91089503
:100200006115710559F0FB0101900020E9F7AF017C
:1002100041505109461B570B0C94CC1080E090E0E4
:100220000895DF92EF92FF920F931F93CF93DF9386
:10023000EC01D62E0A811B81E880F980B801C70144
:100240000E94F410FC01009741F4C7010E94CB11F9
:10025000FC01009771F01383028384E090E09583A2
:1002600084834D2D50E060E070E0468357836087C3
:100270007187CE01DF91CF911F910F91FF90EF9089
:10028000DF900895AF92BF92CF92DF92EF92FF92EC
:100290000F931F93CF93DF9300D000D0CDB7DEB77D
:1002A00000E010E02AECE22E22E0F22EC8010E94CB
:1002B0000520F70181937F010F5F1F4FF0E00031B0
:1002C0001F07A1F784E190E00E940D209C012453B8
:1002D00038402F30364028F49093C1038093C003F8
:1002E0000CC082E49EE09093C1038093C00362E45B
:1002F0007EE084E190E00E94132082E190E00E9481
:100300000D209C01245338402F30364028F4909320
:10031000BF038093BE030CC084E398E09093BF03B7
:100320008093BE0364E378E082E190E00E941320B2
:1003300081E190E00E9405208093BD0361E087E0A9
:100340000E94E01961E086E00E94E01961E085E02A
:100350000E94E0191EE061E0812F0E94E01961E037
:10036000812F0E94191A1F5F1431A9F761E087E0FD
:100370000E94191A61E086E00E94191A61E085E086
:100380000E94191A6091BD038091EC029091ED02D8
:100390009A83898380E191E09C838B83CE010196CF
:1003A0000E94110126E040E052EC61E070E087E439
:1003B00095E00E944D1464E670E080E090E00E94B9
:1003C000541965E171E087E495E00E94AF1560E2A1
:1003D00071E087E495E00E9492154AE050E0609158
:1003E000BD0387E495E00E9480166BE271E087E42C
:1003F00095E00E94AF156AE371E087E495E00E9402
:1004000092156091C0037091C1034AE050E087E407
:1004100095E00E94971666E571E087E495E00E94FA
:1004200092156091BE037091BF034AE050E087E4EB
:1004300095E00E94971682EC93E00E94040842E047
:1004400050E060EC70E080E00E949A1764E670E093
:1004500080E090E00E9454199091DA0280910A01A4
:10046000981709F46DC060E17EE082EC93E00E9491
:10047000690860E170E080E090E00E94541982EC2D
:1004800093E00E941E091092DA0294ECE92E93E0A8
:10049000F92E00E010E0F70180818823A9F162E7DE
:1004A00071E087E495E00E9492154AE050E0609187
:1004B000DA0287E495E00E94791669E771E087E443
:1004C00095E00E94921540E150E0B80187E495E084
:1004D0000E9464166EE771E087E495E00E94921531
:1004E0004AE050E0F801E653FD4F608187E495E073
:1004F0000E9480168091DA02E82FF0E0E552FD4F6D
:1005000000838F5F8093DA020F5F1F4FFFE0EF0ED3
:10051000F11C0031110509F0BECF4AE050E06091B6
:10052000DA0287E495E00E94791663E871E087E4D7
:1005300095E00E94AF1568EE73E080E090E08ACF0E
:1005400004EC13E0C12CD12C760184E0A82EB12C50
:10055000F8018081882379F08091EA029091EB0282
:100560000E94EE11009739F0FC01B382A282C4828E
:10057000D582E682F782015F1F4FFFEFCF1ADF0AB5
:10058000EF0AFF0A40E1C416D104E104F10401F7C7
:100590000F900F900F900F90DF91CF911F910F91BF
:1005A000FF90EF90DF90CF90BF90AF900895CF92E3
:1005B000DF92EF92FF920F931F93CF93DF93EC01A3
:1005C0006B010A811B81E880F980B801C7010E9494
:1005D000F410FC01009741F4C7010E94CB11FC010B
:1005E000009769F01383028384E090E0958384830D
:1005F000A60160E070E04683578360877187CE0173
:10060000DF91CF911F910F91FF90EF90DF90CF90EE
:1006100008952F923F924F925F926F927F928F92A6
:100620009F92AF92BF92CF92DF92EF92FF920F9381
:100630001F93CF93DF93CDB7DEB764970FB6F894CF
:10064000DEBF0FBECDBF9E012F5F3F4F3C872B8784
:1006500086E0F90111928A95E9F78091060190915F
:1006600007016091C0037091C1036817790720F4F6
:100670008234FEE09F0720F02091BA03213019F464
:10068000BC016F5F7F4F82EC93E00E94690860E1DC
:1006900070E080E090E00E94541982EC93E00E94A8
:1006A0001E098091DA02282F30E0388B2F87309195
:1006B000C203398B4BED842E42E0942E1D86412CD3
:1006C000512C3201312C1E86A12CB12C50E1C52EAB
:1006D0005EE0D52EC4018B5D9240EF85F8898E17C0
:1006E0009F070CF071C0F40121904F01022D10E022
:1006F0002FE0209FF001219FF00D1124EE53FC4FBD
:100700008281882309F45DC084853989831721F0AB
:1007100083818F5F838301C013824FE0409F70010C
:10072000419FF00C1124C7018E539C4F7C01FC01AA
:100730008685FD85F80FFD87F7016085718580E06E
:1007400090E00E94521B9B01AC01C301B2010E94C8
:10075000511A2B013C01F701868197818C159D056B
:1007600010F42E866C012FE0209FF001219FF00DE8
:100770001124EE53FC4F24813581A216B30610F0EC
:10078000232C01C0590123343E4070F48533984036
:1007900058F02FE0209FF001219FF00D1124EE531F
:1007A000FC4F8381873070F0F801E653FD4F808164
:1007B000E3EFFFEFEC0FFD1FE80FF11D31E0308399
:1007C00001C0232C322C86CF8091BA038130E9F40A
:1007D000812C912C00E010E0EE24E394F12C61E0F8
:1007E0008EE0880D0E94191AC701082C02C0880FDC
:1007F000991F0A94E2F7082B192BFFEF8F1A9F0A13
:1008000026E08216910459F72BC0CE0101964C01C7
:10081000E12CF12C00E010E090E021E030E0F40168
:1008200061914F01613051F4C9010E2C02C0880F53
:10083000991F0A94E2F7082B192B91E08EE08E0D98
:100840002B8B3C8B9A8B0E94191AFFEFEF1AFF0A31
:100850002B893C899A8946E0E416F10401F701C02E
:1008600091E0692F87E00E94191A6091BD03809181
:10087000EC029091ED0298878F8380E191E09A8756
:100880008987CE0107960E941101E090EC02F0905A
:10089000ED0264E971E0C7010E94F410009751F481
:1008A000C7010E94CB11009791F024E931E0FC01CF
:1008B0003383228324E030E0FC0135832483222724
:1008C00017FD2095322F068317832087318720E07C
:1008D00030E040E651E4C301B2010E94081C2B0144
:1008E0003C016091DA0270E080E090E00E94541BCD
:1008F0009B01AC01C301B2010E94B91A20E030E0B3
:100900004AE754E40E94B91A2B013C01D092070136
:10091000C0920601B092BC03A092BB038091EC028E
:100920009091ED0298878F838BE991E09A87898770
:10093000B601CE0107960E94D7028091EC029091F9
:10094000ED0298878F8384EA91E09A8789876E8584
:10095000CE0107960E9411016091BB037091BC0308
:100960008091EC029091ED0298878F8380EB91E06B
:100970009A878987CE0107960E94D7028091EC0260
:100980009091ED0298878F8389EB91E09A87898710
:10099000632DCE0107960E9411018091EC02909187
:1009A000ED0298878F8385EC91E09A8789876D8522
:1009B000CE0107960E9411010091EC021091ED0208
:1009C0006EEC71E0C8010E94F410FC01009751F434
:1009D000C8010E94CB11FC01009761F08EEC91E000
:1009E0009383828389E090E0958384834682578253
:1009F00060867186809106019091070190930901AC
:100A000080930801FD85FF2311F061E001C060E0E3
:100A100086E00E94191A8091BB039091BC0320913B
:100A2000060130910701821B930B059738F461E0B2
:100A300085E00E94191A1092BA0304C060E085E0B4
:100A40000E94191A8091BB039091BC03209106016A
:100A500030910701821B930B893C910518F081E0CE
:100A60008093BA0364960FB6F894DEBF0FBECDBF75
:100A7000DF91CF911F910F91FF90EF90DF90CF907A
:100A8000BF90AF909F908F907F906F905F904F90AE
:100A90003F902F90089564E670E080E090E00E941F
:100AA00054190C9409030F931F93CF93DF936AE0BB
:100AB00082EC93E00E94130A8DE792E09093EF029C
:100AC0008093EE021092B9031092B8038EEE92E07A
:100AD0000E94B710EC019093ED028093EC028881A4
:100AE00099810097E1F00E94A2108C0166ED71E0FF
:100AF000CE010E94F410FC01009751F4CE010E9437
:100B0000CB11FC01009771F026ED31E03383228395
:100B100025E030E0358324830683178303C023E474
:100B200035E001C098013093EB022093EA02DF9197
:100B3000CF911F910F91089582EC93E00C941F0ABE
:100B4000BF92CF92DF92EF92FF920F931F93CF93BA
:100B5000DF93CDB7DEB7C65DD1090FB6F894DEBF1F
:100B60000FBECDBF61E771E0CE0183539F4F0E945E
:100B7000821868EC70E0CE0183539F4F0E944518A5
:100B800087E495E00E946A13892B59F087E495E089
:100B90000E948313682FCE0183539F4F0E94C41875
:100BA000EFCF8DE792E09A838983C553DF4F198297
:100BB0001882CB5CD040C353DF4F68817981CD5C14
:100BC000D040CE0101960E9400014AE0BC01CE0156
:100BD00001960E9434138C01F090BD036EED71E01C
:100BE0000E94F410009721F004960E94C40001C0F6
:100BF00060E06F1589F06EED71E0C8010E94F4109D
:100C0000009721F004960E94C40002C060E070E0EA
:100C10006F3F710509F020C164EE71E0C8010E94C8
:100C2000F410009721F004960E94C40001C060E017
:100C3000462F50E04830510508F004C1FA01EC5C41
:100C4000FF4F0C94A51C68EE71E087E495E00E94CC
:100C5000AF1560E072E0C8010E94F410009721F027
:100C600004960E94C40002C060E070E07093C1036B
:100C70006093C00366E072E0C8010E94F410009720
:100C800021F004960E94C40002C060E070E07093FE
:100C9000BF036093BE036CE072E087E495E00E94BE
:100CA00092156091C0037091C1034AE050E087E45F
:100CB00095E00E94971668E172E087E495E00E9453
:100CC00092156091BE037091BF034AE050E087E443
:100CD00095E00E9497166091C0037091C10384E172
:100CE00090E00E9427206091BE037091BF0382E1D3
:100CF00090E00E942720A0C08091EC029091ED022C
:100D000027E435E0CD52DF4F39832883C35DD040DF
:100D1000CB52DF4F19821882C55DD040BE016D52A3
:100D20007F4F0E94991161E771E088C061EE71E028
:100D3000C8010E94F410009729F004960E94C40094
:100D4000B62E01C0B12C64E272E087E495E00E9407
:100D5000AF15EB2CF12C6BE372E0C8010E94F4108C
:100D6000009721F004960E94C40001C060E0C70112
:100D700086539D4F6C01FC0160834AE050E06B2D6F
:100D800087E495E00E9479166EE771E087E495E0CC
:100D90000E9492154AE050E0F601608187E495E0F8
:100DA0000E9480166BE372E0C8010E94F410009765
:100DB00021F004960E94C40001C060E0C701805089
:100DC000904038C01EE061E0812F0E94191A62E352
:100DD00070E080E090E00E9454191F5F143199F791
:100DE0002BC081E08093BA0363E472E027C01092C5
:100DF000BA0362E572E022C062E672E087E495E041
:100E00000E94921563E772E0C8010E94F4100097F7
:100E100021F004960E94C40001C060E06093BD030D
:100E20004AE050E087E495E00E9480166091BD039F
:100E300081E190E00E9419206EE872E087E495E07D
:100E40000E94AF1564E670E080E090E00E945419C3
:100E500061E086E00E94191ACE0183539F4F0E94E1
:100E60001418CA52DF4F0FB6F894DEBF0FBECDBFC5
:100E7000DF91CF911F910F91FF90EF90DF90CF9076
:100E8000BF9008958F929F92AF92BF92CF92DF92C0
:100E9000EF92FF920F931F93CF93DF93CA010197B5
:100EA000860F971F60E070E0DC01A095B095882464
:100EB0008A94982CEE24E394F12C6417750761F161
:100EC0006C01F3E0D694C794FA95E1F7C20ED31EF5
:100ED000FD01E60FF71FE770FF2700FF0BC057016A
:100EE00002C0AA0CBB1CEA95E2F7F501E601F88105
:100EF000FE2B0BC0540102C0AA0CBB1CEA95E2F702
:100F0000F501E095E601F881FE23F8831695079533
:100F10006F5F7F4F0197D1CFDF91CF911F910F91DD
:100F2000FF90EF90DF90CF90BF90AF909F908F9009
:100F300008950F931F93CF93DF93CB01FA01EB0139
:100F400077FD279613E0D595C7951A95E1F768E0E8
:100F500070E00E946F1CD901AC0FB11D4C91E930BB
:100F6000F1050CF5C0E050E09C013327A1E0B0E0B2
:100F70006C2F772767FD70956E177F075CF4620F03
:100F8000731FCD0102C0880F991F6A95E2F7580FB1
:100F9000CF5FEECF4523842F90E002C095958795D3
:100FA0002A95E2F72CC0D82F60E070E010E080E0D6
:100FB00090E008E0C150AD2FB0E050E00D2E02C02F
:100FC000559547950A94E2F7012E02C0440F551F2C
:100FD0000A94E2F7840F951F402F4D1B140F1897AA
:100FE000EA0FFB1F4C2F461BD901A40FB11D4C91DA
:100FF0006F5F7F4F1E161F0614F4D0E0DCCFDF9129
:10100000CF911F910F9108950F931F93CF93DF936B
:10101000EC01CD51DF4F42E06CE0CE010E94040EA6
:10102000882341F06FE772E087E495E00E94AF15F6
:1010300080E04AC000E013E020E030E040E060E003
:10104000CE010E94220E00E013E020E030E040E0FC
:1010500061E0CE010E94220E00E012E020E030E0CC
:1010600040E060E0CE010E94670E00E010E09801D1
:1010700040E061E0CE010E94670E00E010E09801C0
:1010800040E062E0CE010E94670E00E010E09801AF
:1010900040E063E0CE010E94670E00E010E098019E
:1010A00040E064E0CE010E94670E00E010E098018D
:1010B00040E065E0CE010E94670E6AE872E087E4D6
:1010C00095E00E94AF1581E0DF91CF911F910F91C4
:1010D0000895AF92BF92CF92DF92EF92FF920F935B
:1010E0001F93CF93DF93CDB7DEB728970FB6F89451
:1010F000DEBF0FBECDBF6C015B01CE0101967C014E
:1011000088E0F70111928A95E9F780E18D83F60175
:1011100080818F5F803110F4808302C0F6011082DD
:10112000F601008110E0970144E050E060E070E0DB
:10113000C6010E944207C501F3E4AF16FEE0BF06F8
:1011400010F082E49EE0803629E0920710F480E6F9
:1011500099E0BC01685E734080E090E00E94521B01
:101160009B01AC010E94511A0E94261B8B01970122
:101170004DE050E068E070E0C6010E94420708E0E0
:1011800020E040E550E060E070E0C6018D519F4FE7
:101190000E942B0F28960FB6F894DEBF0FBECDBF6E
:1011A000DF91CF911F910F91FF90EF90DF90CF9043
:1011B000BF90AF900895AF92BF92CF92DF92EF921F
:1011C000FF920F931F93CF93DF931F92CDB7DEB79C
:1011D00019826C0124EFC20ED11C8C015C0182E1EA
:1011E000A80EB11C780123EEE20EF11CC7010E948B
:1011F0008D0F8330B9F4A601BE016F5F7F4FC70129
:101200000E945B0FC7010E94950FF801E459FE4F41
:101210007183608388E0C80ED11C0E5F1F4F0A15D2
:101220001B0521F70F90DF91CF911F910F91FF9038
:10123000EF90DF90CF90BF90AF9008956F927F9224
:101240008F929F92AF92BF92CF92DF92EF92FF92D6
:101250000F931F93CF93DF93EC016C018C010C5023
:101260001F4F4C0180E1880E911C8FE0782E662480
:101270006394F601E459FE4F808191819C013250C4
:101280002F30310508F0B7C05C01BB247E01879D7B
:10129000E00CF11C1124F7016282980144E050E057
:1012A00060E070E0CE010E9499078B3051F4980104
:1012B00048E050E068E070E0CE010E949907F70135
:1012C0008687980143E050E068E170E0CE010E941B
:1012D0009907029729F5980148E050E068E070E02E
:1012E000CE010E9499077A9C70017B9CF00C11241E
:1012F000EC0EFD1EBC0180E090E00E94521B20E03D
:1013000030E040E05FE30E94081C20E030E040E273
:1013100052E40E94501A0E94211BF70173876287D2
:10132000980144E050E064E070E0CE010E9499072B
:101330007A9C70017B9CF00C1124EC0EFD1EF701D1
:10134000848798014DE050E06BE170E0CE010E948F
:101350009907BC0180E090E00E94521B20E030E041
:1013600040E05FE30E94081C20E030E04AE754E4DC
:101370000E94511A0E94261BF70177836683980109
:101380004DE050E06BE270E0CE010E949907BC0195
:1013900080E090E00E94521B20E030E040E05FE3FC
:1013A0000E94081C20E030E04AE754E40E94511AF1
:1013B0000E94261BF7017583648398014DE050E07D
:1013C0006BE370E0CE010E949907BC0180E090E0E1
:1013D0000E94521B20E030E040E05FE30E94081CC6
:1013E00020E030E04AE754E40E94511A0E94261B94
:1013F000F70171876087F2E0CF0ED11C085F1F4FA5
:10140000C814D90409F035CFDF91CF911F910F9106
:10141000FF90EF90DF90CF90BF90AF909F908F9014
:101420007F906F900895CF93DF93EC018D519F4F84
:101430000E94F60D19821882DF91CF9108950895C8
:10144000CF93CFB7F89480913E05811127C0EEED80
:10145000F0E08491EAECF0E09491E82FF0E0EE0FF8
:10146000FF1FEE50FF4FA591B4918C91892321F479
:1014700061E08AE00E94191A61E08AE00E94E019A6
:101480008CB580618CBD8CB580648CBD61E08DE0D5
:101490000E94E01961E08BE00E94E01980913E0516
:1014A0008F5F80933E05CFBFCF9108958EBD000022
:1014B0000DB407FEFDCF8EB50895CF93DF93EC01F9
:1014C00060E088890E94191A80EC0E94560A61E047
:1014D00088890E94191A6AE070E080E090E0DF914C
:1014E000CF910C9454191F93CF93DF93EC01162FD7
:1014F00060E088890E94191A83E00E94560A812FB1
:101500000E94560A80E00E94560A182F61E08889DE
:101510000E94191A812FDF91CF911F910895CF92C8
:10152000DF92EF92FF920F931F93CF93DF9300D040
:10153000CDB7DEB78C01E62EF22E60E0FC0180898B
:1015400049835A830E94191A83E00E94560A8E2DFD
:101550000E94560A4981E42EC42E5A81D52E8C2D24
:101560008E198F1538F480E00E94560AF601819397
:101570006F01F5CF61E0F80180890F900F90DF9146
:10158000CF911F910F91FF90EF90DF90CF900C942F
:10159000191AEF92FF921F93CF93DF931F92CDB74B
:1015A000DEB77C01162F60E0FC01808949830E9430
:1015B000191A82E00E94560A812F0E94560A498118
:1015C000842F0E94560A61E0F70180890F90DF9115
:1015D000CF911F91FF90EF900C94191ACF92DF9248
:1015E000EF92FF920F931F93CF93DF9300D0CDB76D
:1015F000DEB78C01E62EF22E60E0FC018089498383
:101600005A830E94191A82E00E94560A8E2D0E9467
:10161000560A4981E42EC42E5A81D52E8C2D8E195E
:101620008F1530F4F60181916F010E94560AF6CFB2
:1016300061E0F80180890F900F90DF91CF911F91A9
:101640000F91FF90EF90DF90CF900C94191AEF92CA
:10165000FF921F93CF93DF9300D0CDB7DEB77C010D
:10166000162F60E0FC0180892A8349830E94191AA1
:1016700085E00E94560A812F0E94560A4981842FD4
:101680000E94560A2A81822F0E94560A61E0F701C1
:1016900080890F900F90DF91CF911F91FF90EF9075
:1016A0000C94191A1F93CF93DF93EC0160E08889A3
:1016B0000E94191A80EA0E94560A80E00E94560A87
:1016C000182F61E088890E94191A812FDF91CF912C
:1016D0001F9108951F93CF93DF93EC01162F262FB0
:1016E00040EE6FE00E94270B6FE0CE010E94730A6C
:1016F000982F907E81E0911301C080E0DF91CF911F
:101700001F9108950F931F93CF93DF93EC01413006
:1017100019F0423079F161C0462F50E0FA0131975B
:10172000ED30F10508F059C0E45CFF4F0C94A51CA6
:1017300017E80FEF5EC015E801EF5BC017E80FEF89
:101740002CC017E80AEF29C017E80FEF2DC017E8E3
:101750000AEF2AC016E800EF27C017E80AEF2BC0EF
:1017600015E801EF41E446C016E800EF34C012E886
:1017700000ED31C0462F50E0FA013197ED30F10510
:1017800060F5E75BFF4F0C94A51C17E00FEB2DC035
:1017900017E00FEB02C014E004EA47E02BC017E0AB
:1017A0000FEB02C016E004EB43E024C017E00FEBA0
:1017B00002C016E004EB41E01DC015E001EBFBCFD9
:1017C00016E004EB08C015E001EB05C012E000E9EB
:1017D00002C010E000E840E00DC081E01AC017E848
:1017E0000FEF4FE307C017E80FEF4FE103C017E01B
:1017F0000FEB4FE06AE2CE010E94C90A402F69E276
:10180000CE010E94C90A412F68E2CE010E94C90A96
:1018100080E0DF91CF911F910F9108950F931F9357
:10182000CF93DF9300D000D0CDB7DEB74130B1F415
:101830000C831B83890122273327502F5C71402F93
:10184000437078E0579F400D112448604A8355E06B
:10185000169507955A95E1F709830DC0A80123E075
:10186000569547952A95E1F749830295000F007E2A
:101870000A831C821B8224E0AE014F5F5F4F0E94EF
:10188000EE0A0F900F900F900F90DF91CF911F9164
:101890000F9108950F931F93CF93DF93EC0100E016
:1018A00010E0980141E060E20E940E0C00E010E0C0
:1018B000980141E064E2CE010E940E0C00E010E0CD
:1018C000980141E060E0CE010E940E0C00E010E0C3
:1018D000980140E064E0CE010E940E0C00E010E0B0
:1018E000980141E068E0CE010E940E0C00E010E09B
:1018F000980140E060E1CE010E940E0C00E010E093
:10190000980141E064E1CE010E940E0C00E010E07D
:10191000980140E068E1CE010E940E0C10E340E027
:10192000612FCE010E94C90A60E1610F40E0CE0143
:101930000E94C90A60E2610F40E0CE010E94C90A1C
:101940001F5F1E3361F740E060E6CE010E94C90AC6
:1019500040E060E7CE01DF91CF911F910F910C9491
:10196000C90AEF92FF920F931F93CF93DF931F92B9
:10197000CDB7DEB77C01062F49830E945D0A60E87F
:10198000C7010E946A0B182F4981811125C0602F61
:10199000C7010E94820B81111FC0C7010E944A0C1F
:1019A00043E06BE2C7010E94C90A24E044E660E616
:1019B000C7010E94270B20E040E660E7C7010E94B4
:1019C000270B60E0C7010F90DF91CF911F910F911E
:1019D000FF90EF900C946A0B812F0F90DF91CF91C5
:1019E0001F910F91FF90EF900895EF92FF920F9348
:1019F0001F93CF93DF9300D000D0CDB7DEB77A012D
:101A00008901FA011082F901108211821282138277
:101A100024E0AE014F5F5F4F0E948F0A2A81398117
:101A2000822F90E045E0959587954A95E1F7F8E09B
:101A30003F9F800D911D1124AA2797FDA095BA2FD5
:101A4000F80180839183A283B38323FF25C062E0E2
:101A5000880F991FAA1FBB1F6A95D1F72370820FA9
:101A6000911DA11DB11DBA2FA92F982F88272B8159
:101A7000820F911DA11DB11DBA2FA92F982F882764
:101A80002C81820F911DA11DB11D80839183A283A2
:101A9000B38381E0F70180830F900F900F900F9038
:101AA000DF91CF911F910F91FF90EF900895FF92DA
:101AB0000F931F93CF93DF93EC01F62EAC014A5F97
:101AC0005F4F65E06F0D2D810E94EE0A8E8581309B
:101AD00019F48D8180648D8364E06F0D4D81CE019A
:101AE0000E94C90A09811A812B813C8148816F2D8E
:101AF000CE010E940E0CDF91CF911F910F91FF90AC
:101B000008950F931F93CF93DF93EC01162F9C0141
:101B10002F5F3F4FAC010E94F50C6FEF610FCE01BC
:101B20000E94730A082F64E0610FCE010E94730ABD
:101B3000282F8D8303FF03C081E08E8701C01E869E
:101B40002F702D83AE014A5F5F4F65E0610FCE01BC
:101B5000DF91CF911F910F910C948F0A615028E073
:101B600048E00C94270B9F92AF92BF92CF92DF92E6
:101B7000EF92FF920F931F93CF93DF9300D01F92AA
:101B8000CDB7DEB76C017B0180E3898380E48A8373
:101B900080E58B83FB0110828E010F5F1F4F5E017A
:101BA000F4E0AF0EB11CF80191908F01692DC601D0
:101BB0000E94730A982F987083FD04C09394F701D4
:101BC000908204C00A151B0571F792E0892F0F90CF
:101BD0000F900F90DF91CF911F910F91FF90EF9099
:101BE000DF90CF90BF90AF909F900895CF93DF93F9
:101BF000EC01862F688B61E00E94E01961E0888922
:101C0000DF91CF910C94191ACF93DF9300D000D0BD
:101C1000CDB7DEB74C836B8389839A830E94200AF9
:101C20004C816B8189819A810E94B10C91E0811174
:101C300001C090E0892F0F900F900F900F90DF91CF
:101C4000CF9108958F929F92BF92CF92DF92EF92A1
:101C5000FF920F931F93CF93DF931F92CDB7DEB701
:101C60004C01B62E6801790160E849830E946A0B35
:101C7000498181111FC0B11004C09701860160E243
:101C800006C081E0B81206C09701860164E2C40173
:101C90000E940E0C60E0C4010F90DF91CF911F9164
:101CA0000F91FF90EF90DF90CF90BF909F908F901B
:101CB0000C946A0B0F90DF91CF911F910F91FF90C1
:101CC000EF90DF90CF90BF909F908F900895AF924C
:101CD000BF92CF92DF92EF92FF920F931F93CF9319
:101CE000DF9300D0CDB7DEB75C01562F68017901D4
:101CF00060E84A8359830E946A0B4A8159818111A5
:101D000036C05230B1F040F4552379F05130F9F437
:101D10009701860164E018C0543099F070F0553096
:101D2000B1F49701860168E10FC09701860160E078
:101D30000BC09701860168E007C09701860160E14A
:101D400003C09701860164E1C5010E940E0C60E0AA
:101D5000C5010F900F90DF91CF911F910F91FF90D0
:101D6000EF90DF90CF90BF90AF900C946A0B0F90E4
:101D70000F90DF91CF911F910F91FF90EF90DF9027
:101D8000CF90BF90AF900895EF92FF920F93CF93B3
:101D9000DF93FC0120834183528363837483058333
:101DA000D70180E090E02D91EF01C80FD91F2E835D
:101DB000019688309105B9F780E0DF91CF910F91BE
:101DC000FF90EF900895EF92FF920F931F93CF93A0
:101DD000DF931F92CDB7DEB78C01E12CF12CBE0151
:101DE0006F5F7F4FC8010E94B30D9FEFE91AF90A98
:101DF000823029F482E3E816F10489F723C092E3E4
:101E0000E916F104F9F06981C8010E94570D698152
:101E1000C8010E94AE0DE12CF12C8FEFE81AF80AF0
:101E20006981C8010E94730A83FF06C092E3E91624
:101E3000F10499F787E007C082E3E816F104D1F3D3
:101E400080E001C086E00F90DF91CF911F910F914C
:101E5000FF90EF900895EF92FF920F93CF93DF934F
:101E6000EC010E94C40ECE01DF91CF910F91FF9043
:101E7000EF900C94E30ECF93DF93EC010E94520B92
:101E800080FF07C061E6CE010E94810D20E041E0A5
:101E900008C081FF0CC061E7CE010E94810D20E0E7
:101EA00042E06CE2CE010E94270B80E001C084E09A
:101EB000DF91CF910895EF92FF920F931F93CF93ED
:101EC000DF9300D0CDB7DEB77C018B0149835A8305
:101ED0000E943B0FD70115968C91F80180834981B0
:101EE000E42F5A81F52F80E090E0D70115962C91D0
:101EF00030E08217930744F4D701A80FB91F169654
:101F00002C9121930196F1CF0F900F90DF91CF91FB
:101F10001F910F91FF90EF9008950E94520B8370D4
:101F200011F083E0089584E00895FC0161817281DD
:101F3000838194810895FC0120812D3051F024F497
:101F40002950223030F505C0203219F02F3219F017
:101F500008950196F0CFFC0121812A3219F02F3229
:101F600079F008950296FC012081222321F32A3280
:101F700029F421812F3211F40296DDCF0196F3CF9F
:101F8000FC013296CF0121912223A9F22A30D1F708
:101F9000D2CF0895CF93DF93EC0188819981DC0142
:101FA000ED91FC910190F081E02D09952A813B8112
:101FB000280F391F3B832A83DF91CF910895FF9229
:101FC0000F931F93CF93DF93EC018B016115710584
:101FD00091F461E972E0888199810E9492152A81C9
:101FE0003B81280F391F3B832A83DF91CF911F91BB
:101FF0000F91FF90089562E2CE010E94CA0FF8018E
:1020000061918F01662351F0ECE9F2E0F080FF204E
:1020100099F39181961759F03296F8CF62E2CE018A
:10202000DF91CF911F910F91FF900C94CA0F6CE537
:10203000CE010E94CA0F6F2DDFCFDB01109749F050
:10204000ED91FC9111970190F081E02DBC01CD0143
:10205000099480E090E008950F931F93CF93DF934E
:102060001F92CDB7DEB78C01FC0182819381698319
:102070000E949B0FFC0120816981261308C00196F4
:102080000E949B0FF8019383828381E001C080E06E
:102090000F90DF91CF911F910F910895CF93DF9310
:1020A000EC01AA81BB814C813D812C91273219F42E
:1020B000C42FD32F15C02232D9F3C42FD32FFD0143
:1020C0002AC03C3559F4FD01329612963C91A0EAA3
:1020D000B2E06C91611110C0332339F13993DF0103
:1020E000AE01FD01319611963C9111973323E9F031
:1020F0003213E7CF319619C0631303C011963C9198
:10210000EBCF1296E6CF322F3F7D31543A3148F46F
:10211000299331962081AE0130ED320F3A30C0F371
:10212000F2CF33ED320F323098F3DA011D92EC0129
:102130002C813D81FB83EA83BD83AC83C901DF91A0
:10214000CF910895CF93DF93EC01BC0184E090E040
:102150000E941D10FC01009729F0D183C0831382D7
:10216000128202C083E495E0DF91CF910895CF936E
:10217000DF93EC01BC0184E090E00E941D10FC01A3
:10218000009729F0D183C0831382128202C08FE3AB
:1021900095E0DF91CF910895EF92FF920F931F93F7
:1021A000CF93DF9300D0CDB7DEB78B014F5F5F4F8A
:1021B000DC01ED91FC910190F081E02DBA014983A1
:1021C0005A8309957C0149815A81009719F0B80119
:1021D0000E94EC1FC7010F900F90DF91CF911F91CC
:1021E0000F91FF90EF9008950F931F93CF93DF937C
:1021F0008B01FC01C281D381209759F0B8018A81FB
:102200009B810E94F51F892B39F00990D881C02D40
:10221000F3CF80E090E001C0CE01DF91CF911F911C
:102220000F910895CF93DF93FC01EB012081318161
:102230002530310531F482819381DF91CF910C9467
:1022400073112630310531F482819381DF91CF9172
:102250000C9499112230310539F462817381CE01D9
:10226000DF91CF910C94DF0F2130310519F4628199
:1022700073811EC02430310559F442815381648139
:1022800075812AE030E0888199810E941A1622C067
:102290002330310591F482819381A481B581892B0A
:1022A0008A2B8B2B19F06BE071E002C066E972E0BB
:1022B000888199810E9492150DC02730310584F0E4
:1022C000275030E0428153816481758188819981F2
:1022D0000E9498172A813B81280F391F3B832A834C
:1022E000DF91CF9108950F931F93CF93DF93EC016C
:1022F0008B016BE5C8010E94CA0F0A80DB81C02DEB
:10230000209779F0B801CE0102960E94121109902F
:10231000D881C02D209729F06CE2C8010E94CA0F15
:10232000F1CF6DE5C801DF91CF911F910F910C9412
:10233000CA0F0F931F93CF93DF938C01EB016BE7D1
:10234000CE010E94CA0FF801028113810115110507
:10235000D1F0F80162817381CE010E94DF0F6AE340
:10236000CE010E94CA0FBE01C80104960E9412113C
:10237000F801008111810115110529F06CE2CE01EF
:102380000E94CA0FE6CF6DE7CE01DF91CF911F917A
:102390000F910C94CA0FCF93DF93EC016881798180
:1023A0008AE090E00E941D10009729F0FC01118244
:1023B000108215821482EA81FB81309751F02081CE
:1023C00031812115310511F0F901F9CF9183808315
:1023D00002C09B838A83DF91CF910895CF93DF93CF
:1023E000EC016881798188E090E00E941D100097DF
:1023F00029F0FC011182108213821282EA81FB8192
:10240000309751F0208131812115310511F0F9010A
:10241000F9CF9183808302C09B838A83DF91CF9120
:102420000895DF92EF92FF920F931F93CF93DF9364
:1024300000D000D000D0CDB7DEB78C01FC01808188
:1024400091810E94A2107C016BE5C8010E942C10B2
:10245000882379F16DE5C8010E942C10811127C0F5
:1024600086E0D82E1A821982BE016F5F7F4FC801A5
:102470000E9469128823E9F0C7010E94EE110097BB
:10248000C1F0FE013196DC0112968D2D01900D9266
:102490008A95E1F76DE5C8010E942C10811107C0F3
:1024A0006CE2C8010E942C108111DCCF02C0C70170
:1024B00002C083E495E026960FB6F894DEBF0FBE07
:1024C000CDBFDF91CF911F910F91FF90EF90DF90E3
:1024D0000895FF920F931F93CF93DF93EC018B012D
:1024E0008E81882309F447C081508E838A819B8125
:1024F0000E949B0F9B838A83FC0180818B3519F09E
:102500008B3761F01CC0CE010E941112FC012081AA
:102510003181232B59F125E030E00AC0CE010E9421
:10252000C212FC0120813181232B01F126E030E031
:10253000F801318320839383828381E018C087323E
:1025400031F091E0823209F090E0F92E02C0FF24D0
:10255000F394CE010E944E10009741F0FF2019F035
:1025600022E030E0E5CF21E030E0E2CF80E09E8164
:102570009F5F9E8301C080E0DF91CF911F910F91FB
:10258000FF900895BF92CF92DF92EF92FF920F9348
:102590001F93CF93DF9300D000D000D0CDB7DEB72C
:1025A0008C01FC01808191810E94B7106C016BE766
:1025B000C8010E942C10882309F444C06DE7C801AB
:1025C0000E942C1081113CC096E0B92EC8010E94D7
:1025D0004E107C010097B1F16AE3C8010E942C10F3
:1025E000882381F11A821982BE016F5F7F4FC80173
:1025F0000E946912882331F1B701C6010E94F410CC
:10260000009741F4C6010E94CB110097D9F0FC015C
:10261000F382E282FE013196DC0114968B2D01904B
:102620000D928A95E1F76DE7C8010E942C10811187
:1026300007C06CE2C8010E942C108111C7CF02C0F4
:10264000C60102C08FE395E026960FB6F894DEBF70
:102650000FBECDBFDF91CF911F910F91FF90EF90F3
:10266000DF90CF90BF900895CF93DF93CDB7DEB7C3
:1026700027970FB6F894DEBF0FBECDBF9A8389832C
:102680006115710519F481E791E001C0CB019C83CC
:102690008B837E836D834F83CE0101960E94C2128D
:1026A00027960FB6F894DEBF0FBECDBFDF91CF9156
:1026B0000895109244051092430510924605109219
:1026C00045051092400510923F0510924205109268
:1026D00041050895FC01818D228D90E0805C9F4F23
:1026E000821B91098F7399270895FC01918D828D2A
:1026F000981731F0828DE80FF11D858D90E00895D7
:102700008FEF9FEF0895FC01918D828D981761F0F6
:10271000828DDF01A80FB11D5D968C91928D9F5F18
:102720009F73928F90E008958FEF9FEF089587E059
:1027300095E1892B49F080EA95E0892B29F00E94E8
:10274000071581110C94A0050895FC01848DDF010B
:10275000A80FB11DA35ABF4F2C91848D90E0019614
:102760008F739927848FA689B7892C93A089B18903
:102770008C9180648C93938D848D981306C002880D
:10278000F389E02D80818F7D80830895CF93DF933F
:10279000EC01888D8823C9F0EA89FB89808185FD59
:1027A00005C0A889B9898C9186FD0FC00FB607FCBA
:1027B000F5CF808185FFF2CFA889B9898C9185FFFB
:1027C000EDCFCE010E94A513E7CFDF91CF91089501
:1027D000CF92DF92FF920F931F93CF93DF931F92BD
:1027E000CDB7DEB76C01DC015B969C915B975C9684
:1027F0008C915C97981307C05096ED91FC9151977E
:10280000808185FD32C0F601038D10E00F5F1F4F00
:102810000F731127F02EF601848DF81211C00FB638
:1028200007FCF9CFD6015096ED91FC91519780812C
:1028300085FFF1CFC60169830E94A5136981EBCFA3
:10284000838DE80FF11DE35AFF4F6083D6015B963D
:102850000C935B975296ED91FC9153978081806227
:10286000808381E058968C930DC0D6015696ED91E9
:10287000FC91579760835096ED91FC915197808120
:102880008064808381E090E00F90DF91CF911F9171
:102890000F91FF90DF90CF900895BF92CF92DF927B
:1028A000EF92FF92CF93DF93EC016A017B01B22E8E
:1028B000E889F98982E08083411581EE5807610536
:1028C0007105A1F060E079E08DE390E0A701960149
:1028D0000E94831C215031094109510956954795A1
:1028E00037952795211580E1380798F0E889F9890F
:1028F000108260E874E88EE190E0A70196010E94E2
:10290000831C215031094109510956954795379546
:102910002795EC85FD853083EE85FF852083188E15
:10292000EC89FD89B082EA89FB898081806180839E
:10293000EA89FB89808188608083EA89FB898081BC
:1029400080688083EA89FB8980818F7D8083DF9125
:10295000CF91FF90EF90DF90CF90BF9008951F929E
:102960000F920FB60F9211242F938F939F93EF9393
:10297000FF93E0915705F09158058081E0915D0546
:10298000F0915E0582FD12C09081809160058F5F9D
:102990008F7320916105821751F0E0916005F0E09E
:1029A000E95BFA4F958F8093600501C08081FF91AC
:1029B000EF919F918F912F910F900FBE0F901F90CD
:1029C00018951F920F920FB60F9211242F933F93D9
:1029D0004F935F936F937F938F939F93AF93BF9327
:1029E000EF93FF9387E495E00E94A513FF91EF9189
:1029F000BF91AF919F918F917F916F915F914F9117
:102A00003F912F910F900FBE0F901F90189587E464
:102A100095E00E946A1321E0892B09F420E0822FBF
:102A2000089510924A051092490588EE93E0A0E0BF
:102A3000B0E080934B0590934C05A0934D05B09367
:102A40004E058FEA92E0909348058093470585EC08
:102A500090E0909354058093530584EC90E090931C
:102A600056058093550580EC90E09093580580932F
:102A7000570581EC90E090935A058093590582ECBC
:102A800090E090935C0580935B0586EC90E09093DA
:102A90005E0580935D0510926005109261051092AD
:102AA0006205109263050895CF92DF92EF92FF9234
:102AB0000F931F93CF93DF936C017A01EB01E60E26
:102AC000F71E00E010E0CE15DF0561F06991D60138
:102AD000ED91FC910190F081E02DC6010995080F60
:102AE000191FF1CFC801DF91CF911F910F91FF9076
:102AF000EF90DF90CF9008956115710581F0DB01B3
:102B00000D900020E9F7AD0141505109461B570BCC
:102B1000DC01ED91FC910280F381E02D099480E0CD
:102B200090E008950C947C15DC01ED91FC910190EE
:102B3000F081E02D09940F931F93CF93DF93EC0165
:102B40006DE00E9494158C016AE0CE010E949415FC
:102B5000800F911FDF91CF911F910F9108950F93D7
:102B60001F93CF93DF93EC010E947C158C01CE0163
:102B70000E949B15800F911FDF91CF911F910F91A4
:102B800008958F929F92AF92BF92CF92DF92EF9271
:102B9000FF920F931F93CF93DF93CDB7DEB7A1972B
:102BA0000FB6F894DEBF0FBECDBF7C01C42EE52F5B
:102BB000CB01D22E19A221E02D1510F02AE0D22E41
:102BC0008E010F5D1F4F8D2C912CA12CB12C6C2DE3
:102BD0007E2FA50194010E94831C8C2DD29E80190A
:102BE0001124015011098A3014F4805D01C0895C00
:102BF000F8018083211531054105510521F0C22ED0
:102C0000E32FCA01E4CFB801C7010E947C15A19649
:102C10000FB6F894DEBF0FBECDBFDF91CF911F91ED
:102C20000F91FF90EF90DF90CF90BF90AF909F906B
:102C30008F900895CF92DF92EF92FF920F931F93A0
:102C4000CF93DF93EC016A017B012115310579F403
:102C5000E881F9810190F081E02D642FDF91CF911F
:102C60001F910F91FF90EF90DF90CF9009942A3041
:102C70003105E9F477FF1AC06DE20E9494158C01CA
:102C800044275527BA014C195D096E097F092AE0CE
:102C9000CE010E94C115800F911FDF91CF911F912E
:102CA0000F91FF90EF90DF90CF9008952AE0B70149
:102CB000A601CE01DF91CF911F910F91FF90EF9070
:102CC000DF90CF900C94C1159A01AB01662757FD98
:102CD0006095762F0C941A162115310541F4DC010C
:102CE000ED91FC910190F081E02D642F09940C94FA
:102CF000C1159A01462F50E060E070E00C946C160C
:102D00000F931F93CF93DF93EC019A01462F50E06E
:102D100060E070E00E946C168C01CE010E949B1551
:102D2000800F911FDF91CF911F910F9108950F9305
:102D30001F93CF93DF93EC019A01AB0160E070E049
:102D40000E946C168C01CE010E949B15800F911F72
:102D5000DF91CF911F910F9108954F925F926F92E3
:102D60007F928F929F92AF92BF92CF92DF92EF921B
:102D7000FF920F931F93CF93DF93EC016A017B01C6
:102D8000B22E9A01AB01C701B6010E946B1C8823C9
:102D900019F06BEB72E027C026013701E89477F851
:102DA0002FEF3FEF4FE75FE7C301B2010E946B1CBB
:102DB00081110DC02FEF3FEF4FE75FE7C301B20175
:102DC0000E94B51A18161CF46FEB72E00CC02FEFBE
:102DD0003FEF4FE75FE4C701B6010E94041C1816DD
:102DE000ACF463EC72E0CE01DF91CF911F910F91B3
:102DF000FF90EF90DF90CF90BF90AF909F908F901B
:102E00007F906F905F904F900C947C152FEF3FEF69
:102E10004FE75FECC701B6010E94B51A87FDE1CF0D
:102E200020E030E0A901C701B6010E94B51A87FF72
:102E30000AC06DE2CE010E9494158C01F7FAF0945D
:102E4000F7F8F09402C000E010E0A12C60E070E020
:102E500080E09FE3AB1441F020E030E040E251E439
:102E60000E94B91AA394F6CF9B01AC01C701B60129
:102E70000E94511A6B017C010E94261B2B013C0110
:102E80000E94521B9B01AC01C701B6010E94501A5F
:102E90006B017C012AE0B301A201CE010E94C115A1
:102EA000080F191FBB2039F067EC72E0CE010E94B9
:102EB0007C15080F191F7B2C772041F120E030E0B2
:102EC00040E251E4C701B6010E94081C6B017C017D
:102ED0000E94211B4B01AA2497FCA094BA2C2AE043
:102EE00030E0B501A401CE010E941A16080F191F87
:102EF000C501B4010E94541B9B01AC01C701B6017E
:102F00000E94501A6B017C017A94D6CFC801DF91E0
:102F1000CF911F910F91FF90EF90DF90CF90BF90D6
:102F2000AF909F908F907F906F905F904F9008959B
:102F30000C94AD168230E8F4E82FF0E0EE0FFF1F9E
:102F4000EC51FA4F71836083813041F080916900C8
:102F50008C7F842B80936900E89A089580916900A2
:102F6000440F551F440F551F837F842B80936900A6
:102F7000E99A08951F920F920FB60F9211242F9382
:102F80003F934F935F936F937F938F939F93AF93F1
:102F9000BF93EF93FF938091E4059091E505892B12
:102FA00029F0E091E405F091E5050995FF91EF9195
:102FB000BF91AF919F918F917F916F915F914F9151
:102FC0003F912F910F900FBE0F901F9018951F9259
:102FD0000F920FB60F9211242F933F934F935F934D
:102FE0006F937F938F939F93AF93BF93EF93FF93D1
:102FF0008091E6059091E705892B29F0E091E6059F
:10300000F091E7050995FF91EF91BF91AF919F91E5
:103010008F917F916F915F914F913F912F910F9081
:103020000FBE0F901F901895FC01808191810C9428
:10303000571DCF93DF93EC0188819981009711F0A0
:103040000E94571D198218821D821C821B821A82BF
:10305000DF91CF9108950F931F93CF93DF93EC01EE
:103060008B016F5F7F4F888199810E94E61D0097D9
:1030700031F0998388831B830A8381E001C080E05B
:10308000DF91CF911F910F910895CF93DF93EC01C2
:1030900088819981892B29F08A819B8186179707DE
:1030A00060F4CE010E942B18882341F08C819D8111
:1030B000892B19F4E881F981108281E0DF91CF91A9
:1030C0000895EF92FF920F931F93CF93DF93EC013C
:1030D0007B018A01BA010E944518811104C0CE010A
:1030E0000E94191807C01D830C83B701888199813C
:1030F0000E94FE1FCE01DF91CF911F910F91FF9093
:10310000EF900895FC0111821082138212821582C1
:1031100014826115710559F0FB0101900020E9F757
:10312000AF0141505109461B570B0C94611808958B
:10313000EF92FF920F931F93CF93DF93EC017B01EC
:103140000C811D816115710511F480E016C04115D7
:10315000510591F0040F151FB8010E9445188823EE
:10316000A1F3288139818C819D81B701820F931F42
:103170000E94FE1F1D830C8381E0DF91CF911F9180
:103180000F91FF90EF900895CF93DF9300D0CDB7CC
:10319000DEB769831A8241E050E0BE016F5F7F4F66
:1031A0000E9498180F900F90DF91CF910895089585
:1031B0000E947C190E94D7180E944201C7E9D3E1FE
:1031C0000E944B052097E1F30E949713F9CF1F92BD
:1031D0000F920FB60F9211242F933F938F939F93CB
:1031E000AF93BF938091E9059091EA05A091EB051B
:1031F000B091EC053091E80523E0230F2D3720F442
:103200000196A11DB11D05C026E8230F0296A11D40
:10321000B11D2093E8058093E9059093EA05A093FA
:10322000EB05B093EC058091ED059091EE05A09132
:10323000EF05B091F0050196A11DB11D8093ED053C
:103240009093EE05A093EF05B093F005BF91AF9179
:103250009F918F913F912F910F900FBE0F901F90D4
:1032600018953FB7F8948091ED059091EE05A091E7
:10327000EF05B091F00526B5A89B05C02F3F19F0CA
:103280000196A11DB11D3FBF6627782F892F9A2F68
:10329000620F711D811D911D42E0660F771F881F0F
:1032A000991F4A95D1F70895CF92DF92EF92FF923E
:1032B000CF93DF936B017C010E943119EB01C114A4
:1032C000D104E104F10489F00E944F1A0E943119DF
:1032D0006C1B7D0B683E734090F381E0C81AD108E7
:1032E000E108F108C851DC4FEACFDF91CF91FF90A0
:1032F000EF90DF90CF900895789484B5826084BD7C
:1033000084B5816084BD85B5826085BD85B58160E9
:1033100085BDEEE6F0E0808181608083E1E8F0E049
:103320001082808182608083808181608083E0E878
:10333000F0E0808181608083E1EBF0E08081846057
:103340008083E0EBF0E0808181608083EAE7F0E059
:1033500080818460808380818260808380818160BD
:1033600080838081806880831092C10008958330BB
:1033700081F028F4813099F08230A1F008958730EF
:10338000A9F08830B9F08430D1F4809180008F7D2D
:1033900003C0809180008F7780938000089584B56A
:1033A0008F7702C084B58F7D84BD08958091B00071
:1033B0008F7703C08091B0008F7D8093B000089517
:1033C000CF93DF9390E0FC01E054FF4F2491FC0188
:1033D000EC52FF4F8491882349F190E0880F991FA8
:1033E000FC01EE50FF4FA591B49188519F4FFC0115
:1033F000C591D4919FB7611108C0F8948C91209524
:1034000082238C93888182230AC0623051F4F8941D
:103410008C91322F309583238C938881822B8883E3
:1034200004C0F8948C91822B8C939FBFDF91CF9135
:1034300008950F931F93CF93DF931F92CDB7DEB7FD
:10344000282F30E0F901E455FF4F8491F901E05451
:10345000FF4F1491F901EC52FF4F04910023C9F082
:10346000882321F069830E94B7196981E02FF0E079
:10347000EE0FFF1FE851FF4FA591B4919FB7F8944D
:103480008C91611103C01095812301C0812B8C9315
:103490009FBF0F90DF91CF911F910F9108950895D5
:1034A0005058BB27AA270ED075C166D130F06BD11A
:1034B00020F031F49F3F11F41EF45BC10EF4E0954F
:1034C000E7FB51C1E92F77D180F3BA176207730781
:1034D0008407950718F071F49EF58FC10EF4E095FE
:1034E0000B2EBA2FA02D0B01B90190010C01CA01BE
:1034F000A0011124FF27591B99F0593F50F4503E69
:1035000068F11A16F040A22F232F342F4427585F5A
:10351000F3CF469537952795A795F0405395C9F772
:103520007EF41F16BA0B620B730B840BBAF091502A
:10353000A1F0FF0FBB1F661F771F881FC2F70EC0C9
:10354000BA0F621F731F841F48F48795779567959C
:10355000B795F7959E3F08F0B3CF9395880F08F085
:103560009927EE0F979587950895D9D008F481E0B3
:1035700008950CD00FC107D140F0FED030F021F4F7
:103580005F3F19F0F0C0511139C1F3C014D198F365
:103590009923C9F35523B1F3951B550BBB27AA27D4
:1035A00062177307840738F09F5F5F4F220F331F46
:1035B000441FAA1FA9F333D00E2E3AF0E0E830D012
:1035C00091505040E695001CCAF729D0FE2F27D015
:1035D000660F771F881FBB1F261737074807AB07E3
:1035E000B0E809F0BB0B802DBF01FF2793585F4F58
:1035F0002AF09E3F510568F0B6C000C15F3FECF372
:10360000983EDCF3869577956795B795F7959F5F1C
:10361000C9F7880F911D9695879597F90895E1E070
:10362000660F771F881FBB1F621773078407BA07CF
:1036300020F0621B730B840BBA0BEE1F88F7E0952A
:10364000089504D06894B111D9C00895BCD088F011
:103650009F5790F0B92F9927B751A0F0D1F0660F7E
:10366000771F881F991F1AF0BA95C9F712C0B13099
:1036700081F0C3D0B1E00895C0C0672F782F8827AC
:10368000B85F39F0B93FCCF3869577956795B395D8
:10369000D9F73EF490958095709561957F4F8F4F47
:1036A0009F4F0895E89409C097FB3EF4909580954C
:1036B000709561957F4F8F4F9F4F9923A9F0F92FF8
:1036C00096E9BB279395F695879577956795B79576
:1036D000F111F8CFFAF4BB0F11F460FF1BC06F5F5C
:1036E0007F4F8F4F9F4F16C0882311F096E911C06E
:1036F000772321F09EE8872F762F05C0662371F08F
:1037000096E8862F70E060E02AF09A95660F771FA2
:10371000881FDAF7880F9695879597F90895990F7E
:103720000008550FAA0BE0E8FEEF16161706E8078B
:10373000F907C0F012161306E407F50798F0621BAC
:10374000730B840B950B39F40A2661F0232B242B81
:10375000252B21F408950A2609F4A140A6958FEFA0
:10376000811D811D089597F99F6780E870E060E0F2
:1037700008959FEF80EC089500240A94161617060A
:1037800018060906089500240A9412161306140652
:1037900005060895092E0394000C11F4882352F0B5
:1037A000BB0F40F4BF2B11F460FF04C06F5F7F4F6D
:1037B0008F4F9F4F089557FD9058440F551F59F054
:1037C0005F3F71F04795880F97FB991F61F09F3F0E
:1037D00079F087950895121613061406551FF2CF37
:1037E0004695F1DF08C0161617061806991FF1CF87
:1037F00086957105610508940895E894BB276627AE
:103800007727CB0197F908958ADF08F48FEF0895A1
:103810000BD0C0CFB1DF28F0B6DF18F0952309F048
:10382000A2CFA7CF1124EACFC6DFA0F3959FD1F393
:10383000950F50E0551F629FF001729FBB27F00D5E
:10384000B11D639FAA27F00DB11DAA1F649F6627B3
:10385000B00DA11D661F829F2227B00DA11D621F02
:10386000739FB00DA11D621F839FA00D611D221FBC
:10387000749F3327A00D611D231F849F600D211DA0
:10388000822F762F6A2F11249F5750408AF0E1F043
:1038900088234AF0EE0FFF1FBB1F661F771F881F8C
:1038A00091505040A9F79E3F510570F05CCFA6CFD4
:1038B0005F3FECF3983EDCF3869577956795B79577
:1038C000F795E7959F5FC1F7FE2B880F911D9695A1
:1038D000879597F9089523DF880B990B089597FB37
:1038E000072E16F4009407D077FD09D00E94AB1C78
:1038F00007FC05D03EF4909581959F4F08957095F3
:1039000061957F4F0895A1E21A2EAA1BBB1BFD01F2
:103910000DC0AA1FBB1FEE1FFF1FA217B307E407AE
:10392000F50720F0A21BB30BE40BF50B661F771F06
:10393000881F991F1A9469F76095709580959095E6
:103940009B01AC01BD01CF010895EE0FFF1F059053
:10395000F491E02D0994AA1BBB1B51E107C0AA1FDB
:10396000BB1FA617B70710F0A61BB70B881F991F20
:103970005A95A9F780959095BC01CD010895CF93F4
:10398000DF938230910510F482E090E0E091F5053C
:10399000F091F60520E030E0A0E0B0E0309739F19A
:1039A0004081518148175907B8F04817590771F4F9
:1039B00082819381109729F013969C938E9312978E
:1039C0002CC09093F6058093F50527C0211531058D
:1039D00031F04217530718F0A901DB0101C0EF01D4
:1039E0009A01BD01DF010280F381E02DD7CF2115BF
:1039F0003105F9F0281B390B2430310580F48A8118
:103A00009B816115710521F0FB019383828304C0C2
:103A10009093F6058093F505FE01329644C0FE01B1
:103A2000E20FF31F81939193225031093983288348
:103A30003AC02091F3053091F405232B41F42091F5
:103A40000201309103013093F4052093F305209196
:103A50000001309101012115310541F42DB73EB728
:103A60004091040150910501241B350BE091F305B1
:103A7000F091F405E217F307A0F42E1B3F0B281773
:103A8000390778F0AC014E5F5F4F2417350748F0D7
:103A90004E0F5F1F5093F4054093F305819391936C
:103AA00002C0E0E0F0E0CF01DF91CF910895CF9325
:103AB000DF93009709F487C0FC01329713821282CA
:103AC000C091F505D091F605209781F420813181D0
:103AD000280F391F8091F3059091F4058217930701
:103AE00079F5F093F405E093F3056DC0DE0120E075
:103AF00030E0AE17BF0750F412964D915C911397CA
:103B00009D014115510509F1DA01F3CFB383A28379
:103B100040815181840F951F8A179B0771F48D9105
:103B20009C911197840F951F029691838083129622
:103B30008D919C911397938382832115310529F4EC
:103B4000F093F605E093F5053EC0D9011396FC937A
:103B5000EE9312974D915D91A40FB51FEA17FB07E5
:103B600079F480819181840F951F0296D901119675
:103B70009C938E938281938113969C938E9312973C
:103B8000E0E0F0E08A819B81009719F0FE01EC01F2
:103B9000F9CFCE01029628813981820F931F20919F
:103BA000F3053091F4052817390769F4309729F4A3
:103BB0001092F6051092F50502C013821282D0937E
:103BC000F405C093F305DF91CF910895A0E0B0E034
:103BD000ECEEFDE10C947020EC01CB01209719F480
:103BE0000E94BF1CB8C0FE01E60FF71F9E012250C5
:103BF0003109E217F30708F4ACC0D9010D911C910B
:103C0000119706171707B8F00530110508F49FC083
:103C1000A801445051094617570708F498C00250AC
:103C20001109061B170B019311936D937C93CF0120
:103C30000E94571D8CC05B01A01AB10A4E01800E74
:103C4000911EA091F505B091F605612C712C60E0F4
:103C500070E0109709F449C0A815B905C9F5ED90B1
:103C6000FC901197670142E0C40ED11CCA14DB041A
:103C700078F147018A189B08640142E0C40ED11C08
:103C80001296BC9012971396AC91B5E0CB16D10466
:103C900040F0B282A38391828082D9018D939C935C
:103CA00009C00E5F1F4F0E0D1F1DF9011183008308
:103CB000EB2DFA2F6115710531F0DB011396FC93A2
:103CC000EE93129744C0F093F605E093F5053FC0DC
:103CD0006D917C9111976616770608F43B01BD0142
:103CE00012960D90BC91A02DB4CF6091F305709108
:103CF000F40568157905E9F468167906D0F4409161
:103D00000001509101014115510541F44DB75EB7D5
:103D10006091040170910501461B570BE417F507EC
:103D2000C0F4F093F405E093F305F90191838083E7
:103D30000EC00E94BF1C7C01009759F0A801BE0173
:103D40000E94EC1FCE010E94571DC70104C0CE0186
:103D500002C080E090E0CDB7DEB7EEE00C948C209E
:103D60002F923F925F926F927F928F929F92AF922B
:103D7000BF92CF92DF92EF92FF920F931F93CF9358
:103D8000DF938B01EA016115710521F0DB018C9352
:103D900011969C93209739F09E01225031092332CD
:103DA000310508F0FBC07C016701BFEFCB1ADB0ACD
:103DB0005601F7016080862D90E00E94E41F892B58
:103DC00011F07601F1CFFDE26F120AC0570182E0D7
:103DD000A80EB11CD70111966C90772473940BC078
:103DE000BBE26B1207C05701E2E0AE0EB11CD70177
:103DF00011966C90712CCE018F7E892B89F4B0E3E3
:103E00006B1222C0F50180818F7D883541F561807C
:103E1000F2E0AF0EB11C872D8260782EC0E1D0E0B9
:103E2000C830D105F1F04CF4C230D10511F5C12CE8
:103E3000D12CE12CB0E4FB2E2FC0CA30D10531F0DB
:103E4000C031D10521F115C0209751F7CAE0D0E06B
:103E5000ACECCA2EDC2CEC2CACE0FA2E1DC020976A
:103E6000F9F6C8E0D0E0C12CD12CE12CF0E1FF2E16
:103E700013C060E070E080E090E89E01442737FDC9
:103E80004095542F0E94831C69017A0105C0C12C02
:103E9000D12CE12CE8E0FE2EF50160E020E030E0DE
:103EA000A9014E01AA2497FCA094BA2C1F0170ED21
:103EB000572E560CA9E0A51570F48FEB860D8A31AC
:103EC00018F499EC592E06C08FE9860D8A3130F529
:103ED00089EA582E560C852D90E08C179D07F4F436
:103EE00067FD18C0C216D306E406F50680F0C501CA
:103EF000B4010E9451209B01AC01250D311D411DD3
:103F0000511D213031054105B0E85B0710F06FEF1E
:103F100001C061E03196D1016C90C8CF872D8170CE
:103F20000115110571F0662329F03197D801ED9341
:103F3000FC9307C071FE19C03297D801ED93FC9332
:103F400014C067FF12C0882329F020E030E040E071
:103F500050E804C02FEF3FEF4FEF5FE782E290E0C1
:103F60009093F2058093F10516C0882341F0509597
:103F70004095309521953F4F4F4F5F4F0CC057FFF5
:103F80000AC082E290E09093F2058093F1052FEF52
:103F90003FEF4FEF5FE7B901CA0104C060E070E096
:103FA00080E090E0DF91CF911F910F91FF90EF9013
:103FB000DF90CF90BF90AF909F908F907F906F9049
:103FC0005F903F902F900895911146C0803219F074
:103FD00089508550D0F70895FB01DC0102C00190A3
:103FE0000D9241505040D8F70895FB01DC018D91AE
:103FF000019080190110D9F3990B0895FB01DC01A0
:1040000001900D920020E1F70895F999FECF92BD3D
:1040100081BDF89A992780B50895A8E1B0E042E003
:1040200050E00C9431200196272F0E9440200C94E0
:104030003F20262FF999FECF1FBA92BD81BD20BD2A
:104040000FB6F894FA9AF99A0FBE019608950E9455
:104050001920272F0C941A20992788270895DC010E
:10406000CB01FC01F999FECF06C0F2BDE1BDF89A83
:10407000319600B40D9241505040B8F70895262F64
:10408000F999FECF92BD81BDF89A019700B402164E
:1040900039F01FBA20BD0FB6F894FA9AF99A0FBEFC
:1040A0000895DB018F939F930E946120BF91AF9190
:1040B000A29F800D911DA39F900DB29F900D112482
:1040C00008950E94A320A59F900DB49F900DA49FDA
:1040D000800D911D112408952F923F924F925F926F
:1040E0006F927F928F929F92AF92BF92CF92DF9208
:1040F000EF92FF920F931F93CF93DF93CDB7DEB76D
:10410000CA1BDB0B0FB6F894DEBF0FBECDBF099400
:104110002A88398848885F846E847D848C849B8457
:10412000AA84B984C884DF80EE80FD800C811B8165
:10413000AA81B981CE0FD11D0FB6F894DEBF0FBE94
:10414000CDBFED010895A29FB001B39FC001A39F11
:10415000700D811D1124911DB29F700D811D1124C0
:10416000911D089511E0C2E0D1E004C0FE010E945B
:0E417000A71C2296C430D107C9F7F894FFCFE0
:10417E000000F7058000100E100E087472756500B1
:10418E006D79494400417566206765687473210036
:10419E004D65696E652049443A20004B6F6E666925
:1041AE006775726174696F6E3A004D6178696D6101
:1041BE006C65205A656C6C7370616E6E756E6728D7
:1041CE006D56293A20004D696E696D616C65205AF5
:1041DE00656C6C7370616E6E756E67286D56293ADC
:1041EE0020004D6F64756C20003A20307800202D31
:1041FE003E2000204D6F64756C6520676566756E98
:10420E0064656E00506F727473610041766C4D6917
:10421E006E43560041766C4D696E43564D6F640089
:10422E0041766C4D617843560041766C4D61784312
:10423E00564D6F640042616C416374697600566F2F
:10424E006C74616765006D6F64756C6573003438EE
:10425E0056494400434D4400536574206E657720E3
:10426E00566F6C7461676520626F7264657273005D
:10427E006D61784356006D696E4356006E6577200A
:10428E006D617843563A20006E6577206D696E43F6
:10429E00563A200041737369676E696E67204D6FE1
:1042AE0064756C657320746F206120506F7274504A
:1042BE00696E004D61696E74616E616E6365204F4B
:1042CE004E004D61696E74616E616E6365204F467E
:1042DE00460053657474696E67206E657720494495
:1042EE003A20006E657749440000000000AC0043A0
:1042FE00414E204E4F54204F4B0043414E204F4BCA
:10430E00006E756C6C0066616C73650022225C5CDD
:10431E006208660C6E0A720D74090000000000E857
:10432E001354156A1383137513C6136E616E0069E9
:0A433E006E66006F7666002E000028
:00000001FF
