:100000000C9483000C94DC170C9409180C94AB002E
:100010000C94AB000C94AB000C94AB000C94AB00B4
:100020000C94AB000C94AB000C94AB000C94AB00A4
:100030000C94AB000C94AB000C94AB000C94AB0094
:100040000C9409190C94AB000C94D1140C94031566
:100050000C94AB000C94AB000C94AB000C94AB0074
:100060000C94AB000C94AB00890630068906A306FD
:10007000EF06FE06040709071E07110C150CBA0B44
:10008000BD0BC00BC30BC60BC90BCC0BCF0BD20BDC
:10009000D60BD90BE70B190CEA0BED0BF10BF40B9C
:1000A000F80BFB0BFF0B020C050C080C0B0C0000F3
:1000B0000008000201000003040700000000000027
:1000C00000000102040810204080010204081020F2
:1000D00001020408102004040404040404040202BD
:1000E00002020202030303030303000000002500D1
:1000F00028002B0000000000240027002A006005D3
:100100007B133315A90511241FBECFEFD8E0DEBF46
:10011000CDBF13E0A0E0B1E0E2ECF1E402C0059055
:100120000D92A430B107D9F726E0A4E0B3E001C0F6
:100130001D92A133B207E1F710E0C4E0D1E004C0A2
:100140002297FE010E94C91CCE3FD107C9F70E9429
:10015000FA180C94D4200C9400009C01FC01E65386
:10016000FF4F80819181680F791F693C710530F4E0
:10017000718360830296820F931F089580E090E060
:1001800008958CEF93E00C94FD08CF93DF93FC016E
:10019000808191819C01235031092230310528F45E
:1001A000628173818481958129C0873091053CF0FB
:1001B00062817381848195810E94431B1FC00197D6
:1001C0000297C8F4C281D3812097A9F0BE018BE0C9
:1001D00091E00E941720892B49F04AE050E060E04E
:1001E00070E0CE01DF91CF910C94D21E61E070E0FF
:1001F00080E090E003C060E070E0CB01DF91CF9140
:1002000008956115710559F0FB0101900020E9F78F
:10021000AF0141505109461B570B0C94EE1080E082
:1002200090E00895DF92EF92FF920F931F93CF9388
:10023000DF93EC01D62E0A811B81E880F980B8019A
:10024000C7010E941611FC01009741F4C7010E94EA
:10025000ED11FC01009771F01383028384E090E0BC
:10026000958384834D2D50E060E070E04683578392
:1002700060877187CE01DF91CF911F910F91FF9021
:10028000EF90DF900895AF92BF92CF92DF92EF92FE
:10029000FF920F931F93CF93DF9300D000D0CDB781
:1002A000DEB700E010E024E0E22E23E0F22EC801E9
:1002B0000E942720F70181937F010F5F1F4FF0E01D
:1002C00000311F07A1F784E190E00E942F209C01DC
:1002D000245338402F30364028F49093FB0380930A
:1002E000FA030CC082E49EE09093FB038093FA0330
:1002F00062E47EE084E190E00E94352082E190E0BB
:100300000E942F209C01245338402F30364028F47F
:100310009093F9038093F8030CC084E398E09093E2
:10032000F9038093F80364E378E082E190E00E94AF
:10033000352081E190E00E9427208093F70380E13F
:1003400090E00E94272080930A0161E087E00E94EC
:10035000021A61E086E00E94021A61E085E00E94D4
:10036000021A1EE061E0812F0E94021A61E0812FD3
:100370000E943B1A1F5F1431A9F761E087E00E94D9
:100380003B1A61E086E00E943B1A61E085E00E9432
:100390003B1A6091F70380912603909127039A837B
:1003A000898380E191E09C838B83CE0101960E943A
:1003B000120126E040E052EC61E070E081E895E057
:1003C0000E946F1464E670E080E090E00E9476196D
:1003D00065E171E081E895E00E94D11560E271E08D
:1003E00081E895E00E94B4154AE050E06091F7037F
:1003F00081E895E00E94A2166BE271E081E895E049
:100400000E94D1156AE371E081E895E00E94B4157D
:100410006091FA037091FB034AE050E081E895E0B7
:100420000E94B91666E571E081E895E00E94B41576
:100430006091F8037091F9034AE050E081E895E09B
:100440000E94B9168CEF93E00E94260842E050E02B
:1004500061EC70E080E00E94BC1764E670E080E030
:1004600090E00E9476199091140380910A019817E8
:1004700009F475C060E17EE08CEF93E00E948B0888
:1004800060E170E080E090E00E9476198CEF93E0EC
:100490000E944009109214039EEFE92E93E0F92E7A
:1004A00000E010E0F70180818823A9F162E771E0A4
:1004B00081E895E00E94B4154AE050E06091140391
:1004C00081E895E00E949B1669E771E081E895E07C
:1004D0000E94B41540E150E0B80181E895E00E9427
:1004E00086166EE771E081E895E00E94B4154AE057
:1004F00050E0F801EC5FFC4F608181E895E00E94DC
:10050000A21680911403E82FF0E0EB5EFC4F00830D
:100510008F5F809314030F5F1F4FFFE0EF0EF11CFE
:100520000031110509F0BECF4AE050E0609114039C
:1005300081E895E00E949B1663E871E081E895E010
:100540000E94D1154AE050E06091140381E895E0E3
:100550000E949B1668EE73E080E090E082CF0EEF81
:1005600013E0C12CD12C760184E0A82EB12CF80127
:100570008081882379F080912403909125030E9443
:100580001012009739F0FC01B382A282C482D58296
:10059000E682F782015F1F4FFFEFCF1ADF0AEF0AF3
:1005A000FF0A40E1C416D104E104F10401F70F9001
:1005B0000F900F900F90DF91CF911F910F91FF90AF
:1005C000EF90DF90CF90BF90AF900895CF92DF92E1
:1005D000EF92FF920F931F93CF93DF93EC016B0188
:1005E0000A811B81E880F980B801C7010E941611B9
:1005F000FC01009741F4C7010E94ED11FC01009736
:1006000069F01383028384E090E095838483A601DC
:1006100060E070E04683578360877187CE01DF9189
:10062000CF911F910F91FF90EF90DF90CF900895A1
:100630002F923F924F925F926F927F928F929F92F2
:10064000AF92BF92CF92DF92EF92FF920F931F93E0
:10065000CF93DF93CDB7DEB764970FB6F894DEBFC4
:100660000FBECDBF9E012F5F3F4F3C872B8786E09B
:10067000F90111928A95E9F780910601909107019D
:100680006091FA037091FB036817790720F48234B4
:10069000FEE09F0720F02091F403213019F4BC0103
:1006A0006F5F7F4F8CEF93E00E948B0860E170E0FA
:1006B00080E090E00E9476198CEF93E00E94400960
:1006C00080911403282F30E0388B2F873091FC0362
:1006D000398B45E1842E43E0942E1D86412C512C0C
:1006E0003201312C1E8600E010E050E1A52E5EE0C4
:1006F000B52EC40185519340EF85F8898E179F0769
:100700000CF06FC0F40121904F01E22CF12C2FE08E
:100710002E9DF0012F9DF00D1124E450FC4F82819D
:10072000882309F459C084853989831721F083818E
:100730008F5F838301C013824FE04E9D60014F9D08
:10074000D00C1124C60184509C4F6C01FC0186859D
:10075000FD85F80FFD87F6016085718580E090E0EA
:100760000E94741B9B01AC01C301B2010E94731A69
:100770002B013C01F601268137812A153B0510F437
:100780002E8659014FE04E9DF0014F9DF00D112432
:10079000E450FC4F848195810817190710F0232C31
:1007A000C8012533384058F02FE02E9DF0012F9DD1
:1007B000F00D1124E450FC4F2381273078F0F7012D
:1007C000EC5FFC4F2081E3EFFFEFEC0FFD1FE20F2A
:1007D000F11D31E0308302C0232CC801322C8C0182
:1007E00088CF8091F4038130E9F4812C912CE12CA5
:1007F000F12CCC24C394D12C61E08EE0880D0E94B2
:100800003B1AC601082C02C0880F991F0A94E2F710
:10081000E82AF92AFFEF8F1A9F0A26E08216910430
:1008200059F72BC0CE0101964C01C12CD12CE12CE3
:10083000F12C90E021E030E0F40161914F01613052
:1008400051F4C9010C2C02C0880F991F0A94E2F7D9
:10085000E82AF92A91E08EE08C0D2B8B3C8B9A8B49
:100860000E943B1AFFEFCF1ADF0A2B893C899A8935
:1008700046E0C416D10401F701C091E0692F87E07A
:100880000E943B1A6091F703809126039091270301
:1008900098878F8380E191E09A878987CE010796B8
:1008A0000E941201C0902603D09027036CE971E0EA
:1008B000C6010E941611009751F4C6010E94ED1165
:1008C000009799F02CE931E0FC013383228324E086
:1008D00030E0FC0135832483A701662757FD60952E
:1008E000762F468357836087718720E030E040E6AB
:1008F00051E4C301B2010E942A1C6B017C0160918A
:10090000140370E080E090E00E94761B9B01AC0134
:10091000C701B6010E94DB1A20E030E04AE754E448
:100920000E94DB1A6B017C01B0920701A0920601C4
:100930001093F6030093F50380912603909127030B
:1009400098878F8383EA91E09A878987B501CE01E2
:1009500007960E94E60280912603909127039887CC
:100960008F838CEA91E09A8789876E85CE010796FE
:100970000E9412016091F5037091F60380912603A5
:100980009091270398878F8388EB91E09A878987D6
:10099000CE0107960E94E6028091260390912703DC
:1009A00098878F8381EC91E09A878987632DCE01A8
:1009B00007960E9412018091260390912703988741
:1009C0008F838DEC91E09A8789876D85CE0107969C
:1009D0000E941201009126031091270366ED71E039
:1009E000C8010E941611FC01009751F4C8010E9431
:1009F000ED11FC01009761F086ED91E09383828315
:100A000089E090E095838483C682D782E086F18670
:100A1000809106019091070190930901809308014C
:100A2000FD85FF2311F061E001C060E086E00E94D7
:100A30003B1A8091F5039091F603209106013091C5
:100A40000701821B930B0B9710F461E001C060E07B
:100A500085E00E943B1A8091F5039091F603823461
:100A60002EE0920718F021E02093F4032091060174
:100A7000309107018217930711F41092F4036496E2
:100A80000FB6F894DEBF0FBECDBFDF91CF911F919F
:100A90000F91FF90EF90DF90CF90BF90AF909F901D
:100AA0008F907F906F905F904F903F902F90089520
:100AB00064E670E080E090E00E9476190C941803E0
:100AC0000F931F93CF93DF936AE08CEF93E00E9424
:100AD000350A87EB92E090932903809328031092C4
:100AE000F3031092F20388E293E00E94D910EC0124
:100AF0009093270380932603888199810097E1F0E2
:100B00000E94C4108C016EED71E0CE010E9416119E
:100B1000FC01009751F4CE010E94ED11FC010097F9
:100B200071F02EED31E03383228325E030E0358310
:100B300024830683178303C02DE735E001C09801A5
:100B40003093250320932403DF91CF911F910F91C0
:100B500008958CEF93E00C94410ABF92CF92DF92FC
:100B6000EF92FF920F931F93CF93DF93CDB7DEB732
:100B7000C65DD1090FB6F894DEBF0FBECDBF61E7E9
:100B800071E0CE0183539F4F0E94A41868EC70E07F
:100B9000CE0183539F4F0E94671881E895E00E9421
:100BA0008C13892B59F081E895E00E94A513682FDA
:100BB000CE0183539F4F0E94E618EFCF87EB92E060
:100BC0009A838983C553DF4F19821882CB5CD0404A
:100BD000C353DF4F68817981CD5CD040CE0101964F
:100BE0000E9401014AE0BC01CE0101960E94561309
:100BF0008C01F090F70366EE71E00E9416110097E9
:100C000021F004960E94C50001C060E06F1589F0D4
:100C100066EE71E0C8010E941611009721F004965B
:100C20000E94C50002C060E070E06F3F710509F0EE
:100C300035C16CEE71E0C8010E941611009721F0D9
:100C400004960E94C50001C060E0462F50E0493084
:100C5000510508F019C1FA01EC5CFF4F0C94C71C58
:100C600060EF71E081E895E00E94D11568E072E0E4
:100C7000C8010E941611009721F004960E94C50039
:100C800002C060E070E07093FB036093FA036EE0D3
:100C900072E0C8010E941611009721F004960E948C
:100CA000C50002C060E070E07093F9036093F80340
:100CB00064E172E081E895E00E94B4156091FA0366
:100CC0007091FB034AE050E081E895E00E94B9167C
:100CD00060E272E081E895E00E94B4156091F8034B
:100CE0007091F9034AE050E081E895E00E94B9165E
:100CF0006091FA037091FB0384E190E00E94492027
:100D00006091F8037091F90382E190E00E9449201C
:100D1000B5C0809126039091270321E835E0CD529C
:100D2000DF4F39832883C35DD040CB52DF4F198218
:100D30001882C55DD040BE016D527F4F0E94BB112D
:100D400061E771E09DC069EE71E0C8010E94161173
:100D5000009729F004960E94C500B62E01C0B12C60
:100D60006CE272E081E895E00E94D115EB2CF12C49
:100D700063E472E0C8010E941611009721F0049606
:100D80000E94C50001C060E0C7018C5F9C4F6C01F0
:100D9000FC0160834AE050E06B2D81E895E00E9401
:100DA0009B166EE771E081E895E00E94B4154AE079
:100DB00050E0F601608181E895E00E94A21663E4AC
:100DC00072E0C8010E941611009721F004960E945B
:100DD000C50001C060E0C701805090404DC01EE0DA
:100DE00061E0812F0E943B1A62E370E080E090E0B6
:100DF0000E9476191F5F143199F740C081E08093FB
:100E0000F4036BE472E03CC01092F4036AE572E014
:100E100037C06AE672E081E895E00E94B4156BE79E
:100E200072E0C8010E941611009721F004960E94FA
:100E3000C50001C060E06093F70314C061E872E090
:100E400081E895E00E94B4156BEA72E0C8010E9447
:100E50001611009721F004960E94C50001C060E0C1
:100E600060930A014AE050E081E895E00E94A216F2
:100E70006091F70381E190E00E943B2068EC72E012
:100E800081E895E00E94D11564E670E080E090E092
:100E90000E94761961E086E00E943B1ACE018353DE
:100EA0009F4F0E943618CA52DF4F0FB6F894DEBF2C
:100EB0000FBECDBFDF91CF911F910F91FF90EF90AB
:100EC000DF90CF90BF9008958F929F92AF92BF9284
:100ED000CF92DF92EF92FF920F931F93CF93DF9306
:100EE000CA010197860F971F60E070E0DC01A095B2
:100EF000B09588248A94982CEE24E394F12C6417FE
:100F0000750761F16C01F3E0D694C794FA95E1F7A7
:100F1000C20ED31EFD01E60FF71FE770FF2700FF8B
:100F20000BC0570102C0AA0CBB1CEA95E2F7F50101
:100F3000E601F881FE2B0BC0540102C0AA0CBB1CB9
:100F4000EA95E2F7F501E095E601F881FE23F883E2
:100F5000169507956F5F7F4F0197D1CFDF91CF91A6
:100F60001F910F91FF90EF90DF90CF90BF90AF90C7
:100F70009F908F9008950F931F93CF93DF93CB0192
:100F8000FA01EB0177FD279613E0D595C7951A95E1
:100F9000E1F768E070E00E94911CD901AC0FB11D2F
:100FA0004C91E930F1050CF5C0E050E09C0133278D
:100FB000A1E0B0E06C2F772767FD70956E177F0773
:100FC0005CF4620F731FCD0102C0880F991F6A95F0
:100FD000E2F7580FCF5FEECF4523842F90E002C099
:100FE000959587952A95E2F72CC0D82F60E070E0A0
:100FF00010E080E090E008E0C150AD2FB0E050E09C
:101000000D2E02C0559547950A94E2F7012E02C0B5
:10101000440F551F0A94E2F7840F951F402F4D1B74
:10102000140F1897EA0FFB1F4C2F461BD901A40F72
:10103000B11D4C916F5F7F4F1E161F0614F4D0E058
:10104000DCCFDF91CF911F910F9108950F931F93E4
:10105000CF93DF93EC01CD51DF4F42E06CE0CE0146
:101060000E94260E882341F069EB72E081E895E04A
:101070000E94D11580E04AC000E013E020E030E09B
:1010800040E060E0CE010E94440E00E013E020E06A
:1010900030E040E061E0CE010E94440E00E012E04A
:1010A00020E030E040E060E0CE010E94890E00E0E8
:1010B00010E0980140E061E0CE010E94890E00E05E
:1010C00010E0980140E062E0CE010E94890E00E04D
:1010D00010E0980140E063E0CE010E94890E00E03C
:1010E00010E0980140E064E0CE010E94890E00E02B
:1010F00010E0980140E065E0CE010E94890E64ECAA
:1011000072E081E895E00E94D11581E0DF91CF91F6
:101110001F910F910895AF92BF92CF92DF92EF92FD
:10112000FF920F931F93CF93DF93CDB7DEB728972E
:101130000FB6F894DEBF0FBECDBF6C015B01CE01D0
:1011400001967C0188E0F70111928A95E9F780E128
:101150008D83F60180818F5F803110F4808302C01F
:10116000F6011082F601008110E0970144E050E0A2
:1011700060E070E0C6010E946407C501F3E4AF16A9
:10118000FEE0BF0610F082E49EE0803629E0920780
:1011900010F480E699E0BC01685E734080E090E066
:1011A0000E94741B9B01AC010E94731A0E94481B91
:1011B0008B0197014DE050E068E070E0C6010E94AD
:1011C000640708E020E040E550E060E070E0C60120
:1011D0008D519F4F0E944D0F28960FB6F894DEBF99
:1011E0000FBECDBFDF91CF911F910F91FF90EF9078
:1011F000DF90CF90BF90AF900895AF92BF92CF9203
:10120000DF92EF92FF920F931F93CF93DF931F9282
:10121000CDB7DEB719826C0124EFC20ED11C8C0150
:101220005C0182E1A80EB11C780123EEE20EF11CF4
:10123000C7010E94AF0F8330B9F4A601BE016F5FF2
:101240007F4FC7010E947D0FC7010E94B70FF801B1
:10125000E459FE4F7183608388E0C80ED11C0E5F95
:101260001F4F0A151B0521F70F90DF91CF911F919A
:101270000F91FF90EF90DF90CF90BF90AF900895C7
:101280006F927F928F929F92AF92BF92CF92DF9296
:10129000EF92FF920F931F93CF93DF93EC016C01BA
:1012A0008C010C501F4F4C0180E1880E911C8FE087
:1012B000782E66246394F601E459FE4F8081918173
:1012C0009C0132502F30310508F0B7C05C01BB24BF
:1012D0007E01879DE00CF11C1124F70162829801C8
:1012E00044E050E060E070E0CE010E94BB078B302C
:1012F00051F4980148E050E068E070E0CE010E94AF
:10130000BB07F7018687980143E050E068E170E091
:10131000CE010E94BB07029729F5980148E050E0F2
:1013200068E070E0CE010E94BB077A9C70017B9C54
:10133000F00C1124EC0EFD1EBC0180E090E00E9438
:10134000741B20E030E040E05FE30E942A1C20E0B4
:1013500030E040E252E40E94721A0E94431BF701FF
:1013600073876287980144E050E064E070E0CE014A
:101370000E94BB077A9C70017B9CF00C1124EC0E40
:10138000FD1EF701848798014DE050E06BE170E0AD
:10139000CE010E94BB07BC0180E090E00E94741B5C
:1013A00020E030E040E05FE30E942A1C20E030E0D3
:1013B0004AE754E40E94731A0E94481BF70177839E
:1013C000668398014DE050E06BE270E0CE010E9430
:1013D000BB07BC0180E090E00E94741B20E030E07D
:1013E00040E05FE30E942A1C20E030E04AE754E43A
:1013F0000E94731A0E94481BF70175836483980149
:101400004DE050E06BE370E0CE010E94BB07BC01F1
:1014100080E090E00E94741B20E030E040E05FE359
:101420000E942A1C20E030E04AE754E40E94731A2C
:101430000E94481BF70171876087F2E0CF0ED11C34
:10144000085F1F4FC814D90409F035CFDF91CF9141
:101450001F910F91FF90EF90DF90CF90BF90AF90D2
:101460009F908F907F906F900895CF93DF93EC01C2
:101470008D519F4F0E94180E19821882DF91CF91D3
:1014800008950895CF93CFB7F8948091780581118E
:1014900027C0E0EEF0E08491ECECF0E09491E82FCE
:1014A000F0E0EE0FFF1FEC50FF4FA591B4918C912F
:1014B000892321F461E08AE00E943B1A61E08AE01E
:1014C0000E94021A8CB580618CBD8CB580648CBD85
:1014D00061E08DE00E94021A61E08BE00E94021A36
:1014E000809178058F5F80937805CFBFCF91089565
:1014F0008EBD00000DB407FEFDCF8EB50895CF93CD
:10150000DF93EC0160E088890E943B1A80EC0E9426
:10151000780A61E088890E943B1A6AE070E080E006
:1015200090E0DF91CF910C9476191F93CF93DF93C6
:10153000EC01162F60E088890E943B1A83E00E942C
:10154000780A812F0E94780A80E00E94780A182F7A
:1015500061E088890E943B1A812FDF91CF911F9112
:101560000895CF92DF92EF92FF920F931F93CF9344
:10157000DF9300D0CDB7DEB78C01E62EF22E60E00F
:10158000FC01808949835A830E943B1A83E00E94B0
:10159000780A8E2D0E94780A4981E42EC42E5A8141
:1015A000D52E8C2D8E198F1538F480E00E94780A84
:1015B000F60181936F01F5CF61E0F80180890F900A
:1015C0000F90DF91CF911F910F91FF90EF90DF90DF
:1015D000CF900C943B1AEF92FF921F93CF93DF931F
:1015E0001F92CDB7DEB77C01162F60E0FC01808929
:1015F00049830E943B1A82E00E94780A812F0E9450
:10160000780A4981842F0E94780A61E0F701808975
:101610000F90DF91CF911F91FF90EF900C943B1AA8
:10162000CF92DF92EF92FF920F931F93CF93DF93AE
:1016300000D0CDB7DEB78C01E62EF22E60E0FC01C3
:10164000808949835A830E943B1A82E00E94780A6B
:101650008E2D0E94780A4981E42EC42E5A81D52EFF
:101660008C2D8E198F1530F4F60181916F010E9437
:10167000780AF6CF61E0F80180890F900F90DF9132
:10168000CF911F910F91FF90EF90DF90CF900C942E
:101690003B1AEF92FF921F93CF93DF9300D0CDB709
:1016A000DEB77C01162F60E0FC0180892A83498324
:1016B0000E943B1A85E00E94780A812F0E94780AD6
:1016C0004981842F0E94780A2A81822F0E94780AF9
:1016D00061E0F70180890F900F90DF91CF911F910A
:1016E000FF90EF900C943B1A1F93CF93DF93EC0184
:1016F00060E088890E943B1A80EA0E94780A80E0B4
:101700000E94780A182F61E088890E943B1A812F75
:10171000DF91CF911F9108951F93CF93DF93EC0139
:10172000162F262F40EE6FE00E94490B6FE0CE018E
:101730000E94950A982F907E81E0911301C080E06D
:10174000DF91CF911F9108950F931F93CF93DF9354
:10175000EC01413019F0423079F161C0462F50E080
:10176000FA013197ED30F10508F059C0E35CFF4F05
:101770000C94C71C17E80FEF5EC015E801EF5BC0C3
:1017800017E80FEF2CC017E80AEF29C017E80FEF92
:101790002DC017E80AEF2AC016E800EF27C017E8A7
:1017A0000AEF2BC015E801EF41E446C016E800EF50
:1017B00034C012E800ED31C0462F50E0FA013197F5
:1017C000ED30F10560F5E65BFF4F0C94C71C17E0A8
:1017D0000FEB2DC017E00FEB02C014E004EA47E066
:1017E0002BC017E00FEB02C016E004EB43E024C06F
:1017F00017E00FEB02C016E004EB41E01DC015E05E
:1018000001EBFBCF16E004EB08C015E001EB05C0CF
:1018100012E000E902C010E000E840E00DC081E005
:101820001AC017E80FEF4FE307C017E80FEF4FE1BB
:1018300003C017E00FEB4FE06AE2CE010E94EB0A13
:10184000402F69E2CE010E94EB0A412F68E2CE01EF
:101850000E94EB0A80E0DF91CF911F910F910895D4
:101860000F931F93CF93DF9300D000D0CDB7DEB797
:101870004130B1F40C831B83890122273327502F79
:101880005C71402F437078E0579F400D11244860F1
:101890004A8355E0169507955A95E1F709830DC0DF
:1018A000A80123E0569547952A95E1F749830295CB
:1018B000000F007E0A831C821B8224E0AE014F5F72
:1018C0005F4F0E94100B0F900F900F900F90DF91C1
:1018D000CF911F910F9108950F931F93CF93DF9393
:1018E000EC0100E010E0980141E060E20E94300C61
:1018F00000E010E0980141E064E2CE010E94300C6B
:1019000000E010E0980141E060E0CE010E94300C60
:1019100000E010E0980140E064E0CE010E94300C4D
:1019200000E010E0980141E068E0CE010E94300C38
:1019300000E010E0980140E060E1CE010E94300C30
:1019400000E010E0980141E064E1CE010E94300C1B
:1019500000E010E0980140E068E1CE010E94300C08
:1019600010E340E0612FCE010E94EB0A60E1610FBD
:1019700040E0CE010E94EB0A60E2610F40E0CE0140
:101980000E94EB0A1F5F1E3361F740E060E6CE0164
:101990000E94EB0A40E060E7CE01DF91CF911F91FA
:1019A0000F910C94EB0AEF92FF920F931F93CF933A
:1019B000DF931F92CDB7DEB77C01062F49830E94CB
:1019C0007F0A60E8C7010E948C0B182F49818111A2
:1019D00025C0602FC7010E94A40B81111FC0C70141
:1019E0000E946C0C43E06BE2C7010E94EB0A24E00A
:1019F00044E660E6C7010E94490B20E040E660E74C
:101A0000C7010E94490B60E0C7010F90DF91CF91A1
:101A10001F910F91FF90EF900C948C0B812F0F90E2
:101A2000DF91CF911F910F91FF90EF900895EF926A
:101A3000FF920F931F93CF93DF9300D000D0CDB7C9
:101A4000DEB77A018901FA011082F9011082118250
:101A50001282138224E0AE014F5F5F4F0E94B10AF1
:101A60002A813981822F90E045E0959587954A95A6
:101A7000E1F7F8E03F9F800D911D1124AA2797FD03
:101A8000A095BA2FF80180839183A283B38323FFAB
:101A900025C062E0880F991FAA1FBB1F6A95D1F766
:101AA0002370820F911DA11DB11DBA2FA92F982F50
:101AB00088272B81820F911DA11DB11DBA2FA92F3F
:101AC000982F88272C81820F911DA11DB11D808325
:101AD0009183A283B38381E0F70180830F900F90FD
:101AE0000F900F90DF91CF911F910F91FF90EF908A
:101AF0000895FF920F931F93CF93DF93EC01F62E7F
:101B0000AC014A5F5F4F65E06F0D2D810E94100BA5
:101B10008E85813019F48D8180648D8364E06F0D32
:101B20004D81CE010E94EB0A09811A812B813C81F3
:101B300048816F2DCE010E94300CDF91CF911F9113
:101B40000F91FF9008950F931F93CF93DF93EC01B4
:101B5000162F9C012F5F3F4FAC010E94170D6FEFB6
:101B6000610FCE010E94950A082F64E0610FCE013B
:101B70000E94950A282F8D8303FF03C081E08E8782
:101B800001C01E862F702D83AE014A5F5F4F65E056
:101B9000610FCE01DF91CF911F910F910C94B10A8B
:101BA000615028E048E00C94490B9F92AF92BF929D
:101BB000CF92DF92EF92FF920F931F93CF93DF9319
:101BC00000D01F92CDB7DEB76C017B0180E3898323
:101BD00080E48A8380E58B83FB0110828E010F5F96
:101BE0001F4F5E01F4E0AF0EB11CF80191908F0120
:101BF000692DC6010E94950A982F987083FD04C034
:101C00009394F701908204C00A151B0571F792E0C6
:101C1000892F0F900F900F90DF91CF911F910F910F
:101C2000FF90EF90DF90CF90BF90AF909F9008957E
:101C3000CF93DF93EC01862F688B61E00E94021A3C
:101C400061E08889DF91CF910C943B1ACF93DF93A9
:101C500000D000D0CDB7DEB74C836B8389839A83E5
:101C60000E94420A4C816B8189819A810E94D30C27
:101C700091E0811101C090E0892F0F900F900F909B
:101C80000F90DF91CF9108958F929F92BF92CF9244
:101C9000DF92EF92FF920F931F93CF93DF931F92E8
:101CA000CDB7DEB74C01B62E6801790160E84983F3
:101CB0000E948C0B498181111FC0B11004C0970193
:101CC000860160E206C081E0B81206C09701860175
:101CD00064E2C4010E94300C60E0C4010F90DF9107
:101CE000CF911F910F91FF90EF90DF90CF90BF9019
:101CF0009F908F900C948C0B0F90DF91CF911F9140
:101D00000F91FF90EF90DF90CF90BF909F908F90BA
:101D10000895AF92BF92CF92DF92EF92FF920F930E
:101D20001F93CF93DF9300D0CDB7DEB75C01562F62
:101D30006801790160E84A8359830E948C0B4A81CB
:101D40005981811136C05230B1F040F4552379F0F9
:101D50005130F9F49701860164E018C0543099F0CD
:101D600070F05530B1F49701860168E10FC097011A
:101D7000860160E00BC09701860168E007C097010B
:101D8000860160E103C09701860164E1C5010E94FC
:101D9000300C60E0C5010F900F90DF91CF911F9143
:101DA0000F91FF90EF90DF90CF90BF90AF900C9489
:101DB0008C0B0F900F90DF91CF911F910F91FF909F
:101DC000EF90DF90CF90BF90AF900895EF92FF9289
:101DD0000F93CF93DF93FC0120834183528363836E
:101DE00074830583D70180E090E02D91EF01C80F47
:101DF000D91F2E83019688309105B9F780E0DF91D5
:101E0000CF910F91FF90EF900895EF92FF920F9373
:101E10001F93CF93DF931F92CDB7DEB78C01E12CD8
:101E2000F12CBE016F5F7F4FC8010E94D50D9FEF5F
:101E3000E91AF90A823029F482E3E816F10489F7F5
:101E400023C092E3E916F104F9F06981C8010E9408
:101E5000790D6981C8010E94D00DE12CF12C8FEF22
:101E6000E81AF80A6981C8010E94950A83FF06C032
:101E700092E3E916F10499F787E007C082E3E816D8
:101E8000F104D1F380E001C086E00F90DF91CF91A3
:101E90001F910F91FF90EF900895EF92FF920F9393
:101EA000CF93DF93EC010E94E60ECE01DF91CF913C
:101EB0000F91FF90EF900C94050FCF93DF93EC01FF
:101EC0000E94740B80FF07C061E6CE010E94A30D43
:101ED00020E041E008C081FF0CC061E7CE010E9414
:101EE000A30D20E042E06CE2CE010E94490B80E0AD
:101EF00001C084E0DF91CF910895EF92FF920F939C
:101F00001F93CF93DF9300D0CDB7DEB77C018B0159
:101F100049835A830E945D0FD70115968C91F80171
:101F200080834981E42F5A81F52F80E090E0D7012A
:101F300015962C9130E08217930744F4D701A80F2F
:101F4000B91F16962C9121930196F1CF0F900F9007
:101F5000DF91CF911F910F91FF90EF9008950E9414
:101F6000740B837011F083E0089584E00895FC0100
:101F700061817281838194810895FC0120812D30DB
:101F800051F024F42950223030F505C0203219F0E8
:101F90002F3219F008950196F0CFFC0121812A32E9
:101FA00019F02F3279F008950296FC012081222346
:101FB00021F32A3229F421812F3211F40296DDCF48
:101FC0000196F3CFFC013296CF0121912223A9F291
:101FD0002A30D1F7D2CF0895CF93DF93EC018881D7
:101FE0009981DC01ED91FC910190F081E02D099542
:101FF0002A813B81280F391F3B832A83DF91CF91B0
:102000000895FF920F931F93CF93DF93EC018B0101
:102010006115710591F46BEC72E0888199810E94E1
:10202000B4152A813B81280F391F3B832A83DF9116
:10203000CF911F910F91FF90089562E2CE010E940F
:10204000EC0FF80161918F01662351F0E6EDF2E0AB
:10205000F080FF2099F39181961759F03296F8CFCE
:1020600062E2CE01DF91CF911F910F91FF900C940E
:10207000EC0F6CE5CE010E94EC0F6F2DDFCFDB0182
:10208000109749F0ED91FC9111970190F081E02DAE
:10209000BC01CD01099480E090E008950F931F9357
:1020A000CF93DF931F92CDB7DEB78C01FC01828105
:1020B000938169830E94BD0FFC01208169812613F1
:1020C00008C001960E94BD0FF8019383828381E0CE
:1020D00001C080E00F90DF91CF911F910F91089583
:1020E000CF93DF93EC01AA81BB814C813D812C9180
:1020F000273219F4C42FD32F15C02232D9F3C42F9D
:10210000D32FFD012AC03C3559F4FD0132961296B9
:102110003C91AAEDB2E06C91611110C0332339F10A
:102120003993DF01AE01FD01319611963C91119773
:102130003323E9F03213E7CF319619C0631303C09C
:1021400011963C91EBCF1296E6CF322F3F7D315462
:102150003A3148F4299331962081AE0130ED320FA7
:102160003A30C0F3F2CF33ED320F323098F3DA0168
:102170001D92EC012C813D81FB83EA83BD83AC83FE
:10218000C901DF91CF910895CF93DF93EC01BC019A
:1021900084E090E00E943F10FC01009729F0D18379
:1021A000C0831382128202C08DE795E0DF91CF9148
:1021B0000895CF93DF93EC01BC0184E090E00E948E
:1021C0003F10FC01009729F0D183C0831382128253
:1021D00002C089E795E0DF91CF910895EF92FF92D9
:1021E0000F931F93CF93DF9300D0CDB7DEB78B0152
:1021F0004F5F5F4FDC01ED91FC910190F081E02D8C
:10220000BA0149835A8309957C0149815A81009713
:1022100019F0B8010E940E20C7010F900F90DF91B6
:10222000CF911F910F91FF90EF9008950F931F93FF
:10223000CF93DF938B01FC01C281D381209759F0AA
:10224000B8018A819B810E941720892B39F009905F
:10225000D881C02DF3CF80E090E001C0CE01DF91A6
:10226000CF911F910F910895CF93DF93FC01EB0164
:10227000208131812530310531F482819381DF91D4
:10228000CF910C9495112630310531F482819381E0
:10229000DF91CF910C94BB112230310539F462816A
:1022A0007381CE01DF91CF910C9401102130310563
:1022B00019F4628173811EC02430310559F44281C2
:1022C0005381648175812AE030E0888199810E9480
:1022D0003C1622C02330310591F482819381A48180
:1022E000B581892B8A2B8B2B19F06BE071E002C032
:1022F00060ED72E0888199810E94B4150DC027308D
:10230000310584F0275030E042815381648175812A
:10231000888199810E94BA172A813B81280F391F31
:102320003B832A83DF91CF9108950F931F93CF931F
:10233000DF93EC018B016BE5C8010E94EC0F0A8072
:10234000DB81C02D209779F0B801CE0102960E9462
:1023500034110990D881C02D209729F06CE2C80172
:102360000E94EC0FF1CF6DE5C801DF91CF911F9175
:102370000F910C94EC0F0F931F93CF93DF938C016D
:10238000EB016BE7CE010E94EC0FF8010281138193
:1023900001151105D1F0F80162817381CE010E940F
:1023A00001106AE3CE010E94EC0FBE01C801049641
:1023B0000E943411F801008111810115110529F0E5
:1023C0006CE2CE010E94EC0FE6CF6DE7CE01DF910B
:1023D000CF911F910F910C94EC0FCF93DF93EC01F1
:1023E000688179818AE090E00E943F10009729F08F
:1023F000FC011182108215821482EA81FB813097E0
:1024000051F0208131812115310511F0F901F9CF09
:102410009183808302C09B838A83DF91CF9108954B
:10242000CF93DF93EC016881798188E090E00E948E
:102430003F10009729F0FC01118210821382128252
:10244000EA81FB81309751F02081318121153105DE
:1024500011F0F901F9CF9183808302C09B838A83B5
:10246000DF91CF910895DF92EF92FF920F931F9328
:10247000CF93DF9300D000D000D0CDB7DEB78C0172
:10248000FC01808191810E94C4107C016BE5C80130
:102490000E944E10882379F16DE5C8010E944E100C
:1024A000811127C086E0D82E1A821982BE016F5F83
:1024B0007F4FC8010E948B128823E9F0C7010E9458
:1024C00010120097C1F0FE013196DC0112968D2D9D
:1024D00001900D928A95E1F76DE5C8010E944E10BA
:1024E000811107C06CE2C8010E944E108111DCCF3F
:1024F00002C0C70102C08DE795E026960FB6F8949A
:10250000DEBF0FBECDBFDF91CF911F910F91FF9026
:10251000EF90DF900895FF920F931F93CF93DF9377
:10252000EC018B018E81882309F447C081508E8392
:102530008A819B810E94BD0F9B838A83FC018081DD
:102540008B3519F08B3761F01CC0CE010E9433121D
:10255000FC0120813181232B59F125E030E00AC0B4
:10256000CE010E94E412FC0120813181232B01F174
:1025700026E030E0F801318320839383828381E079
:1025800018C0873231F091E0823209F090E0F92EE4
:1025900002C0FF24F394CE010E947010009741F016
:1025A000FF2019F022E030E0E5CF21E030E0E2CF7B
:1025B00080E09E819F5F9E8301C080E0DF91CF918C
:1025C0001F910F91FF900895BF92CF92DF92EF92EB
:1025D000FF920F931F93CF93DF9300D000D000D0D2
:1025E000CDB7DEB78C01FC01808191810E94D910AA
:1025F0006C016BE7C8010E944E10882309F444C0A7
:102600006DE7C8010E944E1081113CC096E0B92EC2
:10261000C8010E9470107C010097B1F16AE3C80103
:102620000E944E10882381F11A821982BE016F5FC9
:102630007F4FC8010E948B12882331F1B701C60178
:102640000E941611009741F4C6010E94ED110097F7
:10265000D9F0FC01F382E282FE013196DC0114968E
:102660008B2D01900D928A95E1F76DE7C8010E94CC
:102670004E10811107C06CE2C8010E944E108111FA
:10268000C7CF02C0C60102C089E795E026960FB603
:10269000F894DEBF0FBECDBFDF91CF911F910F9198
:1026A000FF90EF90DF90CF90BF900895CF93DF938E
:1026B000CDB7DEB727970FB6F894DEBF0FBECDBFFC
:1026C0009A8389836115710519F481E791E001C04E
:1026D000CB019C838B837E836D834F83CE010196D8
:1026E0000E94E41227960FB6F894DEBF0FBECDBF4E
:1026F000DF91CF91089510927E0510927D05109282
:10270000800510927F0510927A051092790510923B
:102710007C0510927B050895FC01818D228D90E04F
:10272000805C9F4F821B91098F7399270895FC014C
:10273000918D828D981731F0828DE80FF11D858D76
:1027400090E008958FEF9FEF0895FC01918D828DA9
:10275000981761F0828DDF01A80FB11D5D968C91F5
:10276000928D9F5F9F73928F90E008958FEF9FEF00
:10277000089589E295E1892B49F08DEA95E0892B4E
:1027800029F00E94291581110C94AD050895FC01D2
:10279000848DDF01A80FB11DA35ABF4F2C91848DEA
:1027A00090E001968F739927848FA689B7892C931F
:1027B000A089B1898C9180648C93938D848D9813BA
:1027C00006C00288F389E02D80818F7D8083089583
:1027D000CF93DF93EC01888D8823C9F0EA89FB89C8
:1027E000808185FD05C0A889B9898C9186FD0FC0BF
:1027F0000FB607FCF5CF808185FFF2CFA889B98994
:102800008C9185FFEDCFCE010E94C713E7CFDF91FA
:10281000CF910895CF92DF92FF920F931F93CF93A2
:10282000DF931F92CDB7DEB76C01DC015B969C9104
:102830005B975C968C915C97981307C05096ED91CE
:10284000FC915197808185FD32C0F601038D10E027
:102850000F5F1F4F0F731127F02EF601848DF812B2
:1028600011C00FB607FCF9CFD6015096ED91FC913F
:102870005197808185FFF1CFC60169830E94C713FC
:102880006981EBCF838DE80FF11DE35AFF4F608321
:10289000D6015B960C935B975296ED91FC91539702
:1028A00080818062808381E058968C930DC0D60130
:1028B0005696ED91FC91579760835096ED91FC915F
:1028C000519780818064808381E090E00F90DF9158
:1028D000CF911F910F91FF90DF90CF900895BF92FD
:1028E000CF92DF92EF92FF92CF93DF93EC016A01D8
:1028F0007B01B22EE889F98982E08083411581EE5F
:10290000580761057105A1F060E079E08DE390E082
:10291000A70196010E94A51C2150310941095109C6
:102920005695479537952795211580E1380798F0FA
:10293000E889F989108260E874E88EE190E0A701E7
:1029400096010E94A51C2150310941095109569553
:10295000479537952795EC85FD853083EE85FF8576
:102960002083188EEC89FD89B082EA89FB898081F9
:1029700080618083EA89FB89808188608083EA891D
:10298000FB89808180688083EA89FB8980818F7DD3
:102990008083DF91CF91FF90EF90DF90CF90BF9039
:1029A00008951F920F920FB60F9211242F938F93B9
:1029B0009F93EF93FF93E0919105F09192058081B1
:1029C000E0919705F091980582FD12C09081809169
:1029D0009A058F5F8F7320919B05821751F0E091CC
:1029E0009A05F0E0EF57FA4F958F80939A0501C052
:1029F0008081FF91EF919F918F912F910F900FBE4A
:102A00000F901F9018951F920F920FB60F921124DE
:102A10002F933F934F935F936F937F938F939F93E6
:102A2000AF93BF93EF93FF9381E895E00E94C713A4
:102A3000FF91EF91BF91AF919F918F917F916F9196
:102A40005F914F913F912F910F900FBE0F901F906C
:102A5000189581E895E00E948C1321E0892B09F4F8
:102A600020E0822F0895109284051092830588EE4D
:102A700093E0A0E0B0E08093850590938605A09355
:102A80008705B093880589EE92E090938205809344
:102A9000810585EC90E090938E0580938D0584EC04
:102AA00090E09093900580938F0580EC90E0909358
:102AB00092058093910581EC90E09093940580932A
:102AC000930582EC90E0909396058093950586ECB3
:102AD00090E0909398058093970510929A05109234
:102AE0009B0510929C0510929D050895CF92DF9250
:102AF000EF92FF920F931F93CF93DF936C017A01B4
:102B0000EB01E60EF71E00E010E0CE15DF0561F0E8
:102B10006991D601ED91FC910190F081E02DC60103
:102B20000995080F191FF1CFC801DF91CF911F91AF
:102B30000F91FF90EF90DF90CF9008956115710590
:102B400081F0DB010D900020E9F7AD014150510902
:102B5000461B570BDC01ED91FC910280F381E02DC7
:102B6000099480E090E008950C949E15DC01ED91AD
:102B7000FC910190F081E02D09940F931F93CF9366
:102B8000DF93EC016DE00E94B6158C016AE0CE0186
:102B90000E94B615800F911FDF91CF911F910F9169
:102BA00008950F931F93CF93DF93EC010E949E151E
:102BB0008C01CE010E94BD15800F911FDF91CF9136
:102BC0001F910F9108958F929F92AF92BF92CF92D3
:102BD000DF92EF92FF920F931F93CF93DF93CDB7C6
:102BE000DEB7A1970FB6F894DEBF0FBECDBF7C0154
:102BF000C42EE52FCB01D22E19A221E02D1510F005
:102C00002AE0D22E8E010F5D1F4F8D2C912CA12C0E
:102C1000B12C6C2D7E2FA50194010E94A51C8C2D3A
:102C2000D29E80191124015011098A3014F4805D5C
:102C300001C0895CF80180832115310541055105EA
:102C400021F0C22EE32FCA01E4CFB801C7010E94D0
:102C50009E15A1960FB6F894DEBF0FBECDBFDF91D3
:102C6000CF911F910F91FF90EF90DF90CF90BF9089
:102C7000AF909F908F900895CF92DF92EF92FF9246
:102C80000F931F93CF93DF93EC016A017B01211512
:102C9000310579F4E881F9810190F081E02D642F0C
:102CA000DF91CF911F910F91FF90EF90DF90CF9028
:102CB00009942A303105E9F477FF1AC06DE20E94C9
:102CC000B6158C0144275527BA014C195D096E09C8
:102CD0007F092AE0CE010E94E315800F911FDF914A
:102CE000CF911F910F91FF90EF90DF90CF900895BB
:102CF0002AE0B701A601CE01DF91CF911F910F917C
:102D0000FF90EF90DF90CF900C94E3159A01AB0108
:102D1000662757FD6095762F0C943C1621153105DA
:102D200041F4DC01ED91FC910190F081E02D642FE4
:102D300009940C94E3159A01462F50E060E070E08E
:102D40000C948E160F931F93CF93DF93EC019A018F
:102D5000462F50E060E070E00E948E168C01CE019C
:102D60000E94BD15800F911FDF91CF911F910F9190
:102D700008950F931F93CF93DF93EC019A01AB015A
:102D800060E070E00E948E168C01CE010E94BD159D
:102D9000800F911FDF91CF911F910F9108954F9256
:102DA0005F926F927F928F929F92AF92BF92CF92DB
:102DB000DF92EF92FF920F931F93CF93DF93EC017B
:102DC0006A017B01B22E9A01AB01C701B6010E94D4
:102DD0008D1C882319F065EF72E027C026013701AA
:102DE000E89477F82FEF3FEF4FE75FE7C301B201B9
:102DF0000E948D1C81110DC02FEF3FEF4FE75FE761
:102E0000C301B2010E94D71A18161CF469EF72E0D0
:102E10000CC02FEF3FEF4FE75FE4C701B6010E9400
:102E2000261C1816ACF46DEF72E0CE01DF91CF9145
:102E30001F910F91FF90EF90DF90CF90BF90AF90D8
:102E40009F908F907F906F905F904F900C949E1505
:102E50002FEF3FEF4FE75FECC701B6010E94D71A93
:102E600087FDE1CF20E030E0A901C701B6010E9453
:102E7000D71A87FF0AC06DE2CE010E94B6158C01F9
:102E8000F7FAF094F7F8F09402C000E010E0A12CFB
:102E900060E070E080E09FE3AB1441F020E030E0C0
:102EA00040E251E40E94DB1AA394F6CF9B01AC01EF
:102EB000C701B6010E94731A6B017C010E94481B76
:102EC0002B013C010E94741B9B01AC01C701B601A0
:102ED0000E94721A6B017C012AE0B301A201CE01AB
:102EE0000E94E315080F191FBB2039F061E073E061
:102EF000CE010E949E15080F191F7B2C772041F1EF
:102F000020E030E040E251E4C701B6010E942A1CF3
:102F10006B017C010E94431B4B01AA2497FCA094E7
:102F2000BA2C2AE030E0B501A401CE010E943C1683
:102F3000080F191FC501B4010E94761B9B01AC014B
:102F4000C701B6010E94721A6B017C017A94D6CF38
:102F5000C801DF91CF911F910F91FF90EF90DF900B
:102F6000CF90BF90AF909F908F907F906F905F9029
:102F70004F9008950C94CF168230E8F4E82FF0E0DB
:102F8000EE0FFF1FE25EF94F71836083813041F0E5
:102F9000809169008C7F842B80936900E89A089562
:102FA00080916900440F551F440F551F837F842B68
:102FB00080936900E99A08951F920F920FB60F92BD
:102FC00011242F933F934F935F936F937F938F932E
:102FD0009F93AF93BF93EF93FF9380911E069091C1
:102FE0001F06892B29F0E0911E06F0911F06099516
:102FF000FF91EF91BF91AF919F918F917F916F91D1
:103000005F914F913F912F910F900FBE0F901F90A6
:1030100018951F920F920FB60F9211242F933F9382
:103020004F935F936F937F938F939F93AF93BF93D0
:10303000EF93FF938091200690912106892B29F030
:10304000E0912006F09121060995FF91EF91BF9143
:10305000AF919F918F917F916F915F914F913F9130
:103060002F910F900FBE0F901F901895FC0180813B
:1030700091810C94791DCF93DF93EC018881998124
:10308000009711F00E94791D198218821D821C82FE
:103090001B821A82DF91CF9108950F931F93CF93D4
:1030A000DF93EC018B016F5F7F4F888199810E94D4
:1030B000081E009731F0998388831B830A8381E07F
:1030C00001C080E0DF91CF911F910F910895CF93C0
:1030D000DF93EC0188819981892B29F08A819B817A
:1030E0008617970760F4CE010E944D18882341F09F
:1030F0008C819D81892B19F4E881F981108281E00E
:10310000DF91CF910895EF92FF920F931F93CF938A
:10311000DF93EC017B018A01BA010E9467188111DB
:1031200004C0CE010E943B1807C01D830C83B70169
:10313000888199810E942020CE01DF91CF911F913B
:103140000F91FF90EF900895FC011182108213827D
:103150001282158214826115710559F0FB010190EC
:103160000020E9F7AF0141505109461B570B0C9461
:1031700083180895EF92FF920F931F93CF93DF93DD
:10318000EC017B010C811D816115710511F480E05A
:1031900016C04115510591F0040F151FB8010E948A
:1031A00067188823A1F3288139818C819D81B7011B
:1031B000820F931F0E9420201D830C8381E0DF91EA
:1031C000CF911F910F91FF90EF900895CF93DF93D0
:1031D00000D0CDB7DEB769831A8241E050E0BE016E
:1031E0006F5F7F4F0E94BA180F900F90DF91CF91C1
:1031F000089508950E949E190E94F9180E944301A3
:10320000C9EBD3E10E9458052097E1F30E94B9135E
:10321000F9CF1F920F920FB60F9211242F933F9365
:103220008F939F93AF93BF93809123069091240631
:10323000A0912506B09126063091220623E0230FA7
:103240002D3720F40196A11DB11D05C026E8230FDE
:103250000296A11DB11D2093220680932306909310
:103260002406A0932506B093260680912706909108
:103270002806A0912906B0912A060196A11DB11D2C
:103280008093270690932806A0932906B0932A06D8
:10329000BF91AF919F918F913F912F910F900FBE52
:1032A0000F901F9018953FB7F89480912706909142
:1032B0002806A0912906B0912A0626B5A89B05C02C
:1032C0002F3F19F00196A11DB11D3FBF6627782F32
:1032D000892F9A2F620F711D811D911D42E0660F8B
:1032E000771F881F991F4A95D1F70895CF92DF92D3
:1032F000EF92FF92CF93DF936B017C010E945319F1
:10330000EB01C114D104E104F10489F00E94711AA7
:103310000E9453196C1B7D0B683E734090F381E053
:10332000C81AD108E108F108C851DC4FEACFDF9193
:10333000CF91FF90EF90DF90CF900895789484B56F
:10334000826084BD84B5816084BD85B5826085BDA1
:1033500085B5816085BDEEE6F0E080818160808387
:10336000E1E8F0E01082808182608083808181606A
:103370008083E0E8F0E0808181608083E1EBF0E031
:10338000808184608083E0EBF0E0808181608083D5
:10339000EAE7F0E0808184608083808182608083BE
:1033A0008081816080838081806880831092C100E9
:1033B0000895833081F028F4813099F08230A1F0B3
:1033C00008958730A9F08830B9F08430D1F4809125
:1033D00080008F7D03C0809180008F778093800074
:1033E000089584B58F7702C084B58F7D84BD08951C
:1033F0008091B0008F7703C08091B0008F7D809363
:10340000B0000895CF93DF9390E0FC01EE53FF4F9F
:103410002491FC01EA52FF4F8491882349F190E006
:10342000880F991FFC01EC50FF4FA591B491865174
:103430009F4FFC01C591D4919FB7611108C0F894CA
:103440008C91209582238C93888182230AC06230DC
:1034500051F4F8948C91322F309583238C9388818A
:10346000822B888304C0F8948C91822B8C939FBF0D
:10347000DF91CF9108950F931F93CF93DF931F9206
:10348000CDB7DEB7282F30E0F901E255FF4F849128
:10349000F901EE53FF4F1491F901EA52FF4F0491E5
:1034A0000023C9F0882321F069830E94D91969811A
:1034B000E02FF0E0EE0FFF1FE651FF4FA591B49112
:1034C0009FB7F8948C91611103C01095812301C0BE
:1034D000812B8C939FBF0F90DF91CF911F910F9104
:1034E000089508955058BB27AA270ED075C166D1FC
:1034F00030F06BD120F031F49F3F11F41EF45BC12A
:103500000EF4E095E7FB51C1E92F77D180F3BA17AC
:10351000620773078407950718F071F49EF58FC151
:103520000EF4E0950B2EBA2FA02D0B01B9019001DE
:103530000C01CA01A0011124FF27591B99F0593F22
:1035400050F4503E68F11A16F040A22F232F342F6A
:103550004427585FF3CF469537952795A795F040B8
:103560005395C9F77EF41F16BA0B620B730B840BCD
:10357000BAF09150A1F0FF0FBB1F661F771F881F85
:10358000C2F70EC0BA0F621F731F841F48F48795DD
:1035900077956795B795F7959E3F08F0B3CF9395CC
:1035A000880F08F09927EE0F979587950895D9D041
:1035B00008F481E008950CD00FC107D140F0FED08F
:1035C00030F021F45F3F19F0F0C0511139C1F3C060
:1035D00014D198F39923C9F35523B1F3951B550BD7
:1035E000BB27AA2762177307840738F09F5F5F4FD6
:1035F000220F331F441FAA1FA9F333D00E2E3AF017
:10360000E0E830D091505040E695001CCAF729D030
:10361000FE2F27D0660F771F881FBB1F261737077F
:103620004807AB07B0E809F0BB0B802DBF01FF27AF
:1036300093585F4F2AF09E3F510568F0B6C000C115
:103640005F3FECF3983EDCF3869577956795B795E9
:10365000F7959F5FC9F7880F911D9695879597F904
:103660000895E1E0660F771F881FBB1F621773077D
:103670008407BA0720F0621B730B840BBA0BEE1F92
:1036800088F7E095089504D06894B111D9C00895E1
:10369000BCD088F09F5790F0B92F9927B751A0F070
:1036A000D1F0660F771F881F991F1AF0BA95C9F7D6
:1036B00012C0B13081F0C3D0B1E00895C0C0672F0F
:1036C000782F8827B85F39F0B93FCCF38695779586
:1036D0006795B395D9F73EF490958095709561956F
:1036E0007F4F8F4F9F4F0895E89409C097FB3EF49A
:1036F00090958095709561957F4F8F4F9F4F99233F
:10370000A9F0F92F96E9BB279395F69587957795BC
:103710006795B795F111F8CFFAF4BB0F11F460FF7C
:103720001BC06F5F7F4F8F4F9F4F16C0882311F0D4
:1037300096E911C0772321F09EE8872F762F05C0E8
:10374000662371F096E8862F70E060E02AF09A9583
:10375000660F771F881FDAF7880F9695879597F978
:103760000895990F0008550FAA0BE0E8FEEF161612
:103770001706E807F907C0F012161306E407F50765
:1037800098F0621B730B840B950B39F40A2661F0D9
:10379000232B242B252B21F408950A2609F4A1407C
:1037A000A6958FEF811D811D089597F99F6780E889
:1037B00070E060E008959FEF80EC089500240A9483
:1037C0001616170618060906089500240A941216FC
:1037D0001306140605060895092E0394000C11F42F
:1037E000882352F0BB0F40F4BF2B11F460FF04C0DC
:1037F0006F5F7F4F8F4F9F4F089557FD9058440F35
:10380000551F59F05F3F71F04795880F97FB991F3F
:1038100061F09F3F79F087950895121613061406FC
:10382000551FF2CF4695F1DF08C016161706180689
:10383000991FF1CF86957105610508940895E89464
:10384000BB2766277727CB0197F908958ADF08F40D
:103850008FEF08950BD0C0CFB1DF28F0B6DF18F09E
:10386000952309F0A2CFA7CF1124EACFC6DFA0F39A
:10387000959FD1F3950F50E0551F629FF001729F05
:10388000BB27F00DB11D639FAA27F00DB11DAA1F24
:10389000649F6627B00DA11D661F829F2227B00D71
:1038A000A11D621F739FB00DA11D621F839FA00DFC
:1038B000611D221F749F3327A00D611D231F849F4C
:1038C000600D211D822F762F6A2F11249F575040A3
:1038D0008AF0E1F088234AF0EE0FFF1FBB1F661F3E
:1038E000771F881F91505040A9F79E3F510570F0F7
:1038F0005CCFA6CF5F3FECF3983EDCF386957795DF
:103900006795B795F795E7959F5FC1F7FE2B880FF1
:10391000911D9695879597F9089523DF880B990B4C
:10392000089597FB072E16F4009407D077FD09D071
:103930000E94CD1C07FC05D03EF4909581959F4FC9
:103940000895709561957F4F0895A1E21A2EAA1BE4
:10395000BB1BFD010DC0AA1FBB1FEE1FFF1FA2173F
:10396000B307E407F50720F0A21BB30BE40BF50B3C
:10397000661F771F881F991F1A9469F760957095C5
:10398000809590959B01AC01BD01CF010895EE0F8C
:10399000FF1F0590F491E02D0994AA1BBB1B51E178
:1039A00007C0AA1FBB1FA617B70710F0A61BB70BAF
:1039B000881F991F5A95A9F780959095BC01CD0154
:1039C0000895CF93DF938230910510F482E090E068
:1039D000E0912F06F091300620E030E0A0E0B0E06A
:1039E000309739F14081518148175907B8F048178D
:1039F000590771F482819381109729F013969C9353
:103A00008E9312972CC09093300680932F0627C078
:103A10002115310531F04217530718F0A901DB01D8
:103A200001C0EF019A01BD01DF010280F381E02DA9
:103A3000D7CF21153105F9F0281B390B243031057A
:103A400080F48A819B816115710521F0FB019383CC
:103A5000828304C09093300680932F06FE01329635
:103A600044C0FE01E20FF31F81939193225031096C
:103A7000398328833AC020912D0630912E06232BBE
:103A800041F4209102013091030130932E062093DE
:103A90002D0620910001309101012115310541F4DD
:103AA0002DB73EB74091040150910501241B350B01
:103AB000E0912D06F0912E06E217F307A0F42E1BDD
:103AC0003F0B2817390778F0AC014E5F5F4F241782
:103AD000350748F04E0F5F1F50932E0640932D067A
:103AE0008193919302C0E0E0F0E0CF01DF91CF91AC
:103AF0000895CF93DF93009709F487C0FC013297B4
:103B000013821282C0912F06D0913006209781F443
:103B100020813181280F391F80912D0690912E062A
:103B20008217930779F5F0932E06E0932D066DC06A
:103B3000DE0120E030E0AE17BF0750F412964D9141
:103B40005C9113979D014115510509F1DA01F3CFFD
:103B5000B383A28340815181840F951F8A179B07ED
:103B600071F48D919C911197840F951F029691830A
:103B7000808312968D919C91139793838283211554
:103B8000310529F4F0933006E0932F063EC0D901A9
:103B90001396FC93EE9312974D915D91A40FB51F70
:103BA000EA17FB0779F480819181840F951F0296B3
:103BB000D90111969C938E938281938113969C9345
:103BC0008E931297E0E0F0E08A819B81009719F0D4
:103BD000FE01EC01F9CFCE01029628813981820FD6
:103BE000931F20912D0630912E062817390769F46E
:103BF000309729F41092300610922F0602C01382DB
:103C00001282D0932E06C0932D06DF91CF91089596
:103C1000A0E0B0E0EEE0FEE10C949220EC01CB01DC
:103C2000209719F40E94E11CB8C0FE01E60FF71FAF
:103C30009E0122503109E217F30708F4ACC0D90104
:103C40000D911C91119706171707B8F00530110553
:103C500008F49FC0A801445051094617570708F4BB
:103C600098C002501109061B170B019311936D9315
:103C70007C93CF010E94791D8CC05B01A01AB10A10
:103C80004E01800E911EA0912F06B0913006612C3E
:103C9000712C60E070E0109709F449C0A815B905CF
:103CA000C9F5ED90FC901197670142E0C40ED11C5C
:103CB000CA14DB0478F147018A189B08640142E0CA
:103CC000C40ED11C1296BC9012971396AC91B5E01D
:103CD000CB16D10440F0B282A38391828082D901B5
:103CE0008D939C9309C00E5F1F4F0E0D1F1DF90190
:103CF00011830083EB2DFA2F6115710531F0DB0183
:103D00001396FC93EE93129744C0F0933006E09321
:103D10002F063FC06D917C9111976616770608F4C7
:103D20003B01BD0112960D90BC91A02DB4CF6091C6
:103D30002D0670912E0668157905E9F46816790646
:103D4000D0F440910001509101014115510541F419
:103D50004DB75EB76091040170910501461B570B8A
:103D6000E417F507C0F4F0932E06E0932D06F90151
:103D7000918380830EC00E94E11C7C01009759F062
:103D8000A801BE010E940E20CE010E94791DC7012C
:103D900004C0CE0102C080E090E0CDB7DEB7EEE017
:103DA0000C94AE202F923F925F926F927F928F92EF
:103DB0009F92AF92BF92CF92DF92EF92FF920F93BA
:103DC0001F93CF93DF938B01EA016115710521F0F9
:103DD000DB018C9311969C93209739F09E01225021
:103DE00031092332310508F0FBC07C016701BFEFC8
:103DF000CB1ADB0A5601F7016080862D90E00E9405
:103E00000620892B11F07601F1CFFDE26F120AC076
:103E1000570182E0A80EB11CD70111966C9077244F
:103E200073940BC0BBE26B1207C05701E2E0AE0E09
:103E3000B11CD70111966C90712CCE018F7E892B0D
:103E400089F4B0E36B1222C0F50180818F7D883543
:103E500041F56180F2E0AF0EB11C872D8260782EB3
:103E6000C0E1D0E0C830D105F1F04CF4C230D1054A
:103E700011F5C12CD12CE12CB0E4FB2E2FC0CA309F
:103E8000D10531F0C031D10521F115C0209751F78E
:103E9000CAE0D0E0ACECCA2EDC2CEC2CACE0FA2E64
:103EA0001DC02097F9F6C8E0D0E0C12CD12CE12C40
:103EB000F0E1FF2E13C060E070E080E090E89E012A
:103EC000442737FD4095542F0E94A51C69017A01B3
:103ED00005C0C12CD12CE12CE8E0FE2EF50160E0FC
:103EE00020E030E0A9014E01AA2497FCA094BA2C4E
:103EF0001F0170ED572E560CA9E0A51570F48FEB3D
:103F0000860D8A3118F499EC592E06C08FE9860D7A
:103F10008A3130F589EA582E560C852D90E08C17A1
:103F20009D07F4F467FD18C0C216D306E406F50633
:103F300080F0C501B4010E9473209B01AC01250DE6
:103F4000311D411D511D213031054105B0E85B0790
:103F500010F06FEF01C061E03196D1016C90C8CFD5
:103F6000872D81700115110571F0662329F03197B5
:103F7000D801ED93FC9307C071FE19C03297D801A8
:103F8000ED93FC9314C067FF12C0882329F020E052
:103F900030E040E050E804C02FEF3FEF4FEF5FE725
:103FA00082E290E090932C0680932B0616C0882323
:103FB00041F050954095309521953F4F4F4F5F4FC1
:103FC0000CC057FF0AC082E290E090932C068093C9
:103FD0002B062FEF3FEF4FEF5FE7B901CA0104C097
:103FE00060E070E080E090E0DF91CF911F910F9151
:103FF000FF90EF90DF90CF90BF90AF909F908F9009
:104000007F906F905F903F902F900895911146C0E0
:10401000803219F089508550D0F70895FB01DC01FA
:1040200002C001900D9241505040D8F70895FB0115
:10403000DC018D91019080190110D9F3990B08953D
:10404000FB01DC0101900D920020E1F70895F99940
:10405000FECF92BD81BDF89A992780B50895A8E159
:10406000B0E042E050E00C9453200196272F0E94CC
:1040700062200C946120262FF999FECF1FBA92BDC1
:1040800081BD20BD0FB6F894FA9AF99A0FBE019639
:1040900008950E943B20272F0C943C2099278827C5
:1040A0000895DC01CB01FC01F999FECF06C0F2BDF9
:1040B000E1BDF89A319600B40D9241505040B8F7E6
:1040C0000895262FF999FECF92BD81BDF89A0197E8
:1040D00000B4021639F01FBA20BD0FB6F894FA9A50
:1040E000F99A0FBE0895DB018F939F930E9483205E
:1040F000BF91AF91A29F800D911DA39F900DB29F84
:10410000900D112408950E94C520A59F900DB49F85
:10411000900DA49F800D911D112408952F923F9220
:104120004F925F926F927F928F929F92AF92BF92C7
:10413000CF92DF92EF92FF920F931F93CF93DF9373
:10414000CDB7DEB7CA1BDB0B0FB6F894DEBF0FBED0
:10415000CDBF09942A88398848885F846E847D841D
:104160008C849B84AA84B984C884DF80EE80FD801F
:104170000C811B81AA81B981CE0FD11D0FB6F89495
:10418000DEBF0FBECDBFED010895A29FB001B39F6A
:10419000C001A39F700D811D1124911DB29F700D50
:1041A000811D1124911D089511E0C4E0D1E004C0E7
:1041B000FE010E94C91C2296C630D107C9F7F894A7
:0241C000FFCF2F
:1041C200000031068000100E100E08747275650032
:1041D2006D794944004175662067656874732100F2
:1041E2004D65696E652049443A20004B6F6E6669E1
:1041F2006775726174696F6E3A004D6178696D61BD
:104202006C65205A656C6C7370616E6E756E672892
:104212006D56293A20004D696E696D616C65205AB0
:10422200656C6C7370616E6E756E67286D56293A97
:1042320020004D6F64756C20003A20307800202DEC
:104242003E2000204D6F64756C6520676566756E53
:1042520064656E2E20536F6C6C3A2000506F72743E
:1042620073610041766C4D696E43560041766C4D28
:10427200696E43564D6F640041766C4D61784356CA
:104282000041766C4D617843564D6F640042616C1B
:10429200416374697600566F6C74616765006D6F77
:1042A20064756C657300343856494400434D4400CC
:1042B200536574206E657720566F6C746167652054
:1042C200626F7264657273006D61784356006D6946
:1042D2006E4356006E6577206D617843563A200032
:1042E2006E6577206D696E43563A2000417373699B
:1042F200676E696E67204D6F64756C657320746FAD
:10430200206120506F727450696E004D61696E7445
:10431200616E616E6365204F4E004D61696E74611E
:104322006E616E6365204F46460053657474696E14
:1043320067206E65772049443A20006E65774944CC
:104342000053657474696E67206E6577206E756DB3
:10435200626572206F6620696E7374616C6C65644D
:10436200204D6F64756C65733A2000696E73746DCD
:104372006F640000000000AD0043414E204E4F54D8
:10438200204F4B0043414E204F4B006E756C6C002A
:1043920066616C73650022225C5C6208660C6E0AC0
:1043A200720D740900000000000A1476158C13A522
:1043B200139713E8136E616E00696E66006F76667E
:0443C200002E0000C9
:00000001FF
