:100000000C9481000C94C2170C94EF170C94A90067
:100010000C94A9000C94A9000C94A9000C94A900BC
:100020000C94A9000C94A9000C94A9000C94A900AC
:100030000C94A9000C94A9000C94A9000C94A9009C
:100040000C94EF180C94A9000C94B7140C94E914B8
:100050000C94A9000C94A9000C94A9000C94A9007C
:100060000C94A9000C94A900F00549066306AF069C
:10007000BE06C706CC06F70BFB0BA00BA30BA60B0B
:10008000A90BAC0BAF0BB20BB50BB80BBC0BBF0B7A
:10009000CD0BFF0BD00BD30BD70BDA0BDE0BE10B29
:1000A000E50BE80BEB0BEE0BF10B00000008000278
:1000B000010000030407000000000000000001022E
:1000C00004081020408001020408102001020408E6
:1000D00010200404040404040404020202020202C4
:1000E00003030303030300000000250028002B0086
:1000F00000000000240027002A001F0561131915C5
:10010000680511241FBECFEFD8E0DEBFCDBF12E0DF
:10011000A0E0B1E0EEE8F1E402C005900D92AA3A49
:10012000B107D9F726E0AAEAB2E001C01D92A236D3
:10013000B207E1F710E0C0E0D1E004C02297FE0171
:100140000E94AF1CCA3FD107C9F70E94E0180C9467
:10015000BA200C9400009C01FC01E653FF4F808103
:100160009181680F791F693C710530F47183608358
:100170000296820F931F089580E090E0089581EA2F
:1001800093E00C94B908CF93DF93FC0180819181B7
:100190009C01235031092230310528F4628173819A
:1001A0008481958129C0873091053CF062817381FB
:1001B000848195810E94291B1FC001970297C8F472
:1001C000C281D3812097A9F0BE018BE091E00E940B
:1001D000FD1F892B49F04AE050E060E070E0CE015D
:1001E000DF91CF910C94B81E61E070E080E090E068
:1001F00003C060E070E0CB01DF91CF9108956115FD
:10020000710559F0FB0101900020E9F7AF01415061
:100210005109461B570B0C94D41080E090E00895D0
:10022000DF92EF92FF920F931F93CF93DF93EC0136
:10023000D62E0A811B81E880F980B801C7010E948F
:10024000FC10FC01009741F4C7010E94D311FC018E
:10025000009771F01383028384E090E09583848398
:100260004D2D50E060E070E04683578360877187D2
:10027000CE01DF91CF911F910F91FF90EF90DF9012
:100280000895AF92BF92CF92DF92EF92FF920F93B9
:100290001F93CF93DF9300D000D0CDB7DEB700E03F
:1002A00010E02AEAE22E22E0F22EC8010E940D2080
:1002B000F70181937F010F5F1F4FF0E000311F07AF
:1002C000A1F784E190E00E9415209C01245338405E
:1002D0002F30364028F49093A00380939F030CC0E6
:1002E00082E49EE09093A00380939F0362E47EE00B
:1002F00084E190E00E941B2082E190E00E941520A2
:100300009C01245338402F30364028F490939E03AC
:1003100080939D030CC084E398E090939E038093A8
:100320009D0364E378E082E190E00E941B2081E17C
:1003300090E00E940D2080939C0361E087E00E9482
:10034000E81961E086E00E94E81961E085E00E941A
:10035000E8191EE061E0812F0E94E81961E0812F19
:100360000E94211A1F5F1431A9F761E087E00E9403
:10037000211A61E086E00E94211A61E085E00E9476
:10038000211A60919C038091CC029091CD029A83B6
:10039000898380E191E09C838B83CE0101960E944A
:1003A000100126E040E052EC61E070E082EB95E065
:1003B0000E94551464E670E080E090E00E945C19B1
:1003C00065E171E082EB95E00E94B71560E271E0B3
:1003D00082EB95E00E949A154AE050E060919C0300
:1003E00082EB95E00E9488166BE271E082EB95E06B
:1003F0000E94B7156AE371E082EB95E00E949A15BE
:1004000060919F037091A0034AE050E082EB95E079
:100410000E949F1666E571E082EB95E00E949A15B6
:1004200060919D0370919E034AE050E082EB95E05D
:100430000E949F1681EA93E00E94D40742E050E0B8
:100440006FEB70E080E00E94A21764E670E080E04D
:1004500090E00E945C199091BA0280910A0198176D
:1004600009F46DC060E17EE081EA93E00E944708F4
:1004700060E170E080E090E00E945C1981EA93E026
:100480000E94FA081092BA029AE7E92E94E0F92E37
:1004900000E010E0F70180818823A9F162E771E0B4
:1004A00082EB95E00E949A154AE050E06091BA0212
:1004B00082EB95E00E94811669E771E082EB95E09E
:1004C0000E949A1540E150E0B80182EB95E00E944D
:1004D0006C166EE771E082EB95E00E949A154AE097
:1004E00050E0F801E655FD4F608182EB95E00E94F7
:1004F00088168091BA02E82FF0E0E554FD4F0083A2
:100500008F5F8093BA020F5F1F4FFFE0EF0EF11C69
:100510000031110509F0BECF4AE050E06091BA0207
:1005200082EB95E00E94811663E871E082EB95E032
:100530000E94B71568EE73E080E090E08ACF0AE78A
:1005400014E0C12CD12C760184E0A82EB12CF80146
:100550008081882379F08091CA029091CB020E9419
:10056000F611009739F0FC01B382A282C482D582D1
:10057000E682F782015F1F4FFFEFCF1ADF0AEF0A13
:10058000FF0A40E1C416D104E104F10401F70F9021
:100590000F900F900F90DF91CF911F910F91FF90CF
:1005A000EF90DF90CF90BF90AF900895CF92DF9201
:1005B000EF92FF920F931F93CF93DF93EC016B01A8
:1005C0000A811B81E880F980B801C7010E94FC10F4
:1005D000FC01009741F4C7010E94D311FC01009770
:1005E00069F01383028384E090E095838483A601FD
:1005F00060E070E04683578360877187CE01DF91AA
:10060000CF911F910F91FF90EF90DF90CF900895C1
:100610002F923F924F925F926F927F928F929F9212
:10062000AF92BF92CF92DF92EF92FF920F931F9300
:10063000CF93DF93CDB7DEB763970FB6F894DEBFE5
:100640000FBECDBF9E012F5F3F4F3C872B8786E0BB
:10065000F90111928A95E9F78091060190910701BD
:1006600060919F037091A0036817790738F4823472
:10067000FEE09F0718F4BC016F5F7F4F81EA93E0B3
:100680000E94470860E170E080E090E00E945C1901
:1006900081EA93E00E94FA088091BA02282F30E0A4
:1006A000388B2F8730912904398B3BEB232E32E096
:1006B000332E1D86412C512C3201912C1E86A12CEB
:1006C000B12C40E1C42E4EE0D42EC1018B5B924090
:1006D000EF85F8898E179F070CF07AC0F1018190A1
:1006E0001F01082D10E0FFE0F09FC001F19F900D69
:1006F00011248F559C4FFC01E752FF4F208122238C
:1007000009F463C03A96208139973989231721F07B
:1007100080818F5F808301C010824FE0409F700115
:10072000419FF00C1124C7018F559C4F7C01FC01A7
:10073000EB51FF4F80819D85980F9D873697608193
:10074000718180E090E00E945A1B9B01AC01C301C3
:10075000B2010E94591A2B013C01F701E352FF4FED
:10076000808191818C159D0510F48E866C012FE09F
:10077000209FF001219FF00D1124E458FB4F2081B0
:100780003181A216B30610F0892C01C0590123341F
:100790003E4070F48533984058F02FE0209FF001E0
:1007A000219FF00D1124E558FB4F8081873070F0B8
:1007B000F801E655FD4F8081E3EFFFEFEC0FFD1FE1
:1007C000E80FF11D31E0308301C0892C982C7DCFDA
:1007D0009E012F5F3F4F1901E12CF12C00E010E04A
:1007E000812C21E030E0F10161911F01613059F469
:1007F000C9010E2C02C0880F991F0A94E2F7082B3A
:10080000192B882483948EE08E0D2A8B3B8B0E94BB
:10081000211AFFEFEF1AFF0A2A893B8946E0E41606
:10082000F10409F7682D87E00E94211A60919C036A
:100830008091CC029091CD0298878F8380E191E0E6
:100840009A878987CE0107960E941001E090CC021A
:10085000F090CD0264E971E0C7010E94FC1000979E
:1008600051F4C7010E94D311009791F024E931E0BF
:10087000FC013383228324E030E0FC0135832483B0
:10088000222717FD2095322F068317832087318773
:1008900020E030E040E651E4C301B2010E94101CA8
:1008A0002B013C016091BA0270E080E090E00E9470
:1008B0005C1B9B01AC01C301B2010E94C11A20E084
:1008C00030E04AE754E40E94C11A2B013C01D09267
:1008D0000701C0920601B0929B03A0929A038091F7
:1008E000CC029091CD0298878F838BE991E09A8713
:1008F0008987B601CE0107960E94D6028091CC026C
:100900009091CD0298878F8384EA91E09A878987B6
:100910006E85CE0107960E94100160919A03709136
:100920009B038091CC029091CD0298878F8380EBBE
:1009300091E09A878987CE0107960E94D60280911E
:10094000CC029091CD0298878F8389EB91E09A87B2
:100950008987692DCE0107960E9410018091CC02F3
:100960009091CD0298878F8385EC91E09A87898753
:100970006D85CE0107960E9410010091CC02109166
:10098000CD026EEC71E0C8010E94FC10FC010097E2
:1009900051F4C8010E94D311FC01009761F08EEC64
:1009A00091E09383828389E090E0958384834682FB
:1009B000578260867186809106019091070190931D
:1009C000090180930801FD85FF2311F061E001C05A
:1009D00060E086E00E94211A80919A0390919B0327
:1009E0002091060130910701821B930B059710F4AB
:1009F00061E001C060E085E00E94211A63960FB6B5
:100A0000F894DEBF0FBECDBFDF91CF911F910F9144
:100A1000FF90EF90DF90CF90BF90AF909F908F901E
:100A20007F906F905F904F903F902F90089564E675
:100A300070E080E090E00E945C190C9408030F9332
:100A40001F93CF93DF936AE081EA93E00E94030A49
:100A50008EE592E09093CF028093CE02109299039C
:100A6000109298038EEC92E00E94BF10EC019093DC
:100A7000CD028093CC02888199810097E1F00E9499
:100A8000AA108C0166ED71E0CE010E94FC10FC0101
:100A9000009751F4CE010E94D311FC01009771F030
:100AA00026ED31E03383228325E030E03583248353
:100AB0000683178303C02EEA35E001C09801309306
:100AC000CB022093CA02DF91CF911F910F9108951D
:100AD00081EA93E00C94130ABF92CF92DF92EF92D7
:100AE000FF920F931F93CF93DF93CDB7DEB7C65D11
:100AF000D1090FB6F894DEBF0FBECDBF61E771E03C
:100B0000CE0183539F4F0E948A1868EC70E0CE019B
:100B100083539F4F0E944D1882EB95E00E94721301
:100B2000892B59F082EB95E00E948B13682FCE0140
:100B300083539F4F0E94CC18EFCF8EE592E09A83AB
:100B40008983C553DF4F19821882CB5CD040C353D1
:100B5000DF4F68817981CD5CD040CE0101960E9443
:100B6000FF004AE0BC01CE0101960E943C138C01BB
:100B7000F0909C036EED71E00E94FC10009721F054
:100B800004960E94C30001C060E06F1589F06EED0D
:100B900071E0C8010E94FC10009721F004960E94A9
:100BA000C30002C060E070E06F3F710509F024C12E
:100BB00064EE71E0C8010E94FC10009721F00496D9
:100BC0000E94C30001C060E0862F90E0FC013197D5
:100BD000E730F10508F006C1EC5CFF4F0C94AD1C4A
:100BE00068EE71E082EB95E00E94B71560E072E07C
:100BF000C8010E94FC10009721F004960E94C300D7
:100C000002C060E070E07093A00360939F0366E011
:100C100072E0C8010E94FC10009721F004960E9427
:100C2000C30002C060E070E070939E0360939D0378
:100C30006CE072E082EB95E00E949A1560919F0350
:100C40007091A0034AE050E082EB95E00E949F166D
:100C500068E172E082EB95E00E949A1560919D0335
:100C600070919E034AE050E082EB95E00E949F164F
:100C700060919F037091A00384E190E00E942F2077
:100C800060919D0370919E0382E190E00E942F206D
:100C9000A3C08091CC029091CD0222EB35E0CD52E1
:100CA000DF4F39832883C35DD040CB52DF4F198299
:100CB0001882C55DD040BE016D527F4F0E94A111C8
:100CC00061E771E08BC061EE71E0C8010E94FC1029
:100CD000009729F004960E94C300B62E01C0B12CE3
:100CE00064E272E082EB95E00E94B715EB2CF12CE8
:100CF0006BE372E0C8010E94FC10009721F004969B
:100D00000E94C30001C060E0C70186559D4F6C0181
:100D1000FC0160834AE050E06B2D82EB95E00E947D
:100D200081166EE771E082EB95E00E949A154AE029
:100D300050E0F601608182EB95E00E9488166BE33B
:100D400072E0C8010E94FC10009721F004960E94F6
:100D5000C30001C060E0C701805090403BC01EE06E
:100D600061E0812F0E94211A62E370E080E090E050
:100D70000E945C191F5F143199F72EC01EE060E0DD
:100D8000812F0E94211A1F5F1431C9F72BC081EAFD
:100D900093E00E94390826C063E472E082EB95E09C
:100DA0000E949A1564E572E0C8010E94FC10009749
:100DB00021F004960E94C30001C060E060939C0390
:100DC0004AE050E082EB95E00E94881660919C0317
:100DD00081E190E00E9421206FE672E082EB95E0D5
:100DE0000E94B71564E670E080E090E00E945C1914
:100DF00061E086E00E94211ACE0183539F4F0E943A
:100E00001C18CA52DF4F0FB6F894DEBF0FBECDBF1D
:100E1000DF91CF911F910F91FF90EF90DF90CF90D6
:100E2000BF9008958F929F92AF92BF92CF92DF9220
:100E3000EF92FF920F931F93CF93DF93CA01019715
:100E4000860F971F60E070E0DC01A095B0958824C4
:100E50008A94982CEE24E394F12C6417750761F1C1
:100E60006C01F3E0D694C794FA95E1F7C20ED31E55
:100E7000FD01E60FF71FE770FF2700FF0BC05701CA
:100E800002C0AA0CBB1CEA95E2F7F501E601F88165
:100E9000FE2B0BC0540102C0AA0CBB1CEA95E2F762
:100EA000F501E095E601F881FE23F8831695079594
:100EB0006F5F7F4F0197D1CFDF91CF911F910F913E
:100EC000FF90EF90DF90CF90BF90AF909F908F906A
:100ED00008950F931F93CF93DF93CB01FA01EB019A
:100EE00077FD279613E0D595C7951A95E1F768E049
:100EF00070E00E94771CD901AC0FB11D4C91E93014
:100F0000F1050CF5C0E050E09C013327A1E0B0E012
:100F10006C2F772767FD70956E177F075CF4620F63
:100F2000731FCD0102C0880F991F6A95E2F7580F11
:100F3000CF5FEECF4523842F90E002C09595879533
:100F40002A95E2F72CC0D82F60E070E010E080E036
:100F500090E008E0C150AD2FB0E050E00D2E02C08F
:100F6000559547950A94E2F7012E02C0440F551F8C
:100F70000A94E2F7840F951F402F4D1B140F18970A
:100F8000EA0FFB1F4C2F461BD901A40FB11D4C913A
:100F90006F5F7F4F1E161F0614F4D0E0DCCFDF9189
:100FA000CF911F910F9108950F931F93CF93DF93CC
:100FB000EC01C653DE4F42E06CE0CE010E940C0E05
:100FC000882341F060E672E082EB95E00E94B7155D
:100FD00080E04AC000E013E020E030E040E060E064
:100FE000CE010E942A0E00E013E020E030E040E055
:100FF00061E0CE010E942A0E00E012E020E030E025
:1010000040E060E0CE010E946F0E00E010E0980129
:1010100040E061E0CE010E946F0E00E010E0980118
:1010200040E062E0CE010E946F0E00E010E0980107
:1010300040E063E0CE010E946F0E00E010E09801F6
:1010400040E064E0CE010E946F0E00E010E09801E5
:1010500040E065E0CE010E946F0E6BE672E082EB2D
:1010600095E00E94B71581E0DF91CF911F910F911C
:10107000089588549F4FFC0110820E944A0A61E043
:101080008AE00E94E81960E08AE00C94211AAF928D
:10109000BF92CF92DF92EF92FF920F931F93CF9365
:1010A000DF93CDB7DEB728970FB6F894DEBF0FBE3B
:1010B000CDBF6C015B01CE0101967C0188E0F70198
:1010C00011928A95E9F780E18D83F601E857FF4F89
:1010D00080818F5F803110F4808301C01082008195
:1010E00010E0970144E050E060E070E0C6010E942B
:1010F0001207C501FFEDAF16FDE0BF0610F08EED43
:101100009DE0813629E0920710F48EED9DE0BC0150
:10111000685E734080E090E00E945A1B9B01AC0126
:101120000E94591A0E942E1B8B0197014DE050E03E
:1011300068E070E0C6010E94120708E020E040E588
:1011400050E060E070E0C60186539E4F0E94330F6E
:1011500028960FB6F894DEBF0FBECDBFDF91CF91BA
:101160001F910F91FF90EF90DF90CF90BF90AF90C5
:101170000895AF92BF92CF92DF92EF92FF920F93BA
:101180001F93CF93DF931F92CDB7DEB719828C01E7
:101190005C0188E4A80EB11C6801780186E3E81AB6
:1011A0008EEFF80AC7010E94950F8330B9F4A801A9
:1011B000BE016F5F7F4FC7010E94630FC7010E948E
:1011C0009D0FF601E858FF4F71836083085F1F4F42
:1011D00082E0C80ED11C0A151B0521F70F90DF9184
:1011E000CF911F910F91FF90EF90DF90CF90BF9024
:1011F000AF9008953F924F925F926F927F928F923D
:101200009F92AF92BF92CF92DF92EF92FF920F9395
:101210001F93CF93DF93EC016C012C0120E1420E70
:10122000511C8C018FE0682E33243394F601E8586A
:10123000FF4F808191819C0132502F30310508F0A1
:10124000C7C05C01BB247E01869DE00CF11C11240B
:10125000F701E752FF4F3082980144E050E060E030
:1012600070E0CE010E946907782E980144E050E0BA
:1012700064E070E0CE010E946907F701ED51FF4F75
:10128000808398014DE050E06BE170E0CE010E9458
:1012900069074701EDED8E0E911CBC0180E090E0E6
:1012A0000E945A1B20E030E040E05FE30E94101CE7
:1012B00020E030E04AE754E40E94591A0E942E1BB5
:1012C000F4017183608398014DE050E06BE270E0BF
:1012D000CE010E9469074701FBED8F0E911CBC01F6
:1012E00080E090E00E945A1B20E030E040E05FE3A5
:1012F0000E94101C20E030E04AE754E40E94591A92
:101300000E942E1BF4017183608398014DE050E030
:101310006BE370E0CE010E9469074701FFED8F0E7D
:10132000911CBC0180E090E00E945A1B20E030E05C
:1013300040E05FE30E94101C20E030E04AE754E404
:101340000E94591A0E942E1BF40171836083FBE0F6
:101350007F120CC0980148E050E068E070E0CE01D8
:101360000E946907F701EB51FF4F8083980143E02A
:1013700050E068E170E0CE010E946907029741F5F4
:10138000980148E050E068E070E0CE010E946907F3
:101390006A9C70016B9CF00C1124EC0EFD1E21EE7A
:1013A000E20EF11CBC0180E090E00E945A1B20E09C
:1013B00030E040E05FE30E94101C20E030E040E2BB
:1013C00052E40E94581A0E94291BF701718360831E
:1013D000F2E0CF0ED11C085F1F4FC414D50409F0F2
:1013E00025CFDF91CF911F910F91FF90EF90DF906C
:1013F000CF90BF90AF909F908F907F906F905F90B5
:101400004F903F900895CF93DF93EC0186539E4F0A
:101410000E94FE0DC255DF4F80E19EE099838883D4
:10142000DF91CF9108950895CF93CFB7F89480912D
:10143000A905811127C0ECEDF0E08491E8ECF0E023
:101440009491E82FF0E0EE0FFF1FE051FF4FA591C0
:10145000B4918C91892321F461E08AE00E94211AE1
:1014600061E08AE00E94E8198CB580618CBD8CB582
:1014700080648CBD61E08DE00E94E81961E08BE042
:101480000E94E8198091A9058F5F8093A905CFBFBD
:10149000CF9108959FB7F8948091A905882319F0FA
:1014A00081508093A9058091A905811105C08CB553
:1014B0008F7B8CBD1092A8059FBF08958EBD000044
:1014C0000DB407FEFDCF8EB50895CF93DF93EC01E9
:1014D00060E088890E94211A80EC0E945E0A61E027
:1014E00088890E94211A6AE070E080E090E0DF9134
:1014F000CF910C945C191F93CF93DF93EC01162FBF
:1015000060E088890E94211A83E00E945E0A812F90
:101510000E945E0A80E00E945E0A182F61E08889BE
:101520000E94211A812FDF91CF911F910895CF92B0
:10153000DF92EF92FF920F931F93CF93DF9300D030
:10154000CDB7DEB78C01E62EF22E60E0FC0180897B
:1015500049835A830E94211A83E00E945E0A8E2DDD
:101560000E945E0A4981E42EC42E5A81D52E8C2D0C
:101570008E198F1538F480E00E945E0AF60181937F
:101580006F01F5CF61E0F80180890F900F90DF9136
:10159000CF911F910F91FF90EF90DF90CF900C941F
:1015A000211AEF92FF921F93CF93DF931F92CDB733
:1015B000DEB77C01162F60E0FC01808949830E9420
:1015C000211A82E00E945E0A812F0E945E0A4981F0
:1015D000842F0E945E0A61E0F70180890F90DF91FD
:1015E000CF911F91FF90EF900C94211ACF92DF9230
:1015F000EF92FF920F931F93CF93DF9300D0CDB75D
:10160000DEB78C01E62EF22E60E0FC018089498372
:101610005A830E94211A82E00E945E0A8E2D0E9447
:101620005E0A4981E42EC42E5A81D52E8C2D8E1946
:101630008F1530F4F60181916F010E945E0AF6CF9A
:1016400061E0F80180890F900F90DF91CF911F9199
:101650000F91FF90EF90DF90CF900C94211AEF92B2
:10166000FF921F93CF93DF9300D0CDB7DEB77C01FD
:10167000162F60E0FC0180892A8349830E94211A89
:1016800085E00E945E0A812F0E945E0A4981842FB4
:101690000E945E0A2A81822F0E945E0A61E0F701A1
:1016A00080890F900F90DF91CF911F91FF90EF9065
:1016B0000C94211A1F93CF93DF93EC0160E088898B
:1016C0000E94211A80EA0E945E0A80E00E945E0A5F
:1016D000182F61E088890E94211A812FDF91CF9114
:1016E0001F9108951F93CF93DF93EC01162F262FA0
:1016F00040EE6FE00E942F0B6FE0CE010E947B0A4C
:10170000982F907E81E0911301C080E0DF91CF910E
:101710001F9108950F931F93CF93DF93EC014130F6
:1017200019F0423079F161C0462F50E0FA0131974B
:10173000ED30F10508F059C0E55CFF4F0C94AD1C8D
:1017400017E80FEF5EC015E801EF5BC017E80FEF79
:101750002CC017E80AEF29C017E80FEF2DC017E8D3
:101760000AEF2AC016E800EF27C017E80AEF2BC0DF
:1017700015E801EF41E446C016E800EF34C012E876
:1017800000ED31C0462F50E0FA013197ED30F10500
:1017900060F5E85BFF4F0C94AD1C17E00FEB2DC01C
:1017A00017E00FEB02C014E004EA47E02BC017E09B
:1017B0000FEB02C016E004EB43E024C017E00FEB90
:1017C00002C016E004EB41E01DC015E001EBFBCFC9
:1017D00016E004EB08C015E001EB05C012E000E9DB
:1017E00002C010E000E840E00DC081E01AC017E838
:1017F0000FEF4FE307C017E80FEF4FE103C017E00B
:101800000FEB4FE06AE2CE010E94D10A402F69E25D
:10181000CE010E94D10A412F68E2CE010E94D10A76
:1018200080E0DF91CF911F910F9108950F931F9347
:10183000CF93DF9300D000D0CDB7DEB74130B1F405
:101840000C831B83890122273327502F5C71402F83
:10185000437078E0579F400D112448604A8355E05B
:10186000169507955A95E1F709830DC0A80123E065
:10187000569547952A95E1F749830295000F007E1A
:101880000A831C821B8224E0AE014F5F5F4F0E94DF
:10189000F60A0F900F900F900F90DF91CF911F914C
:1018A0000F9108950F931F93CF93DF93EC0100E006
:1018B00010E0980141E060E20E94160C00E010E0A8
:1018C000980141E064E2CE010E94160C00E010E0B5
:1018D000980141E060E0CE010E94160C00E010E0AB
:1018E000980140E064E0CE010E94160C00E010E098
:1018F000980141E068E0CE010E94160C00E010E083
:10190000980140E060E1CE010E94160C00E010E07A
:10191000980141E064E1CE010E94160C00E010E065
:10192000980140E068E1CE010E94160C10E340E00F
:10193000612FCE010E94D10A60E1610F40E0CE012B
:101940000E94D10A60E2610F40E0CE010E94D10AFC
:101950001F5F1E3361F740E060E6CE010E94D10AAE
:1019600040E060E7CE01DF91CF911F910F910C9481
:10197000D10AEF92FF920F931F93CF93DF931F92A1
:10198000CDB7DEB77C01062F49830E94650A60E867
:10199000C7010E94720B182F4981811125C0602F49
:1019A000C7010E948A0B81111FC0C7010E94520CFF
:1019B00043E06BE2C7010E94D10A24E044E660E6FE
:1019C000C7010E942F0B20E040E660E7C7010E949C
:1019D0002F0B60E0C7010F90DF91CF911F910F9106
:1019E000FF90EF900C94720B812F0F90DF91CF91AD
:1019F0001F910F91FF90EF900895EF92FF920F9338
:101A00001F93CF93DF9300D000D0CDB7DEB77A011C
:101A10008901FA011082F901108211821282138267
:101A200024E0AE014F5F5F4F0E94970A2A813981FF
:101A3000822F90E045E0959587954A95E1F7F8E08B
:101A40003F9F800D911D1124AA2797FDA095BA2FC5
:101A5000F80180839183A283B38323FF25C062E0D2
:101A6000880F991FAA1FBB1F6A95D1F72370820F99
:101A7000911DA11DB11DBA2FA92F982F88272B8149
:101A8000820F911DA11DB11DBA2FA92F982F882754
:101A90002C81820F911DA11DB11D80839183A28392
:101AA000B38381E0F70180830F900F900F900F9028
:101AB000DF91CF911F910F91FF90EF900895FF92CA
:101AC0000F931F93CF93DF93EC01F62EAC014A5F87
:101AD0005F4F65E06F0D2D810E94F60A8E85813083
:101AE00019F48D8180648D8364E06F0D4D81CE018A
:101AF0000E94D10A09811A812B813C8148816F2D76
:101B0000CE010E94160CDF91CF911F910F91FF9093
:101B100008950F931F93CF93DF93EC01162F9C0131
:101B20002F5F3F4FAC010E94FD0C6FEF610FCE01A4
:101B30000E947B0A082F64E0610FCE010E947B0A9D
:101B4000282F8D8303FF03C081E08E8701C01E868E
:101B50002F702D83AE014A5F5F4F65E0610FCE01AC
:101B6000DF91CF911F910F910C94970A615028E05B
:101B700048E00C942F0B9F92AF92BF92CF92DF92CE
:101B8000EF92FF920F931F93CF93DF9300D01F929A
:101B9000CDB7DEB76C017B0180E3898380E48A8363
:101BA00080E58B83FB0110828E010F5F1F4F5E016A
:101BB000F4E0AF0EB11CF80191908F01692DC601C0
:101BC0000E947B0A982F987083FD04C09394F701BC
:101BD000908204C00A151B0571F792E0892F0F90BF
:101BE0000F900F90DF91CF911F910F91FF90EF9089
:101BF000DF90CF90BF90AF909F900895CF93DF93E9
:101C0000EC01862F688B61E00E94E81961E0888909
:101C1000DF91CF910C94211ACF93DF9300D000D0A5
:101C2000CDB7DEB74C836B8389839A830E94140AF5
:101C30004C816B8189819A810E94B90C91E081115C
:101C400001C090E0892F0F900F900F900F90DF91BF
:101C5000CF9108958F929F92BF92CF92DF92EF9291
:101C6000FF920F931F93CF93DF931F92CDB7DEB7F1
:101C70004C01B62E6801790160E849830E94720B1D
:101C8000498181111FC0B11004C09701860160E233
:101C900006C081E0B81206C09701860164E2C40163
:101CA0000E94160C60E0C4010F90DF91CF911F914C
:101CB0000F91FF90EF90DF90CF90BF909F908F900B
:101CC0000C94720B0F90DF91CF911F910F91FF90A9
:101CD000EF90DF90CF90BF909F908F900895AF923C
:101CE000BF92CF92DF92EF92FF920F931F93CF9309
:101CF000DF9300D0CDB7DEB75C01562F68017901C4
:101D000060E84A8359830E94720B4A81598181118C
:101D100036C05230B1F040F4552379F05130F9F427
:101D20009701860164E018C0543099F070F0553086
:101D3000B1F49701860168E10FC09701860160E068
:101D40000BC09701860168E007C09701860160E13A
:101D500003C09701860164E1C5010E94160C60E092
:101D6000C5010F900F90DF91CF911F910F91FF90C0
:101D7000EF90DF90CF90BF90AF900C94720B0F90CC
:101D80000F90DF91CF911F910F91FF90EF90DF9017
:101D9000CF90BF90AF900895EF92FF920F93CF93A3
:101DA000DF93FC0120834183528363837483058323
:101DB000D70180E090E02D91EF01C80FD91F2E834D
:101DC000019688309105B9F780E0DF91CF910F91AE
:101DD000FF90EF900895EF92FF920F931F93CF9390
:101DE000DF931F92CDB7DEB78C01E12CF12CBE0141
:101DF0006F5F7F4FC8010E94BB0D9FEFE91AF90A80
:101E0000823029F482E3E816F10489F723C092E3D3
:101E1000E916F104F9F06981C8010E945F0D69813A
:101E2000C8010E94B60DE12CF12C8FEFE81AF80AD8
:101E30006981C8010E947B0A83FF06C092E3E9160C
:101E4000F10499F787E007C082E3E816F104D1F3C3
:101E500080E001C086E00F90DF91CF911F910F913C
:101E6000FF90EF900895EF92FF920F93CF93DF933F
:101E7000EC010E94CC0ECE01DF91CF910F91FF902B
:101E8000EF900C94EB0ECF93DF93EC010E945A0B72
:101E900080FF07C061E6CE010E94890D20E041E08D
:101EA00008C081FF0CC061E7CE010E94890D20E0CF
:101EB00042E06CE2CE010E942F0B80E001C084E082
:101EC000DF91CF910895EF92FF920F931F93CF93DD
:101ED000DF9300D0CDB7DEB77C018B0149835A83F5
:101EE0000E94430FD70115968C91F8018083498198
:101EF000E42F5A81F52F80E090E0D70115962C91C0
:101F000030E08217930744F4D701A80FB91F169643
:101F10002C9121930196F1CF0F900F90DF91CF91EB
:101F20001F910F91FF90EF9008950E945A0B8370BC
:101F300011F083E0089584E00895FC0161817281CD
:101F4000838194810895FC0120812D3051F024F487
:101F50002950223030F505C0203219F02F3219F007
:101F600008950196F0CFFC0121812A3219F02F3219
:101F700079F008950296FC012081222321F32A3270
:101F800029F421812F3211F40296DDCF0196F3CF8F
:101F9000FC013296CF0121912223A9F22A30D1F7F8
:101FA000D2CF0895CF93DF93EC0188819981DC0132
:101FB000ED91FC910190F081E02D09952A813B8102
:101FC000280F391F3B832A83DF91CF910895FF9219
:101FD0000F931F93CF93DF93EC018B016115710574
:101FE00091F462E772E0888199810E949A152A81B2
:101FF0003B81280F391F3B832A83DF91CF911F91AB
:102000000F91FF90089562E2CE010E94D20FF80175
:1020100061918F01662351F0EDE7F2E0F080FF203F
:1020200099F39181961759F03296F8CF62E2CE017A
:10203000DF91CF911F910F91FF900C94D20F6CE51F
:10204000CE010E94D20F6F2DDFCFDB01109749F038
:10205000ED91FC9111970190F081E02DBC01CD0133
:10206000099480E090E008950F931F93CF93DF933E
:102070001F92CDB7DEB78C01FC0182819381698309
:102080000E94A30FFC0120816981261308C00196DC
:102090000E94A30FF8019383828381E001C080E056
:1020A0000F90DF91CF911F910F910895CF93DF9300
:1020B000EC01AA81BB814C813D812C91273219F41E
:1020C000C42FD32F15C02232D9F3C42FD32FFD0133
:1020D0002AC03C3559F4FD01329612963C91A1E894
:1020E000B2E06C91611110C0332339F13993DF01F3
:1020F000AE01FD01319611963C9111973323E9F021
:102100003213E7CF319619C0631303C011963C9187
:10211000EBCF1296E6CF322F3F7D31543A3148F45F
:10212000299331962081AE0130ED320F3A30C0F361
:10213000F2CF33ED320F323098F3DA011D92EC0119
:102140002C813D81FB83EA83BD83AC83C901DF9190
:10215000CF910895CF93DF93EC01BC0184E090E030
:102160000E942510FC01009729F0D183C0831382BF
:10217000128202C08EEA95E0DF91CF910895CF934D
:10218000DF93EC01BC0184E090E00E942510FC018B
:10219000009729F0D183C0831382128202C08AEA99
:1021A00095E0DF91CF910895EF92FF920F931F93E7
:1021B000CF93DF9300D0CDB7DEB78B014F5F5F4F7A
:1021C000DC01ED91FC910190F081E02DBA01498391
:1021D0005A8309957C0149815A81009719F0B80109
:1021E0000E94F41FC7010F900F90DF91CF911F91B4
:1021F0000F91FF90EF9008950F931F93CF93DF936C
:102200008B01FC01C281D381209759F0B8018A81EA
:102210009B810E94FD1F892B39F00990D881C02D28
:10222000F3CF80E090E001C0CE01DF91CF911F910C
:102230000F910895CF93DF93FC01EB012081318151
:102240002530310531F482819381DF91CF910C9457
:102250007B112630310531F482819381DF91CF915A
:102260000C94A1112230310539F462817381CE01C1
:10227000DF91CF910C94E70F2130310519F4628181
:1022800073811EC02430310559F442815381648129
:1022900075812AE030E0888199810E94221622C04F
:1022A0002330310591F482819381A481B581892BFA
:1022B0008A2B8B2B19F06BE071E002C067E772E0AC
:1022C000888199810E949A150DC02730310584F0CC
:1022D000275030E0428153816481758188819981E2
:1022E0000E94A0172A813B81280F391F3B832A8334
:1022F000DF91CF9108950F931F93CF93DF93EC015C
:102300008B016BE5C8010E94D20F0A80DB81C02DD2
:10231000209779F0B801CE0102960E941A11099017
:10232000D881C02D209729F06CE2C8010E94D20FFD
:10233000F1CF6DE5C801DF91CF911F910F910C9402
:10234000D20F0F931F93CF93DF938C01EB016BE7B9
:10235000CE010E94D20FF8010281138101151105EF
:10236000D1F0F80162817381CE010E94E70F6AE328
:10237000CE010E94D20FBE01C80104960E941A111C
:10238000F801008111810115110529F06CE2CE01DF
:102390000E94D20FE6CF6DE7CE01DF91CF911F9162
:1023A0000F910C94D20FCF93DF93EC016881798168
:1023B0008AE090E00E942510009729F0FC0111822C
:1023C000108215821482EA81FB81309751F02081BE
:1023D00031812115310511F0F901F9CF9183808305
:1023E00002C09B838A83DF91CF910895CF93DF93BF
:1023F000EC016881798188E090E00E9425100097C7
:1024000029F0FC011182108213821282EA81FB8181
:10241000309751F0208131812115310511F0F901FA
:10242000F9CF9183808302C09B838A83DF91CF9110
:102430000895DF92EF92FF920F931F93CF93DF9354
:1024400000D000D000D0CDB7DEB78C01FC01808178
:1024500091810E94AA107C016BE5C8010E94341092
:10246000882379F16DE5C8010E943410811127C0DD
:1024700086E0D82E1A821982BE016F5F7F4FC80195
:102480000E9471128823E9F0C7010E94F61100979B
:10249000C1F0FE013196DC0112968D2D01900D9256
:1024A0008A95E1F76DE5C8010E943410811107C0DB
:1024B0006CE2C8010E9434108111DCCF02C0C70158
:1024C00002C08EEA95E026960FB6F894DEBF0FBEE6
:1024D000CDBFDF91CF911F910F91FF90EF90DF90D3
:1024E0000895FF920F931F93CF93DF93EC018B011D
:1024F0008E81882309F447C081508E838A819B8115
:102500000E94A30F9B838A83FC0180818B3519F085
:102510008B3761F01CC0CE010E941912FC01208192
:102520003181232B59F125E030E00AC0CE010E9411
:10253000CA12FC0120813181232B01F126E030E019
:10254000F801318320839383828381E018C087322E
:1025500031F091E0823209F090E0F92E02C0FF24C0
:10256000F394CE010E945610009741F0FF2019F01D
:1025700022E030E0E5CF21E030E0E2CF80E09E8154
:102580009F5F9E8301C080E0DF91CF911F910F91EB
:10259000FF900895BF92CF92DF92EF92FF920F9338
:1025A0001F93CF93DF9300D000D000D0CDB7DEB71C
:1025B0008C01FC01808191810E94BF106C016BE74E
:1025C000C8010E943410882309F444C06DE7C80193
:1025D0000E94341081113CC096E0B92EC8010E94BF
:1025E00056107C010097B1F16AE3C8010E943410D3
:1025F000882381F11A821982BE016F5F7F4FC80163
:102600000E947112882331F1B701C6010E94FC10AB
:10261000009741F4C6010E94D3110097D9F0FC0144
:10262000F382E282FE013196DC0114968B2D01903B
:102630000D928A95E1F76DE7C8010E94341081116F
:1026400007C06CE2C8010E9434108111C7CF02C0DC
:10265000C60102C08AEA95E026960FB6F894DEBF5E
:102660000FBECDBFDF91CF911F910F91FF90EF90E3
:10267000DF90CF90BF900895CF93DF93CDB7DEB7B3
:1026800027970FB6F894DEBF0FBECDBF9A8389831C
:102690006115710519F481E791E001C0CB019C83BC
:1026A0008B837E836D834F83CE0101960E94CA1275
:1026B00027960FB6F894DEBF0FBECDBFDF91CF9146
:1026C00008951092AF051092AE051092B1051092C8
:1026D000B0051092AB051092AA051092AD051092AC
:1026E000AC050895FC01818D228D90E0805C9F4FA8
:1026F000821B91098F7399270895FC01918D828D1A
:10270000981731F0828DE80FF11D858D90E00895C6
:102710008FEF9FEF0895FC01918D828D981761F0E6
:10272000828DDF01A80FB11D5D968C91928D9F5F08
:102730009F73928F90E008958FEF9FEF08958FE041
:1027400095E1892B49F08CE695E0892B29F00E94D0
:102750000F1581110C946C050895FC01848DDF0127
:10276000A80FB11DA35ABF4F2C91848D90E0019604
:102770008F739927848FA689B7892C93A089B189F3
:102780008C9180648C93938D848D981306C00288FD
:10279000F389E02D80818F7D80830895CF93DF932F
:1027A000EC01888D8823C9F0EA89FB89808185FD49
:1027B00005C0A889B9898C9186FD0FC00FB607FCAA
:1027C000F5CF808185FFF2CFA889B9898C9185FFEB
:1027D000EDCFCE010E94AD13E7CFDF91CF910895E9
:1027E000CF92DF92FF920F931F93CF93DF931F92AD
:1027F000CDB7DEB76C01DC015B969C915B975C9674
:102800008C915C97981307C05096ED91FC9151976D
:10281000808185FD32C0F601038D10E00F5F1F4FF0
:102820000F731127F02EF601848DF81211C00FB628
:1028300007FCF9CFD6015096ED91FC91519780811C
:1028400085FFF1CFC60169830E94AD136981EBCF8B
:10285000838DE80FF11DE35AFF4F6083D6015B962D
:102860000C935B975296ED91FC9153978081806217
:10287000808381E058968C930DC0D6015696ED91D9
:10288000FC91579760835096ED91FC915197808110
:102890008064808381E090E00F90DF91CF911F9161
:1028A0000F91FF90DF90CF900895BF92CF92DF926B
:1028B000EF92FF92CF93DF93EC016A017B01B22E7E
:1028C000E889F98982E08083411581EE5807610526
:1028D0007105A1F060E079E08DE390E0A701960139
:1028E0000E948B1C21503109410951095695479589
:1028F00037952795211580E1380798F0E889F989FF
:10290000108260E874E88EE190E0A70196010E94D1
:102910008B1C21503109410951095695479537952E
:102920002795EC85FD853083EE85FF852083188E05
:10293000EC89FD89B082EA89FB898081806180838E
:10294000EA89FB89808188608083EA89FB898081AC
:1029500080688083EA89FB8980818F7D8083DF9115
:10296000CF91FF90EF90DF90CF90BF9008951F928E
:102970000F920FB60F9211242F938F939F93EF9383
:10298000FF93E091C205F091C3058081E091C805F5
:10299000F091C90582FD12C090818091CB058F5FB7
:1029A0008F732091CC05821751F0E091CB05F0E0B8
:1029B000EE54FA4F958F8093CB0501C08081FF9133
:1029C000EF919F918F912F910F900FBE0F901F90BD
:1029D00018951F920F920FB60F9211242F933F93C9
:1029E0004F935F936F937F938F939F93AF93BF9317
:1029F000EF93FF9382EB95E00E94AD13FF91EF916F
:102A0000BF91AF919F918F917F916F915F914F9106
:102A10003F912F910F900FBE0F901F90189582EB52
:102A200095E00E94721321E0892B09F420E0822FA7
:102A300008951092B5051092B40588EE93E0A0E0D9
:102A4000B0E08093B6059093B705A093B805B09316
:102A5000B90580E992E09093B3058093B20585ECC7
:102A600090E09093BF058093BE0584EC90E0909336
:102A7000C1058093C00580EC90E09093C3058093DE
:102A8000C20581EC90E09093C5058093C40582EC6B
:102A900090E09093C7058093C60586EC90E09093F4
:102AA000C9058093C8051092CB051092CC051092F1
:102AB000CD051092CE050895CF92DF92EF92FF924E
:102AC0000F931F93CF93DF936C017A01EB01E60E16
:102AD000F71E00E010E0CE15DF0561F06991D60128
:102AE000ED91FC910190F081E02DC6010995080F50
:102AF000191FF1CFC801DF91CF911F910F91FF9066
:102B0000EF90DF90CF9008956115710581F0DB01A2
:102B10000D900020E9F7AD0141505109461B570BBC
:102B2000DC01ED91FC910280F381E02D099480E0BD
:102B300090E008950C948415DC01ED91FC910190D6
:102B4000F081E02D09940F931F93CF93DF93EC0155
:102B50006DE00E949C158C016AE0CE010E949C15DC
:102B6000800F911FDF91CF911F910F9108950F93C7
:102B70001F93CF93DF93EC010E9484158C01CE014B
:102B80000E94A315800F911FDF91CF911F910F918C
:102B900008958F929F92AF92BF92CF92DF92EF9261
:102BA000FF920F931F93CF93DF93CDB7DEB7A1971B
:102BB0000FB6F894DEBF0FBECDBF7C01C42EE52F4B
:102BC000CB01D22E19A221E02D1510F02AE0D22E31
:102BD0008E010F5D1F4F8D2C912CA12CB12C6C2DD3
:102BE0007E2FA50194010E948B1C8C2DD29E8019F2
:102BF0001124015011098A3014F4805D01C0895CF0
:102C0000F8018083211531054105510521F0C22EBF
:102C1000E32FCA01E4CFB801C7010E948415A19631
:102C20000FB6F894DEBF0FBECDBFDF91CF911F91DD
:102C30000F91FF90EF90DF90CF90BF90AF909F905B
:102C40008F900895CF92DF92EF92FF920F931F9390
:102C5000CF93DF93EC016A017B012115310579F4F3
:102C6000E881F9810190F081E02D642FDF91CF910F
:102C70001F910F91FF90EF90DF90CF9009942A3031
:102C80003105E9F477FF1AC06DE20E949C158C01B2
:102C900044275527BA014C195D096E097F092AE0BE
:102CA000CE010E94C915800F911FDF91CF911F9116
:102CB0000F91FF90EF90DF90CF9008952AE0B70139
:102CC000A601CE01DF91CF911F910F91FF90EF9060
:102CD000DF90CF900C94C9159A01AB01662757FD80
:102CE0006095762F0C9422162115310541F4DC01F4
:102CF000ED91FC910190F081E02D642F09940C94EA
:102D0000C9159A01462F50E060E070E00C947416EB
:102D10000F931F93CF93DF93EC019A01462F50E05E
:102D200060E070E00E9474168C01CE010E94A31531
:102D3000800F911FDF91CF911F910F9108950F93F5
:102D40001F93CF93DF93EC019A01AB0160E070E039
:102D50000E9474168C01CE010E94A315800F911F52
:102D6000DF91CF911F910F9108954F925F926F92D3
:102D70007F928F929F92AF92BF92CF92DF92EF920B
:102D8000FF920F931F93CF93DF93EC016A017B01B6
:102D9000B22E9A01AB01C701B6010E94731C8823B1
:102DA00019F06CE972E027C026013701E89477F842
:102DB0002FEF3FEF4FE75FE7C301B2010E94731CA3
:102DC00081110DC02FEF3FEF4FE75FE7C301B20165
:102DD0000E94BD1A18161CF460EA72E00CC02FEFB6
:102DE0003FEF4FE75FE4C701B6010E940C1C1816C5
:102DF000ACF464EA72E0CE01DF91CF911F910F91A4
:102E0000FF90EF90DF90CF90BF90AF909F908F900A
:102E10007F906F905F904F900C9484152FEF3FEF51
:102E20004FE75FECC701B6010E94BD1A87FDE1CFF5
:102E300020E030E0A901C701B6010E94BD1A87FF5A
:102E40000AC06DE2CE010E949C158C01F7FAF09445
:102E5000F7F8F09402C000E010E0A12C60E070E010
:102E600080E09FE3AB1441F020E030E040E251E429
:102E70000E94C11AA394F6CF9B01AC01C701B60111
:102E80000E94591A6B017C010E942E1B2B013C01F0
:102E90000E945A1B9B01AC01C701B6010E94581A3F
:102EA0006B017C012AE0B301A201CE010E94C91589
:102EB000080F191FBB2039F068EA72E0CE010E94AA
:102EC0008415080F191F7B2C772041F120E030E09A
:102ED00040E251E4C701B6010E94101C6B017C0165
:102EE0000E94291B4B01AA2497FCA094BA2C2AE02B
:102EF00030E0B501A401CE010E942216080F191F6F
:102F0000C501B4010E945C1B9B01AC01C701B60165
:102F10000E94581A6B017C017A94D6CFC801DF91C8
:102F2000CF911F910F91FF90EF90DF90CF90BF90C6
:102F3000AF909F908F907F906F905F904F9008958B
:102F40000C94B5168230E8F4E82FF0E0EE0FFF1F86
:102F5000E15BF94F71836083813041F080916900BA
:102F60008C7F842B80936900E89A08958091690092
:102F7000440F551F440F551F837F842B8093690096
:102F8000E99A08951F920F920FB60F9211242F9372
:102F90003F934F935F936F937F938F939F93AF93E1
:102FA000BF93EF93FF9380914F0690915006892B2A
:102FB00029F0E0914F06F09150060995FF91EF91AD
:102FC000BF91AF919F918F917F916F915F914F9141
:102FD0003F912F910F900FBE0F901F9018951F9249
:102FE0000F920FB60F9211242F933F934F935F933D
:102FF0006F937F938F939F93AF93BF93EF93FF93C1
:103000008091510690915206892B29F0E09151064A
:10301000F09152060995FF91EF91BF91AF919F9169
:103020008F917F916F915F914F913F912F910F9071
:103030000FBE0F901F901895FC01808191810C9418
:103040005F1DCF93DF93EC0188819981009711F088
:103050000E945F1D198218821D821C821B821A82A7
:10306000DF91CF9108950F931F93CF93DF93EC01DE
:103070008B016F5F7F4F888199810E94EE1D0097C1
:1030800031F0998388831B830A8381E001C080E04B
:10309000DF91CF911F910F910895CF93DF93EC01B2
:1030A00088819981892B29F08A819B8186179707CE
:1030B00060F4CE010E943318882341F08C819D81F9
:1030C000892B19F4E881F981108281E0DF91CF9199
:1030D0000895EF92FF920F931F93CF93DF93EC012C
:1030E0007B018A01BA010E944D18811104C0CE01F2
:1030F0000E94211807C01D830C83B7018881998124
:103100000E940620CE01DF91CF911F910F91FF9079
:10311000EF900895FC0111821082138212821582B1
:1031200014826115710559F0FB0101900020E9F747
:10313000AF0141505109461B570B0C946918089573
:10314000EF92FF920F931F93CF93DF93EC017B01DC
:103150000C811D816115710511F480E016C04115C7
:10316000510591F0040F151FB8010E944D188823D6
:10317000A1F3288139818C819D81B701820F931F32
:103180000E9406201D830C8381E0DF91CF911F9167
:103190000F91FF90EF900895CF93DF9300D0CDB7BC
:1031A000DEB769831A8241E050E0BE016F5F7F4F56
:1031B0000E94A0180F900F90DF91CF91089508956D
:1031C0000E9484190E94DF180E944101CFE9D3E1D7
:1031D0000E9417052097E1F30E949F13F9CF1F92D9
:1031E0000F920FB60F9211242F933F938F939F93BB
:1031F000AF93BF938091540690915506A0915606C7
:10320000B09157063091530623E0230F2D3720F459
:103210000196A11DB11D05C026E8230F0296A11D30
:10322000B11D209353068093540690935506A093A6
:103230005606B09357068091580690915906A09172
:103240005A06B0915B060196A11DB11D80935806E8
:1032500090935906A0935A06B0935B06BF91AF9125
:103260009F918F913F912F910F900FBE0F901F90C4
:1032700018953FB7F8948091580690915906A091FF
:103280005A06B0915B0626B5A89B05C02F3F19F0E2
:103290000196A11DB11D3FBF6627782F892F9A2F58
:1032A000620F711D811D911D42E0660F771F881FFF
:1032B000991F4A95D1F70895CF92DF92EF92FF922E
:1032C000CF93DF936B017C010E943919EB01C1148C
:1032D000D104E104F10489F00E94571A0E943919BF
:1032E0006C1B7D0B683E734090F381E0C81AD108D7
:1032F000E108F108C851DC4FEACFDF91CF91FF9090
:10330000EF90DF90CF900895789484B5826084BD6B
:1033100084B5816084BD85B5826085BD85B58160D9
:1033200085BDEEE6F0E0808181608083E1E8F0E039
:103330001082808182608083808181608083E0E868
:10334000F0E0808181608083E1EBF0E08081846047
:103350008083E0EBF0E0808181608083EAE7F0E049
:1033600080818460808380818260808380818160AD
:1033700080838081806880831092C10008958330AB
:1033800081F028F4813099F08230A1F008958730DF
:10339000A9F08830B9F08430D1F4809180008F7D1D
:1033A00003C0809180008F7780938000089584B55A
:1033B0008F7702C084B58F7D84BD08958091B00061
:1033C0008F7703C08091B0008F7D8093B000089507
:1033D000CF93DF9390E0FC01E254FF4F2491FC0176
:1033E000EE52FF4F8491882349F190E0880F991F96
:1033F000FC01E051FF4FA591B4918A519F4FFC0110
:10340000C591D4919FB7611108C0F8948C91209513
:1034100082238C93888182230AC0623051F4F8940D
:103420008C91322F309583238C938881822B8883D3
:1034300004C0F8948C91822B8C939FBFDF91CF9125
:1034400008950F931F93CF93DF931F92CDB7DEB7ED
:10345000282F30E0F901E655FF4F8491F901E2543D
:10346000FF4F1491F901EE52FF4F04910023C9F070
:10347000882321F069830E94BF196981E02FF0E061
:10348000EE0FFF1FEA51FF4FA591B4919FB7F8943B
:103490008C91611103C01095812301C0812B8C9305
:1034A0009FBF0F90DF91CF911F910F9108950895C5
:1034B0005058BB27AA270ED075C166D130F06BD10A
:1034C00020F031F49F3F11F41EF45BC10EF4E0953F
:1034D000E7FB51C1E92F77D180F3BA176207730771
:1034E0008407950718F071F49EF58FC10EF4E095EE
:1034F0000B2EBA2FA02D0B01B90190010C01CA01AE
:10350000A0011124FF27591B99F0593F50F4503E58
:1035100068F11A16F040A22F232F342F4427585F4A
:10352000F3CF469537952795A795F0405395C9F762
:103530007EF41F16BA0B620B730B840BBAF091501A
:10354000A1F0FF0FBB1F661F771F881FC2F70EC0B9
:10355000BA0F621F731F841F48F48795779567958C
:10356000B795F7959E3F08F0B3CF9395880F08F075
:103570009927EE0F979587950895D9D008F481E0A3
:1035800008950CD00FC107D140F0FED030F021F4E7
:103590005F3F19F0F0C0511139C1F3C014D198F355
:1035A0009923C9F35523B1F3951B550BBB27AA27C4
:1035B00062177307840738F09F5F5F4F220F331F36
:1035C000441FAA1FA9F333D00E2E3AF0E0E830D002
:1035D00091505040E695001CCAF729D0FE2F27D005
:1035E000660F771F881FBB1F261737074807AB07D3
:1035F000B0E809F0BB0B802DBF01FF2793585F4F48
:103600002AF09E3F510568F0B6C000C15F3FECF361
:10361000983EDCF3869577956795B795F7959F5F0C
:10362000C9F7880F911D9695879597F90895E1E060
:10363000660F771F881FBB1F621773078407BA07BF
:1036400020F0621B730B840BBA0BEE1F88F7E0951A
:10365000089504D06894B111D9C00895BCD088F001
:103660009F5790F0B92F9927B751A0F0D1F0660F6E
:10367000771F881F991F1AF0BA95C9F712C0B13089
:1036800081F0C3D0B1E00895C0C0672F782F88279C
:10369000B85F39F0B93FCCF3869577956795B395C8
:1036A000D9F73EF490958095709561957F4F8F4F37
:1036B0009F4F0895E89409C097FB3EF4909580953C
:1036C000709561957F4F8F4F9F4F9923A9F0F92FE8
:1036D00096E9BB279395F695879577956795B79566
:1036E000F111F8CFFAF4BB0F11F460FF1BC06F5F4C
:1036F0007F4F8F4F9F4F16C0882311F096E911C05E
:10370000772321F09EE8872F762F05C0662371F07E
:1037100096E8862F70E060E02AF09A95660F771F92
:10372000881FDAF7880F9695879597F90895990F6E
:103730000008550FAA0BE0E8FEEF16161706E8077B
:10374000F907C0F012161306E407F50798F0621B9C
:10375000730B840B950B39F40A2661F0232B242B71
:10376000252B21F408950A2609F4A140A6958FEF90
:10377000811D811D089597F99F6780E870E060E0E2
:1037800008959FEF80EC089500240A9416161706FA
:1037900018060906089500240A9412161306140642
:1037A00005060895092E0394000C11F4882352F0A5
:1037B000BB0F40F4BF2B11F460FF04C06F5F7F4F5D
:1037C0008F4F9F4F089557FD9058440F551F59F044
:1037D0005F3F71F04795880F97FB991F61F09F3FFE
:1037E00079F087950895121613061406551FF2CF27
:1037F0004695F1DF08C0161617061806991FF1CF77
:1038000086957105610508940895E894BB2766279D
:103810007727CB0197F908958ADF08F48FEF089591
:103820000BD0C0CFB1DF28F0B6DF18F0952309F038
:10383000A2CFA7CF1124EACFC6DFA0F3959FD1F383
:10384000950F50E0551F629FF001729FBB27F00D4E
:10385000B11D639FAA27F00DB11DAA1F649F6627A3
:10386000B00DA11D661F829F2227B00DA11D621FF2
:10387000739FB00DA11D621F839FA00D611D221FAC
:10388000749F3327A00D611D231F849F600D211D90
:10389000822F762F6A2F11249F5750408AF0E1F033
:1038A00088234AF0EE0FFF1FBB1F661F771F881F7C
:1038B00091505040A9F79E3F510570F05CCFA6CFC4
:1038C0005F3FECF3983EDCF3869577956795B79567
:1038D000F795E7959F5FC1F7FE2B880F911D969591
:1038E000879597F9089523DF880B990B089597FB27
:1038F000072E16F4009407D077FD09D00E94B31C60
:1039000007FC05D03EF4909581959F4F08957095E2
:1039100061957F4F0895A1E21A2EAA1BBB1BFD01E2
:103920000DC0AA1FBB1FEE1FFF1FA217B307E4079E
:10393000F50720F0A21BB30BE40BF50B661F771FF6
:10394000881F991F1A9469F76095709580959095D6
:103950009B01AC01BD01CF010895EE0FFF1F059043
:10396000F491E02D0994AA1BBB1B51E107C0AA1FCB
:10397000BB1FA617B70710F0A61BB70B881F991F10
:103980005A95A9F780959095BC01CD010895CF93E4
:10399000DF938230910510F482E090E0E0916006C0
:1039A000F091610620E030E0A0E0B0E0309739F11E
:1039B0004081518148175907B8F04817590771F4E9
:1039C00082819381109729F013969C938E9312977E
:1039D0002CC0909361068093600627C021153105A5
:1039E00031F04217530718F0A901DB0101C0EF01C4
:1039F0009A01BD01DF010280F381E02DD7CF2115AF
:103A00003105F9F0281B390B2430310580F48A8107
:103A10009B816115710521F0FB019383828304C0B2
:103A20009093610680936006FE01329644C0FE01C9
:103A3000E20FF31F81939193225031093983288338
:103A40003AC020915E0630915F06232B41F420910D
:103A500002013091030130935F0620935E062091AE
:103A60000001309101012115310541F42DB73EB718
:103A70004091040150910501241B350BE0915E0635
:103A8000F0915F06E217F307A0F42E1B3F0B2817F7
:103A9000390778F0AC014E5F5F4F2417350748F0C7
:103AA0004E0F5F1F50935F0640935E068193919384
:103AB00002C0E0E0F0E0CF01DF91CF910895CF9315
:103AC000DF93009709F487C0FC01329713821282BA
:103AD000C0916006D0916106209781F420813181E8
:103AE000280F391F80915E0690915F068217930719
:103AF00079F5F0935F06E0935E066DC0DE0120E08D
:103B000030E0AE17BF0750F412964D915C911397B9
:103B10009D014115510509F1DA01F3CFB383A28369
:103B200040815181840F951F8A179B0771F48D91F5
:103B30009C911197840F951F029691838083129612
:103B40008D919C911397938382832115310529F4DC
:103B5000F0936106E09360063EC0D9011396FC9392
:103B6000EE9312974D915D91A40FB51FEA17FB07D5
:103B700079F480819181840F951F0296D901119665
:103B80009C938E938281938113969C938E9312972C
:103B9000E0E0F0E08A819B81009719F0FE01EC01E2
:103BA000F9CFCE01029628813981820F931F20918F
:103BB0005E0630915F062817390769F4309729F4BB
:103BC000109261061092600602C013821282D09396
:103BD0005F06C0935E06DF91CF910895A0E0B0E04C
:103BE000E4EFFDE10C947820EC01CB01209719F46F
:103BF0000E94C71CB8C0FE01E60FF71F9E012250AD
:103C00003109E217F30708F4ACC0D9010D911C91FA
:103C1000119706171707B8F00530110508F49FC073
:103C2000A801445051094617570708F498C002509C
:103C30001109061B170B019311936D937C93CF0110
:103C40000E945F1D8CC05B01A01AB10A4E01800E5C
:103C5000911EA0916006B0916106612C712C60E00C
:103C600070E0109709F449C0A815B905C9F5ED90A1
:103C7000FC901197670142E0C40ED11CCA14DB040A
:103C800078F147018A189B08640142E0C40ED11CF8
:103C90001296BC9012971396AC91B5E0CB16D10456
:103CA00040F0B282A38391828082D9018D939C934C
:103CB00009C00E5F1F4F0E0D1F1DF90111830083F8
:103CC000EB2DFA2F6115710531F0DB011396FC9392
:103CD000EE93129744C0F0936106E09360063FC0F4
:103CE0006D917C9111976616770608F43B01BD0132
:103CF00012960D90BC91A02DB4CF60915E0670918C
:103D00005F0668157905E9F468167906D0F44091E4
:103D10000001509101014115510541F44DB75EB7C5
:103D20006091040170910501461B570BE417F507DC
:103D3000C0F4F0935F06E0935E06F90191838083FF
:103D40000EC00E94C71C7C01009759F0A801BE015B
:103D50000E94F41FCE010E945F1DC70104C0CE0166
:103D600002C080E090E0CDB7DEB7EEE00C94942086
:103D70002F923F925F926F927F928F929F92AF921B
:103D8000BF92CF92DF92EF92FF920F931F93CF9348
:103D9000DF938B01EA016115710521F0DB018C9342
:103DA00011969C93209739F09E01225031092332BD
:103DB000310508F0FBC07C016701BFEFCB1ADB0ABD
:103DC0005601F7016080862D90E00E94EC1F892B40
:103DD00011F07601F1CFFDE26F120AC0570182E0C7
:103DE000A80EB11CD70111966C90772473940BC068
:103DF000BBE26B1207C05701E2E0AE0EB11CD70167
:103E000011966C90712CCE018F7E892B89F4B0E3D2
:103E10006B1222C0F50180818F7D883541F561806C
:103E2000F2E0AF0EB11C872D8260782EC0E1D0E0A9
:103E3000C830D105F1F04CF4C230D10511F5C12CD8
:103E4000D12CE12CB0E4FB2E2FC0CA30D10531F0CB
:103E5000C031D10521F115C0209751F7CAE0D0E05B
:103E6000ACECCA2EDC2CEC2CACE0FA2E1DC020975A
:103E7000F9F6C8E0D0E0C12CD12CE12CF0E1FF2E06
:103E800013C060E070E080E090E89E01442737FDB9
:103E90004095542F0E948B1C69017A0105C0C12CEA
:103EA000D12CE12CE8E0FE2EF50160E020E030E0CE
:103EB000A9014E01AA2497FCA094BA2C1F0170ED11
:103EC000572E560CA9E0A51570F48FEB860D8A319C
:103ED00018F499EC592E06C08FE9860D8A3130F519
:103EE00089EA582E560C852D90E08C179D07F4F426
:103EF00067FD18C0C216D306E406F50680F0C501BA
:103F0000B4010E9459209B01AC01250D311D411DBA
:103F1000511D213031054105B0E85B0710F06FEF0E
:103F200001C061E03196D1016C90C8CF872D8170BE
:103F30000115110571F0662329F03197D801ED9331
:103F4000FC9307C071FE19C03297D801ED93FC9322
:103F500014C067FF12C0882329F020E030E040E061
:103F600050E804C02FEF3FEF4FEF5FE782E290E0B1
:103F700090935D0680935C0616C0882341F05095AF
:103F80004095309521953F4F4F4F5F4F0CC057FFE5
:103F90000AC082E290E090935D0680935C062FEF6A
:103FA0003FEF4FEF5FE7B901CA0104C060E070E086
:103FB00080E090E0DF91CF911F910F91FF90EF9003
:103FC000DF90CF90BF90AF909F908F907F906F9039
:103FD0005F903F902F900895911146C0803219F064
:103FE00089508550D0F70895FB01DC0102C0019093
:103FF0000D9241505040D8F70895FB01DC018D919E
:10400000019080190110D9F3990B0895FB01DC018F
:1040100001900D920020E1F70895F999FECF92BD2D
:1040200081BDF89A992780B50895A8E1B0E042E0F3
:1040300050E00C9439200196272F0E9448200C94C0
:104040004720262FF999FECF1FBA92BD81BD20BD12
:104050000FB6F894FA9AF99A0FBE019608950E9445
:104060002120272F0C942220992788270895DC01EE
:10407000CB01FC01F999FECF06C0F2BDE1BDF89A73
:10408000319600B40D9241505040B8F70895262F54
:10409000F999FECF92BD81BDF89A019700B402163E
:1040A00039F01FBA20BD0FB6F894FA9AF99A0FBEEC
:1040B0000895DB018F939F930E946920BF91AF9178
:1040C000A29F800D911DA39F900DB29F900D112472
:1040D00008950E94AB20A59F900DB49F900DA49FC2
:1040E000800D911D112408952F923F924F925F925F
:1040F0006F927F928F929F92AF92BF92CF92DF92F8
:10410000EF92FF920F931F93CF93DF93CDB7DEB75C
:10411000CA1BDB0B0FB6F894DEBF0FBECDBF0994F0
:104120002A88398848885F846E847D848C849B8447
:10413000AA84B984C884DF80EE80FD800C811B8155
:10414000AA81B981CE0FD11D0FB6F894DEBF0FBE84
:10415000CDBFED010895A29FB001B39FC001A39F01
:10416000700D811D1124911DB29F700D811D1124B0
:10417000911D089511E0C0E0D1E004C0FE010E944D
:0E418000AF1C2296C230D107C9F7F894FFCFCA
:10418E00000062068000100E100E08747275650035
:10419E006D79494400417566206765687473210026
:1041AE004D65696E652049443A20004B6F6E666915
:1041BE006775726174696F6E3A004D6178696D61F1
:1041CE006C65205A656C6C7370616E6E756E6728C7
:1041DE006D56293A20004D696E696D616C65205AE5
:1041EE00656C6C7370616E6E756E67286D56293ACC
:1041FE0020004D6F64756C20003A20307800202D21
:10420E003E2000204D6F64756C6520676566756E87
:10421E0064656E00506F727473610041766C4D6907
:10422E006E43560041766C4D696E43564D6F640079
:10423E0041766C4D617843560041766C4D61784302
:10424E00564D6F640042616C416374697600566F1F
:10425E006C74616765006D6F64756C6573003438DE
:10426E0056494400434D4400536574206E657720D3
:10427E00566F6C7461676520626F7264657273004D
:10428E006D61784356006D696E4356006E657720FA
:10429E006D617843563A20006E6577206D696E43E6
:1042AE00563A200041737369676E696E67204D6FD1
:1042BE0064756C657320746F206120506F7274503A
:1042CE00696E0053657474696E67206E6577204958
:1042DE00443A20006E657749440000000000AB00B0
:1042EE0043414E204E4F54204F4B0043414E204FE2
:1042FE004B006E756C6C0066616C73650022225CFF
:10430E005C6208660C6E0A720D74090000000000F3
:10431E00F0135C1572138B137D13CE136E616E004A
:0A432E00696E66006F7666002E00CF
:00000001FF
