:100000000C946E000C9496000C9496000C94960040
:100010000C9496000C9496000C9496000C94960008
:100020000C9496000C9496000C9496000C949600F8
:100030000C9496000C9496000C9496000C949600E8
:100040000C9493090C9496000C94D8030C941B0AFE
:100050000C9496000C9496000C9496000C949600C8
:100060000C9496000C949600C80391027C029F02A7
:100070009902950238026802980845089808B20863
:10008000E408F308F908FE08180900000008000257
:100090000100000304070000000000000000000051
:1000A0000000250028002B0000000000240027008D
:1000B0002A000404040404040404020202020202EA
:1000C000030303030303010204081020408001021C
:1000D00004081020010204081020111511241FBE6D
:1000E000CFEFD8E0DEBFCDBF13E0A0E0B1E0EAE89B
:1000F000FAE302C005900D92A234B107D9F726E0C9
:10010000A2E4B3E001C01D92AC37B207E1F710E002
:10011000CEE6D0E004C02197FE010E94D615CD3670
:10012000D107C9F70E9426100C94431D0C940000BF
:10013000FC01918D828D981761F0828DDF01A80FEF
:10014000B11D5D968C91928D9F5F9F73928F90E011
:1001500008958FEF9FEF0895FC01918D828D981780
:1001600031F0828DE80FF11D858D90E008958FEFBD
:100170009FEF0895FC01918D228D892F90E0805C86
:100180009F4F821B91098F7399270895FC01E653B5
:10019000FF4F20813181620F731F693C710538F474
:1001A0002E5F3F4F71836083820F931F089580E01D
:1001B00090E00895DB01109749F0ED91FC911197C3
:1001C0000190F081E02DBC01CD01099480E090E028
:1001D0000895813051F0E8F0823061F0833079F495
:1001E0006FE672E183E89AE308956DEC7CEC8CECA9
:1001F0009DE308956AE077ED83E29CE308958450DF
:100200000E94E90027E137EB41ED58E30E94B91B5A
:10021000089560E070E080E89FE30895CF93DF9356
:10022000EC0188819981DC01ED91FC910190F081D4
:10023000E02D09952A813B81820F931F9B838A833E
:10024000DF91CF910895CF93DF93FC01808191815D
:100250008330910534F48130910554F4892B19F1E0
:100260001BC00697CCF4628173818481958123C081
:10027000C281D3812097B9F0BE0187E291E00E944C
:100280001419892BA1F04AE050E060E070E0CE0143
:10029000DF91CF910C94351A6281738184819581AD
:1002A0000E94D61608C060E070E0CB0104C061E097
:1002B00070E080E090E0DF91CF910895CF93DF93DD
:1002C000EC01888199810E94040A2A813B81820F76
:1002D000931F9B838A83DF91CF9108958F929F9282
:1002E000AF92BF92EF92FF920F931F93CF93DF9342
:1002F000CDB7DEB766970FB6F894DEBF0FBECDBFA1
:100300007C011E8A8E010A5E1F4F8AE0882E912C86
:10031000A12CB12CCB01BA01A50194010E94D01CE3
:10032000942F852F605DF80162938F01A901692FD9
:10033000782F411551056105710561F7BF01C701AE
:100340000E945E0166960FB6F894DEBF0FBECDBF69
:10035000DF91CF911F910F91FF90EF90BF90AF90E1
:100360009F908F900895FF920F931F93CF93DF93E9
:100370006115710549F46BE371E0DF91CF911F9135
:100380000F91FF900C945E018B01EC0162E2CE01B3
:100390000E940E01F80161918F01662351F0ECE299
:1003A000F1E0F080FF2099F39181961759F0329691
:1003B000F8CF62E2CE01DF91CF911F910F91FF90B4
:1003C0000C940E016CE5CE010E940E016F2DDFCF63
:1003D0000F931F93CF93DF938C01EB016BE7CE015B
:1003E0000E940E01F8010281138101151105A9F087
:1003F000F80162817381CE010E94B3016AE3CE01EC
:100400000E940E01BE01C80104960E941A02F80162
:10041000008111810115110541F46DE7CE01DF91D5
:10042000CF911F910F910C940E016CE2CE010E94AE
:100430000E01DBCF4F925F926F927F929F92AF92AD
:10044000BF92CF92DF92EF92FF920F931F93CF93C1
:10045000DF938C01EB01FC01A080B180F8E0AF16C6
:10046000B10408F07BC0F501EC5CFF4F0C94D6158D
:10047000FC01028113816BE5CE010E940E01F8019F
:10048000028113810115110559F0BE01C8010296C0
:100490000E941A02F801008111810115110599F4D9
:1004A0006DE5CE01DF91CF911F910F91FF90EF90FD
:1004B000DF90CF90BF90AF909F907F906F905F90B4
:1004C0004F900C940E016CE2CE010E940E01DACF27
:1004D000FC0182819381DF91CF911F910F91FF9059
:1004E000EF90DF90CF90BF90AF909F907F906F90F4
:1004F0005F904F900C94E801FC0162817381CE0102
:10050000DF91CF911F910F91FF90EF90DF90CF90EF
:10051000BF90AF909F907F906F905F904F900C94A2
:10052000B301FC016281738157C06DE2CE010E946C
:100530000E01F801428153816481758117C1FC016C
:1005400082819381A481B581892B8A2B8B2B19F40D
:1005500060E471E041C067E271E03EC088EF982E30
:100560009A0CF801C280D380E480F580A70196013F
:10057000C701B6010E940A17882319F066E471E0EA
:100580002BC020E030E0A901C701B6010E94531B37
:1005900087FF08C06DE2CE010E940E01F7FAF094C9
:1005A000F7F8F09426013701E89477F82FEF3FEF42
:1005B0004FE75FE7C301B2010E940A1781111EC015
:1005C0002FEF3FEF4FE75FE7C301B2010E94531BDC
:1005D0001816A4F46AE471E0CE01DF91CF911F9167
:1005E0000F91FF90EF90DF90CF90BF90AF909F90D2
:1005F0007F906F905F904F900C945E0120E030E010
:100600004AE754E4C701B6010E94051700E010E074
:1006100018160CF12FE632E143E85AE3C701B601A0
:100620000E94531B87FF37C016C020E030E040E82F
:100630005FE3C701B6010E94531B87FF15C001503D
:10064000110920E030E040E251E4C701B6010E9408
:10065000B91B6B017C0120E030E0A901C701B601A4
:100660000E94531B8111E1CF20E030E040E251E4D1
:10067000C701B6010E94051718166CF40F5F1F4FD3
:1006800020E030E040E251E4C701B6010E945D166F
:100690006B017C01E9CF892D0E94E90020E030E068
:1006A00040E05FE30E94B91B9B01AC01C701B601AA
:1006B0000E94F1152B013C010E94D6166B017C01B2
:1006C0000E94581B9B01AC01C301B2010E94F015AE
:1006D0002B013C01B701A601CE010E946E019920B9
:1006E00021F06EE2CE010E940E01F8E0AF1619F182
:1006F00020E030E040E251E4C301B2010E94B91BA6
:100700002B013C010E94CF16F62E062E000C770B13
:10071000880B990B0E945A1B9B01AC01C301B201CB
:100720000E94F0152B013C0160E36F0DCE010E9489
:100730000E01AA94DACF17FF0EC063E571E0CE0177
:100740000E945E0144275527401B510B052E000CCB
:10075000660B770B0BC001151105D1F065E6CE01D4
:100760000E940E01A801110F660B770BCE01DF91DD
:10077000CF911F910F91FF90EF90DF90CF90BF909E
:10078000AF909F907F906F905F904F900C946E0110
:10079000DF91CF911F910F91FF90EF90DF90CF905D
:1007A000BF90AF909F907F906F905F904F90089513
:1007B0001F920F920FB60F9211242F938F939F9336
:1007C000EF93FF93E0919103F09192038081E09188
:1007D0009703F091980382FD12C0908180919A0353
:1007E0008F5F8F7320919B03821751F0E0919A03E2
:1007F000F0E0EF57FC4F958F80939A0301C0808102
:10080000FF91EF919F918F912F910F900FBE0F90BD
:100810001F901895FC01848DDF01A80FB11DA35A0C
:10082000BF4F2C91848D90E001968F739927848F10
:10083000A689B7892C93A089B1898C9180648C9307
:10084000938D848D981306C00288F389E02D8081F2
:100850008F7D80830895EF92FF920F931F93CF9324
:10086000DF93EC0181E0888F9B8D8C8D981305C000
:10087000E889F989808185FD24C0F62E0B8D10E072
:100880000F5F1F4F0F731127E02E8C8DE8120CC0E5
:100890000FB607FCFACFE889F989808185FFF5CF8B
:1008A000CE010E940A04F1CF8B8DFE01E80FF11DED
:1008B000E35AFF4FF0820B8FEA89FB8980818062C7
:1008C00007C0EE89FF896083E889F98980818064A7
:1008D000808381E090E0DF91CF911F910F91FF9095
:1008E000EF900895CF93DF93EC01888D8823C9F0B2
:1008F000EA89FB89808185FD05C0A889B9898C9129
:1009000086FD0FC00FB607FCF5CF808185FFF2CFC3
:10091000A889B9898C9185FFEDCFCE010E940A0488
:10092000E7CFDF91CF9108958EBD00000DB407FE93
:10093000FDCF8EB508950F931F93CF93DF93EC01F6
:100940008B01209759F06A817B81C8010E9414199C
:10095000892B39F00990D881C02DF3CF80E090E049
:1009600001C0CE01DF91CF911F910F910895FC013D
:10097000828193810E949B04009729F004960E9433
:100980002301862F089580E00895CF93DF93EC0133
:10099000688179818AE090E00E94DA00009729F06E
:1009A000FC011182108215821482EA81FB8130974A
:1009B00051F0208131812115310511F0F901F9CF74
:1009C0009183808302C09B838A83DF91CF910895B6
:1009D000EF92FF920F931F93CF93DF938C01EB0164
:1009E0007A01DC0112968D919C9113970E949B04D1
:1009F000FC01892B41F4C8010E94C504FC01892B2C
:100A000089F0D383C283D7018D919C91A0E0B0E09F
:100A100024E030E03583248386839783A087B187E1
:100A200081E001C080E0DF91CF911F910F91FF9095
:100A3000EF900895EF92FF920F931F93CF93DF9360
:100A40008C01EB017A01DC0112968D919C91139738
:100A50000E949B04FC01892B41F4C8010E94C5043B
:100A6000FC01892B89F0D383C283D7018C9190E05C
:100A7000A0E0B0E024E030E03583248386839783D0
:100A8000A087B18781E001C080E0DF91CF911F9105
:100A90000F91FF90EF900895CF93DF93EC01688161
:100AA000798188E090E00E94DA00009729F0FC014B
:100AB0001182108213821282EA81FB81309751F0F9
:100AC000208131812115310511F0F901F9CF918390
:100AD000808302C09B838A83DF91CF910895CF9357
:100AE000DF93EC01BC0184E090E00E94DA00FC019D
:100AF000009729F0D183C0831382128211C08091A4
:100B0000460381110BC010924303109242031092CE
:100B100045031092440381E08093460382E493E00E
:100B2000DF91CF910895CF93DF93EC01BC0184E076
:100B300090E00E94DA00FC01009729F0D183C08385
:100B40001382128211C08091220481110BC0109275
:100B50001F0410921E04109221041092200481E0C0
:100B6000809322048EE194E0DF91CF910895CF939A
:100B7000DF93AC01EC01AA81BB812C818D819C911A
:100B8000973219F4C22FD82F15C09232D9F3C22F41
:100B9000D82FFD0131C02C3559F4FD013296129643
:100BA0002C91A0E3B1E08C91811111C0222359F165
:100BB0002993DF013C2F6D2FFD01319611962C9169
:100BC0001197222301F12913E6CF31961CC082131D
:100BD00003C011962C91EACF1296E5CF892F8F7D15
:100BE00081548A3130F09B3221F083ED890F8230BD
:100BF00050F49993319690813C2F6D2F80ED890FA1
:100C00008A30B8F3EBCFA32FB62F1D92EA018C8167
:100C10009D81FB83EA83BD83AC83DF91CF910895EF
:100C2000FC0120812D3051F024F42950223030F580
:100C300005C0203219F02F3219F008950196F0CF37
:100C4000FC0121812A3219F02F3279F00895FC013C
:100C50003296CF0120813196222311F32A32C9F72F
:100C600020812F32B1F70296DBCFFC013296CF0103
:100C700021912223A9F22A30D1F7D2CF08950F93E0
:100C80001F93CF93DF931F92CDB7DEB78C01FC018A
:100C90008081918169830E941006FC012081698115
:100CA000261308C001960E941006F80191838083E4
:100CB00081E001C080E00F90DF91CF911F910F91F3
:100CC00008959F92AF92BF92CF92DF92EF92FF92E0
:100CD0000F931F93CF93DF9300D000D000D0CDB7F8
:100CE000DEB7D82EC92EE82EF92EF7018191919109
:100CF0007F010E946F058C016BE7C7010E943F06D0
:100D0000882309F445C06DE7C7010E943F068111A1
:100D10004FC086E0982E8D2D9C2D0E94B7055C015A
:100D2000892BB1F16AE3C7010E943F06882381F154
:100D30001A821982BE016F5F7F4F8D2D9C2D0E94FC
:100D4000430B882329F1B501F801828193810E9428
:100D50009B04009741F4C8010E94C5040097C1F0AC
:100D6000FC01B382A282FE013196DC011496892D2A
:100D700001900D928A95E1F76DE7C7010E943F0649
:100D8000811116C06CE2C7010E943F068111C3CFDA
:100D90008091460381110EC01092430310924203CA
:100DA000109245031092440381E08093460302C0F1
:100DB000C80102C082E493E026960FB6F894DEBF25
:100DC0000FBECDBFDF91CF911F910F91FF90EF909C
:100DD000DF90CF90BF90AF909F900895AF92BF9259
:100DE000CF92DF92EF92FF920F931F93CF93DF93F7
:100DF000CDB7DEB7C95DD1090FB6F894DEBF0FBE1F
:100E0000CDBFCC52DF4F19821882C45DD040CA5288
:100E1000DF4F19821882C65DD040C852DF4F198259
:100E20001882C85DD04060E070E0CE018C529F4FC8
:100E30000E94DD09CC52DF4F28813981C45DD0404A
:100E4000811119C02115310519F0C9010E94A4179B
:100E5000CC52DF4F19821882C45DD040C852DF4F98
:100E600019821882C85DD040CA52DF4F1982188299
:100E7000C65DD0400BC0C852DF4F19821882C85DD2
:100E8000D0406AE371E0C9010E941D1968EC70E06E
:100E9000CE018C529F4F0E94DD0981E893E00E94B1
:100EA000BA00892B81F181E893E00E949800898340
:100EB0001A82C852DF4F08811981C85DD0400F5F88
:100EC0001F4FB801CE018C529F4F0E94DD0988232D
:100ED00021F3CC52DF4F28813981C45DD040C85204
:100EE000DF4F88819981C85DD040BE016F5F7F4F21
:100EF000820F931F0E941D19C852DF4F1983088368
:100F0000C85DD040CACF8FE191E09A838983C553F1
:100F1000DF4F19821882CB5CD040CC52DF4F688102
:100F20007981C45DD04061157105D9F0C852DF4F99
:100F300048815981C85DD0404F5F5F4F493C5105A2
:100F400070F4C553DF4F59834883CB5CD040CE014A
:100F500003960E940B19BE016D5F7F4F02C060E0D7
:100F600070E0CE010196C353DF4F99838883CD5C37
:100F7000D0406115710511F0CB0102C08AE391E008
:100F8000C153DF4F99838883CF5CD040CF52DF4F6E
:100F900079836883C15DD0408AE0CD52DF4F88837A
:100FA000C35DD040CE0183539F4F0E9461068C01E8
:100FB000F090500366E571E00E94B7048F1509F4C4
:100FC00055C066E571E0F801828193810E949B041F
:100FD000FC01892B09F450C18481958183309105EE
:100FE00034F481309105DCF4892BA1F12CC08530DB
:100FF000910584F0059739F586819781A085B185A3
:101000009C01AD0166277727CB01621B730B840B14
:10101000950B28C0668177818085918523C0E68005
:10102000F780E114F104B1F0B70187E291E00E948A
:101030001419892B99F04AE050E060E070E0C70194
:101040000E9424190FC066817781808591850E9456
:10105000CF1608C060E070E0CB0104C061E070E032
:1010600080E090E06F3F710509F006C16CE571E02A
:10107000C8010E94B70490E08930910508F0F2C0E1
:10108000FC01E45CFF4F0C94D61580E691E00E94D1
:101090005B0D68E771E0F801828193810E949B04F7
:1010A000009721F004960E94230102C060E070E0E6
:1010B00070936303609362036EE771E0F8018281CD
:1010C00093810E949B04009721F004960E942301C3
:1010D00002C060E070E070934F0360934E0364E8D9
:1010E00071E081E893E00E94190A80916203909177
:1010F00063030E946E0D60E971E081E893E00E9455
:10110000190A80914E0390914F030E946E0D6091D9
:1011100062037091630384E090E00E94991C6091E7
:101120004E0370914F0382E090E00E94991C7BC0B7
:1011300080912C0490912D0421E833E0C353DF4FBC
:1011400039832883CD5CD040C153DF4F1982188288
:10115000CF5CD040BE0163537F4F0E94E8018AE319
:1011600091E063C069E571E0C8010E94B704F82E00
:101170008CE991E00E945B0DCF2CD12C63EB71E0E8
:10118000C8010E94B70496012F5A3C4F5901F9013A
:1011900080836F2D70E080E090E04AE00E941C0C9C
:1011A0006BEB71E081E893E00E94190AF501808100
:1011B0000E945F0C63EB71E0C8010E94B704682FC6
:1011C000C6018A5F9F4F2DC01EE061E0812F0E9403
:1011D000820D62E370E080E090E00E94EC0F1F5F00
:1011E000143199F720C081E08093610380EC91E095
:1011F0001CC0109261038FEC91E017C06FED71E09D
:1012000081E893E00E94190A60EF71E0C8010E9432
:10121000B704809350030E945F0C6091500381E0FB
:1012200090E00E948B1C83EA92E00E945B0D1AC042
:1012300066EF71E081E893E00E94190A60E272E0D3
:10124000C8010E94B704809304010E945F0C609162
:10125000040180E090E00E948B1C88E292E00E94F2
:101260005B0DFFCF64E670E080E090E00E94EC0F41
:1012700061E086E00E94820DCC52DF4F8881998127
:10128000C45DD0400E94A417C752DF4F0FB6F89438
:10129000DEBF0FBECDBFDF91CF911F910F91FF90A9
:1012A000EF90DF90CF90BF90AF9008950E94890992
:1012B00081110C94EE060895CF92DF92EF92FF9287
:1012C0000F931F93CF93DF936C017A018B01C0E0E2
:1012D000D0E0CE15DF0589F0D8016D918D01D601E2
:1012E000ED91FC910190F081E02DC6010995892BCB
:1012F00011F47E0102C02196ECCFC701DF91CF919E
:101300001F910F91FF90EF90DF90CF9008950E9472
:10131000061981E893E00E94BA0021E0892B09F4C4
:1013200020E0822F08951F920F920FB60F92112482
:101330002F933F938F939F93AF93BF9380917903A4
:1013400090917A03A0917B03B0917C033091780354
:1013500023E0230F2D3720F40196A11DB11D05C0F8
:1013600026E8230F0296A11DB11D209378038093D8
:10137000790390937A03A0937B03B0937C038091CD
:101380007D0390917E03A0917F03B091800301962D
:10139000A11DB11D80937D0390937E03A0937F03D5
:1013A000B0938003BF91AF919F918F913F912F9107
:1013B0000F900FBE0F901F9018950F931F93CF9310
:1013C000DF93EC0188819981009729F02A813B8184
:1013D0002617370788F48B016F5F7F4F0E943C18F8
:1013E000009761F0998388831B830A832C813D8158
:1013F000232B11F4FC01108281E001C080E0DF9119
:10140000CF911F910F9108956115710579F0FB013E
:1014100001900020E9F73197AF01461B570BDC0123
:10142000ED91FC910280F381E02D099480E090E041
:1014300008950C94040A1F920F920FB60F92112474
:101440002F933F934F935F936F937F938F939F93CC
:10145000AF93BF93EF93FF9381E893E00E940A0458
:10146000FF91EF91BF91AF919F918F917F916F917C
:101470005F914F913F912F910F900FBE0F901F9052
:101480001895FF920F931F93CF93DF93EB018A017F
:101490009C0197FF02C0295F3F4F43E03595279598
:1014A0004A95E1F768E070E00E94C215FC01D8019E
:1014B000A20FB11D9C91C930D10504F580E020E058
:1014C000FF2761E070E0482F082E000C550B4C17E9
:1014D0005D075CF44E0F5F1FDB0102C0AA0FBB1F4C
:1014E0004A95E2F72A0F8F5FEECF292330E0B9014A
:1014F00002C075956795EA95E2F728C0422F60E033
:1015000070E050E088E0F82EAE2FB0E0292F30E0F8
:101510000E2E02C0359527950A94E2F7052E02C0DB
:10152000220F331F0A94E2F7620F731F8F2D8E1B59
:10153000580FCD010897C80FD91F4150F801E40F8B
:10154000F11D9081E0E01C161D06F4F2CB01DF9145
:10155000CF911F910F91FF9008959F92AF92BF92EC
:10156000CF92DF92EF92FF920F931F93CF93DF936F
:10157000FB0131978E0F9F1FA0E0B0E08C0100951A
:101580001095EE24EA94FE2CCC24C394D12CA617FB
:10159000B70749F1FC01C3E0F695E795CA95E1F775
:1015A000E40FF51FE801CA0FDB1FC770DD2720FF1E
:1015B0000AC0560102C0AA0CBB1CCA95E2F7E5019D
:1015C000D081CD2B0AC0570102C0AA0CBB1CCA9502
:1015D000E2F7E501C095D081CD23C08336952795EC
:1015E00011960197D4CFDF91CF911F910F91FF906A
:1015F000EF90DF90CF90BF90AF909F9008953FB74E
:10160000F89480917D0390917E03A0917F03B09127
:10161000800326B5A89B05C02F3F19F00196A11D98
:10162000B11D3FBFBA2FA92F982F8827820F911D78
:10163000A11DB11DBC01CD0142E0660F771F881FBF
:10164000991F4A95D1F7089590E0FC01EA53FF4FA6
:101650002491FC01EE54FF4F8491882399F090E08F
:10166000880F991FFC01E855FF4FA591B491FC012B
:10167000E256FF4F859194918FB7F894EC91E22B4D
:10168000EC938FBF08959F92AF92BF92CF92DF925B
:10169000EF92FF920F931F93CF93DF93CDB7DEB7F7
:1016A00027970FB6F894DEBF0FBECDBFFC01968121
:1016B000992309F4ADC07B018F01915096838281FB
:1016C00093810E941006D80113969C938E931297D3
:1016D000FC0180818B3521F08B3709F45FC072C02B
:1016E000D8018D919D916D010E9493055C016BE580
:1016F000C6010E943F06882361F16DE5C6010E9484
:101700003F06811136C086E0982E1A821982BE01EA
:101710006F5F7F4FC8010E94430B8823D1F0C50142
:101720000E944C050097A9F0FE013196DC0112964B
:10173000892D01900D928A95E1F76DE5C6010E9411
:101740003F06811116C06CE2C6010E943F0681115E
:10175000DCCF8091220481110EC010921F041092E0
:101760001E04109221041092200481E08093220430
:1017700002C0F50102C0EEE1F4E080819181892B85
:1017800011F420E040C086E090E0D70111969C93D0
:101790008E931396FC93EE93129712C0C8010E9489
:1017A0006106FC0120813181232B59F327E030E0D1
:1017B000D70111963C932E9313969C938E93129778
:1017C00021E021C021E0873219F0823209F020E0C7
:1017D000C8012F830E94B7052F81009791F2222321
:1017E00041F042E050E0F7015183408393838283CC
:1017F0000AC021E030E0D70111963C932E93139656
:101800009C938E931297F80186818F5F868301C027
:1018100020E0822F27960FB6F894DEBF0FBECDBF13
:10182000DF91CF911F910F91FF90EF90DF90CF90BC
:10183000BF90AF909F9008958F929F92AF92BF926A
:101840000F931F93CF93DF93CDB7DEB7A1970FB65A
:10185000F894DEBF0FBECDBF19A2423008F44AE0B3
:101860008E010F5D1F4F842E912CA12CB12CA50150
:1018700094010E94D01CE62FB901CA010150110940
:10188000EA3014F4E05D01C0E95CD801EC93232B4D
:10189000242B252B61F7B80181E893E00E94040A0C
:1018A000A1960FB6F894DEBF0FBECDBFDF91CF91EA
:1018B0001F910F91BF90AF909F908F900895CF93FD
:1018C000DF93682F70E080E090E04AE00E941C0CFB
:1018D000EC016FE373E081E893E00E94040A8C0F4F
:1018E0009D1FDF91CF9108958F929F92AF92BF92EB
:1018F000CF92DF92EF92FF920F931F93CF93DF93DC
:1019000086E6A82E86E0B82EC12CD12C9FE0992E19
:1019100088248394F501E190F1905F01C701925012
:101920000F9708F0B3C0FF249E9C80019F9C100D70
:10193000112406501B4FF8018282E601C251DA4F92
:10194000AE0164E070E080E090E00E94410A8B30DC
:1019500049F4AE0168E070E088E090E00E94410A3E
:10196000F8018687AE0163E070E088E190E00E94B4
:10197000410A029721F5AE0168E070E088E090E04E
:101980000E94410A9E9C80019F9C100D11240650CC
:101990001B4FBC0180E090E00E94581B20E030E02B
:1019A00040E05FE30E94B91B20E030E040E252E4F7
:1019B0000E94F0150E94CF16F80173876287AE016E
:1019C00064E070E084E090E00E94410A9E9C800107
:1019D0009F9C100D112406501B4FF8018487AE0107
:1019E0006DE070E08BE190E00E94410ABC0180E074
:1019F00090E00E94581B20E030E040E05FE30E944E
:101A0000B91B20E030E04AE754E40E94F1150E943F
:101A1000D616F80177836683AE016DE070E08BE245
:101A200090E00E94410ABC0180E090E00E94581BB7
:101A300020E030E040E05FE30E94B91B20E030E0AE
:101A40004AE754E40E94F1150E94D616F801758306
:101A50006483AE016DE070E08BE390E00E94410A88
:101A6000BC0180E090E00E94581B20E030E040E0A4
:101A70005FE30E94B91B20E030E04AE754E40E9493
:101A8000F1150E94D616F80171876087F8E0CF0E35
:101A9000D11C80E4C816D10409F03CCFDF91CF916E
:101AA0001F910F91FF90EF90DF90CF90BF90AF907C
:101AB0009F908F900895CF93DF93BC0181E893E0CE
:101AC0000E94040AEC016FE373E081E893E00E9456
:101AD000040A8C0F9D1FDF91CF910895CF93DF9360
:101AE000BC0180E090E04AE00E941C0CEC016FE336
:101AF00073E081E893E00E94040A8C0F9D1FDF9140
:101B0000CF91089590E0FC01E657FF4F3491FC011E
:101B1000EA53FF4F2491FC01EE54FF4FE491EE2372
:101B200009F43BC0332339F1333091F038F43130CC
:101B3000A9F0323001F584B58F7D12C0373091F0B5
:101B40003830A1F03430B9F4809180008F7D03C02B
:101B5000809180008F77809380000DC084B58F774F
:101B600084BD09C08091B0008F7703C08091B00020
:101B70008F7D8093B000F0E0EE0FFF1FE256FF4F25
:101B8000A591B4918FB7F894EC91611103C02095A1
:101B90002E2301C02E2B2C938FBF08951F93CF931C
:101BA000DF93182FCDEED5E060E088810E94820D92
:101BB00083E00E949404812F0E94940480E00E949C
:101BC0009404182F61E088810E94820D812FDF919B
:101BD000CF911F910895EF92FF920F931F93CF9390
:101BE000DF931F92CDB7DEB7082F162F8DEEE82EAC
:101BF00085E0F82E60E0F701808149830E94820D24
:101C000085E00E949404802F0E949404812F0E94FA
:101C100094044981842F0E94940461E0F70180813B
:101C20000F90DF91CF911F910F91FF90EF900C9447
:101C3000820DCF93C82F482F60EE8FE00E94EB0DEE
:101C40008FE00E94CE0D807E91E08C1301C090E069
:101C5000892FCF910895CF92DF92FF920F931F9318
:101C6000CF93DF931F92CDB7DEB7F82E162F042F38
:101C700060E08091ED0579830E94820D82E00E94F0
:101C800094048F2D0E949404F12EC12E7981D72EB9
:101C90008C2D8F19801730F4F60181916F010E940D
:101CA0009404F6CF61E08091ED050F90DF91CF9124
:101CB0001F910F91FF90DF90CF900C94820D0F93A6
:101CC0001F93CF93DF9300D000D0CDB7DEB7613044
:101CD000B9F42C833B838A0122273327602F6C7150
:101CE000902F937048E0649F900D112498609A8320
:101CF000980175E0369527957A95E1F729830DC00F
:101D0000B90193E0769567959A95E1F769832295F5
:101D1000220F207E2A831C821B8244E0BE016F5F5B
:101D20007F4F0E942B0E0F900F900F900F90DF911E
:101D3000CF911F910F9108951F93CF93DF9300D000
:101D400000D0CDB7DEB7182F9A01AB0180E8298308
:101D50003A834B835C830E94190E29813A814B811F
:101D60005C81811129C0123099F038F4112369F097
:101D70001130C1F460E084E013C0143079F058F001
:101D8000153081F460E088E10BC060E080E008C0BD
:101D900060E088E005C060E080E102C060E084E1CE
:101DA0000E945F0E80E00F900F900F900F90DF91D8
:101DB000CF911F910C94190E0F900F900F900F90D0
:101DC000DF91CF911F9108950F931F93CF93DF93CE
:101DD000082F162FCDEED5E060E088810E94820D9D
:101DE00082E00E949404802F0E949404812F0E941C
:101DF000940461E08881DF91CF911F910F910C9441
:101E0000820D7F928F929F92AF92BF92CF92DF927C
:101E1000EF92FF920F931F93CF93DF93CDB7DEB76F
:101E20002B970FB6F894DEBF0FBECDBF7C018E019D
:101E30000F5F1F4F88E0F80111928A95E9F780E162
:101E40008D832091FA042F5F203118F42093FA0437
:101E500002C01092FA042091FA0430E0A80164E074
:101E600070E080E090E00E94AD0AB701F3E4EF1665
:101E7000FEE0FF0610F062E47EE0603689E078075D
:101E800010F460E679E0685E734080E090E00E94C4
:101E9000581B9B01AC010E94F1150E94D6169B01B4
:101EA000A8016DE070E088E090E00E94AD0A109219
:101EB000DD0580E590E0A0E0B0E08093DE05909342
:101EC000DF05A093E005B093E10588E08093E2058B
:101ED000F801A3EEB5E05E0189E0A80EB11C819186
:101EE0008D93EA15FB05D9F7E12CF12C90E3C92E6F
:101EF00020E4922E30E5832E43E0742E7A0CC986BE
:101F00009A868B868501F801D1908F018D2D0E94D4
:101F1000CE0D982F987083FD03C011E01D0D04C0F5
:101F20007012F1CF10E092E0FFEFEF1AFF0A92304B
:101F300029F482E3E816F10411F73AC0E2E3EE1661
:101F4000F104B1F14091E20563EE75E085E0810FA7
:101F50000E942B0E8091EB05813029F48091E205DF
:101F600080648093E2056091E20584E0810F0E9425
:101F7000E40E2091DE053091DF054091E00550919F
:101F8000E1056091DD05812F0E945F0E48E068E069
:101F90008FEF810F0E94EB0D82E3E82EF12C812F51
:101FA0000E94CE0D83FF04C0F1E0EF1AF108B9F7EB
:101FB0002B960FB6F894DEBF0FBECDBFDF91CF9149
:101FC0001F910F91FF90EF90DF90CF90BF90AF9057
:101FD0009F908F907F9008958F929F92AF92BF9223
:101FE000CF92DF92EF92FF926B017C010E94FF0A79
:101FF0004B015C01C114D104E104F104F1F00E9431
:10200000FF0ADC01CB0188199909AA09BB09883E9E
:102010009340A105B10570F321E0C21AD108E1088F
:10202000F10888EE880E83E0981EA11CB11CC11433
:10203000D104E104F10419F7DDCFFF90EF90DF90B8
:10204000CF90BF90AF909F908F900895CF93DF93E4
:10205000CDB7DEB764970FB6F894DEBF0FBECDBF25
:10206000789484B5826084BD84B5816084BD85B573
:10207000826085BD85B5816085BD80916E0081607F
:1020800080936E0010928100809181008260809325
:102090008100809181008160809381008091800027
:1020A0008160809380008091B10084608093B10052
:1020B0008091B00081608093B00080917A0084604C
:1020C00080937A0080917A00826080937A00809178
:1020D0007A00816080937A0080917A008068809392
:1020E0007A001092C10056E0E52E50E0F52E01E591
:1020F00013E0C7010E94771CF80181938F01FFEF65
:10210000EF1AFF0A23E00136120799F784E090E006
:102110000E947F1C909363038093620384539840D2
:102120008F30964060F082E49EE09093630380934A
:10213000620362E47EE084E090E00E94851C82E01D
:1021400090E00E947F1C90934F0380934E03845332
:1021500098408F30964060F084E398E090934F036E
:1021600080934E0364E378E082E090E00E94851C57
:1021700081E090E00E94771C8093500380E090E023
:102180000E94771C8093040187E00E94240B86E064
:102190000E94240B85E00E94240B1EE0812F0E94E8
:1021A000240B61E0812F0E94820D1F5F1431B1F773
:1021B00061E087E00E94820D61E086E00E94820D6E
:1021C00061E085E00E94820D40E553E06DE372E03E
:1021D00080912C0490912D040E941A05E0919103A6
:1021E000F091920382E08083E0918D03F0918E0361
:1021F0001082E0918F03F091900380E18083109230
:102200009903E0919503F091960386E08083E09135
:102210009303F0919403808180618083E091930324
:10222000F0919403808188608083E0919303F09122
:102230009403808180688083E0919303F0919403FC
:1022400080818F7D808364E670E080E090E00E9472
:10225000EC0F82E492E00E945B0D6DE472E081E895
:1022600093E00E94190A809150030E945F0C88E558
:1022700092E00E945B0D67E672E081E893E00E94C5
:10228000190A80916203909163030E946E0D63E8C6
:1022900072E081E893E00E94190A80914E039091C8
:1022A0004F030E946E0D1FB7F89480916403811153
:1022B00024C0ECEBF0E08491E0EDF0E09491E82FA5
:1022C000F0E0EE0FFF1FE855FF4FA591B491EC91A0
:1022D000E92321F461E08AE00E94820D8AE00E94F5
:1022E000240B8CB580618CBD8CB580648CBD8DE079
:1022F0000E94240B8BE00E94240B809164038F5F6B
:10230000809364031FBF60E08091ED050E94820D01
:1023100080EC0E94940461E08091ED050E94820DA2
:102320006AE070E080E090E00E94EC0F80E80E949C
:10233000190E811172C060E08AE20E94E40E60E929
:1023400089E20E94E40E62E088E20E94E40E20E04E
:1023500030E0A90161E080E20E945F0E20E030E001
:10236000A90161E084E20E945F0E20E030E0A90153
:1023700061E080E00E945F0E20E030E0A90160E0B3
:1023800084E00E945F0E20E030E0A90161E088E077
:102390000E945F0E20E030E0A90160E080E10E9431
:1023A0005F0E20E030E0A90161E084E10E945F0E51
:1023B00020E030E0A90160E088E10E945F0E10E3B8
:1023C00060E0812F0E94E40E60E080E1810F0E94B6
:1023D000E40E60E080E2810F0E94E40E1F5F1E3376
:1023E00079F760E080E60E94E40E60E080E70E94FA
:1023F000E40E63E08BE20E94E40E44E064E680E6D3
:102400000E94EB0D40E060E680E70E94EB0D80E06B
:102410000E94190E882309F4BCC28CE293E00E944A
:102420005B0D64E670E080E090E00E94EC0F80912C
:10243000040190916803981309C00CEF14E0C12CBB
:10244000D12C760134E0A32EB12C82C08F3FA9F3AA
:1024500086EA92E00E945B0D80E19EE00E94010FFF
:1024600084EB92E00E945B0D60E170E080E090E020
:102470000E94EC0F0E94740C109268030CEF14E0A1
:10248000C12CD12C7601F8018081882379F165EC8B
:1024900072E081E893E00E94190A6091680370E09D
:1024A00080E090E04AE00E941C0C6CEC72E081E855
:1024B00093E00E94190A40E1C701B6010E941C0C7A
:1024C0006BEB71E081E893E00E94190AF601EF5A84
:1024D000FC4F80810E945F0C80916803E82FF0E040
:1024E000E759FC4FC0828F5F80936803015F1F4FE5
:1024F000FFEFCF1ADF0AEF0AFF0A20E1C216D1046C
:10250000E104F10409F0BFCF6091680370E080E05E
:1025100090E04AE00E941C0C61ED72E081E893E0DB
:102520000E94190A809104010E945F0C68EE73E01A
:1025300080E090E00E94EC0F809165038F5F8093B4
:102540006503853008F473CF8FEF8093040175CF56
:10255000F8018081882379F080912A0490912B04DE
:102560000E944C05009739F0FC01B382A282C4821C
:10257000D582E682F782015F1F4FFFEFCF1ADF0A95
:10258000EF0AFF0A20E1C216D104E104F10401F7C9
:10259000CE0101969B878A8722242394312C64E6FE
:1025A00070E080E090E00E94EC0F809104018F3F8A
:1025B00009F4ECC1198618861F8286E0EA85FB853E
:1025C00011928A95E9F720910201309103018091DF
:1025D0006203909163038217930720F42234FEE094
:1025E0003F0720F040916103413011F4C901019689
:1025F0000E94010F60E170E080E090E00E94EC0F2B
:102600000E94740C80916803282F30E03B8B2A8B4A
:102610003091FA04398BEF8089844885488B89E6AC
:1026200093E09D878C87412C512C3201C12CD12CF9
:1026300080E1A82E8EE0B82E9FE0F92E8C859D8536
:1026400089569340EA89FB898E179F070CF066C074
:10265000EC85FD859190FD87EC87092D10E0F09EBB
:10266000F001F19EF00D1124E650FB4F828188238A
:1026700029F384852989821721F083818F5F8383E1
:1026800001C01382F09EC001F19E900D1124FC0147
:10269000E650FB4FFF87EE878685E80E60857185E3
:1026A00080E090E00E94581B9B01AC01C301B20185
:1026B0000E94F1152B013C01EE85FF8586819781F3
:1026C0008A159B0510F4892C5C01F09EF001F19EA7
:1026D000F00D1124E650FB4F24813581C216D3063C
:1026E00010F4988A69018533984058F0F09EF00103
:1026F000F19EF00D1124E650FB4F8381873008F4E2
:102700009DCFF801EF5AFC4F8081E3EFFFEFEC0F14
:10271000FD1FE80FF11D21E0208390CFF889F88795
:102720008986EF82809161038130D9F400E010E066
:10273000E12CF12C61E08EE08E0D0E94820DC10132
:102740000E2C02C0880F991F0A94E2F7082B192B50
:102750002FEFE21AF20A36E0E316F10459F791E09E
:1027600024C0CE0101967C01812C912C00E010E068
:1027700090E0F70161917F01613051F4C101082CB3
:1027800002C0880F991F0A94E2F7082B192B91E0D9
:102790008EE0880D9C8B0E94820DFFEF8F1A9F0A9E
:1027A0009C8926E08216910421F7692F87E00E9418
:1027B000820D40E553E06DE372E080912C0490912E
:1027C0002D040E941A05E0902C04F0902D046AEE6E
:1027D00072E0F701828193810E949B04009751F47B
:1027E000C7010E94C5040097F1F02AEE32E0FC0117
:1027F0003383228317FD07C0A801110F660B770BE7
:1028000024E030E009C0119501951109A801110FCC
:10281000660B770B25E030E0FC013583248346838B
:1028200057836087718720E030E040E651E4C301C0
:10283000B2010E94B91B2B013C016091680370E05A
:1028400080E090E00E945A1B9B01AC01C301B201E1
:102850000E945D1620E030E04AE754E40E945D16D5
:102860002B013C01B0920301A0920201D0926703B8
:10287000C092660342E051E061EF72E080912C0467
:1028800090912D040E94E804AE01475F5F4F6AEF0C
:1028900072E080912C0490912D040E941A0546E666
:1028A00053E066E073E080912C0490912D040E9427
:1028B000E804AE01485F5F4F6FE073E080912C0445
:1028C00090912D040E941A05AE01495F5F4F6BE1A4
:1028D00073E080912C0490912D040E941A050091C0
:1028E0002C0410912D0464E273E0F801828193813D
:1028F0000E949B04FC01892B51F4C8010E94C5046D
:10290000FC01892B61F084E293E0938382838AE067
:1029100090E0958384834682578260867186809199
:1029200002019091030190930101809300018F8136
:10293000882311F061E001C060E086E00E94820D12
:102940008091660390916703209102013091030109
:10295000821B930B0B9710F461E001C060E085E0EF
:102960000E94820D80916603909167038234FEE09D
:102970009F0718F021E0209361032091020130911C
:1029800003018217930711F4109261030E94560904
:1029900006CE80E80E94190E81110BC020E033E0C2
:1029A00040E050E060E080E20E945F0E80E00E9424
:1029B000190E80E80E94190E81110BC020E033E04F
:1029C00040E050E060E084E20E945F0E80E00E9400
:1029D000190E40E052E060E070E080E00E949C0E42
:1029E00040E050E0BA0181E00E949C0E40E050E0DF
:1029F000BA0182E00E949C0E40E050E0BA0183E000
:102A00000E949C0E40E050E0BA0184E00E949C0EBF
:102A100040E050E0BA0185E00E949C0E8FE992E010
:102A2000FECCEF92FF920F931F93CF93DF93109200
:102A300084031092830388EE93E0A0E0B0E08093DB
:102A4000850390938603A0938703B09388038FE058
:102A500091E0909382038093810385EC90E09093C2
:102A60008E0380938D0384EC90E090939003809389
:102A70008F0380EC90E0909392038093910381EC1C
:102A800090E0909394038093930382EC90E0909372
:102A900096038093950386EC90E09093980380933F
:102AA000970310929A0310929B0310929C0310922A
:102AB0009D038AE08093ED050E94240B61E08091E4
:102AC000ED050E94820D1092FB041092FA048FE132
:102AD00091E090932F0480932E041092F9041092A9
:102AE000F8048EE294E00E946F058C0190932D040F
:102AF00080932C04FC0180819181009781F4809166
:102B00002204811132C010921F0410921E041092F0
:102B100021041092200481E08093220426C00E94A8
:102B20009305EC0167E373E0F801828193810E94D1
:102B30009B04FC01892B51F4C8010E94C504FC01CF
:102B4000892BA9F087E393E093838283888199811D
:102B5000892B19F480E090E003C07E0186E090E0CC
:102B600095838483E682F78202C0CEE1D4E0D093DD
:102B70002B04C0932A04DF91CF911F910F91FF90F6
:102B8000EF90089597FB072E16F4009407D077FD79
:102B900009D00E94DC1507FC05D03EF49095819584
:102BA0009F4F0895709561957F4F0895EE0FFF1F19
:102BB0000590F491E02D0994AA1BBB1B51E107C0BD
:102BC000AA1FBB1FA617B70710F0A61BB70B881FBD
:102BD000991F5A95A9F780959095BC01CD0108954C
:102BE0005058BB27AA270E9408160C943D1C0E942F
:102BF0002F1C38F00E94361C20F039F49F3F19F446
:102C000026F40C942C1C0EF4E095E7FB0C94261C87
:102C1000E92F0E944E1C58F3BA1762077307840706
:102C2000950720F079F4A6F50C94701C0EF4E0954D
:102C30000B2EBA2FA02D0B01B90190010C01CA0176
:102C4000A0011124FF27591B99F0593F50F4503E21
:102C500068F11A16F040A22F232F342F4427585F13
:102C6000F3CF469537952795A795F0405395C9F72B
:102C70007EF41F16BA0B620B730B840BBAF09150E3
:102C8000A1F0FF0FBB1F661F771F881FC2F70EC082
:102C9000BA0F621F731F841F48F487957795679555
:102CA000B795F7959E3F08F0B0CF9395880F08F041
:102CB0009927EE0F9795879508950E9471160C94A9
:102CC0003D1C0E94361C58F00E942F1C40F029F435
:102CD0005F3F29F00C94261C51110C94711C0C942C
:102CE0002C1C0E944E1C68F39923B1F3552391F3D9
:102CF000951B550BBB27AA2762177307840738F06B
:102D00009F5F5F4F220F331F441FAA1FA9F335D0C7
:102D10000E2E3AF0E0E832D091505040E695001C7B
:102D2000CAF72BD0FE2F29D0660F771F881FBB1F35
:102D3000261737074807AB07B0E809F0BB0B802D13
:102D4000BF01FF2793585F4F3AF09E3F510578F03F
:102D50000C94261C0C94711C5F3FE4F3983ED4F352
:102D6000869577956795B795F7959F5FC9F7880F13
:102D7000911D9695879597F90895E1E0660F771F65
:102D8000881FBB1F621773078407BA0720F0621BF6
:102D9000730B840BBA0BEE1F88F7E09508950E9421
:102DA000D6166894B1110C94711C08950E94561C9B
:102DB00088F09F5798F0B92F9927B751B0F0E1F0FC
:102DC000660F771F881F991F1AF0BA95C9F714C0AC
:102DD000B13091F00E94701CB1E008950C94701C09
:102DE000672F782F8827B85F39F0B93FCCF38695E5
:102DF00077956795B395D9F73EF490958095709542
:102E000061957F4F8F4F9F4F08950E94951B08F447
:102E10008FEF08950E94951B880B990B0895CF930F
:102E2000DF938230910510F482E090E0E091780623
:102E3000F091790620E030E0C0E0D0E0309711F169
:102E40004081518148175907C0F04817590761F46C
:102E500082819381209719F09B838A832BC0909362
:102E600079068093780626C02115310519F042179E
:102E7000530718F49A01BE01DF01EF010280F381CC
:102E8000E02DDCCF2115310509F1281B390B243049
:102E9000310590F412968D919C91139761157105EF
:102EA00021F0FB019383828304C090937906809381
:102EB0007806FD01329644C0FD01E20FF31F8193B5
:102EC0009193225031092D933C933AC0209176067C
:102ED00030917706232B41F42091070130910801AE
:102EE00030937706209376062091050130910601F4
:102EF0002115310541F42DB73EB74091090150919C
:102F00000A01241B350BE0917606F0917706E21753
:102F1000F307A0F42E1B3F0B2817390778F0AC01FC
:102F20004E5F5F4F2417350748F04E0F5F1F5093D9
:102F30007706409376068193919302C0E0E0F0E03B
:102F4000CF01DF91CF9108950F931F93CF93DF931C
:102F5000009709F48CC0FC01329713821282009111
:102F60007806109179060115110581F420813181CF
:102F7000820F931F20917606309177062817390724
:102F800079F5F0937706E093760671C0D80140E0BA
:102F900050E0AE17BF0750F412962D913C91139755
:102FA000AD012115310509F1D901F3CF9D01DA01F8
:102FB0003383228360817181860F971F8217930765
:102FC00069F4EC0128813981260F371F2E5F3F4FAE
:102FD000318320838A819B8193838283452B29F4CB
:102FE000F0937906E093780642C01396FC93EE9333
:102FF0001297ED01499159919E01240F351FE21757
:10300000F30771F480819181840F951F02961196C8
:103010009C938E938281938113969C938E931297A7
:10302000E0E0F0E0D80112968D919C911397009703
:1030300019F0F8018C01F6CF8D919C9198012E5FCB
:103040003F4F820F931F2091760630917706281705
:10305000390769F4309729F41092790610927806AE
:1030600002C0138212821093770600937606DF91D6
:10307000CF911F910F910895A0E0B0E0E2E4F8E154
:103080000C94011DEC01009721F4CB010E940F1755
:10309000B8C0FC01E60FF71F9C0122503109E2176E
:1030A000F30708F4ACC0D9010D911C9111970617D4
:1030B0001707B0F00530110508F49FC0C801049748
:1030C0008617970708F499C002501109061B170BC1
:1030D000019311936D937C93CF010E94A4178DC02F
:1030E0005B01A01AB10A4C01800E911EA0917806D6
:1030F000B091790640E050E0E12CF12C109709F4F2
:103100004AC0A815B905D1F56D907C90119763015F
:1031100082E0C80ED11CCA14DB0480F1A3014A1955
:103120005B096A0182E0C80ED11C1296BC9012970E
:103130001396AC91B5E0CB16D10440F0B282A383D4
:1031400051834083D9016D937C930AC00E5F1F4F5A
:10315000C301800F911FF90191838083EB2DFA2F1A
:10316000E114F10431F0D7011396FC93EE9312971A
:1031700044C0F0937906E09378063FC08D919C910E
:1031800011974817590708F4AC017D0112960D906C
:10319000BC91A02DB3CF80917606909177068815CB
:1031A0009905E1F446175707C8F4809105019091FD
:1031B0000601009741F48DB79EB7409109015091E7
:1031C0000A01841B950BE817F907C8F4F0937706FA
:1031D000E0937606F901718360830FC0CB010E94F2
:1031E0000F177C01009759F0A801BE010E940B192E
:1031F000CE010E94A417C70104C0CE0102C080E026
:1032000090E0CDB7DEB7EEE00C941D1D81E090E0BC
:10321000F8940C94431DFB01DC0102C001900D9257
:1032200041505040D8F70895FB01DC018D91019089
:1032300080190110D9F3990B0895FB01DC0101906D
:103240000D920020E1F70895A0E0B0E0EAE2F9E194
:103250000C94FD1C5C016B017A016115710519F07C
:10326000FB0191838083E114F10429F0C7010297E7
:10327000839708F0F1C0E5012196F5011081812FB7
:1032800090E00E94471B892B11F05E01F4CF1D32A4
:1032900029F42196F501118101E007C01B3221F4C8
:1032A000E5012296F501118100E0E114F10459F1E4
:1032B000F0E1EF16F10461F41033E1F488818F7DC1
:1032C000883569F519812296026070E1E72EF12CAC
:1032D00088E0E816F10439F12CF4F2E0EF16F1047D
:1032E000C9F12AC08AE0E816F10479F0E0E1EE16AF
:1032F000F10411F550E1E52EF12C812C912CA12C3B
:1033000068E0B62E2CC01033C9F23AE0E32EF12C5F
:103310004CEC842E982CA82C4CE0B42E20C010E34A
:10332000E114F104A9F698E0E92EF12C812C912CFE
:10333000A12C20E1B22E13C060E070E080E090E8A4
:1033400097010F2C000C440B550B0E94D01C490117
:103350005A0105C0812C912CA12C80E4B82E60E08C
:1033600020E030E0A90127010F2C000C6608770847
:103370001E01E0EDE10FEA3060F08FEB810F8A3142
:1033800010F4E9EC05C08FE9810F8A3128F5E9EAEC
:10339000E10F8E2F90E08E159F05F4F467FD18C0A5
:1033A00082169306A406B50690F0C301B2010E94EE
:1033B000C01C9B01AC012E0F311D411D511D213040
:1033C00031054105F0E85F0710F461E001C06FEFDF
:1033D0002196F1011081CCCF802F8170C114D104CE
:1033E00071F0662329F02197F601D183C08307C0CD
:1033F00001FF19C02297F601D183C08314C067FF73
:1034000012C0811105C02FEF3FEF4FEF5FE704C0FF
:1034100020E030E040E050E882E290E090937B06CC
:1034200080937A0616C0882341F0509540953095D8
:1034300021953F4F4F4F5F4F0CC057FF0AC082E2AC
:1034400090E090937B0680937A062FEF3FEF4FEF4B
:103450005FE7B901CA0104C060E070E080E090E07D
:10346000CDB7DEB7E2E10C94191DA6E0B0E0EBE3C6
:10347000FAE10C94FD1C5C016B017A016115710588
:1034800019F0DB018D939C93E114F10429F0C7013D
:103490000297839708F0DCC03501BFEF6B1A7B0AF7
:1034A000F5011081812F90E00E94471B892B11F0BC
:1034B0005301F2CF1D3249F43501F2E06F0E711C59
:1034C000D50111961C9101E009C01B3231F4350180
:1034D000B2E06B0E711CF501118100E0E114F10402
:1034E00009F4C4C0F0E1EF16F10489F4103399F542
:1034F000D3018C918F7D883509F0B2C011961C9153
:10350000B2E06B0E711C026050E1E52EF12CEAE096
:10351000EE16F10409F4B0C0F0E1EF16F104D9F0B1
:1035200028E0E216F10451F438E0E32EF12C88246F
:103530008A94982CA82C4FE1B42E13C06FEF7FEF24
:10354000CB0197010F2C000C440B550B0E94D01C93
:1035500049015A0106C088248A94982CA82C2FE08F
:10356000B22E7E826D8260E020E030E0A90127016A
:103570000F2C000C660877082D803E80E0EDE10FEF
:10358000EA3060F08FEB810F8A3110F4E9EC05C06E
:103590008FE9810F8A3190F5E9EAE10F8E2F90E0F3
:1035A0008E159F055CF56F3F09F182169306A40600
:1035B000B506D8F0C301B2010E94C01C2E2F30E026
:1035C00040E050E029833A834B835C83260F371F0A
:1035D000481F591F89819A81AB81BC8128173907FF
:1035E0004A075B0710F061E001C06FEFED81FE81DB
:1035F0003196FE83ED83D1011C91BECFC114D1045D
:1036000089F0662339F08D819E810197F6019183BF
:10361000808308C001FF06C08D819E810297D6017C
:103620008D939C9300FF07C0509540953095219550
:103630003F4F4F4F5F4F67FF10C082E290E0909383
:103640007B0680937A066FEF7FEF8FEF9FEF1BC0B3
:1036500060E070E080E090E016C0B901CA0113C0DC
:1036600010E3E114F10409F45FCF51CF103309F4F2
:103670003FCF9AE0E92EF12C89E9882E982CA82CCE
:1036800089E1B82E6ECF2696E2E10C94191D9111B6
:103690000C94501B803219F089508550C8F708955A
:1036A0009927882708950E94951B08F481E00895C2
:1036B000E89409C097FB3EF49095809570956195CC
:1036C0007F4F8F4F9F4F9923A9F0F92F96E9BB2782
:1036D0009395F695879577956795B795F111F8CFFE
:1036E000FAF4BB0F11F460FF1BC06F5F7F4F8F4F69
:1036F0009F4F16C0882311F096E911C0772321F05F
:103700009EE8872F762F05C0662371F096E8862FF6
:1037100070E060E02AF09A95660F771F881FDAF74D
:10372000880F9695879597F90895990F0008550F7A
:10373000AA0BE0E8FEEF16161706E807F907C0F037
:1037400012161306E407F50798F0621B730B840B3F
:10375000950B39F40A2661F0232B242B252B21F419
:1037600008950A2609F4A140A6958FEF811D811DB9
:1037700008950E94CC1B0C943D1C0E942F1C38F015
:103780000E94361C20F0952311F00C94261C0C94FA
:103790002C1C11240C94711C0E944E1C70F3959FDC
:1037A000C1F3950F50E0551F629FF001729FBB2738
:1037B000F00DB11D639FAA27F00DB11DAA1F649FD4
:1037C0006627B00DA11D661F829F2227B00DA11D87
:1037D000621F739FB00DA11D621F839FA00D611D0D
:1037E000221F749F3327A00D611D231F849F600D2E
:1037F000211D822F762F6A2F11249F5750409AF057
:10380000F1F088234AF0EE0FFF1FBB1F661F771FE2
:10381000881F91505040A9F79E3F510580F00C94AD
:10382000261C0C94711C5F3FE4F3983ED4F38695FC
:1038300077956795B795F795E7959F5FC1F7FE2B4D
:10384000880F911D9695879597F9089597F99F6729
:1038500080E870E060E008959FEF80EC0895002418
:103860000A941616170618060906089500240A94E5
:1038700012161306140605060895092E0394000C6B
:1038800011F4882352F0BB0F40F4BF2B11F460FFFA
:1038900004C06F5F7F4F8F4F9F4F089557FD905823
:1038A000440F551F59F05F3F71F04795880F97FB04
:1038B000991F61F09F3F79F08795089512161306BE
:1038C0001406551FF2CF4695F1DF08C016161706ED
:1038D0001806991FF1CF8695710561050894089522
:1038E000E894BB2766277727CB0197F90895F999C4
:1038F000FECF92BD81BDF89A992780B50895A8E1C1
:10390000B0E042E050E00C94A01C0196272F0E94EA
:10391000AF1C0C94AE1C262FF999FECF1FBA92BD96
:1039200081BD20BD0FB6F894FA9AF99A0FBE0196A0
:1039300008950E948B1C272F0C948C1CDC01CB015A
:10394000FC01F999FECF06C0F2BDE1BDF89A3196AF
:1039500000B40D9241505040B8F70895262FF999C0
:10396000FECF92BD81BDF89A019700B4021639F0DE
:103970001FBA20BD0FB6F894FA9AF99A0FBE0895AF
:10398000DB018F939F930E94F21CBF91AF91A29F86
:10399000800D911DA39F900DB29F900D112408954D
:1039A000A1E21A2EAA1BBB1BFD010DC0AA1FBB1F43
:1039B000EE1FFF1FA217B307E407F50720F0A21BB5
:1039C000B30BE40BF50B661F771F881F991F1A9422
:1039D00069F760957095809590959B01AC01BD014C
:1039E000CF0108950E94341DA59F900DB49F900DA6
:1039F000A49F800D911D112408952F923F924F9204
:103A00005F926F927F928F929F92AF92BF92CF926E
:103A1000DF92EF92FF920F931F93CF93DF93CDB777
:103A2000DEB7CA1BDB0B0FB6F894DEBF0FBECDBFEF
:103A300009942A88398848885F846E847D848C84C0
:103A40009B84AA84B984C884DF80EE80FD800C81C9
:103A50001B81AA81B981CE0FD11D0FB6F894DEBFAC
:103A60000FBECDBFED010895A29FB001B39FC0016D
:103A7000A39F700D811D1124911DB29F700D811D9A
:0A3A80001124911D0895F894FFCF62
:103A8A00100E100E0800007C068000000000002BBB
:103A9A00045C09BA009800AC00720400000000C679
:103AAA0000000000008709747275650022225C5CC0
:103ABA006208660C6E0A720D7409006E756C6C00F1
:103ACA0066616C7365004E614E00496E66696E6987
:103ADA00747900652D00343856494400434D44003A
:103AEA00536574206E657720566F6C746167652024
:103AFA00626F7264657273006D61784356006D6916
:103B0A006E4356006E6577206D617843563A200001
:103B1A006E6577206D696E43563A2000417373696A
:103B2A00676E696E67204D6F64756C657320746F7C
:103B3A00206120506F727450696E00202D3E200063
:103B4A004D61696E74616E616E6365204F4E004D02
:103B5A0061696E74616E616E6365204F46460053FB
:103B6A00657474696E67206E65772049443A20004F
:103B7A006E657749440053657474696E67206E6593
:103B8A0077206E756D626572206F6620696E737438
:103B9A00616C6C6564204D6F64756C65733A2000C6
:103BAA00696E73746D6F64004F4B2C20706C656185
:103BBA007365207265626F6F74206D65006D794957
:103BCA00440041756620676568747321004D656914
:103BDA006E652049443A20004B6F6E6669677572BC
:103BEA006174696F6E3A004D6178696D616C652028
:103BFA005A656C6C7370616E6E756E67286D5629A6
:103C0A003A20004D696E696D616C65205A656C6C6D
:103C1A007370616E6E756E67286D56293A2000437F
:103C2A00414E204F4B0053656E64652062616C61A2
:103C3A006E63650062616C616E63652067657365BA
:103C4A006E646574004D6F64756C20003A2030789C
:103C5A0000204D6F64756C6520676566756E6465D6
:103C6A006E2E20536F6C6C3A2000506F7274736121
:103C7A000041766C4D696E43560041766C4D696E13
:103C8A0043564D6F640041766C4D6178435600414E
:103C9A00766C4D617843564D6F640042616C4163A6
:103CAA0074697600566F6C746167650043414E20F3
:103CBA004E4F54204F4B006D6F64756C6573000D49
:023CCA000A00EE
:00000001FF
