:100000000C946D000C9485020C945E020C94950087
:100010000C9495000C9495000C9495000C9495000C
:100020000C9495000C9495000C9495000C949500FC
:100030000C9495000C9495000C9495000C949500EC
:100040000C94F9100C9495000C9463050C943D05E8
:100050000C9495000C9495000C9495000C949500CC
:100060000C9495000C9495002D05F603E10304040F
:10007000FE03FA039D03CD03990946099909B309C3
:10008000E509F409FA09FF0900000008000201006F
:100090000003040700000000000000000000000052
:1000A000250028002B0000000000240027002A0063
:1000B000040404040404040402020202020203030E
:1000C0000303030301020408102040800102040816
:1000D00010200102040810206A1111241FBECFEF66
:1000E000D8E0DEBFCDBF12E0A0E0B1E0E8EEFCE377
:1000F00002C005900D92A63FB107D9F726E0A6EF02
:10010000B2E001C01D92AF32B207E1F710E0CDE6D8
:10011000D0E004C02197FE010E940517CC36D1071C
:10012000C9F70E941B120C94721E0C9400000895D3
:10013000CF92DF92EF92FF920F931F93CF93DF93B3
:100140006C017A018B01C0E0D0E0CE15DF0589F0AB
:10015000D8016D918D01D601ED91FC910190F08156
:10016000E02DC6010995892B11F47E0102C021966C
:10017000ECCFC701DF91CF911F910F91FF90EF90CE
:10018000DF90CF900895FC01918D828D981761F0DA
:10019000828DDF01A80FB11D5D968C91928D9F5FBE
:1001A0009F73928F90E008958FEF9FEF0895FC0169
:1001B000918D828D981731F0828DE80FF11D858D1C
:1001C00090E008958FEF9FEF0895FC01918D228DAF
:1001D000892F90E0805C9F4F821B91098F73992734
:1001E000089582E093E00E94E50021E0892B09F464
:1001F00020E0822F0895FC01848DDF01A80FB11D3E
:10020000A35ABF4F2C91848D90E001968F7399274C
:10021000848FA689B7892C93A089B1898C91806439
:100220008C93938D848D981306C00288F389E02DFA
:1002300080818F7D80830895EF92FF920F931F93AB
:10024000CF93DF93EC0181E0888F9B8D8C8D981389
:1002500005C0E889F989808185FD24C0F62E0B8DC3
:1002600010E00F5F1F4F0F731127E02E8C8DE812E7
:100270000CC00FB607FCFACFE889F989808185FFA9
:10028000F5CFCE010E94FB00F1CF8B8DFE01E80F70
:10029000F11DE35AFF4FF0820B8FEA89FB898081C1
:1002A000806207C0EE89FF896083E889F9898081CF
:1002B0008064808381E090E0DF91CF911F910F9166
:1002C000FF90EF900895CF93DF93EC01888D882302
:1002D000C9F0EA89FB89808185FD05C0A889B989B3
:1002E0008C9186FD0FC00FB607FCF5CF808185FF8E
:1002F000F2CFA889B9898C9185FFEDCFCE010E94FC
:10030000FB00E7CFDF91CF910895FC01E653FF4F4B
:1003100020813181620F731F693C710538F42E5FB3
:100320003F4F71836083820F931F089580E090E0B8
:100330000895DB01109749F0ED91FC911197019020
:10034000F081E02DBC01CD01099480E090E008959A
:10035000813051F0E8F0823061F0833079F46FE65B
:1003600072E183E89AE308956DEC7CEC8CEC9DE3FC
:1003700008956AE077ED83E29CE3089584500E943B
:10038000A80127E137EB41ED58E30E94E81C0895EE
:1003900060E070E080E89FE30895CF93DF93EC0185
:1003A00088819981DC01ED91FC910190F081E02D33
:1003B00009952A813B81820F931F9B838A83DF915A
:1003C000CF9108950F931F93CF93DF9307EE15E01E
:1003D000CFE6D5E00E94AA0D837081F10E94AA0D9C
:1003E00080FF06C081E60E94150E40E061E007C074
:1003F00081FF08C081E70E94150E40E062E08CE2B8
:100400000E94970EA4E6B5E0FE018091630590E09E
:100410009F012C1B3D0B281739071CF48D918193EC
:10042000F4CF80915F0590916005F80181939193DD
:100430008F012896F5E0C73BDF0761F6DF91CF918A
:100440001F910F910895CF93DF93FC0180819181DB
:100450008330910534F48130910554F4892B19F1DE
:100460001BC00697CCF4628173818481958123C07F
:10047000C281D3812097B9F0BE018AE291E00E9447
:10048000431A892BA1F04AE050E060E070E0CE0111
:10049000DF91CF910C94641B62817381848195817B
:1004A0000E94051808C060E070E0CB0104C061E064
:1004B00070E080E090E0DF91CF9108951F920F925D
:1004C0000FB60F9211242F933F934F935F936F9327
:1004D0007F938F939F93AF93BF93EF93FF93E0919D
:1004E0000201F09103010995FF91EF91BF91AF9146
:1004F0009F918F917F916F915F914F913F912F913C
:100500000F900FBE0F901F9018951F920F920FB66D
:100510000F9211242F933F934F935F936F937F9389
:100520008F939F93AF93BF93EF93FF93E09100015D
:10053000F09101010995FF91EF91BF91AF919F91CA
:100540008F917F916F915F914F913F912F910F907C
:100550000FBE0F901F9018956115710579F0FB0182
:1005600001900020E9F73197AF01461B570BDC01E2
:10057000ED91FC910280F381E02D099480E090E000
:1005800008950C94AC02CF93DF93EC01888199819C
:100590000E94AC022A813B81820F931F9B838A8336
:1005A000DF91CF9108958F929F92AF92BF92EF9279
:1005B000FF920F931F93CF93DF93CDB7DEB766976C
:1005C0000FB6F894DEBF0FBECDBF7C011E8A8E0130
:1005D0000A5E1F4F8AE0882E912CA12CB12CCB01F2
:1005E000BA01A50194010E94FF1D942F852F605D23
:1005F000F80162938F01A901692F782F41155105E8
:100600006105710561F7BF01C7010E94C3026696CB
:100610000FB6F894DEBF0FBECDBFDF91CF911F9113
:100620000F91FF90EF90BF90AF909F908F900895A3
:10063000FF920F931F93CF93DF936115710549F4D8
:100640006EE371E0DF91CF911F910F91FF900C94B9
:10065000C3028B01EC0162E2CE010E94CD01F801E0
:1006600061918F01662351F0EFE2F1E0F080FF200D
:1006700099F39181961759F03296F8CF62E2CE0144
:10068000DF91CF911F910F91FF900C94CD016CE5FC
:10069000CE010E94CD016F2DDFCF0F931F93CF931B
:1006A000DF938C01EB016BE7CE010E94CD01F801D5
:1006B0000281138101151105A9F0F801628173818E
:1006C000CE010E9418036AE3CE010E94CD01BE0153
:1006D000C80104960E947F03F80100811181011571
:1006E000110541F46DE7CE01DF91CF911F910F917C
:1006F0000C94CD016CE2CE010E94CD01DBCF4F9274
:100700005F926F927F929F92AF92BF92CF92DF9251
:10071000EF92FF920F931F93CF93DF938C01EB0126
:10072000FC01A080B180F8E0AF16B10408F07BC0F6
:10073000F501EC5CFF4F0C940517FC01028113815D
:100740006BE5CE010E94CD01F801028113810115F4
:10075000110559F0BE01C80102960E947F03F801FD
:10076000008111810115110599F46DE5CE01DF912C
:10077000CF911F910F91FF90EF90DF90CF90BF909E
:10078000AF909F907F906F905F904F900C94CD01B1
:100790006CE2CE010E94CD01DACFFC01828193810F
:1007A000DF91CF911F910F91FF90EF90DF90CF904D
:1007B000BF90AF909F907F906F905F904F900C9400
:1007C0004D03FC0162817381CE01DF91CF911F91B6
:1007D0000F91FF90EF90DF90CF90BF90AF909F90E0
:1007E0007F906F905F904F900C941803FC01628192
:1007F000738157C06DE2CE010E94CD01F8014281A4
:1008000053816481758117C1FC0182819381A48128
:10081000B581892B8A2B8B2B19F463E471E041C0DD
:100820006AE271E03EC088EF982E9A0CF801C2800F
:10083000D380E480F580A7019601C701B6010E942C
:100840003918882319F069E471E02BC020E030E00A
:10085000A901C701B6010E94821C87FF08C06DE292
:10086000CE010E94CD01F7FAF094F7F8F09426013A
:100870003701E89477F82FEF3FEF4FE75FE7C301C9
:10088000B2010E94391881111EC02FEF3FEF4FE7D0
:100890005FE7C301B2010E94821C1816A4F46DE444
:1008A00071E0CE01DF91CF911F910F91FF90EF90FA
:1008B000DF90CF90BF90AF909F907F906F905F90B0
:1008C0004F900C94C30220E030E04AE754E4C701A3
:1008D000B6010E94341800E010E018160CF12FE663
:1008E00032E143E85AE3C701B6010E94821C87FF48
:1008F00037C016C020E030E040E85FE3C701B60132
:100900000E94821C87FF15C00150110920E030E0D1
:1009100040E251E4C701B6010E94E81C6B017C0172
:1009200020E030E0A901C701B6010E94821C8111BC
:10093000E1CF20E030E040E251E4C701B6010E947F
:10094000341818166CF40F5F1F4F20E030E040E2BF
:1009500051E4C701B6010E948C176B017C01E9CFFD
:10096000892D0E94A80120E030E040E05FE30E9472
:10097000E81C9B01AC01C701B6010E9420172B01A6
:100980003C010E9405186B017C010E94871C9B01A1
:10099000AC01C301B2010E941F172B013C01B7013A
:1009A000A601CE010E94D302992021F06EE2CE0171
:1009B0000E94CD01F8E0AF1619F120E030E040E2EE
:1009C00051E4C301B2010E94E81C2B013C010E94CA
:1009D000FE17F62E062E000C770B880B990B0E9443
:1009E000891C9B01AC01C301B2010E941F172B019E
:1009F0003C0160E36F0DCE010E94CD01AA94DACFD5
:100A000017FF0EC066E571E0CE010E94C3024427C5
:100A10005527401B510B052E000C660B770B0BC0A6
:100A200001151105D1F065E6CE010E94CD01A801A6
:100A3000110F660B770BCE01DF91CF911F910F91B4
:100A4000FF90EF90DF90CF90BF90AF909F907F90FE
:100A50006F905F904F900C94D302DF91CF911F91D4
:100A60000F91FF90EF90DF90CF90BF90AF909F904D
:100A70007F906F905F904F9008951F920F920FB6E6
:100A80000F9211242F933F934F935F936F937F9314
:100A90008F939F93AF93BF93EF93FF9382E093E085
:100AA0000E94FB00FF91EF91BF91AF919F918F91B9
:100AB0007F916F915F914F913F912F910F900FBE5A
:100AC0000F901F9018951F920F920FB60F9211243E
:100AD0002F938F939F93EF93FF93E0911203F091E5
:100AE00013038081E0911803F091190382FD12C075
:100AF000908180911B038F5F8F7320911C0382175D
:100B000051F0E0911B03F0E0EE5FFC4F958F809376
:100B10001B0301C08081FF91EF919F918F912F91D5
:100B20000F900FBE0F901F9018958EBD00000DB452
:100B300007FEFDCF8EB508950F931F93CF93DF93DC
:100B4000EC018B01209759F06A817B81C8010E94DA
:100B5000431A892B39F00990D881C02DF3CF80E05A
:100B600090E001C0CE01DF91CF911F910F910895C8
:100B7000FC01828193810E949C05009729F00496D4
:100B80000E942302862F089580E00895CF93DF937B
:100B9000EC01688179818AE090E00E9499010097D8
:100BA00029F0FC011182108215821482EA81FB81F6
:100BB000309751F0208131812115310511F0F90173
:100BC000F9CF9183808302C09B838A83DF91CF9189
:100BD0000895EF92FF920F931F93CF93DF938C01B1
:100BE000EB017A01DC0112968D919C9113970E9482
:100BF0009C05FC01892B41F4C8010E94C605FC013B
:100C0000892B89F0D383C283D7018D919C91A0E079
:100C1000B0E024E030E03583248386839783A08787
:100C2000B18781E001C080E0DF91CF911F910F91EA
:100C3000FF90EF900895EF92FF920F931F93CF9341
:100C4000DF938C01EB017A01DC0112968D919C916E
:100C500013970E949C05FC01892B41F4C8010E9456
:100C6000C605FC01892B89F0D383C283D7018C91FF
:100C700090E0A0E0B0E024E030E035832483868378
:100C80009783A087B18781E001C080E0DF91CF9199
:100C90001F910F91FF90EF900895CF93DF93EC0198
:100CA0006881798188E090E00E949901009729F09D
:100CB000FC011182108213821282EA81FB8130973B
:100CC00051F0208131812115310511F0F901F9CF61
:100CD0009183808302C09B838A83DF91CF910895A3
:100CE000CF93DF93EC01BC0184E090E00E94990176
:100CF000FC01009729F0D183C0831382128211C0B6
:100D00008091FA0281110BC01092F7021092F60244
:100D10001092F9021092F80281E08093FA0286EFB5
:100D200092E0DF91CF910895CF93DF93EC01BC0166
:100D300084E090E00E949901FC01009729F0D183A2
:100D4000C0831382128211C08091A30381110BC052
:100D50001092A00310929F031092A2031092A1037D
:100D600081E08093A3038FE993E0DF91CF91089511
:100D7000CF93DF93AC01EC01AA81BB812C818D81E3
:100D80009C91973219F4C22FD82F15C09232D9F303
:100D9000C22FD82FFD0131C02C3559F4FD013296F8
:100DA00012962C91A3E3B1E08C91811111C0222302
:100DB00059F12993DF013C2F6D2FFD0131961196DA
:100DC0002C911197222301F12913E6CF31961CC0F3
:100DD000821303C011962C91EACF1296E5CF892F8A
:100DE0008F7D81548A3130F09B3221F083ED890F61
:100DF000823050F49993319690813C2F6D2F80ED85
:100E0000890F8A30B8F3EBCFA32FB62F1D92EA01DA
:100E10008C819D81FB83EA83BD83AC83DF91CF917D
:100E20000895FC0120812D3051F024F42950223006
:100E300030F505C0203219F02F3219F008950196CF
:100E4000F0CFFC0121812A3219F02F3279F0089578
:100E5000FC013296CF0120813196222311F32A32F0
:100E6000C9F720812F32B1F70296DBCFFC01329611
:100E7000CF0121912223A9F22A30D1F7D2CF0895B0
:100E80000F931F93CF93DF931F92CDB7DEB78C01E3
:100E9000FC018081918169830E941107FC012081FE
:100EA0006981261308C001960E941107F8019183F9
:100EB000808381E001C080E00F90DF91CF911F918E
:100EC0000F9108959F92AF92BF92CF92DF92EF92CF
:100ED000FF920F931F93CF93DF9300D000D000D0E9
:100EE000CDB7DEB7D82EC92EE82EF92EF7018191A5
:100EF00091917F010E9470068C016BE7C7010E94EF
:100F00004007882309F445C06DE7C7010E944007E8
:100F100081114FC086E0982E8D2D9C2D0E94B80621
:100F20005C01892BB1F16AE3C7010E944007882365
:100F300081F11A821982BE016F5F7F4F8D2D9C2D2A
:100F40000E941F0B882329F1B501F801828193814A
:100F50000E949C05009741F4C8010E94C6050097B5
:100F6000C1F0FC01B382A282FE013196DC0114962D
:100F7000892D01900D928A95E1F76DE7C7010E94D6
:100F80004007811116C06CE2C7010E944007811121
:100F9000C3CF8091FA0281110EC01092F702109215
:100FA000F6021092F9021092F80281E08093FA02A0
:100FB00002C0C80102C086EF92E026960FB6F894F0
:100FC000DEBF0FBECDBFDF91CF911F910F91FF907C
:100FD000EF90DF90CF90BF90AF909F900895AF9229
:100FE000BF92CF92DF92EF92FF920F931F93CF9316
:100FF000DF93CDB7DEB7C95DD1090FB6F894DEBF78
:101000000FBECDBFCC52DF4F19821882C45DD040D5
:10101000CA52DF4F19821882C65DD040C852DF4FD6
:1010200019821882C85DD04060E070E0CE018C5219
:101030009F4F0E944311CC52DF4F28813981C45DFC
:10104000D040811119C02115310519F0C9010E9444
:10105000D318CC52DF4F19821882C45DD040C852D9
:10106000DF4F19821882C85DD040CA52DF4F198203
:101070001882C65DD0400BC0C852DF4F198218825B
:10108000C85DD0406DE371E0C9010E944C1A68EC64
:1010900070E0CE018C529F4F0E94431182E093E09A
:1010A0000E94E500892B81F182E093E00E94C30059
:1010B00089831A82C852DF4F08811981C85DD040E8
:1010C0000F5F1F4FB801CE018C529F4F0E944311FA
:1010D000882321F3CC52DF4F28813981C45DD04071
:1010E000C852DF4F88819981C85DD040BE016F5FD3
:1010F0007F4F820F931F0E944C1AC852DF4F1983F3
:101100000883C85DD040CACF82E291E09A83898388
:10111000C553DF4F19821882CB5CD040CC52DF4FD1
:1011200068817981C45DD04061157105D9F0C852DC
:10113000DF4F48815981C85DD0404F5F5F4F493CC8
:10114000510570F4C553DF4F59834883CB5CD040C1
:10115000CE0103960E943A1ABE016D5F7F4F02C016
:1011600060E070E0CE010196C353DF4F998388831E
:10117000CD5CD0406115710511F0CB0102C08DE34B
:1011800091E0C153DF4F99838883CF5CD040CF5229
:10119000DF4F79836883C15DD0408AE0CD52DF4F55
:1011A0008883C35DD040CE0183539F4F0E94620766
:1011B0008C01F090F90569E571E00E94B8058F1582
:1011C00009F455C069E571E0F801828193810E94BC
:1011D0009C05FC01892B09F435C1848195818330FC
:1011E000910534F481309105DCF4892BA1F12CC0F8
:1011F0008530910584F0059739F586819781A08522
:10120000B1859C01AD0166277727CB01621B730B6B
:10121000840B950B28C0668177818085918523C0DA
:10122000E680F780E114F104B1F0B7018AE291E0C1
:101230000E94431A892B99F04AE050E060E070E088
:10124000C7010E94531A0FC06681778180859185FE
:101250000E94FE1708C060E070E0CB0104C061E0AE
:1012600070E080E090E06F3F710509F0EBC06FE542
:1012700071E0C8010E94B80590E08830910508F03F
:10128000D7C0FC01E45CFF4F0C94051783E691E0A6
:101290000E94F80B6BE771E0F801828193810E9454
:1012A0009C05009721F004960E94230202C060E092
:1012B00070E070930C0660930B0661E871E0F80132
:1012C000828193810E949C05009721F004960E94E0
:1012D000230202C060E070E07093F8056093F705A8
:1012E00067E871E082E093E00E94C10280910B0602
:1012F00090910C060E944A0D63E971E082E093E050
:101300000E94C1028091F7059091F8050E944A0D54
:1013100060910B0670910C0683E090E00E94C81D5E
:101320006091F7057091F80581E090E00E94C81D7A
:101330007BC08091AD039091AE0322E033E0C353B4
:10134000DF4F39832883CD5CD040C153DF4F1982F2
:101350001882CF5CD040BE0163537F4F0E944D0383
:101360008DE391E063C06CE571E0C8010E94B805AF
:10137000F82E8FE991E00E94F80BCF2CD12C66EB70
:1013800071E0C8010E94B805960126503A4F5901F4
:10139000F90180836F2D70E080E090E04AE00E94C8
:1013A0000B0C6EEB71E082E093E00E94C102F5014C
:1013B00080810E944E0C66EB71E0C8010E94B80566
:1013C000682FC6018B5F9F4F2DC01EE061E0812F0B
:1013D0000E945E0D62E370E080E090E00E94981051
:1013E0001F5F143199F720C081E080930A0683ECD7
:1013F00091E01CC010920A0682ED91E017C062EEE7
:1014000071E082E093E00E94C10263EF71E0C801E5
:101410000E94B8058093F9050E944E0C6091F90571
:1014200080E090E00E94BA1D8AE692E00E94F80BEC
:1014300064E670E080E090E00E94981061E086E051
:101440000E945E0DCC52DF4F88819981C45DD040EF
:101450000E94D318C752DF4F0FB6F894DEBF0FBEFD
:10146000CDBFDF91CF911F910F91FF90EF90DF9053
:10147000CF90BF90AF9008950E94F10081110C941D
:10148000EF070895FF920F931F93CF93DF93EB0124
:101490008A019C0197FF02C0295F3F4F43E03595C9
:1014A00027954A95E1F768E070E00E94F116FC018B
:1014B000D801A20FB11D9C91C930D10504F580E07F
:1014C00020E0FF2761E070E0482F082E000C550B4C
:1014D0004C175D075CF44E0F5F1FDB0102C0AA0FC3
:1014E000BB1F4A95E2F72A0F8F5FEECF292330E02A
:1014F000B90102C075956795EA95E2F728C0422FB9
:1015000060E070E050E088E0F82EAE2FB0E0292FC8
:1015100030E00E2E02C0359527950A94E2F7052E8D
:1015200002C0220F331F0A94E2F7620F731F8F2D40
:101530008E1B580FCD010897C80FD91F4150F801D5
:10154000E40FF11D9081E0E01C161D06F4F2CB01C2
:10155000DF91CF911F910F91FF9008959F92AF92CD
:10156000BF92CF92DF92EF92FF920F931F93CF9390
:10157000DF93FB0131978E0F9F1FA0E0B0E08C013D
:1015800000951095EE24EA94FE2CCC24C394D12C23
:10159000A617B70749F1FC01C3E0F695E795CA9590
:1015A000E1F7E40FF51FE801CA0FDB1FC770DD2765
:1015B00020FF0AC0560102C0AA0CBB1CCA95E2F764
:1015C000E501D081CD2B0AC0570102C0AA0CBB1C7B
:1015D000CA95E2F7E501C095D081CD23C083369549
:1015E000279511960197D4CFDF91CF911F910F913D
:1015F000FF90EF90DF90CF90BF90AF909F900895B5
:1016000090E0FC01EC53FF4F2491FC01E055FF4FAB
:101610008491882399F090E0880F991FFC01EA5586
:10162000FF4FA591B491FC01E456FF4F8591949131
:101630008FB7F894EC91E22BEC938FBF08959F92B3
:10164000AF92BF92CF92DF92EF92FF920F931F93D0
:10165000CF93DF93CDB7DEB727970FB6F894DEBFF1
:101660000FBECDBFFC019681992309F4ADC07B016B
:101670008F0191509683828193810E941107D80136
:1016800013969C938E931297FC0180818B3521F0E9
:101690008B3709F45FC072C0D8018D919D916D01A7
:1016A0000E9494065C016BE5C6010E9440078823F6
:1016B00061F16DE5C6010E944007811136C086E0E8
:1016C000982E1A821982BE016F5F7F4FC8010E9457
:1016D0001F0B8823D1F0C5010E944D060097A9F089
:1016E000FE013196DC011296892D01900D928A95AA
:1016F000E1F76DE5C6010E944007811116C06CE25A
:10170000C6010E9440078111DCCF8091A3038111A3
:101710000EC01092A00310929F031092A203109289
:10172000A10381E08093A30302C0F50102C0EFE9A9
:10173000F3E080819181892B11F420E040C086E0A4
:1017400090E0D70111969C938E931396FC93EE93A1
:10175000129712C0C8010E946207FC0120813181EA
:10176000232B59F327E030E0D70111963C932E93B9
:1017700013969C938E93129721E021C021E087322B
:1017800019F0823209F020E0C8012F830E94B806C8
:101790002F81009791F2222341F042E050E0F701BF
:1017A00051834083938382830AC021E030E0D701D4
:1017B00011963C932E9313969C938E931297F80157
:1017C00086818F5F868301C020E0822F27960FB627
:1017D000F894DEBF0FBECDBFDF91CF911F910F9167
:1017E000FF90EF90DF90CF90BF90AF909F900895C3
:1017F000CF93DF93BC0182E093E00E94AC02EC0146
:1018000061E072E082E093E00E94AC028C0F9D1FC9
:10181000DF91CF9108958F929F92AF92BF920F93D5
:101820001F93CF93DF93CDB7DEB7A1970FB6F89490
:10183000DEBF0FBECDBF19A2423008F44AE08E01D0
:101840000F5D1F4F842E912CA12CB12CA50194016A
:101850000E94FF1DE62FB901CA0101501109EA30AB
:1018600014F4E05D01C0E95CD801EC93232B242B38
:10187000252B61F7B80182E093E00E94AC02A196AB
:101880000FB6F894DEBF0FBECDBFDF91CF911F9191
:101890000F91BF90AF909F908F900895CF93DF935B
:1018A000682F70E080E090E04AE00E940B0CEC01B1
:1018B00061E072E082E093E00E94AC028C0F9D1F19
:1018C000DF91CF9108958F929F92AF92BF92CF9266
:1018D000DF92EF92FF920F931F93CF93DF9387EEE8
:1018E000A82E85E0B82EC12CD12C9FE0992E8824FB
:1018F0008394F501E190F1905F01C70192500F9739
:1019000008F0B3C0FF249E9C80019F9C100D112401
:1019100005581B4FF8018282E601C159DA4FAE012A
:1019200064E070E080E090E00E94420A8B3049F46D
:10193000AE0168E070E088E090E00E94420AF801A1
:101940008687AE0163E070E088E190E00E94420A81
:10195000029721F5AE0168E070E088E090E00E9417
:10196000420A9E9C80019F9C100D112405581B4F1C
:10197000BC0180E090E00E94871C20E030E040E065
:101980005FE30E94E81C20E030E040E252E40E9465
:101990001F170E94FE17F80173876287AE0164E08B
:1019A00070E084E090E00E94420A9E9C80019F9C2F
:1019B000100D112405581B4FF8018487AE016DE00E
:1019C00070E08BE190E00E94420ABC0180E090E070
:1019D0000E94871C20E030E040E05FE30E94E81CAA
:1019E00020E030E04AE754E40E9420170E940518E6
:1019F000F80177836683AE016DE070E08BE290E0E2
:101A00000E94420ABC0180E090E00E94871C20E016
:101A100030E040E05FE30E94E81C20E030E04AE76D
:101A200054E40E9420170E940518F801758364830E
:101A3000AE016DE070E08BE390E00E94420ABC01D1
:101A400080E090E00E94871C20E030E040E05FE30F
:101A50000E94E81C20E030E04AE754E40E9420178E
:101A60000E940518F80171876087F8E0CF0ED11C3D
:101A700080E4C816D10409F03CCFDF91CF911F91CB
:101A80000F91FF90EF90DF90CF90BF90AF909F901D
:101A90008F900895CF93DF93BC0180E090E04AE0FF
:101AA0000E940B0CEC0161E072E082E093E00E9486
:101AB000AC028C0F9D1FDF91CF91089590E0FC0147
:101AC000E857FF4F3491FC01EC53FF4F2491FC0188
:101AD000E055FF4FE491EE2309F43BC0332339F185
:101AE000333091F038F43130A9F0323001F584B55B
:101AF0008F7D12C0373091F03830A1F03430B9F416
:101B0000809180008F7D03C0809180008F778093CB
:101B100080000DC084B58F7784BD09C08091B0006E
:101B20008F7703C08091B0008F7D8093B000F0E08C
:101B3000EE0FFF1FE456FF4FA591B4918FB7F894B5
:101B4000EC91611103C020952E2301C02E2B2C9304
:101B50008FBF08951F93CF93DF93CEE6D5E060E06B
:101B600088810E945E0D80EA0E94950580E00E94B7
:101B70009505182F61E088810E945E0D812FDF910D
:101B8000CF911F910895CF92DF92FF920F931F93F1
:101B9000CF93DF931F92CDB7DEB7F82E162F042F09
:101BA00060E080916E0579830E945E0D83E00E9463
:101BB00095058F2D0E949505F12EC12E7981D72E86
:101BC0008C2D8F19801738F480E00E949505F6015E
:101BD00081936F01F5CF61E080916E050F90DF91E9
:101BE000CF911F910F91FF90DF90CF900C945E0DDD
:101BF0001F93CF93DF93182FCEE6D5E060E0888166
:101C00000E945E0D83E00E949505812F0E9495053C
:101C100080E00E949505182F61E088810E945E0D8A
:101C2000812FDF91CF911F9108950F931F93CF9331
:101C3000DF9300D000D0CDB7DEB7182F10925E052D
:101C400010925F0510926005109261051092620576
:101C500044E0BE016F5F7F4F0E94C30D8A8199816E
:101C6000482F50E065E0559547956A95E1F728E0E3
:101C7000929F400D511D1124052E000C660B770B11
:101C800040935F0550936005609361057093620512
:101C900083FF29C092E0440F551F661F771F9A9556
:101CA000D1F78370480F511D611D711D762F652F6F
:101CB000542F44278B81480F511D611D711D762FB4
:101CC000652F542F44278C81480F511D611D711DB4
:101CD00040935F05509360056093610570936205C2
:101CE00081E080935E058FEF810F0E94F80D082F31
:101CF00084E0810F0E94F80D482F03FF04C081E0AB
:101D000080936C0502C010926C054F704093630580
:101D100064E675E085E0810F0E94C30D0F900F907F
:101D20000F900F90DF91CF911F910F910895EF9237
:101D3000FF920F931F93CF93DF931F92CDB7DEB720
:101D4000082F162F8EE6E82E85E0F82E60E0F701CA
:101D5000808149830E945E0D85E00E949505802F59
:101D60000E949505812F0E9495054981842F0E942C
:101D7000950561E0F70180810F90DF91CF911F9170
:101D80000F91FF90EF900C945E0DCF93C82F482FCA
:101D900060EE8FE00E94970E8FE00E94F80D807E2B
:101DA00091E08C1301C090E0892FCF910895CF92DC
:101DB000DF92FF920F931F93CF93DF931F92CDB7C4
:101DC000DEB7F82E162F042F60E080916E05798320
:101DD0000E945E0D82E00E9495058F2D0E94950560
:101DE000F12EC12E7981D72E8C2D8F19801730F4CA
:101DF000F60181916F010E949505F6CF61E0809117
:101E00006E050F90DF91CF911F910F91FF90DF90A2
:101E1000CF900C945E0D0F931F93CF93DF9300D060
:101E200000D0CDB7DEB76130B9F42C833B838A0193
:101E300022273327602F6C71902F937048E0649FA6
:101E4000900D112498609A83980175E03695279536
:101E50007A95E1F729830DC0B90193E076956795EE
:101E60009A95E1F769832295220F207E2A831C82AE
:101E70001B8244E0BE016F5F7F4F0E94D70E0F9020
:101E80000F900F900F90DF91CF911F910F910895B8
:101E90001F93CF93DF9300D000D0CDB7DEB7182FBC
:101EA0009A01AB0180E829833A834B835C830E94CB
:101EB000C50E29813A814B815C81811129C0123084
:101EC00099F038F4112369F01130C1F460E084E036
:101ED00013C0143079F058F0153081F460E088E1D7
:101EE0000BC060E080E008C060E088E005C060E012
:101EF00080E102C060E084E10E940B0F80E00F905F
:101F00000F900F900F90DF91CF911F910C94C50E01
:101F10000F900F900F900F90DF91CF911F91089528
:101F20000F931F93CF93DF93082F162FCEE6D5E0A4
:101F300060E088810E945E0D82E00E949505802FFE
:101F40000E949505812F0E94950561E08881DF91AF
:101F5000CF911F910F910C945E0D7F928F929F9263
:101F6000AF92BF92CF92DF92EF92FF920F931F93A7
:101F7000CF93DF93CDB7DEB72B970FB6F894DEBFC4
:101F80000FBECDBF7C018E010F5F1F4F88E0F801AF
:101F900011928A95E9F780E18D8320917B042F5F70
:101FA000203118F420937B0402C010927B0420910E
:101FB0007B0430E0A80164E070E080E090E00E94E3
:101FC000AE0AB701F3E4EF16FEE0FF0610F062E49C
:101FD0007EE0603689E0780710F460E679E0685EBC
:101FE000734080E090E00E94871C9B01AC010E943E
:101FF00020170E9405189B01A8016DE070E088E0A1
:1020000090E00E94AE0A10925E0580E590E0A0E0AC
:10201000B0E080935F0590936005A0936105B09355
:10202000620588E080936305F801A4E6B5E05E01EF
:1020300089E0A80EB11C81918D93EA15FB05D9F7B3
:10204000E12CF12C90E3C92E20E4922E30E5832E72
:1020500043E0742E7A0CC9869A868B868501F80136
:10206000D1908F018D2D0E94F80D982F987083FDCF
:1020700003C011E01D0D04C07012F1CF10E092E01A
:10208000FFEFEF1AFF0A923029F482E3E816F10419
:1020900011F73AC0E2E3EE16F104B1F140916305A5
:1020A00064E675E085E0810F0E94D70E80916C0593
:1020B000813029F480916305806480936305609189
:1020C000630584E0810F0E94900F20915F0530919D
:1020D0006005409161055091620560915E05812F18
:1020E0000E940B0F48E068E08FEF810F0E94970E6F
:1020F00082E3E82EF12C812F0E94F80D83FF04C0AB
:10210000F1E0EF1AF108B9F72B960FB6F894DEBF9D
:102110000FBECDBFDF91CF911F910F91FF90EF9038
:10212000DF90CF90BF90AF909F908F907F90089559
:102130008F929F92AF92BF92CF92DF92EF92FF92D7
:102140006B017C010E94D4104B015C01C114D104CD
:10215000E104F104F1F00E94D410DC01CB018819F4
:102160009909AA09BB09883E9340A105B10570F3FE
:1021700021E0C21AD108E108F10888EE880E83E058
:10218000981EA11CB11CC114D104E104F10419F77B
:10219000DDCFFF90EF90DF90CF90BF90AF909F90FA
:1021A0008F9008950E94351A3FB7F89480912506C4
:1021B00090912606A0912706B091280626B5A89BE7
:1021C00005C02F3F19F00196A11DB11D3FBFBA2FC9
:1021D000A92F982F8827820F911DA11DB11DBC0129
:1021E000CD0142E0660F771F881F991F4A95D1F7EE
:1021F00008951F920F920FB60F9211242F933F93C1
:102200008F939F93AF93BF93809121069091220665
:10221000A0912306B09124063091200623E0230FDD
:102220002D3720F40196A11DB11D05C026E8230F0E
:102230000296A11DB11D2093200680932106909344
:102240002206A0932306B093240680912506909140
:102250002606A0912706B09128060196A11DB11D62
:102260008093250690932606A0932706B093280610
:10227000BF91AF919F918F913F912F910F900FBE82
:102280000F901F9018950F931F93CF93DF93EC013E
:1022900088819981009729F02A813B812617370789
:1022A00088F48B016F5F7F4F0E946B19009761F07C
:1022B000998388831B830A832C813D81232B11F40E
:1022C000FC01108281E001C080E0DF91CF911F917D
:1022D0000F910895EF92FF920F931F93CF93DF9387
:1022E000109205031092040388EE93E0A0E0B0E0A2
:1022F0008093060390930703A0930803B093090308
:1023000082E191E0909303038093020385EC90E0D7
:1023100090930F0380930E0384EC90E0909311034D
:102320008093100380EC90E090931303809312034A
:1023300081EC90E0909315038093140382EC90E07D
:10234000909317038093160386EC90E09093190303
:102350008093180310921B0310921C0310921D030C
:1023600010921E038AE080936E050E94000B61E0CC
:1023700080916E050E945E0D10927C0410927B0489
:1023800082E291E09093B0038093AF0310927A04BD
:10239000109279048FEA93E00E9470068C0190936A
:1023A000AE038093AD03FC0180819181009781F49D
:1023B0008091A303811132C01092A00310929F0359
:1023C0001092A2031092A10381E08093A30326C080
:1023D0000E949406EC0169EF71E0F801828193811B
:1023E0000E949C05FC01892B51F4C8010E94C6057E
:1023F000FC01892BA9F089EF91E093838283888186
:102400009981892B19F480E090E003C07E0186E079
:1024100090E095838483E682F78202C0CFE9D3E01F
:10242000D093AC03C093AB03DF91CF911F910F9179
:10243000FF90EF900895CF93DF93CDB7DEB7649709
:102440000FB6F894DEBF0FBECDBF789484B582601E
:1024500084BD84B5816084BD85B5826085BD85B548
:10246000816085BD80916E00816080936E001092C6
:102470008100809181008260809381008091810041
:1024800081608093810080918000816080938000D2
:102490008091B10084608093B1008091B000816030
:1024A0008093B00080917A00846080937A0080915C
:1024B0007A00826080937A0080917A0081608093B4
:1024C0007A0080917A00806880937A001092C1002F
:1024D00055E0E52E50E0F52E0AEF15E0C7010E9409
:1024E000A61DF80181938F01FFEFEF1AFF0A26E086
:1024F0000A30120799F783E090E00E94AE1D909396
:102500000C0680930B06845398408F30964060F001
:1025100082E49EE090930C0680930B0662E47EE0DA
:1025200083E090E00E94B41D81E090E00E94AE1D27
:102530009093F8058093F705845398408F30964028
:1025400060F084E398E09093F8058093F70564E3E6
:1025500078E081E090E00E94B41D80E090E00E946D
:10256000A61D8093F90587E00E94000B86E00E947B
:10257000000B85E00E94000B1EE0812F0E94000BE3
:1025800061E0812F0E945E0D1F5F1431B1F761E0A1
:1025900087E00E945E0D61E086E00E945E0D61E0D2
:1025A00085E00E945E0D49EF55E064E072E08091A5
:1025B000AD039091AE030E941B06E0911203F091CF
:1025C000130382E08083E0910E03F0910F031082E9
:1025D000E0911003F091110380E1808310921A03BF
:1025E000E0911603F091170386E08083E0911403D5
:1025F000F0911503808180618083E0911403F09154
:102600001503808188608083E0911403F0911503A5
:10261000808180688083E0911403F09115038081AC
:102620008F7D808364E670E080E090E00E949810E7
:1026300089E092E00E94F80B64E172E082E093E0AE
:102640000E94C1028091F9050E944E0C8FE192E038
:102650000E94F80B6EE272E082E093E00E94C102F9
:1026600080910B0690910C060E944A0D6AE472E07C
:1026700082E093E00E94C1028091F7059091F805F5
:102680000E944A0D1FB7F89480910D06811124C055
:10269000EAEBF0E08491EEECF0E09491E82FF0E0CA
:1026A000EE0FFF1FEA55FF4FA591B491EC91E9237E
:1026B00021F461E08AE00E945E0D8AE00E94000B36
:1026C0008CB580618CBD8CB580648CBD8DE00E9422
:1026D000000B8BE00E94000B80910D068F5F8093B2
:1026E0000D061FBF60E080916E050E945E0D80ECBC
:1026F0000E94950561E080916E050E945E0D6AE082
:1027000070E080E090E00E94981080E80E94C50E82
:10271000811172C060E08AE20E94900F60E989E254
:102720000E94900F62E088E20E94900F20E030E06B
:10273000A90161E080E20E940B0F20E030E0A901D6
:1027400061E084E20E940B0F20E030E0A90161E02B
:1027500080E00E940B0F20E030E0A90160E084E0FF
:102760000E940B0F20E030E0A90161E088E00E94A8
:102770000B0F20E030E0A90160E080E10E940B0F28
:1027800020E030E0A90161E084E10E940B0F20E02D
:1027900030E0A90160E088E10E940B0F10E360E0E7
:1027A000812F0E94900F60E080E1810F0E94900FC6
:1027B00060E080E2810F0E94900F1F5F1E3379F767
:1027C00060E080E60E94900F60E080E70E94900F3A
:1027D00063E08BE20E94900F44E064E680E60E9492
:1027E000970E40E060E680E70E94970E80E00E942E
:1027F000C50E882309F4ADC28BEE92E00E94F80B5F
:1028000082EE91E090930101809300018091690034
:102810008C7F826080936900E89A64E670E080E0D3
:1028200090E00E94981080911006883009F46DC0E5
:102830008DE692E00E94F80B80E19EE00E94AD0FD1
:1028400060E170E080E090E00E9498108BE792E0F9
:102850000E94F80B0E94630C109210060DE714E022
:10286000C12CD12C7601F8018081882379F16CE8A4
:1028700072E082E093E00E94C1026091100670E075
:1028800080E090E04AE00E940B0C63E972E082E095
:1028900093E00E94C10240E1C701B6010E940B0C07
:1028A0006EEB71E082E093E00E94C102F601E65017
:1028B000FA4F80810E944E0C80911006E82FF0E0C4
:1028C000EF5EF94FC0828F5F80931006015F1F4F4C
:1028D000FFEFCF1ADF0AEF0AFF0A20E1C216D10488
:1028E000E104F10409F0BFCF6091100670E080E0D0
:1028F00090E04AE00E940B0C88E992E00E94F80BFD
:1029000068EE73E080E090E08CCF0DE714E0C12C1E
:10291000D12C760134E0A32EB12CF80180818823DC
:1029200079F08091AB039091AC030E944D06009723
:1029300039F0FC01B382A282C482D582E682F7829A
:10294000015F1F4FFFEFCF1ADF0AEF0AFF0A20E1F6
:10295000C216D104E104F10401F7CE0101969B8770
:102960008A8722242394312C64E670E080E090E092
:102970000E949810198618861F8286E0EA85FB85DA
:1029800011928A95E9F72091060130910701809113
:102990000B0690910C068217930720F42234FEE078
:1029A0003F0720F040910A06413011F4C901019619
:1029B0000E94AD0F60E170E080E090E00E9498100E
:1029C0000E94630C80911006282F30E03B8B2A8BED
:1029D00030917B04398BEF8089844885488B81E175
:1029E00096E09D878C87412C512C3201C12CD12C33
:1029F00080E1A82E8EE0B82E9FE0F92E8C859D8573
:102A000081519640EA89FB898E179F070CF066C0BA
:102A1000EC85FD859190FD87EC87092D10E0F09EF7
:102A2000F001F19EF00D1124E558FB4F82818823BF
:102A300029F384852989821721F083818F5F83831D
:102A400001C01382F09EC001F19E900D1124FC0183
:102A5000E558FB4FFF87EE878685E80E6085718518
:102A600080E090E00E94871C9B01AC01C301B20191
:102A70000E9420172B013C01EE85FF8586819781FE
:102A80008A159B0510F4892C5C01F09EF001F19EE3
:102A9000F00D1124E558FB4F24813581C216D30671
:102AA00010F4988A69018533984058F0F09EF0013F
:102AB000F19EF00D1124E558FB4F8381873008F417
:102AC0009DCFF801E650FA4F8081E3EFFFEFEC0F66
:102AD000FD1FE80FF11D21E0208390CFF889F887D2
:102AE0008986EF8280910A068130D9F400E010E0F7
:102AF000E12CF12C61E08EE08E0D0E945E0DC10193
:102B00000E2C02C0880F991F0A94E2F7082B192B8C
:102B10002FEFE21AF20A36E0E316F10459F791E0DA
:102B200024C0CE0101967C01812C912C00E010E0A4
:102B300090E0F70161917F01613051F4C101082CEF
:102B400002C0880F991F0A94E2F7082B192B91E015
:102B50008EE0880D9C8B0E945E0DFFEF8F1A9F0AFE
:102B60009C8926E08216910421F7692F87E00E9454
:102B70005E0D49EF55E064E072E08091AD03909105
:102B8000AE030E941B06E090AD03F090AE0369EA2D
:102B900072E0F701828193810E949C05009751F4B5
:102BA000C7010E94C6050097F1F029EA32E0FC0156
:102BB0003383228317FD07C0A801110F660B770B23
:102BC00024E030E009C0119501951109A801110F09
:102BD000660B770B25E030E0FC01358324834683C8
:102BE00057836087718720E030E040E651E4C301FD
:102BF000B2010E94E81C2B013C016091100670E0BC
:102C000080E090E00E94891C9B01AC01C301B201ED
:102C10000E948C1720E030E04AE754E40E948C17B1
:102C20002B013C01B0920701A0920601D0920F0641
:102C3000C0920E0646E051E060EB72E08091AD0379
:102C40009091AE030E94E905AE01475F5F4F69EBCB
:102C500072E08091AD039091AE030E941B064EE09E
:102C600056E065EC72E08091AD039091AE030E9456
:102C7000E905AE01485F5F4F6EEC72E08091AD03F5
:102C80009091AE030E941B06AE01495F5F4F6AED53
:102C900072E08091AD039091AE030E941B060091FB
:102CA000AD031091AE0363EE72E0F801828193816F
:102CB0000E949C05FC01892B51F4C8010E94C605A5
:102CC000FC01892B61F083EE92E0938382838AE09A
:102CD00090E09583848346825782608671868091D6
:102CE00006019091070190930501809304018F8163
:102CF000882311F061E001C060E086E00E945E0D73
:102D000080910E0690910F062091060130910701E7
:102D1000821B930B0B9710F461E001C060E085E02B
:102D20000E945E0D80910E0690910F068234FEE0A7
:102D30009F0718F021E020930A06209106013091A8
:102D400007018217930711F410920A060E943C0AA9
:102D50000BCE80E80E94C50E81110BC020E033E04D
:102D600040E050E060E080E20E940B0F80E00E94B3
:102D7000C50E80E80E94C50E81110BC020E033E033
:102D800040E050E060E084E20E940B0F80E00E948F
:102D9000C50E40E052E060E070E080E00E94480F25
:102DA00040E050E0BA0181E00E94480F40E050E06E
:102DB000BA0182E00E94480F40E050E0BA0183E08F
:102DC0000E94480F40E050E0BA0184E00E94480FA2
:102DD00040E050E0BA0185E00E94480F86E692E0AC
:102DE0000DCD97FB072E16F4009407D077FD09D080
:102DF0000E940B1707FC05D03EF4909581959F4FDC
:102E00000895709561957F4F0895EE0FFF1F05900F
:102E1000F491E02D0994AA1BBB1B51E107C0AA1F26
:102E2000BB1FA617B70710F0A61BB70B881F991F6B
:102E30005A95A9F780959095BC01CD0108955058F9
:102E4000BB27AA270E9437170C946C1D0E945E1D99
:102E500038F00E94651D20F039F49F3F19F426F4E4
:102E60000C945B1D0EF4E095E7FB0C94551DE92FC7
:102E70000E947D1D58F3BA176207730784079507F0
:102E800020F079F4A6F50C949F1D0EF4E0950B2E1E
:102E9000BA2FA02D0B01B90190010C01CA01A001AC
:102EA0001124FF27591B99F0593F50F4503E68F107
:102EB0001A16F040A22F232F342F4427585FF3CF48
:102EC000469537952795A795F0405395C9F77EF419
:102ED0001F16BA0B620B730B840BBAF09150A1F062
:102EE000FF0FBB1F661F771F881FC2F70EC0BA0FE8
:102EF000621F731F841F48F4879577956795B79570
:102F0000F7959E3F08F0B0CF9395880F08F099276A
:102F1000EE0F9795879508950E94A0170C946C1D4D
:102F20000E94651D58F00E945E1D40F029F45F3F2D
:102F300029F00C94551D51110C94A01D0C945B1D8F
:102F40000E947D1D68F39923B1F3552391F3951BDE
:102F5000550BBB27AA2762177307840738F09F5FBA
:102F60005F4F220F331F441FAA1FA9F335D00E2E27
:102F70003AF0E0E832D091505040E695001CCAF794
:102F80002BD0FE2F29D0660F771F881FBB1F261757
:102F900037074807AB07B0E809F0BB0B802DBF012E
:102FA000FF2793585F4F3AF09E3F510578F00C94FD
:102FB000551D0C94A01D5F3FE4F3983ED4F3869515
:102FC00077956795B795F7959F5FC9F7880F911D1E
:102FD0009695879597F90895E1E0660F771F881F0A
:102FE000BB1F621773078407BA0720F0621B730BBD
:102FF000840BBA0BEE1F88F7E09508950E94051820
:103000006894B1110C94A01D08950E94851D88F04C
:103010009F5798F0B92F9927B751B0F0E1F0660F9C
:10302000771F881F991F1AF0BA95C9F714C0B130DD
:1030300091F00E949F1DB1E008950C949F1D672F91
:10304000782F8827B85F39F0B93FCCF3869577950C
:103050006795B395D9F73EF49095809570956195F5
:103060007F4F8F4F9F4F08950E94C41C08F48FEF2D
:1030700008950E94C41C880B990B0895CF93DF9389
:103080008230910510F482E090E0E0912B06F091FF
:103090002C0620E030E0C0E0D0E0309711F1408114
:1030A000518148175907C0F04817590761F48281C8
:1030B0009381209719F09B838A832BC090932C06D1
:1030C00080932B0626C02115310519F042175307AE
:1030D00018F49A01BE01DF01EF010280F381E02DB7
:1030E000DCCF2115310509F1281B390B24303105BE
:1030F00090F412968D919C9113976115710521F0B2
:10310000FB019383828304C090932C0680932B064B
:10311000FD01329644C0FD01E20FF31F81939193AC
:10312000225031092D933C933AC0209129063091C9
:103130002A06232B41F420910A0130910B01309390
:103140002A062093290620910801309109012115B2
:10315000310541F42DB73EB740910C0150910D015E
:10316000241B350BE0912906F0912A06E217F3079C
:10317000A0F42E1B3F0B2817390778F0AC014E5FE7
:103180005F4F2417350748F04E0F5F1F50932A06F4
:10319000409329068193919302C0E0E0F0E0CF01D3
:1031A000DF91CF9108950F931F93CF93DF930097F3
:1031B00009F48CC0FC0132971382128200912B0615
:1031C00010912C060115110581F420813181820FA7
:1031D000931F2091290630912A062817390779F57F
:1031E000F0932A06E093290671C0D80140E050E030
:1031F000AE17BF0750F412962D913C911397AD0175
:103200002115310509F1D901F3CF9D01DA0133838D
:10321000228360817181860F971F8217930769F45B
:10322000EC0128813981260F371F2E5F3F4F3183F4
:1032300020838A819B8193838283452B29F4F09399
:103240002C06E0932B0642C01396FC93EE93129744
:10325000ED01499159919E01240F351FE217F307A3
:1032600071F480819181840F951F029611969C9331
:103270008E938281938113969C938E931297E0E0B4
:10328000F0E0D80112968D919C911397009719F058
:10329000F8018C01F6CF8D919C9198012E5F3F4FE4
:1032A000820F931F2091290630912A06281739078B
:1032B00069F4309729F410922C0610922B0602C064
:1032C0001382128210932A0600932906DF91CF9170
:1032D0001F910F910895A0E0B0E0E1E7F9E10C94AF
:1032E000301EEC01009721F4CB010E943E18B8C0BB
:1032F000FC01E60FF71F9C0122503109E217F3078A
:1033000008F4ACC0D9010D911C911197061717074D
:10331000B0F00530110508F49FC0C8010497861766
:10332000970708F499C002501109061B170B019367
:1033300011936D937C93CF010E94D3188DC05B01D4
:10334000A01AB10A4C01800E911EA0912B06B091DB
:103350002C0640E050E0E12CF12C109709F44AC013
:10336000A815B905D1F56D907C901197630182E0A5
:10337000C80ED11CCA14DB0480F1A3014A195B09F1
:103380006A0182E0C80ED11C1296BC901297139667
:10339000AC91B5E0CB16D10440F0B282A383518347
:1033A0004083D9016D937C930AC00E5F1F4FC30108
:1033B000800F911FF90191838083EB2DFA2FE11487
:1033C000F10431F0D7011396FC93EE93129744C0A9
:1033D000F0932C06E0932B063FC08D919C911197A2
:1033E0004817590708F4AC017D0112960D90BC9165
:1033F000A02DB3CF8091290690912A0688159905B2
:10340000E1F446175707C8F480910801909109012B
:10341000009741F48DB79EB740910C0150910D017A
:10342000841B950BE817F907C8F4F0932A06E0937C
:103430002906F901718360830FC0CB010E943E18F9
:103440007C01009759F0A801BE010E943A1ACE01F2
:103450000E94D318C70104C0CE0102C080E090E0F2
:10346000CDB7DEB7EEE00C944C1E81E090E0F8940E
:103470000C94721EFB01DC0102C001900D924150C0
:103480005040D8F70895FB01DC018D91019080191F
:103490000110D9F3990B0895FB01DC0101900D9205
:1034A0000020E1F70895A0E0B0E0E9E5FAE10C942E
:1034B0002C1E5C016B017A016115710519F0FB018D
:1034C00091838083E114F10429F0C7010297839767
:1034D00008F0F1C0E5012196F5011081812F90E0FF
:1034E0000E94761C892B11F05E01F4CF1D3229F465
:1034F0002196F501118101E007C01B3221F4E5019D
:103500002296F501118100E0E114F10459F1F0E196
:10351000EF16F10461F41033E1F488818F7D883572
:1035200069F519812296026070E1E72EF12C88E09E
:10353000E816F10439F12CF4F2E0EF16F104C9F1C8
:103540002AC08AE0E816F10479F0E0E1EE16F10411
:1035500011F550E1E52EF12C812C912CA12C68E085
:10356000B62E2CC01033C9F23AE0E32EF12C4CEC0D
:10357000842E982CA82C4CE0B42E20C010E3E1142B
:10358000F104A9F698E0E92EF12C812C912CA12CC4
:1035900020E1B22E13C060E070E080E090E8970177
:1035A0000F2C000C440B550B0E94FF1D49015A01C2
:1035B00005C0812C912CA12C80E4B82E60E020E085
:1035C00030E0A90127010F2C000C660877081E01C6
:1035D000E0EDE10FEA3060F08FEB810F8A3110F4FB
:1035E000E9EC05C08FE9810F8A3128F5E9EAE10F9E
:1035F0008E2F90E08E159F05F4F467FD18C082169B
:103600009306A406B50690F0C301B2010E94EF1D17
:103610009B01AC012E0F311D411D511D2130310583
:103620004105F0E85F0710F461E001C06FEF2196FB
:10363000F1011081CCCF802F8170C114D10471F0C1
:10364000662329F02197F601D183C08307C001FFCB
:1036500019C02297F601D183C08314C067FF12C03E
:10366000811105C02FEF3FEF4FEF5FE704C020E06F
:1036700030E040E050E882E290E090932E068093A4
:103680002D0616C0882341F0509540953095219520
:103690003F4F4F4F5F4F0CC057FF0AC082E290E090
:1036A00090932E0680932D062FEF3FEF4FEF5FE7AD
:1036B000B901CA0104C060E070E080E090E0CDB7DD
:1036C000DEB7E2E10C94481EA6E0B0E0EAE6FBE1DA
:1036D0000C942C1E5C016B017A016115710519F0C7
:1036E000DB018D939C93E114F10429F0C70102974B
:1036F000839708F0DCC03501BFEF6B1A7B0AF50138
:103700001081812F90E00E94761C892B11F05301CB
:10371000F2CF1D3249F43501F2E06F0E711CD50174
:1037200011961C9101E009C01B3231F43501B2E061
:103730006B0E711CF501118100E0E114F10409F434
:10374000C4C0F0E1EF16F10489F4103399F5D30108
:103750008C918F7D883509F0B2C011961C91B2E032
:103760006B0E711C026050E1E52EF12CEAE0EE16C2
:10377000F10409F4B0C0F0E1EF16F104D9F028E04B
:10378000E216F10451F438E0E32EF12C88248A94F7
:10379000982CA82C4FE1B42E13C06FEF7FEFCB0114
:1037A00097010F2C000C440B550B0E94FF1D490183
:1037B0005A0106C088248A94982CA82C2FE0B22E97
:1037C0007E826D8260E020E030E0A90127010F2CAD
:1037D000000C660877082D803E80E0EDE10FEA30AE
:1037E00060F08FEB810F8A3110F4E9EC05C08FE9AE
:1037F000810F8A3190F5E9EAE10F8E2F90E08E1566
:103800009F055CF56F3F09F182169306A406B50685
:10381000D8F0C301B2010E94EF1D2E2F30E040E02E
:1038200050E029833A834B835C83260F371F481F60
:10383000591F89819A81AB81BC81281739074A07B2
:103840005B0710F061E001C06FEFED81FE81319602
:10385000FE83ED83D1011C91BECFC114D10489F048
:10386000662339F08D819E810197F60191838083D3
:1038700008C001FF06C08D819E810297D6018D93FD
:103880009C9300FF07C050954095309521953F4F80
:103890004F4F5F4F67FF10C082E290E090932E067B
:1038A00080932D066FEF7FEF8FEF9FEF1BC060E0DF
:1038B00070E080E090E016C0B901CA0113C010E3C7
:1038C000E114F10409F45FCF51CF103309F43FCF75
:1038D0009AE0E92EF12C89E9882E982CA82C89E110
:1038E000B82E6ECF2696E2E10C94481E91110C94EE
:1038F0007F1C803219F089508550C8F708959927A8
:10390000882708950E94C41C08F481E00895E89473
:1039100009C097FB3EF490958095709561957F4F17
:103920008F4F9F4F9923A9F0F92F96E9BB279395C5
:10393000F695879577956795B795F111F8CFFAF4D5
:10394000BB0F11F460FF1BC06F5F7F4F8F4F9F4F06
:1039500016C0882311F096E911C0772321F09EE864
:10396000872F762F05C0662371F096E8862F70E0CA
:1039700060E02AF09A95660F771F881FDAF7880FA4
:103980009695879597F90895990F0008550FAA0BFA
:10399000E0E8FEEF16161706E807F907C0F0121662
:1039A0001306E407F50798F0621B730B840B950B65
:1039B00039F40A2661F0232B242B252B21F40895BA
:1039C0000A2609F4A140A6958FEF811D811D089557
:1039D0000E94FB1C0C946C1D0E945E1D38F00E941E
:1039E000651D20F0952311F00C94551D0C945B1D62
:1039F00011240C94A01D0E947D1D70F3959FC1F3AE
:103A0000950F50E0551F629FF001729FBB27F00D8C
:103A1000B11D639FAA27F00DB11DAA1F649F6627E1
:103A2000B00DA11D661F829F2227B00DA11D621F30
:103A3000739FB00DA11D621F839FA00D611D221FEA
:103A4000749F3327A00D611D231F849F600D211DCE
:103A5000822F762F6A2F11249F5750409AF0F1F051
:103A600088234AF0EE0FFF1FBB1F661F771F881FBA
:103A700091505040A9F79E3F510580F00C94551D80
:103A80000C94A01D5F3FE4F3983ED4F386957795A0
:103A90006795B795F795E7959F5FC1F7FE2B880F60
:103AA000911D9695879597F9089597F99F6780E8F6
:103AB00070E060E008959FEF80EC089500240A9480
:103AC0001616170618060906089500240A941216F9
:103AD0001306140605060895092E0394000C11F42C
:103AE000882352F0BB0F40F4BF2B11F460FF04C0D9
:103AF0006F5F7F4F8F4F9F4F089557FD9058440F32
:103B0000551F59F05F3F71F04795880F97FB991F3C
:103B100061F09F3F79F087950895121613061406F9
:103B2000551FF2CF4695F1DF08C016161706180686
:103B3000991FF1CF86957105610508940895E89461
:103B4000BB2766277727CB0197F90895F999FECF10
:103B500092BD81BDF89A992780B50895A8E1B0E09B
:103B600042E050E00C94CF1D0196272F0E94DE1DED
:103B70000C94DD1D262FF999FECF1FBA92BD81BD91
:103B800020BD0FB6F894FA9AF99A0FBE01960895DF
:103B90000E94BA1D272F0C94BB1DDC01CB01FC0138
:103BA000F999FECF06C0F2BDE1BDF89A319600B496
:103BB0000D9241505040B8F70895262FF999FECF45
:103BC00092BD81BDF89A019700B4021639F01FBA70
:103BD00020BD0FB6F894FA9AF99A0FBE0895DB014A
:103BE0008F939F930E94211EBF91AF91A29F800D42
:103BF000911DA39F900DB29F900D11240895A1E2F5
:103C00001A2EAA1BBB1BFD010DC0AA1FBB1FEE1F56
:103C1000FF1FA217B307E407F50720F0A21BB30BA1
:103C2000E40BF50B661F771F881F991F1A9469F71D
:103C300060957095809590959B01AC01BD01CF0179
:103C400008950E94631EA59F900DB49F900DA49FA0
:103C5000800D911D112408952F923F924F925F92F3
:103C60006F927F928F929F92AF92BF92CF92DF928C
:103C7000EF92FF920F931F93CF93DF93CDB7DEB7F1
:103C8000CA1BDB0B0FB6F894DEBF0FBECDBF099485
:103C90002A88398848885F846E847D848C849B84DC
:103CA000AA84B984C884DF80EE80FD800C811B81EA
:103CB000AA81B981CE0FD11D0FB6F894DEBF0FBE19
:103CC000CDBFED010895A29FB001B39FC001A39F96
:103CD000700D811D1124911DB29F700D811D112445
:083CE000911D0895F894FFCF37
:103CE80097009700100E100E00002F0680000000AD
:103CF80000001C019800E500C300D7006301000024
:103D08000000850100000000D21074727565002261
:103D1800225C5C6208660C6E0A720D7409006E758E
:103D28006C6C0066616C7365004E614E00496E668E
:103D3800696E69747900652D00343856494400432A
:103D48004D4400536574206E657720566F6C74611E
:103D5800676520626F7264657273006D617843569F
:103D6800006D696E4356006E6577206D6178435625
:103D78003A20006E6577206D696E43563A200041FF
:103D8800737369676E696E67204D6F64756C6573D0
:103D980020746F206120506F727450696E00202D5E
:103DA8003E20004D61696E74616E616E6365204FDF
:103DB8004E004D61696E74616E616E6365204F4699
:103DC800460053657474696E67206E6577204944B0
:103DD8003A20006E65774944006D6F64756C6573B1
:103DE800000D0A006D7949440041756620676568D1
:103DF800747321004D65696E652049443A20004B73
:103E08006F6E66696775726174696F6E3A004D61AD
:103E180078696D616C65205A656C6C7370616E6E43
:103E2800756E67286D56293A20004D696E696D6177
:103E38006C65205A656C6C7370616E6E756E672860
:103E48006D56293A200043414E204F4B0053656E72
:103E580064652042616C616E63650062616C616ECD
:103E6800636520676573656E646574004D6F64757E
:103E78006C20003A20307800204D6F64756C652006
:103E8800676566756E64656E00506F727473610065
:103E980041766C4D696E43560041766C4D696E43B0
:103EA800564D6F640041766C4D61784356004176FB
:103EB8006C4D617843564D6F640042616C41637488
:103EC800697600566F6C746167650043414E204EF9
:063ED8004F54204F4B0087
:00000001FF
