:100000000C9483000C9407180C9434180C94AB00D7
:100010000C94AB000C94AB000C94AB000C94AB00B4
:100020000C94AB000C94AB000C94AB000C94AB00A4
:100030000C94AB000C94AB000C94AB000C94AB0094
:100040000C9434190C94AB000C94FC140C942E15E5
:100050000C94AB000C94AB000C94AB000C94AB0074
:100060000C94AB000C94AB00A3064406A306BD069B
:10007000090718071E07230744073C0C400CE50B33
:10008000E80BEB0BEE0BF10BF40BF70BFA0BFD0B84
:10009000010C040C120C440C150C180C1C0C1F0C3D
:1000A000230C260C2A0C2D0C300C330C360C0000C3
:1000B0000008000201000003040700000000000027
:1000C00000000102040810204080010204081020F2
:1000D00001020408102004040404040404040202BD
:1000E00002020202030303030303000000002500D1
:1000F00028002B0000000000240027002A007405BF
:10010000A6135E15BD0511241FBECFEFD8E0DEBFDC
:10011000CDBF13E0A0E0B1E0E8E1F2E402C0059059
:100120000D92A231B107D9F726E0A2E1B3E001C0F8
:100130001D92A234B207E1F710E0C4E0D1E004C0A0
:100140002297FE010E94F41CCE3FD107C9F70E94FE
:1001500025190C94FF200C9400009C01FC01E6532F
:10016000FF4F80819181680F791F693C710530F4E0
:10017000718360830296820F931F089580E090E060
:1001800008958DE094E00C942809CF93DF93FC014F
:10019000808191819C01235031092230310528F45E
:1001A000628173818481958129C0873091053CF0FB
:1001B00062817381848195810E946E1B1FC00197AB
:1001C0000297C8F4C281D3812097A9F0BE018BE0C9
:1001D00091E00E944220892B49F04AE050E060E023
:1001E00070E0CE01DF91CF910C94FD1E61E070E0D4
:1001F00080E090E003C060E070E0CB01DF91CF9140
:1002000008956115710559F0FB0101900020E9F78F
:10021000AF0141505109461B570B0C94191180E056
:1002200090E00895DF92EF92FF920F931F93CF9388
:10023000DF93EC01D62E0A811B81E880F980B8019A
:10024000C7010E944111FC01009741F4C7010E94BF
:100250001812FC01009771F01383028384E090E090
:10026000958384834D2D50E060E070E04683578392
:1002700060877187CE01DF91CF911F910F91FF9021
:10028000EF90DF900895AF92BF92CF92DF92EF92FE
:10029000FF920F931F93CF93DF9300D000D0CDB781
:1002A000DEB700E010E024E1E22E23E0F22EC801E8
:1002B0000E945220F70181937F010F5F1F4FF0E0F2
:1002C00000311F07A1F784E190E00E945A209C01B1
:1002D000245338402F30364028F490930C048093F8
:1002E0000B040CC082E49EE090930C0480930B04FA
:1002F00062E47EE084E190E00E94602082E190E090
:100300000E945A209C01245338402F30364028F454
:1003100090930A04809309040CC084E398E09093BE
:100320000A048093090464E378E082E190E00E948B
:10033000602081E190E00E9452208093080480E1D7
:1003400090E00E94522080930A0161E087E00E94C1
:100350002D1A61E086E00E942D1A61E085E00E947E
:100360002D1A1EE061E0812F0E942D1A61E0812F7D
:100370000E94661A1F5F1431A9F761E087E00E94AE
:10038000661A61E086E00E94661A61E085E00E94DC
:10039000661A6091080480913603909137039A831E
:1003A000898380E191E09C838B83CE0101960E943A
:1003B000120126E040E052EC61E070E082E995E055
:1003C0000E949A1464E670E080E090E00E94A11917
:1003D00065E171E082E995E00E94FC1560E271E060
:1003E00082E995E00E94DF154AE050E06091080440
:1003F00082E995E00E94CD166BE271E082E995E01A
:100400000E94FC156AE371E082E995E00E94DF1525
:1004100060910B0470910C044AE050E082E995E091
:100420000E94E41666E571E082E995E00E94DF151E
:100430006091090470910A044AE050E082E995E075
:100440000E94E4168DE094E00E94510842E050E0E2
:1004500061EC70E080E00E94E71764E670E080E005
:1004600090E00E94A11980910A01909124039813B1
:1004700009C00FE014E0C12CD12C760184E0A82E35
:10048000B12C84C08F3FA9F360E17EE08DE094E061
:100490000E94B60860E170E080E090E00E94A1193F
:1004A0008DE094E00E946B09109224039FE0E92EF6
:1004B00094E0F92E00E010E0F70180818823A9F193
:1004C00062E771E082E995E00E94DF154AE050E0C2
:1004D0006091240382E995E00E94C61669E771E005
:1004E00082E995E00E94DF1540E150E0B80182E921
:1004F00095E00E94B1166EE771E082E995E00E94F6
:10050000DF154AE050E0F801EC5EFC4F608182E9C3
:1005100095E00E94CD1680912403E82FF0E0EB5D7A
:10052000FC4F00838F5F809324030F5F1F4FFFE01A
:10053000EF0EF11C0031110509F0BECF4AE050E08A
:100540006091240382E995E00E94C61663E871E099
:1005500082E995E00E94DF154AE050E060910A01CF
:1005600082E995E00E94CD1668EE73E080E090E0AD
:100570000E94A119809107048F5F80930704853042
:1005800008F471CF8FEF80930A0173CFF801808157
:10059000882379F080913403909135030E943B12B7
:1005A000009739F0FC01B382A282C482D582E68230
:1005B000F782015F1F4FFFEFCF1ADF0AEF0AFF0A32
:1005C00040E1C416D104E104F10401F70F900F904B
:1005D0000F900F90DF91CF911F910F91FF90EF90AF
:1005E000DF90CF90BF90AF900895CF92DF92EF92BF
:1005F000FF920F931F93CF93DF93EC016B010A815E
:100600001B81E880F980B801C7010E944111FC01FB
:10061000009741F4C7010E941812FC01009769F08D
:100620001383028384E090E095838483A60160E0D5
:1006300070E04683578360877187CE01DF91CF9149
:100640001F910F91FF90EF90DF90CF9008952F9220
:100650003F924F925F926F927F928F929F92AF9252
:10066000BF92CF92DF92EF92FF920F931F93CF939F
:10067000DF93CDB7DEB764970FB6F894DEBF0FBE39
:10068000CDBF9E012F5F3F4F3C872B8786E0F9014E
:1006900011928A95E9F78091060190910701609186
:1006A0000B0470910C046817790720F48234FEE083
:1006B0009F0720F020910404213019F4BC016F5FE2
:1006C0007F4F8DE094E00E94B60860E170E080E02A
:1006D00090E00E94A1198DE094E00E946B09809146
:1006E0002403282F30E0388B2F8730910D04398B6D
:1006F00045E2842E43E0942E1D86412C512C32017C
:10070000312C1E8600E010E050E1A52E5EE0B52EF3
:10071000C40185529340EF85F8898E179F070CF02E
:100720006FC0F40121904F01E22CF12C2FE02E9D9F
:10073000F0012F9DF00D1124E35FFB4F8281882390
:1007400009F459C084853989831721F083818F5F2B
:10075000838301C013824FE04E9D60014F9DD00CFA
:100760001124C601835F9B4F6C01FC018685FD85CA
:10077000F80FFD87F6016085718580E090E00E94AA
:100780009F1B9B01AC01C301B2010E949E1A2B0169
:100790003C01F601268137812A153B0510F42E868F
:1007A00059014FE04E9DF0014F9DF00D1124E35F84
:1007B000FB4F848195810817190710F0232CC8017D
:1007C0002533384058F02FE02E9DF0012F9DF00D7D
:1007D0001124E35FFB4F2381273078F0F701EC5EB3
:1007E000FC4F2081E3EFFFEFEC0FFD1FE20FF11D47
:1007F00031E0308302C0232CC801322C8C0188CF19
:10080000809104048130E9F4812C912CE12CF12CAD
:10081000CC24C394D12C61E08EE0880D0E94661A2E
:10082000C601082C02C0880F991F0A94E2F7E82A33
:10083000F92AFFEF8F1A9F0A26E08216910459F7D2
:100840002BC0CE0101964C01C12CD12CE12CF12CF6
:1008500090E021E030E0F40161914F01613051F40A
:10086000C9010C2C02C0880F991F0A94E2F7E82AEC
:10087000F92A91E08EE08C0D2B8B3C8B9A8B0E9499
:10088000661AFFEFCF1ADF0A2B893C899A8946E066
:10089000C416D10401F701C091E0692F87E00E94DE
:1008A000661A609108048091360390913703988707
:1008B0008F8380E191E09A878987CE0107960E9415
:1008C0001201C0903603D09037036CE971E0C60185
:1008D0000E944111009751F4C6010E94181200971E
:1008E00099F02CE931E0FC013383228324E030E0ED
:1008F000FC0135832483A701662757FD6095762F79
:10090000468357836087718720E030E040E651E4FA
:10091000C301B2010E94551C6B017C01609124034C
:1009200070E080E090E00E94A11B9B01AC01C70138
:10093000B6010E94061B20E030E04AE754E40E9422
:10094000061B6B017C01B0920701A0920601109377
:10095000060400930504809136039091370398872D
:100960008F8383EA91E09A878987B501CE01079644
:100970000E94F502809136039091370398878F8308
:100980008CEA91E09A8789876E85CE0107960E944E
:1009900012016091050470910604809136039091D4
:1009A000370398878F8388EB91E09A878987CE01F8
:1009B00007960E94F502809136039091370398873D
:1009C0008F8381EC91E09A878987632DCE0107960A
:1009D0000E941201809136039091370398878F838C
:1009E0008DEC91E09A8789876D85CE0107960E94EC
:1009F0001201009136031091370366ED71E0C801D2
:100A00000E944111FC01009751F4C8010E94181284
:100A1000FC01009761F086ED91E09383828389E089
:100A200090E095838483C682D782E086F1868091A8
:100A30000601909107019093090180930801FD85BB
:100A4000FF2311F061E001C060E086E00E94661AB9
:100A500080910504909106042091060130910701D0
:100A6000821B930B0B9710F461E001C060E085E0FE
:100A70000E94661A809105049091060482342EE04B
:100A8000920718F021E02093040420910601309190
:100A900007018217930711F41092040464960FB6AD
:100AA000F894DEBF0FBECDBFDF91CF911F910F91A4
:100AB000FF90EF90DF90CF90BF90AF909F908F907E
:100AC0007F906F905F904F903F902F90089564E6D5
:100AD00070E080E090E00E94A11980910A018F3FB0
:100AE00011F00C94270308950F931F93CF93DF9376
:100AF0006AE08DE094E00E94600A86EC92E09093B8
:100B0000390380933803109203041092020488E39F
:100B100093E00E940411EC01909337038093360315
:100B2000888199810097E1F00E94EF108C016EEDB1
:100B300071E0CE010E944111FC01009751F4CE01F9
:100B40000E941812FC01009771F02EED31E0338302
:100B5000228325E030E0358324830683178303C096
:100B60002EE835E001C0980130933503209334031B
:100B7000DF91CF911F910F9108958DE094E00C9437
:100B80006C0ABF92CF92DF92EF92FF920F931F9366
:100B9000CF93DF93CDB7DEB7C65DD1090FB6F8941A
:100BA000DEBF0FBECDBF61E771E0CE0183539F4F23
:100BB0000E94CF1868EC70E0CE0183539F4F0E94D3
:100BC000921882E995E00E94B713892B59F082E9C7
:100BD00095E00E94D013682FCE0183539F4F0E944F
:100BE0001119EFCF86EC92E09A838983C553DF4FCA
:100BF00019821882CB5CD040C353DF4F6881798162
:100C0000CD5CD040CE0101960E9401014AE0BC01BA
:100C1000CE0101960E9481138C01F090080466EECB
:100C200071E00E944111009721F004960E94C500D6
:100C300001C060E06F1589F066EE71E0C8010E94A6
:100C40004111009721F004960E94C50002C060E0A7
:100C500070E06F3F710509F04CC16CEE71E0C801A6
:100C60000E944111009721F004960E94C50001C026
:100C700060E0462F50E04930510508F030C1FA01DC
:100C8000EC5CFF4F0C94F21C60EF71E082E995E0A0
:100C90000E94FC1568E072E0C8010E9441110097B3
:100CA00021F004960E94C50002C060E070E07093DD
:100CB0000C0460930B046EE072E0C8010E944111C5
:100CC000009721F004960E94C50002C060E070E029
:100CD00070930A046093090464E172E082E995E08C
:100CE0000E94DF1560910B0470910C044AE050E003
:100CF00082E995E00E94E41660E272E082E995E004
:100D00000E94DF156091090470910A044AE050E0E6
:100D100082E995E00E94E41660910B0470910C0446
:100D200084E190E00E9474206091090470910A04AB
:100D300082E190E00E94742067ED72E082E995E024
:100D40000E94FC15CCC0809136039091370322E9B4
:100D500035E0CD52DF4F39832883C35DD040CB527D
:100D6000DF4F19821882C55DD040BE016D527F4FA2
:100D70000E94E61161E771E0E1CF69EE71E0C80120
:100D80000E944111009729F004960E94C500B62EDA
:100D900001C0B12C6CE272E082E995E00E94FC1582
:100DA000EB2CF12C63E472E0C8010E944111009722
:100DB00021F004960E94C50001C060E0C7018C5E6E
:100DC0009C4F6C01FC0160834AE050E06B2D82E98E
:100DD00095E00E94C6166EE771E082E995E00E94F8
:100DE000DF154AE050E0F601608182E995E00E945B
:100DF000CD1663E472E0C8010E944111009721F012
:100E000004960E94C50001C060E0C7018050904078
:100E100038C01EE061E0812F0E94661A62E370E034
:100E200080E090E00E94A1191F5F143199F784CFF0
:100E300081E0809304046BE472E080CF109204049C
:100E40006AE572E07BCF6AE672E082E995E00E9493
:100E5000DF156BE772E0C8010E944111009721F095
:100E600004960E94C50001C060E0609308044AE057
:100E700050E082E995E00E94CD166091080481E17E
:100E800090E00E94662058CF61E872E082E995E028
:100E90000E94DF156BEA72E0C8010E9441110097C1
:100EA00021F004960E94C50001C060E060930A0131
:100EB0004AE050E082E995E00E94CD166091080476
:100EC00081E190E00E94662063EB72E082E995E0A8
:100ED0000E94FC15E0911203F0911303099564E65A
:100EE00070E080E090E00E94A11961E086E00E943D
:100EF000661ACE0183539F4F0E946118CA52DF4F7A
:100F00000FB6F894DEBF0FBECDBFDF91CF911F911A
:100F10000F91FF90EF90DF90CF90BF9008958F9248
:100F20009F92AF92BF92CF92DF92EF92FF920F9378
:100F30001F93CF93DF93CA010197860F971F60E03D
:100F400070E0DC01A095B09588248A94982CEE245A
:100F5000E394F12C6417750761F16C01F3E0D6940A
:100F6000C794FA95E1F7C20ED31EFD01E60FF71FF5
:100F7000E770FF2700FF0BC0570102C0AA0CBB1C83
:100F8000EA95E2F7F501E601F881FE2B0BC054016A
:100F900002C0AA0CBB1CEA95E2F7F501E095E60158
:100FA000F881FE23F883169507956F5F7F4F0197B1
:100FB000D1CFDF91CF911F910F91FF90EF90DF90F4
:100FC000CF90BF90AF909F908F9008950F931F93F5
:100FD000CF93DF93CB01FA01EB0177FD279613E066
:100FE000D595C7951A95E1F768E070E00E94BC1CA2
:100FF000D901AC0FB11D4C91E930F1050CF5C0E001
:1010000050E09C013327A1E0B0E06C2F772767FD0B
:1010100070956E177F075CF4620F731FCD0102C0DD
:10102000880F991F6A95E2F7580FCF5FEECF4523DF
:10103000842F90E002C0959587952A95E2F72CC001
:10104000D82F60E070E010E080E090E008E0C15050
:10105000AD2FB0E050E00D2E02C0559547950A9493
:10106000E2F7012E02C0440F551F0A94E2F7840FE5
:10107000951F402F4D1B140F1897EA0FFB1F4C2F85
:10108000461BD901A40FB11D4C916F5F7F4F1E16F7
:101090001F0614F4D0E0DCCFDF91CF911F910F91A8
:1010A00008950F931F93CF93DF93EC01CD51DF4F42
:1010B00042E06CE0CE010E94510E882341F068ECC2
:1010C00072E082E995E00E94FC1580E04AC000E0F1
:1010D00013E020E030E040E060E0CE010E946F0EBF
:1010E00000E013E020E030E040E061E0CE010E944B
:1010F0006F0E00E012E020E030E040E060E0CE0162
:101100000E94B40E00E010E0980140E061E0CE01E2
:101110000E94B40E00E010E0980140E062E0CE01D1
:101120000E94B40E00E010E0980140E063E0CE01C0
:101130000E94B40E00E010E0980140E064E0CE01AF
:101140000E94B40E00E010E0980140E065E0CE019E
:101150000E94B40E63ED72E082E995E00E94FC15F6
:1011600081E0DF91CF911F910F910895AF92BF92CF
:10117000CF92DF92EF92FF920F931F93CF93DF9363
:10118000CDB7DEB728970FB6F894DEBF0FBECDBF40
:101190006C015B01CE0101967C0188E0F7011192A0
:1011A0008A95E9F780E18D83F60180818F5F803138
:1011B00010F4808302C0F6011082F601008110E075
:1011C000970144E050E060E070E0C6010E948F07A4
:1011D000C501F3E4AF16FEE0BF0610F082E49EE026
:1011E000803629E0920710F480E699E0BC01685E41
:1011F000734080E090E00E949F1B9B01AC010E9425
:101200009E1A0E94731B8B0197014DE050E068E02D
:1012100070E0C6010E948F0708E020E040E550E042
:1012200060E070E0C6018D519F4F0E94780F2896B4
:101230000FB6F894DEBF0FBECDBFDF91CF911F91E7
:101240000F91FF90EF90DF90CF90BF90AF900895F7
:10125000AF92BF92CF92DF92EF92FF920F931F93C4
:10126000CF93DF931F92CDB7DEB719826C0124EFC5
:10127000C20ED11C8C015C0182E1A80EB11C780168
:1012800023EEE20EF11CC7010E94DA0F8330B9F49D
:10129000A601BE016F5F7F4FC7010E94A80FC70163
:1012A0000E94E20FF801E459FE4F7183608388E0E9
:1012B000C80ED11C0E5F1F4F0A151B0521F70F909A
:1012C000DF91CF911F910F91FF90EF90DF90CF9022
:1012D000BF90AF9008956F927F928F929F92AF923E
:1012E000BF92CF92DF92EF92FF920F931F93CF9313
:1012F000DF93EC016C018C010C501F4F4C0180E11D
:10130000880E911C8FE0782E66246394F601E459D0
:10131000FE4F808191819C0132502F30310508F0C1
:10132000B7C05C01BB247E01879DE00CF11C112439
:10133000F7016282980144E050E060E070E0CE0185
:101340000E94E6078B3051F4980148E050E068E0D5
:1013500070E0CE010E94E607F7018687980143E01E
:1013600050E068E170E0CE010E94E607029729F59F
:10137000980148E050E068E070E0CE010E94E60786
:101380007A9C70017B9CF00C1124EC0EFD1EBC01BC
:1013900080E090E00E949F1B20E030E040E05FE3AF
:1013A0000E94551C20E030E040E252E40E949D1A69
:1013B0000E946E1BF70173876287980144E050E03A
:1013C00064E070E0CE010E94E6077A9C70017B9C8D
:1013D000F00C1124EC0EFD1EF701848798014DE0FE
:1013E00050E06BE170E0CE010E94E607BC0180E0B6
:1013F00090E00E949F1B20E030E040E05FE30E940D
:10140000551C20E030E04AE754E40E949E1A0E94F6
:10141000731BF7017783668398014DE050E06BE220
:1014200070E0CE010E94E607BC0180E090E00E94DF
:101430009F1B20E030E040E05FE30E94551C20E06D
:1014400030E04AE754E40E949E1A0E94731BF701A1
:101450007583648398014DE050E06BE370E0CE014A
:101460000E94E607BC0180E090E00E949F1B20E004
:1014700030E040E05FE30E94551C20E030E04AE7A6
:1014800054E40E949E1A0E94731BF70171876087C3
:10149000F2E0CF0ED11C085F1F4FC814D90409F029
:1014A00035CFDF91CF911F910F91FF90EF90DF909B
:1014B000CF90BF90AF909F908F907F906F90089546
:1014C000CF93DF93EC018D519F4F0E94430E198201
:1014D0001882DF91CF9108950895CF93CFB7F894F4
:1014E00080918905811127C0E0EEF0E08491ECEC59
:1014F000F0E09491E82FF0E0EE0FFF1FEC50FF4F6B
:10150000A591B4918C91892321F461E08AE00E9435
:10151000661A61E08AE00E942D1A8CB580618CBD4C
:101520008CB580648CBD61E08DE00E942D1A61E075
:101530008BE00E942D1A809189058F5F8093890529
:10154000CFBFCF9108958EBD00000DB407FEFDCF33
:101550008EB50895CF93DF93EC0160E088890E94F7
:10156000661A80EC0E94A30A61E088890E94661ACC
:101570006AE070E080E090E0DF91CF910C94A119D7
:101580001F93CF93DF93EC01162F60E088890E94B0
:10159000661A83E00E94A30A812F0E94A30A80E0BA
:1015A0000E94A30A182F61E088890E94661A812F81
:1015B000DF91CF911F910895CF92DF92EF92FF922A
:1015C0000F931F93CF93DF9300D0CDB7DEB78C017D
:1015D000E62EF22E60E0FC01808949835A830E9446
:1015E000661A83E00E94A30A8E2D0E94A30A4981F5
:1015F000E42EC42E5A81D52E8C2D8E198F1538F4D9
:1016000080E00E94A30AF60181936F01F5CF61E0AB
:10161000F80180890F900F90DF91CF911F910F916A
:10162000FF90EF90DF90CF900C94661AEF92FF92AC
:101630001F93CF93DF931F92CDB7DEB77C01162F98
:1016400060E0FC01808949830E94661A82E00E9462
:10165000A30A812F0E94A30A4981842F0E94A30A12
:1016600061E0F70180890F90DF91CF911F91FF908A
:10167000EF900C94661ACF92DF92EF92FF920F9345
:101680001F93CF93DF9300D0CDB7DEB78C01E62E4A
:10169000F22E60E0FC01808949835A830E94661A19
:1016A00082E00E94A30A8E2D0E94A30A4981E42EA3
:1016B000C42E5A81D52E8C2D8E198F1530F4F6013B
:1016C00081916F010E94A30AF6CF61E0F801808941
:1016D0000F900F90DF91CF911F910F91FF90EF909E
:1016E000DF90CF900C94661AEF92FF921F93CF93E6
:1016F000DF9300D0CDB7DEB77C01162F60E0FC0190
:1017000080892A8349830E94661A85E00E94A30A81
:10171000812F0E94A30A4981842F0E94A30A2A8153
:10172000822F0E94A30A61E0F70180890F900F9039
:10173000DF91CF911F91FF90EF900C94661A1F9349
:10174000CF93DF93EC0160E088890E94661A80EAFB
:101750000E94A30A80E00E94A30A182F61E08889F2
:101760000E94661A812FDF91CF911F9108951F93D8
:10177000CF93DF93EC01162F262F40EE6FE00E94EF
:10178000740B6FE0CE010E94C00A982F907E81E01A
:10179000911301C080E0DF91CF911F9108950F93C5
:1017A0001F93CF93DF93EC01413019F0423079F170
:1017B00061C0462F50E0FA013197ED30F10508F095
:1017C00059C0E35CFF4F0C94F21C17E80FEF5EC0AA
:1017D00015E801EF5BC017E80FEF2CC017E80AEF20
:1017E00029C017E80FEF2DC017E80AEF2AC016E846
:1017F00000EF27C017E80AEF2BC015E801EF41E41E
:1018000046C016E800EF34C012E800ED31C0462FA4
:1018100050E0FA013197ED30F10560F5E65BFF4FDE
:101820000C94F21C17E00FEB2DC017E00FEB02C079
:1018300014E004EA47E02BC017E00FEB02C016E00B
:1018400004EB43E024C017E00FEB02C016E004EB0A
:1018500041E01DC015E001EBFBCF16E004EB08C032
:1018600015E001EB05C012E000E902C010E000E85D
:1018700040E00DC081E01AC017E80FEF4FE307C04A
:1018800017E80FEF4FE103C017E00FEB4FE06AE2FC
:10189000CE010E94160B402F69E2CE010E94160B6A
:1018A000412F68E2CE010E94160B80E0DF91CF91BC
:1018B0001F910F9108950F931F93CF93DF9300D043
:1018C00000D0CDB7DEB74130B1F40C831B83890162
:1018D00022273327502F5C71402F437078E0579FA9
:1018E000400D112448604A8355E0169507955A9596
:1018F000E1F709830DC0A80123E0569547952A9585
:10190000E1F749830295000F007E0A831C821B8247
:1019100024E0AE014F5F5F4F0E943B0B0F900F9092
:101920000F900F90DF91CF911F910F9108950F931A
:101930001F93CF93DF93EC0100E010E0980141E0AA
:1019400060E20E945B0C00E010E0980141E064E27C
:10195000CE010E945B0C00E010E0980141E060E0E5
:10196000CE010E945B0C00E010E0980140E064E0D2
:10197000CE010E945B0C00E010E0980141E068E0BD
:10198000CE010E945B0C00E010E0980140E060E1B5
:10199000CE010E945B0C00E010E0980141E064E1A0
:1019A000CE010E945B0C00E010E0980140E068E18D
:1019B000CE010E945B0C10E340E0612FCE010E943B
:1019C000160B60E1610F40E0CE010E94160B60E251
:1019D000610F40E0CE010E94160B1F5F1E3361F7BE
:1019E00040E060E6CE010E94160B40E060E7CE01C9
:1019F000DF91CF911F910F910C94160BEF92FF92F4
:101A00000F931F93CF93DF931F92CDB7DEB77C0167
:101A1000062F49830E94AA0A60E8C7010E94B70BFB
:101A2000182F4981811125C0602FC7010E94CF0B5B
:101A300081111FC0C7010E94970C43E06BE2C701F0
:101A40000E94160B24E044E660E6C7010E94740B76
:101A500020E040E660E7C7010E94740B60E0C70128
:101A60000F90DF91CF911F910F91FF90EF900C9409
:101A7000B70B812F0F90DF91CF911F910F91FF90A6
:101A8000EF900895EF92FF920F931F93CF93DF9300
:101A900000D000D0CDB7DEB77A018901FA011082FB
:101AA000F901108211821282138224E0AE014F5F8D
:101AB0005F4F0E94DC0A2A813981822F90E045E045
:101AC000959587954A95E1F7F8E03F9F800D911D28
:101AD0001124AA2797FDA095BA2FF801808391833E
:101AE000A283B38323FF25C062E0880F991FAA1F3A
:101AF000BB1F6A95D1F72370820F911DA11DB11DE7
:101B0000BA2FA92F982F88272B81820F911DA11DF5
:101B1000B11DBA2FA92F982F88272C81820F911DD4
:101B2000A11DB11D80839183A283B38381E0F7015E
:101B300080830F900F900F900F90DF91CF911F91A6
:101B40000F91FF90EF900895FF920F931F93CF9303
:101B5000DF93EC01F62EAC014A5F5F4F65E06F0D3D
:101B60002D810E943B0B8E85813019F48D8180641C
:101B70008D8364E06F0D4D81CE010E94160B0981AB
:101B80001A812B813C8148816F2DCE010E945B0C14
:101B9000DF91CF911F910F91FF9008950F931F93A5
:101BA000CF93DF93EC01162F9C012F5F3F4FAC01C9
:101BB0000E94420D6FEF610FCE010E94C00A082FF4
:101BC00064E0610FCE010E94C00A282F8D8303FFBD
:101BD00003C081E08E8701C01E862F702D83AE0169
:101BE0004A5F5F4F65E0610FCE01DF91CF911F919A
:101BF0000F910C94DC0A615028E048E00C94740BBF
:101C00009F92AF92BF92CF92DF92EF92FF920F938B
:101C10001F93CF93DF9300D01F92CDB7DEB76C0137
:101C20007B0180E3898380E48A8380E58B83FB01E9
:101C300010828E010F5F1F4F5E01F4E0AF0EB11CEA
:101C4000F80191908F01692DC6010E94C00A982F5A
:101C5000987083FD04C09394F701908204C00A1524
:101C60001B0571F792E0892F0F900F900F90DF9175
:101C7000CF911F910F91FF90EF90DF90CF90BF9089
:101C8000AF909F900895CF93DF93EC01862F688BE0
:101C900061E00E942D1A61E08889DF91CF910C9458
:101CA000661ACF93DF9300D000D0CDB7DEB74C8358
:101CB0006B8389839A830E946D0A4C816B81898131
:101CC0009A810E94FE0C91E0811101C090E0892F61
:101CD0000F900F900F900F90DF91CF9108958F92FA
:101CE0009F92BF92CF92DF92EF92FF920F931F933A
:101CF000CF93DF931F92CDB7DEB74C01B62E6801AC
:101D0000790160E849830E94B70B498181111FC0A6
:101D1000B11004C09701860160E206C081E0B812EC
:101D200006C09701860164E2C4010E945B0C60E07A
:101D3000C4010F90DF91CF911F910F91FF90EF9011
:101D4000DF90CF90BF909F908F900C94B70B0F9027
:101D5000DF91CF911F910F91FF90EF90DF90CF9087
:101D6000BF909F908F900895AF92BF92CF92DF92D5
:101D7000EF92FF920F931F93CF93DF9300D0CDB7D5
:101D8000DEB75C01562F6801790160E84A83598308
:101D90000E94B70B4A815981811136C05230B1F08F
:101DA00040F4552379F05130F9F49701860164E04D
:101DB00018C0543099F070F05530B1F49701860195
:101DC00068E10FC09701860160E00BC097018601B2
:101DD00068E007C09701860160E103C097018601B2
:101DE00064E1C5010E945B0C60E0C5010F900F909B
:101DF000DF91CF911F910F91FF90EF90DF90CF90E7
:101E0000BF90AF900C94B70B0F900F90DF91CF91D4
:101E10001F910F91FF90EF90DF90CF90BF90AF9008
:101E20000895EF92FF920F93CF93DF93FC012083ED
:101E300041835283638374830583D70180E090E0FC
:101E40002D91EF01C80FD91F2E830196883091057F
:101E5000B9F780E0DF91CF910F91FF90EF90089557
:101E6000EF92FF920F931F93CF93DF931F92CDB703
:101E7000DEB78C01E12CF12CBE016F5F7F4FC801F2
:101E80000E94000E9FEFE91AF90A823029F482E3DA
:101E9000E816F10489F723C092E3E916F104F9F09A
:101EA0006981C8010E94A40D6981C8010E94FB0DCF
:101EB000E12CF12C8FEFE81AF80A6981C8010E9421
:101EC000C00A83FF06C092E3E916F10499F787E0A0
:101ED00007C082E3E816F104D1F380E001C086E098
:101EE0000F90DF91CF911F910F91FF90EF90089588
:101EF000EF92FF920F93CF93DF93EC010E94110FAB
:101F0000CE01DF91CF910F91FF90EF900C94300FA5
:101F1000CF93DF93EC010E949F0B80FF07C061E627
:101F2000CE010E94CE0D20E041E008C081FF0CC030
:101F300061E7CE010E94CE0D20E042E06CE2CE01CE
:101F40000E94740B80E001C084E0DF91CF9108957E
:101F5000EF92FF920F931F93CF93DF9300D0CDB7F3
:101F6000DEB77C018B0149835A830E94880FD70119
:101F700015968C91F80180834981E42F5A81F52FC1
:101F800080E090E0D70115962C9130E082179307FE
:101F900044F4D701A80FB91F16962C9121930196EE
:101FA000F1CF0F900F90DF91CF911F910F91FF9084
:101FB000EF9008950E949F0B837011F083E00895C5
:101FC00084E00895FC016181728183819481089588
:101FD000FC0120812D3051F024F42950223030F5BD
:101FE00005C0203219F02F3219F008950196F0CF74
:101FF000FC0121812A3219F02F3279F008950296DE
:10200000FC012081222321F32A3229F421812F325D
:1020100011F40296DDCF0196F3CFFC013296CF0189
:1020200021912223A9F22A30D1F7D2CF0895CF935C
:10203000DF93EC0188819981DC01ED91FC910190A5
:10204000F081E02D09952A813B81280F391F3B83C0
:102050002A83DF91CF910895FF920F931F93CF931F
:10206000DF93EC018B016115710591F46AED72E06B
:10207000888199810E94DF152A813B81280F391FB1
:102080003B832A83DF91CF911F910F91FF90089599
:1020900062E2CE010E941710F80161918F01662360
:1020A00051F0E5EEF2E0F080FF2099F39181961770
:1020B00059F03296F8CF62E2CE01DF91CF911F91B5
:1020C0000F91FF900C9417106CE5CE010E94171031
:1020D0006F2DDFCFDB01109749F0ED91FC91119747
:1020E0000190F081E02DBC01CD01099480E090E0E9
:1020F00008950F931F93CF93DF931F92CDB7DEB751
:102100008C01FC018281938169830E94E80FFC01AC
:1021100020816981261308C001960E94E80FF8010A
:102120009383828381E001C080E00F90DF91CF91A3
:102130001F910F910895CF93DF93EC01AA81BB818A
:102140004C813D812C91273219F4C42FD32F15C017
:102150002232D9F3C42FD32FFD012AC03C3559F4C4
:10216000FD01329612963C91A9EEB2E06C9161119C
:1021700010C0332339F13993DF01AE01FD013196EF
:1021800011963C9111973323E9F03213E7CF319642
:1021900019C0631303C011963C91EBCF1296E6CFA2
:1021A000322F3F7D31543A3148F4299331962081C2
:1021B000AE0130ED320F3A30C0F3F2CF33ED320FD3
:1021C000323098F3DA011D92EC012C813D81FB83C2
:1021D000EA83BD83AC83C901DF91CF910895CF938A
:1021E000DF93EC01BC0184E090E00E946A10FC01E6
:1021F000009729F0D183C0831382128202C08EE837
:1022000095E0DF91CF910895CF93DF93EC01BC016E
:1022100084E090E00E946A10FC01009729F0D183CD
:10222000C0831382128202C08AE895E0DF91CF91C9
:102230000895EF92FF920F931F93CF93DF9300D0F7
:10224000CDB7DEB78B014F5F5F4FDC01ED91FC91A5
:102250000190F081E02DBA0149835A8309957C01F0
:1022600049815A81009719F0B8010E943920C701AD
:102270000F900F90DF91CF911F910F91FF90EF90F2
:1022800008950F931F93CF93DF938B01FC01C281BD
:10229000D381209759F0B8018A819B810E94422006
:1022A000892B39F00990D881C02DF3CF80E090E0E0
:1022B00001C0CE01DF91CF911F910F910895CF936F
:1022C000DF93FC01EB01208131812530310531F4B0
:1022D00082819381DF91CF910C94C011263031051A
:1022E00031F482819381DF91CF910C94E6112230F9
:1022F000310539F462817381CE01DF91CF910C9465
:102300002C102130310519F4628173811EC02430F4
:10231000310559F442815381648175812AE030E0AE
:10232000888199810E94671622C02330310591F47B
:1023300082819381A481B581892B8A2B8B2B19F003
:102340006BE071E002C06FED72E0888199810E94BC
:10235000DF150DC02730310584F0275030E0428171
:10236000538164817581888199810E94E5172A8152
:102370003B81280F391F3B832A83DF91CF9108953A
:102380000F931F93CF93DF93EC018B016BE5C80193
:102390000E9417100A80DB81C02D209779F0B801C8
:1023A000CE0102960E945F110990D881C02D20971E
:1023B00029F06CE2C8010E941710F1CF6DE5C80149
:1023C000DF91CF911F910F910C9417100F931F93D2
:1023D000CF93DF938C01EB016BE7CE010E941710C6
:1023E000F8010281138101151105D1F0F801628114
:1023F0007381CE010E942C106AE3CE010E94171057
:10240000BE01C80104960E945F11F801008111818C
:102410000115110529F06CE2CE010E941710E6CFDC
:102420006DE7CE01DF91CF911F910F910C941710A2
:10243000CF93DF93EC01688179818AE090E00E947C
:102440006A10009729F0FC01118210821582148213
:10245000EA81FB81309751F02081318121153105CE
:1024600011F0F901F9CF9183808302C09B838A83A5
:10247000DF91CF910895CF93DF93EC01688179814B
:1024800088E090E00E946A10009729F0FC01118218
:10249000108213821282EA81FB81309751F02081F1
:1024A00031812115310511F0F901F9CF9183808334
:1024B00002C09B838A83DF91CF910895DF92EF92D0
:1024C000FF920F931F93CF93DF9300D000D000D0E3
:1024D000CDB7DEB78C01FC01808191810E94EF10A5
:1024E0007C016BE5C8010E947910882379F16DE5C4
:1024F000C8010E947910811127C086E0D82E1A8267
:102500001982BE016F5F7F4FC8010E94B6128823F7
:10251000E9F0C7010E943B120097C1F0FE0131961D
:10252000DC0112968D2D01900D928A95E1F76DE5F3
:10253000C8010E947910811107C06CE2C8010E9495
:1025400079108111DCCF02C0C70102C08EE895E08E
:1025500026960FB6F894DEBF0FBECDBFDF91CF91A8
:102560001F910F91FF90EF90DF900895FF920F93CE
:102570001F93CF93DF93EC018B018E81882309F4A5
:1025800047C081508E838A819B810E94E80F9B8384
:102590008A83FC0180818B3519F08B3761F01CC078
:1025A000CE010E945E12FC0120813181232B59F162
:1025B00025E030E00AC0CE010E940F13FC0120810B
:1025C0003181232B01F126E030E0F80131832083B3
:1025D0009383828381E018C0873231F091E08232A8
:1025E00009F090E0F92E02C0FF24F394CE010E947E
:1025F0009B10009741F0FF2019F022E030E0E5CF7A
:1026000021E030E0E2CF80E09E819F5F9E8301C0A9
:1026100080E0DF91CF911F910F91FF900895BF92BD
:10262000CF92DF92EF92FF920F931F93CF93DF939E
:1026300000D000D000D0CDB7DEB78C01FC01808186
:1026400091810E9404116C016BE7C8010E9479100E
:10265000882309F444C06DE7C8010E9479108111F4
:102660003CC096E0B92EC8010E949B107C010097E7
:10267000B1F16AE3C8010E947910882381F11A82BE
:102680001982BE016F5F7F4FC8010E94B612882376
:1026900031F1B701C6010E944111009741F4C60112
:1026A0000E9418120097D9F0FC01F382E282FE0129
:1026B0003196DC0114968B2D01900D928A95E1F7ED
:1026C0006DE7C8010E947910811107C06CE2C80152
:1026D0000E9479108111C7CF02C0C60102C08AE8EA
:1026E00095E026960FB6F894DEBF0FBECDBFDF9102
:1026F000CF911F910F91FF90EF90DF90CF90BF90FF
:102700000895CF93DF93CDB7DEB727970FB6F89430
:10271000DEBF0FBECDBF9A8389836115710519F4A1
:1027200081E791E001C0CB019C838B837E836D8325
:102730004F83CE0101960E940F1327960FB6F8948F
:10274000DEBF0FBECDBFDF91CF91089510928F05F0
:1027500010928E05109291051092900510928B05A3
:1027600010928A0510928D0510928C050895FC0137
:10277000818D228D90E0805C9F4F821B91098F7329
:1027800099270895FC01918D828D981731F0828DE3
:10279000E80FF11D858D90E008958FEF9FEF08956C
:1027A000FC01918D828D981761F0828DDF01A80F59
:1027B000B11D5D968C91928D9F5F9F73928F90E07B
:1027C00008958FEF9FEF089584E595E1892B49F0F7
:1027D00081EC95E0892B29F00E94541581110C940D
:1027E000C1050895FC01848DDF01A80FB11DA35A16
:1027F000BF4F2C91848D90E001968F739927848F21
:10280000A689B7892C93A089B1898C9180648C9317
:10281000938D848D981306C00288F389E02D808102
:102820008F7D80830895CF93DF93EC01888D88237B
:10283000C9F0EA89FB89808185FD05C0A889B9892D
:102840008C9186FD0FC00FB607FCF5CF808185FF08
:10285000F2CFA889B9898C9185FFEDCFCE010E9476
:10286000F213E7CFDF91CF910895CF92DF92FF92DD
:102870000F931F93CF93DF931F92CDB7DEB76C01F9
:10288000DC015B969C915B975C968C915C979813AE
:1028900007C05096ED91FC915197808185FD32C023
:1028A000F601038D10E00F5F1F4F0F731127F02EFD
:1028B000F601848DF81211C00FB607FCF9CFD601CE
:1028C0005096ED91FC915197808185FFF1CFC60123
:1028D00069830E94F2136981EBCF838DE80FF11DAC
:1028E000E35AFF4F6083D6015B960C935B97529639
:1028F000ED91FC91539780818062808381E05896AE
:102900008C930DC0D6015696ED91FC91579760833C
:102910005096ED91FC91519780818064808381E095
:1029200090E00F90DF91CF911F910F91FF90DF907A
:10293000CF900895BF92CF92DF92EF92FF92CF9304
:10294000DF93EC016A017B01B22EE889F98982E00C
:102950008083411581EE580761057105A1F060E0A3
:1029600079E08DE390E0A70196010E94D01C2150F0
:1029700031094109510956954795379527952115F4
:1029800080E1380798F0E889F989108260E874E8F6
:102990008EE190E0A70196010E94D01C21503109E0
:1029A000410951095695479537952795EC85FD8541
:1029B0003083EE85FF852083188EEC89FD89B082F7
:1029C000EA89FB89808180618083EA89FB89808133
:1029D00088608083EA89FB89808180688083EA89B6
:1029E000FB8980818F7D8083DF91CF91FF90EF9075
:1029F000DF90CF90BF9008951F920F920FB60F9265
:102A000011242F938F939F93EF93FF93E091A2054F
:102A1000F091A3058081E091A805F091A90582FDC0
:102A200012C090818091AB058F5F8F732091AC05B0
:102A3000821751F0E091AB05F0E0EE56FA4F958F1A
:102A40008093AB0501C08081FF91EF919F918F91A1
:102A50002F910F900FBE0F901F9018951F920F92FD
:102A60000FB60F9211242F933F934F935F936F9361
:102A70007F938F939F93AF93BF93EF93FF9382E9DD
:102A800095E00E94F213FF91EF91BF91AF919F915A
:102A90008F917F916F915F914F913F912F910F9007
:102AA0000FBE0F901F90189582E995E00E94B71312
:102AB00021E0892B09F420E0822F089510929505DA
:102AC0001092940588EE93E0A0E0B0E08093960524
:102AD00090939705A0939805B093990588EF92E09D
:102AE000909393058093920585EC90E090939F05D9
:102AF00080939E0584EC90E09093A1058093A005BF
:102B000080EC90E09093A3058093A20581EC90E087
:102B10009093A5058093A40582EC90E09093A7057F
:102B20008093A60586EC90E09093A9058093A80574
:102B30001092AB051092AC051092AD051092AE0547
:102B40000895CF92DF92EF92FF920F931F93CF934E
:102B5000DF936C017A01EB01E60EF71E00E010E056
:102B6000CE15DF0561F06991D601ED91FC910190E0
:102B7000F081E02DC6010995080F191FF1CFC8019A
:102B8000DF91CF911F910F91FF90EF90DF90CF9049
:102B900008956115710581F0DB010D900020E9F7C2
:102BA000AD0141505109461B570BDC01ED91FC91E1
:102BB0000280F381E02D099480E090E008950C9468
:102BC000C915DC01ED91FC910190F081E02D099493
:102BD0000F931F93CF93DF93EC016DE00E94E115FB
:102BE0008C016AE0CE010E94E115800F911FDF91F8
:102BF000CF911F910F9108950F931F93CF93DF9360
:102C0000EC010E94C9158C01CE010E94E815800FCD
:102C1000911FDF91CF911F910F9108958F929F92F5
:102C2000AF92BF92CF92DF92EF92FF920F931F93DA
:102C3000CF93DF93CDB7DEB7A1970FB6F894DEBF81
:102C40000FBECDBF7C01C42EE52FCB01D22E19A221
:102C500021E02D1510F02AE0D22E8E010F5D1F4FBE
:102C60008D2C912CA12CB12C6C2D7E2FA5019401C3
:102C70000E94D01C8C2DD29E801911240150110964
:102C80008A3014F4805D01C0895CF80180832115CD
:102C900031054105510521F0C22EE32FCA01E4CFD1
:102CA000B801C7010E94C915A1960FB6F894DEBFFE
:102CB0000FBECDBFDF91CF911F910F91FF90EF908D
:102CC000DF90CF90BF90AF909F908F900895CF925C
:102CD000DF92EF92FF920F931F93CF93DF93EC015C
:102CE0006A017B012115310579F4E881F9810190B0
:102CF000F081E02D642FDF91CF911F910F91FF9014
:102D0000EF90DF90CF9009942A303105E9F477FFF6
:102D10001AC06DE20E94E1158C0144275527BA01C3
:102D20004C195D096E097F092AE0CE010E940E163A
:102D3000800F911FDF91CF911F910F91FF90EF9026
:102D4000DF90CF9008952AE0B701A601CE01DF9170
:102D5000CF911F910F91FF90EF90DF90CF900C9447
:102D60000E169A01AB01662757FD6095762F0C94DD
:102D700067162115310541F4DC01ED91FC910190BC
:102D8000F081E02D642F09940C940E169A01462FC1
:102D900050E060E070E00C94B9160F931F93CF934E
:102DA000DF93EC019A01462F50E060E070E00E9452
:102DB000B9168C01CE010E94E815800F911FDF919A
:102DC000CF911F910F9108950F931F93CF93DF938E
:102DD000EC019A01AB0160E070E00E94B9168C0131
:102DE000CE010E94E815800F911FDF91CF911F91B6
:102DF0000F9108954F925F926F927F928F929F9260
:102E0000AF92BF92CF92DF92EF92FF920F931F93F8
:102E1000CF93DF93EC016A017B01B22E9A01AB01E3
:102E2000C701B6010E94B81C882319F064E073E062
:102E300027C026013701E89477F82FEF3FEF4FE7DF
:102E40005FE7C301B2010E94B81C81110DC02FEFD2
:102E50003FEF4FE75FE7C301B2010E94021B181664
:102E60001CF468E073E00CC02FEF3FEF4FE75FE426
:102E7000C701B6010E94511C1816ACF46CE073E057
:102E8000CE01DF91CF911F910F91FF90EF90DF90D6
:102E9000CF90BF90AF909F908F907F906F905F90FA
:102EA0004F900C94C9152FEF3FEF4FE75FECC70130
:102EB000B6010E94021B87FDE1CF20E030E0A901AE
:102EC000C701B6010E94021B87FF0AC06DE2CE0156
:102ED0000E94E1158C01F7FAF094F7F8F09402C023
:102EE00000E010E0A12C60E070E080E09FE3AB1414
:102EF00041F020E030E040E251E40E94061BA39440
:102F0000F6CF9B01AC01C701B6010E949E1A6B016E
:102F10007C010E94731B2B013C010E949F1B9B01A3
:102F2000AC01C701B6010E949D1A6B017C012AE029
:102F3000B301A201CE010E940E16080F191FBB207B
:102F400039F060E173E0CE010E94C915080F191F26
:102F50007B2C772041F120E030E040E251E4C701D2
:102F6000B6010E94551C6B017C010E946E1B4B0137
:102F7000AA2497FCA094BA2C2AE030E0B501A40161
:102F8000CE010E946716080F191FC501B4010E94E7
:102F9000A11B9B01AC01C701B6010E949D1A6B01E8
:102FA0007C017A94D6CFC801DF91CF911F910F9108
:102FB000FF90EF90DF90CF90BF90AF909F908F9059
:102FC0007F906F905F904F9008950C94FA16823026
:102FD000E8F4E82FF0E0EE0FFF1FE15DF94F718399
:102FE0006083813041F0809169008C7F842B8093D5
:102FF0006900E89A089580916900440F551F440FB5
:10300000551F837F842B80936900E99A08951F924E
:103010000F920FB60F9211242F933F934F935F930C
:103020006F937F938F939F93AF93BF93EF93FF9390
:1030300080912F0690913006892B29F0E0912F0680
:10304000F09130060995FF91EF91BF91AF919F915B
:103050008F917F916F915F914F913F912F910F9041
:103060000FBE0F901F9018951F920F920FB60F92E0
:1030700011242F933F934F935F936F937F938F937D
:103080009F93AF93BF93EF93FF93809131069091FD
:103090003206892B29F0E0913106F091320609952C
:1030A000FF91EF91BF91AF919F918F917F916F9120
:1030B0005F914F913F912F910F900FBE0F901F90F6
:1030C0001895FC01808191810C94A41DCF93DF930E
:1030D000EC0188819981009711F00E94A41D19824A
:1030E00018821D821C821B821A82DF91CF91089563
:1030F0000F931F93CF93DF93EC018B016F5F7F4F93
:10310000888199810E94331E009731F099838883CA
:103110001B830A8381E001C080E0DF91CF911F9182
:103120000F910895CF93DF93EC0188819981892BCA
:1031300029F08A819B818617970760F4CE010E944F
:103140007818882341F08C819D81892B19F4E881BE
:10315000F981108281E0DF91CF910895EF92FF9283
:103160000F931F93CF93DF93EC017B018A01BA0188
:103170000E949218811104C0CE010E94661807C0F7
:103180001D830C83B701888199810E944B20CE0159
:10319000DF91CF911F910F91FF90EF900895FC0167
:1031A00011821082138212821582148261157105B8
:1031B00059F0FB0101900020E9F7AF01415051099E
:1031C000461B570B0C94AE180895EF92FF920F9385
:1031D0001F93CF93DF93EC017B010C811D8161155F
:1031E000710511F480E016C04115510591F0040FEE
:1031F000151FB8010E9492188823A1F328813981F4
:103200008C819D81B701820F931F0E944B201D83EB
:103210000C8381E0DF91CF911F910F91FF90EF9090
:103220000895CF93DF9300D0CDB7DEB769831A82BC
:1032300041E050E0BE016F5F7F4F0E94E5180F90A4
:103240000F90DF91CF91089508950E94C9190E94AF
:1032500024190E944301C4EED3E10E946705209720
:10326000E1F30E94E413F9CF1F920F920FB60F9271
:1032700011242F933F938F939F93AF93BF9380918C
:10328000340690913506A0913606B09137063091FC
:10329000330623E0230F2D3720F40196A11DB11D25
:1032A00005C026E8230F0296A11DB11D2093330609
:1032B0008093340690933506A0933606B093370674
:1032C0008091380690913906A0913A06B0913B065C
:1032D0000196A11DB11D8093380690933906A093E5
:1032E0003A06B0933B06BF91AF919F918F913F916A
:1032F0002F910F900FBE0F901F9018953FB7F89425
:103300008091380690913906A0913A06B0913B061B
:1033100026B5A89B05C02F3F19F00196A11DB11D30
:103320003FBF6627782F892F9A2F620F711D811D4D
:10333000911D42E0660F771F881F991F4A95D1F7AC
:103340000895CF92DF92EF92FF92CF93DF936B01BC
:103350007C010E947E19EB01C114D104E104F10447
:1033600089F00E949C1A0E947E196C1B7D0B683E9E
:10337000734090F381E0C81AD108E108F108C85100
:10338000DC4FEACFDF91CF91FF90EF90DF90CF90AD
:103390000895789484B5826084BD84B5816084BDCD
:1033A00085B5826085BD85B5816085BDEEE6F0E0BE
:1033B000808181608083E1E8F0E01082808182601A
:1033C0008083808181608083E0E8F0E0808181609B
:1033D0008083E1EBF0E0808184608083E0EBF0E0CB
:1033E000808181608083EAE7F0E08081846080836F
:1033F0008081826080838081816080838081806819
:1034000080831092C1000895833081F028F48130C8
:1034100099F08230A1F008958730A9F08830B9F092
:103420008430D1F4809180008F7D03C08091800032
:103430008F7780938000089584B58F7702C084B51C
:103440008F7D84BD08958091B0008F7703C08091F7
:10345000B0008F7D8093B0000895CF93DF9390E00C
:10346000FC01EE53FF4F2491FC01EA52FF4F84917F
:10347000882349F190E0880F991FFC01EC50FF4F21
:10348000A591B49186519F4FFC01C591D4919FB7EE
:10349000611108C0F8948C91209582238C938881C7
:1034A00082230AC0623051F4F8948C91322F309507
:1034B00083238C938881822B888304C0F8948C9119
:1034C000822B8C939FBFDF91CF9108950F931F9311
:1034D000CF93DF931F92CDB7DEB7282F30E0F901ED
:1034E000E255FF4F8491F901EE53FF4F1491F9011A
:1034F000EA52FF4F04910023C9F0882321F0698329
:103500000E94041A6981E02FF0E0EE0FFF1FE651E0
:10351000FF4FA591B4919FB7F8948C91611103C0AE
:103520001095812301C0812B8C939FBF0F90DF9159
:10353000CF911F910F91089508955058BB27AA2746
:103540000ED075C166D130F06BD120F031F49F3FC1
:1035500011F41EF45BC10EF4E095E7FB51C1E92FB5
:1035600077D180F3BA17620773078407950718F0BD
:1035700071F49EF58FC10EF4E0950B2EBA2FA02D9D
:103580000B01B90190010C01CA01A0011124FF2710
:10359000591B99F0593F50F4503E68F11A16F0400B
:1035A000A22F232F342F4427585FF3CF469537950A
:1035B0002795A795F0405395C9F77EF41F16BA0BCF
:1035C000620B730B840BBAF09150A1F0FF0FBB1F7D
:1035D000661F771F881FC2F70EC0BA0F621F731FC6
:1035E000841F48F4879577956795B795F7959E3F23
:1035F00008F0B3CF9395880F08F09927EE0F9795B1
:1036000087950895D9D008F481E008950CD00FC1B2
:1036100007D140F0FED030F021F45F3F19F0F0C048
:10362000511139C1F3C014D198F39923C9F355232B
:10363000B1F3951B550BBB27AA27621773078407A5
:1036400038F09F5F5F4F220F331F441FAA1FA9F35B
:1036500033D00E2E3AF0E0E830D091505040E6954D
:10366000001CCAF729D0FE2F27D0660F771F881FAE
:10367000BB1F261737074807AB07B0E809F0BB0B9D
:10368000802DBF01FF2793585F4F2AF09E3F5105C1
:1036900068F0B6C000C15F3FECF3983EDCF386955E
:1036A00077956795B795F7959F5FC9F7880F911D37
:1036B0009695879597F90895E1E0660F771F881F23
:1036C000BB1F621773078407BA0720F0621B730BD6
:1036D000840BBA0BEE1F88F7E095089504D0689428
:1036E000B111D9C00895BCD088F09F5790F0B92F80
:1036F0009927B751A0F0D1F0660F771F881F991F47
:103700001AF0BA95C9F712C0B13081F0C3D0B1E058
:103710000895C0C0672F782F8827B85F39F0B93F68
:10372000CCF3869577956795B395D9F73EF4909548
:103730008095709561957F4F8F4F9F4F0895E894C6
:1037400009C097FB3EF490958095709561957F4FE9
:103750008F4F9F4F9923A9F0F92F96E9BB27939597
:10376000F695879577956795B795F111F8CFFAF4A7
:10377000BB0F11F460FF1BC06F5F7F4F8F4F9F4FD8
:1037800016C0882311F096E911C0772321F09EE836
:10379000872F762F05C0662371F096E8862F70E09C
:1037A00060E02AF09A95660F771F881FDAF7880F76
:1037B0009695879597F90895990F0008550FAA0BCC
:1037C000E0E8FEEF16161706E807F907C0F0121634
:1037D0001306E407F50798F0621B730B840B950B37
:1037E00039F40A2661F0232B242B252B21F408958C
:1037F0000A2609F4A140A6958FEF811D811D089529
:1038000097F99F6780E870E060E008959FEF80EC93
:10381000089500240A941616170618060906089536
:1038200000240A9412161306140605060895092E9C
:103830000394000C11F4882352F0BB0F40F4BF2B0B
:1038400011F460FF04C06F5F7F4F8F4F9F4F08954B
:1038500057FD9058440F551F59F05F3F71F0479541
:10386000880F97FB991F61F09F3F79F08795089526
:10387000121613061406551FF2CF4695F1DF08C045
:10388000161617061806991FF1CF86957105610562
:1038900008940895E894BB2766277727CB0197F90A
:1038A00008958ADF08F48FEF08950BD0C0CFB1DF01
:1038B00028F0B6DF18F0952309F0A2CFA7CF112486
:1038C000EACFC6DFA0F3959FD1F3950F50E0551FC7
:1038D000629FF001729FBB27F00DB11D639FAA2765
:1038E000F00DB11DAA1F649F6627B00DA11D661FB4
:1038F000829F2227B00DA11D621F739FB00DA11DD5
:10390000621F839FA00D611D221F749F3327A00D8E
:10391000611D231F849F600D211D822F762F6A2F2A
:1039200011249F5750408AF0E1F088234AF0EE0FAF
:10393000FF1FBB1F661F771F881F91505040A9F7BC
:103940009E3F510570F05CCFA6CF5F3FECF3983EF1
:10395000DCF3869577956795B795F795E7959F5F23
:10396000C1F7FE2B880F911D9695879597F90895BD
:1039700023DF880B990B089597FB072E16F400940C
:1039800007D077FD09D00E94F81C07FC05D03EF453
:10399000909581959F4F0895709561957F4F0895FB
:1039A000A1E21A2EAA1BBB1BFD010DC0AA1FBB1F43
:1039B000EE1FFF1FA217B307E407F50720F0A21BB5
:1039C000B30BE40BF50B661F771F881F991F1A9422
:1039D00069F760957095809590959B01AC01BD014C
:1039E000CF010895EE0FFF1F0590F491E02D09948B
:1039F000AA1BBB1B51E107C0AA1FBB1FA617B70715
:103A000010F0A61BB70B881F991F5A95A9F7809530
:103A10009095BC01CD010895CF93DF93823091053D
:103A200010F482E090E0E0914006F091410620E041
:103A300030E0A0E0B0E0309739F140815181481783
:103A40005907B8F04817590771F48281938110978C
:103A500029F013969C938E9312972CC09093410655
:103A60008093400627C02115310531F042175307D6
:103A700018F0A901DB0101C0EF019A01BD01DF01CE
:103A80000280F381E02DD7CF21153105F9F0281BF5
:103A9000390B2430310580F48A819B8161157105D1
:103AA00021F0FB019383828304C0909341068093AD
:103AB0004006FE01329644C0FE01E20FF31F8193DF
:103AC000919322503109398328833AC020913E06D0
:103AD00030913F06232B41F42091020130910301E4
:103AE00030933F0620933E06209100013091010162
:103AF0002115310541F42DB73EB740910401509195
:103B00000501241B350BE0913E06F0913F06E217BC
:103B1000F307A0F42E1B3F0B2817390778F0AC01F0
:103B20004E5F5F4F2417350748F04E0F5F1F5093CD
:103B30003F0640933E068193919302C0E0E0F0E09F
:103B4000CF01DF91CF910895CF93DF93009709F4D0
:103B500087C0FC01329713821282C0914006D09137
:103B60004106209781F420813181280F391F8091EF
:103B70003E0690913F068217930779F5F0933F0632
:103B8000E0933E066DC0DE0120E030E0AE17BF07D7
:103B900050F412964D915C9113979D01411551057A
:103BA00009F1DA01F3CFB383A28340815181840FFD
:103BB000951F8A179B0771F48D919C911197840F23
:103BC000951F02969183808312968D919C911397F5
:103BD000938382832115310529F4F0934106E09304
:103BE00040063EC0D9011396FC93EE9312974D9177
:103BF0005D91A40FB51FEA17FB0779F480819181CD
:103C0000840F951F0296D90111969C938E93828101
:103C1000938113969C938E931297E0E0F0E08A8153
:103C20009B81009719F0FE01EC01F9CFCE010296BD
:103C300028813981820F931F20913E0630913F06E3
:103C40002817390769F4309729F410924106109229
:103C5000400602C013821282D0933F06C0933E06F4
:103C6000DF91CF910895A0E0B0E0E9E3FEE10C948C
:103C7000BD20EC01CB01209719F40E940C1DB8C0A7
:103C8000FE01E60FF71F9E0122503109E217F307EC
:103C900008F4ACC0D9010D911C91119706171707B4
:103CA000B8F00530110508F49FC0A801445051092F
:103CB0004617570708F498C002501109061B170B46
:103CC000019311936D937C93CF010E94A41D8CC02E
:103CD0005B01A01AB10A4E01800E911EA091400610
:103CE000B0914106612C712C60E070E0109709F4EE
:103CF00049C0A815B905C9F5ED90FC901197670169
:103D000042E0C40ED11CCA14DB0478F147018A18C2
:103D10009B08640142E0C40ED11C1296BC9012971D
:103D20001396AC91B5E0CB16D10440F0B282A383D8
:103D300091828082D9018D939C9309C00E5F1F4FA1
:103D40000E0D1F1DF90111830083EB2DFA2F611554
:103D5000710531F0DB011396FC93EE93129744C08A
:103D6000F0934106E09340063FC06D917C9111971E
:103D70006616770608F43B01BD0112960D90BC91C2
:103D8000A02DB4CF60913E0670913F06681579056D
:103D9000E9F468167906D0F44091000150910101D0
:103DA0004115510541F44DB75EB760910401709122
:103DB0000501461B570BE417F507C0F4F0933F06C7
:103DC000E0933E06F901918380830EC00E940C1D92
:103DD0007C01009759F0A801BE010E943920CE0154
:103DE0000E94A41DC70104C0CE0102C080E090E083
:103DF000CDB7DEB7EEE00C94D9202F923F925F92C0
:103E00006F927F928F929F92AF92BF92CF92DF92EA
:103E1000EF92FF920F931F93CF93DF938B01EA01F1
:103E20006115710521F0DB018C9311969C9320970D
:103E300039F09E01225031092332310508F0FBC0D0
:103E40007C016701BFEFCB1ADB0A5601F7016080E6
:103E5000862D90E00E943120892B11F07601F1CF60
:103E6000FDE26F120AC0570182E0A80EB11CD70113
:103E700011966C90772473940BC0BBE26B1207C051
:103E80005701E2E0AE0EB11CD70111966C90712C77
:103E9000CE018F7E892B89F4B0E36B1222C0F5012D
:103EA00080818F7D883541F56180F2E0AF0EB11CD5
:103EB000872D8260782EC0E1D0E0C830D105F1F0C6
:103EC0004CF4C230D10511F5C12CD12CE12CB0E459
:103ED000FB2E2FC0CA30D10531F0C031D10521F100
:103EE00015C0209751F7CAE0D0E0ACECCA2EDC2C0C
:103EF000EC2CACE0FA2E1DC02097F9F6C8E0D0E01B
:103F0000C12CD12CE12CF0E1FF2E13C060E070E059
:103F100080E090E89E01442737FD4095542F0E9491
:103F2000D01C69017A0105C0C12CD12CE12CE8E03C
:103F3000FE2EF50160E020E030E0A9014E01AA2448
:103F400097FCA094BA2C1F0170ED572E560CA9E0D7
:103F5000A51570F48FEB860D8A3118F499EC592E63
:103F600006C08FE9860D8A3130F589EA582E560C45
:103F7000852D90E08C179D07F4F467FD18C0C216DC
:103F8000D306E406F50680F0C501B4010E949E2028
:103F90009B01AC01250D311D411D511D2130310505
:103FA0004105B0E85B0710F06FEF01C061E03196AA
:103FB000D1016C90C8CF872D81700115110571F06A
:103FC000662329F03197D801ED93FC9307C071FE69
:103FD00019C03297D801ED93FC9314C067FF12C04B
:103FE000882329F020E030E040E050E804C02FEFC3
:103FF0003FEF4FEF5FE782E290E090933D068093C2
:104000003C0616C0882341F0509540953095219587
:104010003F4F4F4F5F4F0CC057FF0AC082E290E006
:1040200090933D0680933C062FEF3FEF4FEF5FE705
:10403000B901CA0104C060E070E080E090E0DF9167
:10404000CF911F910F91FF90EF90DF90CF90BF9095
:10405000AF909F908F907F906F905F903F902F9048
:104060000895911146C0803219F089508550D0F7DB
:104070000895FB01DC0102C001900D9241505040B7
:10408000D8F70895FB01DC018D9101908019011092
:10409000D9F3990B0895FB01DC0101900D920020EA
:1040A000E1F70895F999FECF92BD81BDF89A99275D
:1040B00080B50895A8E1B0E042E050E00C947E2085
:1040C0000196272F0E948D200C948C20262FF99981
:1040D000FECF1FBA92BD81BD20BD0FB6F894FA9AEB
:1040E000F99A0FBE019608950E946620272F0C941E
:1040F0006720992788270895DC01CB01FC01F999F5
:10410000FECF06C0F2BDE1BDF89A319600B40D9223
:1041100041505040B8F70895262FF999FECF92BD2F
:1041200081BDF89A019700B4021639F01FBA20BD7C
:104130000FB6F894FA9AF99A0FBE0895DB018F939F
:104140009F930E94AE20BF91AF91A29F800D911DC1
:10415000A39F900DB29F900D112408950E94F0200E
:10416000A59F900DB49F900DA49F800D911D1124CB
:1041700008952F923F924F925F926F927F928F920B
:104180009F92AF92BF92CF92DF92EF92FF920F93E6
:104190001F93CF93DF93CDB7DEB7CA1BDB0B0FB6F0
:1041A000F894DEBF0FBECDBF09942A8839884888AD
:1041B0005F846E847D848C849B84AA84B984C88443
:1041C000DF80EE80FD800C811B81AA81B981CE0F3A
:1041D000D11D0FB6F894DEBF0FBECDBFED0108951F
:1041E000A29FB001B39FC001A39F700D811D112438
:1041F000911DB29F700D811D1124911D089511E034
:10420000C4E0D1E004C0FE010E94F41C2296C63036
:08421000D107C9F7F894FFCFB4
:10421800000042068000100E100E087472756500CA
:104228006D7949440041756620676568747321009B
:104238004D65696E652049443A20004B6F6E66698A
:104248006775726174696F6E3A004D6178696D6166
:104258006C65205A656C6C7370616E6E756E67283C
:104268006D56293A20004D696E696D616C65205A5A
:10427800656C6C7370616E6E756E67286D56293A41
:1042880020004D6F64756C20003A20307800202D96
:104298003E2000204D6F64756C6520676566756EFD
:1042A80064656E2E20536F6C6C3A2000506F7274E8
:1042B80073610041766C4D696E43560041766C4DD2
:1042C800696E43564D6F640041766C4D6178435674
:1042D8000041766C4D617843564D6F640042616CC5
:1042E800416374697600566F6C74616765006D6F21
:1042F80064756C657300343856494400434D440076
:10430800536574206E657720566F6C7461676520FD
:10431800626F7264657273006D61784356006D69EF
:104328006E4356006E6577206D617843563A2000DB
:104338006E6577206D696E43563A20004173736944
:10434800676E696E67204D6F64756C657320746F56
:10435800206120506F727450696E004D61696E74EF
:10436800616E616E6365204F4E004D61696E7461C8
:104378006E616E6365204F46460053657474696EBE
:1043880067206E65772049443A20006E6577494476
:104398000053657474696E67206E6577206E756D5D
:1043A800626572206F6620696E7374616C6C6564F7
:1043B800204D6F64756C65733A2000696E73746D77
:1043C8006F64004F4B2C2072657374617274696E50
:1043D800670000000000AD0043414E204E4F5420BE
:1043E8004F4B0043414E204F4B006E756C6C00667E
:1043F800616C73650022225C5C6208660C6E0A724E
:104408000D740900000000003514A115B713D0136E
:10441800C21313146E616E00696E66006F766600D3
:024428002E0064
:00000001FF
